{
  "_format": "hh-sol-artifact-1",
  "contractName": "ERC20Guild",
  "sourceName": "contracts/erc20guild/ERC20Guild.sol",
  "abi": [
    {
      "anonymous": false,
      "inputs": [
        {
          "indexed": true,
          "internalType": "bytes32",
          "name": "proposalId",
          "type": "bytes32"
        }
      ],
      "name": "ProposalCreated",
      "type": "event"
    },
    {
      "anonymous": false,
      "inputs": [
        {
          "indexed": true,
          "internalType": "bytes32",
          "name": "proposalId",
          "type": "bytes32"
        }
      ],
      "name": "ProposalEnded",
      "type": "event"
    },
    {
      "anonymous": false,
      "inputs": [
        {
          "indexed": true,
          "internalType": "bytes32",
          "name": "proposalId",
          "type": "bytes32"
        }
      ],
      "name": "ProposalExecuted",
      "type": "event"
    },
    {
      "anonymous": false,
      "inputs": [
        {
          "indexed": true,
          "internalType": "bytes32",
          "name": "proposalId",
          "type": "bytes32"
        }
      ],
      "name": "ProposalRejected",
      "type": "event"
    },
    {
      "anonymous": false,
      "inputs": [
        {
          "indexed": true,
          "internalType": "address",
          "name": "to",
          "type": "address"
        },
        {
          "indexed": false,
          "internalType": "bytes4",
          "name": "functionSignature",
          "type": "bytes4"
        },
        {
          "indexed": false,
          "internalType": "bool",
          "name": "allowance",
          "type": "bool"
        }
      ],
      "name": "SetAllowance",
      "type": "event"
    },
    {
      "anonymous": false,
      "inputs": [
        {
          "indexed": false,
          "internalType": "address",
          "name": "voter",
          "type": "address"
        },
        {
          "indexed": false,
          "internalType": "uint256",
          "name": "value",
          "type": "uint256"
        }
      ],
      "name": "TokensLocked",
      "type": "event"
    },
    {
      "anonymous": false,
      "inputs": [
        {
          "indexed": false,
          "internalType": "address",
          "name": "voter",
          "type": "address"
        },
        {
          "indexed": false,
          "internalType": "uint256",
          "name": "value",
          "type": "uint256"
        }
      ],
      "name": "TokensReleased",
      "type": "event"
    },
    {
      "anonymous": false,
      "inputs": [
        {
          "indexed": true,
          "internalType": "bytes32",
          "name": "proposalId",
          "type": "bytes32"
        },
        {
          "indexed": false,
          "internalType": "address",
          "name": "voter",
          "type": "address"
        },
        {
          "indexed": false,
          "internalType": "uint256",
          "name": "amount",
          "type": "uint256"
        }
      ],
      "name": "VoteAdded",
      "type": "event"
    },
    {
      "anonymous": false,
      "inputs": [
        {
          "indexed": true,
          "internalType": "bytes32",
          "name": "proposalId",
          "type": "bytes32"
        },
        {
          "indexed": false,
          "internalType": "address",
          "name": "voter",
          "type": "address"
        },
        {
          "indexed": false,
          "internalType": "uint256",
          "name": "amount",
          "type": "uint256"
        }
      ],
      "name": "VoteRemoved",
      "type": "event"
    },
    {
      "stateMutability": "payable",
      "type": "fallback"
    },
    {
      "inputs": [
        {
          "internalType": "address",
          "name": "",
          "type": "address"
        },
        {
          "internalType": "bytes4",
          "name": "",
          "type": "bytes4"
        }
      ],
      "name": "callPermissions",
      "outputs": [
        {
          "internalType": "bool",
          "name": "",
          "type": "bool"
        }
      ],
      "stateMutability": "view",
      "type": "function"
    },
    {
      "inputs": [
        {
          "internalType": "address[]",
          "name": "to",
          "type": "address[]"
        },
        {
          "internalType": "bytes[]",
          "name": "data",
          "type": "bytes[]"
        },
        {
          "internalType": "uint256[]",
          "name": "value",
          "type": "uint256[]"
        },
        {
          "internalType": "string",
          "name": "description",
          "type": "string"
        },
        {
          "internalType": "bytes",
          "name": "contentHash",
          "type": "bytes"
        }
      ],
      "name": "createProposal",
      "outputs": [
        {
          "internalType": "bytes32",
          "name": "",
          "type": "bytes32"
        }
      ],
      "stateMutability": "nonpayable",
      "type": "function"
    },
    {
      "inputs": [
        {
          "internalType": "address[]",
          "name": "to",
          "type": "address[]"
        },
        {
          "internalType": "bytes[]",
          "name": "data",
          "type": "bytes[]"
        },
        {
          "internalType": "uint256[]",
          "name": "value",
          "type": "uint256[]"
        },
        {
          "internalType": "string[]",
          "name": "description",
          "type": "string[]"
        },
        {
          "internalType": "bytes[]",
          "name": "contentHash",
          "type": "bytes[]"
        }
      ],
      "name": "createProposals",
      "outputs": [
        {
          "internalType": "bytes32[]",
          "name": "",
          "type": "bytes32[]"
        }
      ],
      "stateMutability": "nonpayable",
      "type": "function"
    },
    {
      "inputs": [
        {
          "internalType": "bytes32",
          "name": "proposalId",
          "type": "bytes32"
        }
      ],
      "name": "endProposal",
      "outputs": [],
      "stateMutability": "nonpayable",
      "type": "function"
    },
    {
      "inputs": [
        {
          "internalType": "address",
          "name": "to",
          "type": "address"
        },
        {
          "internalType": "bytes4",
          "name": "functionSignature",
          "type": "bytes4"
        }
      ],
      "name": "getCallPermission",
      "outputs": [
        {
          "internalType": "bool",
          "name": "",
          "type": "bool"
        }
      ],
      "stateMutability": "view",
      "type": "function"
    },
    {
      "inputs": [
        {
          "internalType": "bytes",
          "name": "data",
          "type": "bytes"
        }
      ],
      "name": "getFuncSignature",
      "outputs": [
        {
          "internalType": "bytes4",
          "name": "",
          "type": "bytes4"
        }
      ],
      "stateMutability": "view",
      "type": "function"
    },
    {
      "inputs": [
        {
          "internalType": "bytes32",
          "name": "proposalId",
          "type": "bytes32"
        }
      ],
      "name": "getProposal",
      "outputs": [
        {
          "internalType": "address",
          "name": "creator",
          "type": "address"
        },
        {
          "internalType": "uint256",
          "name": "startTime",
          "type": "uint256"
        },
        {
          "internalType": "uint256",
          "name": "endTime",
          "type": "uint256"
        },
        {
          "internalType": "address[]",
          "name": "to",
          "type": "address[]"
        },
        {
          "internalType": "bytes[]",
          "name": "data",
          "type": "bytes[]"
        },
        {
          "internalType": "uint256[]",
          "name": "value",
          "type": "uint256[]"
        },
        {
          "internalType": "string",
          "name": "description",
          "type": "string"
        },
        {
          "internalType": "bytes",
          "name": "contentHash",
          "type": "bytes"
        },
        {
          "internalType": "uint256",
          "name": "totalVotes",
          "type": "uint256"
        },
        {
          "internalType": "enum ERC20Guild.ProposalState",
          "name": "state",
          "type": "uint8"
        },
        {
          "internalType": "uint256",
          "name": "snapshotId",
          "type": "uint256"
        }
      ],
      "stateMutability": "view",
      "type": "function"
    },
    {
      "inputs": [
        {
          "internalType": "bytes32",
          "name": "proposalId",
          "type": "bytes32"
        },
        {
          "internalType": "address",
          "name": "voter",
          "type": "address"
        }
      ],
      "name": "getProposalVotes",
      "outputs": [
        {
          "internalType": "uint256",
          "name": "",
          "type": "uint256"
        }
      ],
      "stateMutability": "view",
      "type": "function"
    },
    {
      "inputs": [],
      "name": "getProposalsIdsLength",
      "outputs": [
        {
          "internalType": "uint256",
          "name": "",
          "type": "uint256"
        }
      ],
      "stateMutability": "view",
      "type": "function"
    },
    {
      "inputs": [],
      "name": "getVotesForCreation",
      "outputs": [
        {
          "internalType": "uint256",
          "name": "",
          "type": "uint256"
        }
      ],
      "stateMutability": "view",
      "type": "function"
    },
    {
      "inputs": [],
      "name": "getVotesForExecution",
      "outputs": [
        {
          "internalType": "uint256",
          "name": "",
          "type": "uint256"
        }
      ],
      "stateMutability": "view",
      "type": "function"
    },
    {
      "inputs": [
        {
          "internalType": "address",
          "name": "voter",
          "type": "address"
        },
        {
          "internalType": "bytes32",
          "name": "proposalId",
          "type": "bytes32"
        },
        {
          "internalType": "uint256",
          "name": "amount",
          "type": "uint256"
        }
      ],
      "name": "hashVote",
      "outputs": [
        {
          "internalType": "bytes32",
          "name": "",
          "type": "bytes32"
        }
      ],
      "stateMutability": "pure",
      "type": "function"
    },
    {
      "inputs": [
        {
          "internalType": "address",
          "name": "_token",
          "type": "address"
        },
        {
          "internalType": "uint256",
          "name": "_proposalTime",
          "type": "uint256"
        },
        {
          "internalType": "uint256",
          "name": "_timeForExecution",
          "type": "uint256"
        },
        {
          "internalType": "uint256",
          "name": "_votesForExecution",
          "type": "uint256"
        },
        {
          "internalType": "uint256",
          "name": "_votesForCreation",
          "type": "uint256"
        },
        {
          "internalType": "string",
          "name": "_name",
          "type": "string"
        },
        {
          "internalType": "uint256",
          "name": "_voteGas",
          "type": "uint256"
        },
        {
          "internalType": "uint256",
          "name": "_maxGasPrice",
          "type": "uint256"
        },
        {
          "internalType": "uint256",
          "name": "_lockTime",
          "type": "uint256"
        }
      ],
      "name": "initialize",
      "outputs": [],
      "stateMutability": "nonpayable",
      "type": "function"
    },
    {
      "inputs": [],
      "name": "initialized",
      "outputs": [
        {
          "internalType": "bool",
          "name": "",
          "type": "bool"
        }
      ],
      "stateMutability": "view",
      "type": "function"
    },
    {
      "inputs": [],
      "name": "lockTime",
      "outputs": [
        {
          "internalType": "uint256",
          "name": "",
          "type": "uint256"
        }
      ],
      "stateMutability": "view",
      "type": "function"
    },
    {
      "inputs": [
        {
          "internalType": "uint256",
          "name": "amount",
          "type": "uint256"
        }
      ],
      "name": "lockTokens",
      "outputs": [],
      "stateMutability": "nonpayable",
      "type": "function"
    },
    {
      "inputs": [],
      "name": "maxGasPrice",
      "outputs": [
        {
          "internalType": "uint256",
          "name": "",
          "type": "uint256"
        }
      ],
      "stateMutability": "view",
      "type": "function"
    },
    {
      "inputs": [],
      "name": "name",
      "outputs": [
        {
          "internalType": "string",
          "name": "",
          "type": "string"
        }
      ],
      "stateMutability": "view",
      "type": "function"
    },
    {
      "inputs": [],
      "name": "proposalNonce",
      "outputs": [
        {
          "internalType": "uint256",
          "name": "",
          "type": "uint256"
        }
      ],
      "stateMutability": "view",
      "type": "function"
    },
    {
      "inputs": [],
      "name": "proposalTime",
      "outputs": [
        {
          "internalType": "uint256",
          "name": "",
          "type": "uint256"
        }
      ],
      "stateMutability": "view",
      "type": "function"
    },
    {
      "inputs": [
        {
          "internalType": "bytes32",
          "name": "",
          "type": "bytes32"
        }
      ],
      "name": "proposals",
      "outputs": [
        {
          "internalType": "address",
          "name": "creator",
          "type": "address"
        },
        {
          "internalType": "uint256",
          "name": "startTime",
          "type": "uint256"
        },
        {
          "internalType": "uint256",
          "name": "endTime",
          "type": "uint256"
        },
        {
          "internalType": "string",
          "name": "description",
          "type": "string"
        },
        {
          "internalType": "bytes",
          "name": "contentHash",
          "type": "bytes"
        },
        {
          "internalType": "uint256",
          "name": "totalVotes",
          "type": "uint256"
        },
        {
          "internalType": "enum ERC20Guild.ProposalState",
          "name": "state",
          "type": "uint8"
        },
        {
          "internalType": "uint256",
          "name": "snapshotId",
          "type": "uint256"
        }
      ],
      "stateMutability": "view",
      "type": "function"
    },
    {
      "inputs": [
        {
          "internalType": "uint256",
          "name": "",
          "type": "uint256"
        }
      ],
      "name": "proposalsIds",
      "outputs": [
        {
          "internalType": "bytes32",
          "name": "",
          "type": "bytes32"
        }
      ],
      "stateMutability": "view",
      "type": "function"
    },
    {
      "inputs": [
        {
          "internalType": "uint256",
          "name": "amount",
          "type": "uint256"
        }
      ],
      "name": "releaseTokens",
      "outputs": [],
      "stateMutability": "nonpayable",
      "type": "function"
    },
    {
      "inputs": [
        {
          "internalType": "address[]",
          "name": "to",
          "type": "address[]"
        },
        {
          "internalType": "bytes4[]",
          "name": "functionSignature",
          "type": "bytes4[]"
        },
        {
          "internalType": "bool[]",
          "name": "allowance",
          "type": "bool[]"
        }
      ],
      "name": "setAllowance",
      "outputs": [],
      "stateMutability": "nonpayable",
      "type": "function"
    },
    {
      "inputs": [
        {
          "internalType": "uint256",
          "name": "_proposalTime",
          "type": "uint256"
        },
        {
          "internalType": "uint256",
          "name": "_timeForExecution",
          "type": "uint256"
        },
        {
          "internalType": "uint256",
          "name": "_votesForExecution",
          "type": "uint256"
        },
        {
          "internalType": "uint256",
          "name": "_votesForCreation",
          "type": "uint256"
        },
        {
          "internalType": "uint256",
          "name": "_voteGas",
          "type": "uint256"
        },
        {
          "internalType": "uint256",
          "name": "_maxGasPrice",
          "type": "uint256"
        },
        {
          "internalType": "uint256",
          "name": "_lockTime",
          "type": "uint256"
        }
      ],
      "name": "setConfig",
      "outputs": [],
      "stateMutability": "nonpayable",
      "type": "function"
    },
    {
      "inputs": [
        {
          "internalType": "bytes32",
          "name": "proposalId",
          "type": "bytes32"
        },
        {
          "internalType": "uint256",
          "name": "amount",
          "type": "uint256"
        },
        {
          "internalType": "address",
          "name": "voter",
          "type": "address"
        },
        {
          "internalType": "bytes",
          "name": "signature",
          "type": "bytes"
        }
      ],
      "name": "setSignedVote",
      "outputs": [],
      "stateMutability": "nonpayable",
      "type": "function"
    },
    {
      "inputs": [
        {
          "internalType": "bytes32[]",
          "name": "proposalIds",
          "type": "bytes32[]"
        },
        {
          "internalType": "uint256[]",
          "name": "amounts",
          "type": "uint256[]"
        },
        {
          "internalType": "address[]",
          "name": "voters",
          "type": "address[]"
        },
        {
          "internalType": "bytes[]",
          "name": "signatures",
          "type": "bytes[]"
        }
      ],
      "name": "setSignedVotes",
      "outputs": [],
      "stateMutability": "nonpayable",
      "type": "function"
    },
    {
      "inputs": [
        {
          "internalType": "bytes32",
          "name": "proposalId",
          "type": "bytes32"
        },
        {
          "internalType": "uint256",
          "name": "amount",
          "type": "uint256"
        }
      ],
      "name": "setVote",
      "outputs": [],
      "stateMutability": "nonpayable",
      "type": "function"
    },
    {
      "inputs": [
        {
          "internalType": "bytes32[]",
          "name": "proposalIds",
          "type": "bytes32[]"
        },
        {
          "internalType": "uint256[]",
          "name": "amounts",
          "type": "uint256[]"
        }
      ],
      "name": "setVotes",
      "outputs": [],
      "stateMutability": "nonpayable",
      "type": "function"
    },
    {
      "inputs": [
        {
          "internalType": "bytes32",
          "name": "",
          "type": "bytes32"
        }
      ],
      "name": "signedVotes",
      "outputs": [
        {
          "internalType": "bool",
          "name": "",
          "type": "bool"
        }
      ],
      "stateMutability": "view",
      "type": "function"
    },
    {
      "inputs": [],
      "name": "timeForExecution",
      "outputs": [
        {
          "internalType": "uint256",
          "name": "",
          "type": "uint256"
        }
      ],
      "stateMutability": "view",
      "type": "function"
    },
    {
      "inputs": [],
      "name": "token",
      "outputs": [
        {
          "internalType": "contract IERC20Upgradeable",
          "name": "",
          "type": "address"
        }
      ],
      "stateMutability": "view",
      "type": "function"
    },
    {
      "inputs": [],
      "name": "tokenVault",
      "outputs": [
        {
          "internalType": "contract TokenVault",
          "name": "",
          "type": "address"
        }
      ],
      "stateMutability": "view",
      "type": "function"
    },
    {
      "inputs": [
        {
          "internalType": "address",
          "name": "",
          "type": "address"
        }
      ],
      "name": "tokensLocked",
      "outputs": [
        {
          "internalType": "uint256",
          "name": "amount",
          "type": "uint256"
        },
        {
          "internalType": "uint256",
          "name": "timestamp",
          "type": "uint256"
        }
      ],
      "stateMutability": "view",
      "type": "function"
    },
    {
      "inputs": [],
      "name": "totalLocked",
      "outputs": [
        {
          "internalType": "uint256",
          "name": "",
          "type": "uint256"
        }
      ],
      "stateMutability": "view",
      "type": "function"
    },
    {
      "inputs": [
        {
          "internalType": "uint256",
          "name": "snapshotId",
          "type": "uint256"
        }
      ],
      "name": "totalLockedAt",
      "outputs": [
        {
          "internalType": "uint256",
          "name": "",
          "type": "uint256"
        }
      ],
      "stateMutability": "view",
      "type": "function"
    },
    {
      "inputs": [],
      "name": "voteGas",
      "outputs": [
        {
          "internalType": "uint256",
          "name": "",
          "type": "uint256"
        }
      ],
      "stateMutability": "view",
      "type": "function"
    },
    {
      "inputs": [],
      "name": "votesForCreation",
      "outputs": [
        {
          "internalType": "uint256",
          "name": "",
          "type": "uint256"
        }
      ],
      "stateMutability": "view",
      "type": "function"
    },
    {
      "inputs": [],
      "name": "votesForExecution",
      "outputs": [
        {
          "internalType": "uint256",
          "name": "",
          "type": "uint256"
        }
      ],
      "stateMutability": "view",
      "type": "function"
    },
    {
      "inputs": [
        {
          "internalType": "address",
          "name": "account",
          "type": "address"
        }
      ],
      "name": "votesOf",
      "outputs": [
        {
          "internalType": "uint256",
          "name": "",
          "type": "uint256"
        }
      ],
      "stateMutability": "view",
      "type": "function"
    },
    {
      "inputs": [
        {
          "internalType": "address[]",
          "name": "accounts",
          "type": "address[]"
        }
      ],
      "name": "votesOf",
      "outputs": [
        {
          "internalType": "uint256[]",
          "name": "",
          "type": "uint256[]"
        }
      ],
      "stateMutability": "view",
      "type": "function"
    },
    {
      "inputs": [
        {
          "internalType": "address",
          "name": "account",
          "type": "address"
        },
        {
          "internalType": "uint256",
          "name": "snapshotId",
          "type": "uint256"
        }
      ],
      "name": "votesOfAt",
      "outputs": [
        {
          "internalType": "uint256",
          "name": "",
          "type": "uint256"
        }
      ],
      "stateMutability": "view",
      "type": "function"
    },
    {
      "inputs": [
        {
          "internalType": "address[]",
          "name": "accounts",
          "type": "address[]"
        },
        {
          "internalType": "uint256[]",
          "name": "snapshotIds",
          "type": "uint256[]"
        }
      ],
      "name": "votesOfAt",
      "outputs": [
        {
          "internalType": "uint256[]",
          "name": "",
          "type": "uint256[]"
        }
      ],
      "stateMutability": "view",
      "type": "function"
    },
    {
      "stateMutability": "payable",
      "type": "receive"
    }
  ],
  "bytecode": "0x608060405234801561001057600080fd5b50614b9c806100206000396000f3fe6080604052600436106102485760003560e01c80635bc789d911610138578063b96f8c9e116100b0578063ea1627c011610077578063ea1627c014610797578063ed996f5e146107c4578063f4ff96aa146107e4578063f977cd2914610804578063fc0c546a14610819578063fc4e703f1461083f57005b8063b96f8c9e146106cd578063bec11c0e146106ed578063cc3c74a11461070d578063d5c1b6fc14610723578063db0c41bf1461076a57005b80637e17e3fc116100ff5780637e17e3fc146106225780638c20a9c5146106425780639669b1cb14610658578063adbba7ae1461066d578063b3929aaa1461068d578063b3b47061146106ad57005b80635bc789d91461054f578063663bb4af146105875780636e27d889146105a757806376b0243a146105c757806379ec5d3a1461060257005b806327f2bdde116101cb5780633de39c11116101925780633de39c11146104965780633f10cf15146104ac578063402bad8e146104c2578063430694cf146104e25780634b0babdd14610519578063568914121461053957005b806327f2bdde146103d25780632fd99c00146103f257806332315fc41461042257806332ed5b12146104425780633a3bed001461047657005b806314621a3a1161020f57806314621a3a14610340578063158ef93e14610360578063184a0ae9146103915780631c3e89f4146103a75780632229a0e2146103bd57005b806301a598a61461025157806306fdde031461029f578063088af182146102c15780630d668087146102fc5780630f9a85531461032057005b3661024f57005b005b34801561025d57600080fd5b5061028561026c3660046135b8565b600e602052600090815260409020805460019091015482565b604080519283526020830191909152015b60405180910390f35b3480156102ab57600080fd5b506102b4610855565b6040516102969190613620565b3480156102cd57600080fd5b506102e36102dc3660046136e8565b6020015190565b6040516001600160e01b03199091168152602001610296565b34801561030857600080fd5b5061031260085481565b604051908152602001610296565b34801561032c57600080fd5b5061024f61033b3660046137b2565b6108e3565b34801561034c57600080fd5b5061024f61035b366004613815565b6109b4565b34801561036c57600080fd5b5060005461038190600160b01b900460ff1681565b6040519015158152602001610296565b34801561039d57600080fd5b5061031260025481565b3480156103b357600080fd5b5061031260045481565b3480156103c957600080fd5b50601054610312565b3480156103de57600080fd5b506103126103ed366004613956565b610b37565b3480156103fe57600080fd5b5061038161040d366004613a27565b600c6020526000908152604090205460ff1681565b34801561042e57600080fd5b5061031261043d366004613a40565b610bf1565b34801561044e57600080fd5b5061046261045d366004613a27565b610c3f565b604051610296989796959493929190613aa2565b34801561048257600080fd5b5061024f610491366004613b0d565b610da2565b3480156104a257600080fd5b5061031260075481565b3480156104b857600080fd5b5061031260035481565b3480156104ce57600080fd5b5061024f6104dd366004613bad565b610e37565b3480156104ee57600080fd5b506105026104fd366004613a27565b610e4f565b6040516102969b9a99989796959493929190613c8c565b34801561052557600080fd5b5061024f610534366004613a27565b611188565b34801561054557600080fd5b5061031260095481565b34801561055b57600080fd5b50600a5461056f906001600160a01b031681565b6040516001600160a01b039091168152602001610296565b34801561059357600080fd5b506103816105a2366004613d82565b61134c565b3480156105b357600080fd5b5061024f6105c2366004613a27565b611383565b3480156105d357600080fd5b506103816105e2366004613d82565b600d60209081526000928352604080842090915290825290205460ff1681565b34801561060e57600080fd5b5061031261061d3660046135b8565b61148a565b34801561062e57600080fd5b5061024f61063d366004613db5565b6114a5565b34801561064e57600080fd5b5061031260055481565b34801561066457600080fd5b50600454610312565b34801561067957600080fd5b50610312610688366004613e46565b61170b565b34801561069957600080fd5b506103126106a8366004613a27565b61175a565b3480156106b957600080fd5b5061024f6106c8366004613a27565b61177b565b3480156106d957600080fd5b5061024f6106e8366004613ee3565b611838565b3480156106f957600080fd5b5061024f610708366004613fc5565b611c80565b34801561071957600080fd5b50610312600b5481565b34801561072f57600080fd5b5061031261073e366004613fe7565b6000828152600f602090815260408083206001600160a01b0385168452600b0190915290205492915050565b34801561077657600080fd5b5061078a61078536600461400a565b611d05565b6040516102969190614040565b3480156107a357600080fd5b506107b76107b23660046140d2565b611dcd565b6040516102969190614196565b3480156107d057600080fd5b506103126107df366004613a27565b6121a1565b3480156107f057600080fd5b5061078a6107ff3660046141da565b6121cd565b34801561081057600080fd5b50600554610312565b34801561082557600080fd5b5060005461056f906201000090046001600160a01b031681565b34801561084b57600080fd5b5061031260065481565b600180546108629061420e565b80601f016020809104026020016040519081016040528092919081815260200182805461088e9061420e565b80156108db5780601f106108b0576101008083540402835291602001916108db565b820191906000526020600020905b8154815290600101906020018083116108be57829003601f168201915b505050505081565b80518251146109545760405162461bcd60e51b815260206004820152603260248201527f45524332304775696c643a2057726f6e67206c656e677468206f662070726f706044820152716f73616c496473206f7220616d6f756e747360701b60648201526084015b60405180910390fd5b60005b82518110156109af5761099d3384838151811061097657610976614249565b602002602001015184848151811061099057610990614249565b602002602001015161227a565b806109a781614275565b915050610957565b505050565b600054600160b01b900460ff166109dd5760405162461bcd60e51b815260040161094b90614290565b60006109ea83868661170b565b6000818152600c602052604090205490915060ff1615610a4c5760405162461bcd60e51b815260206004820152601960248201527f45524332304775696c643a20416c726561647920766f74656400000000000000604482015260640161094b565b610aad82610aa7836040517f19457468657265756d205369676e6564204d6573736167653a0a3332000000006020820152603c8101829052600090605c01604051602081830303815290604052805190602001209050919050565b90612538565b6001600160a01b0316836001600160a01b031614610b0d5760405162461bcd60e51b815260206004820152601860248201527f45524332304775696c643a2057726f6e67207369676e65720000000000000000604482015260640161094b565b610b1883868661227a565b6000908152600c60205260409020805460ff1916600117905550505050565b60008054600160b01b900460ff16610b615760405162461bcd60e51b815260040161094b90614290565b600554610b6d3361148a565b1015610b8b5760405162461bcd60e51b815260040161094b906142c7565b84518651148015610b9d575083518651145b610bb95760405162461bcd60e51b815260040161094b90614317565b6000865111610bda5760405162461bcd60e51b815260040161094b9061436b565b610be78686868686612554565b9695505050505050565b6001600160a01b038216600090815260116020526040812081908190610c189085906126ff565b915091508115610c2b579150610c399050565b610c348561148a565b925050505b92915050565b600f6020526000908152604090208054600182015460028301546006840180546001600160a01b03909416949293919291610c799061420e565b80601f0160208091040260200160405190810160405280929190818152602001828054610ca59061420e565b8015610cf25780601f10610cc757610100808354040283529160200191610cf2565b820191906000526020600020905b815481529060010190602001808311610cd557829003601f168201915b505050505090806007018054610d079061420e565b80601f0160208091040260200160405190810160405280929190818152602001828054610d339061420e565b8015610d805780601f10610d5557610100808354040283529160200191610d80565b820191906000526020600020905b815481529060010190602001808311610d6357829003601f168201915b5050505060088301546009840154600a909401549293909260ff909116915088565b60005b8451811015610e3057610e1e858281518110610dc357610dc3614249565b6020026020010151858381518110610ddd57610ddd614249565b6020026020010151858481518110610df757610df7614249565b6020026020010151858581518110610e1157610e11614249565b60200260200101516109b4565b80610e2881614275565b915050610da5565b5050505050565b610e46878787878787876127ee565b50505050505050565b60008060006060806060806060600080600080600f60008e815260200190815260200160002090508060000160009054906101000a90046001600160a01b031681600101548260020154836003018460040185600501866006018760070188600801548960090160009054906101000a900460ff168a600a015487805480602002602001604051908101604052809291908181526020018280548015610f1e57602002820191906000526020600020905b81546001600160a01b03168152600190910190602001808311610f00575b5050505050975086805480602002602001604051908101604052809291908181526020016000905b82821015610ff2578382906000526020600020018054610f659061420e565b80601f0160208091040260200160405190810160405280929190818152602001828054610f919061420e565b8015610fde5780601f10610fb357610100808354040283529160200191610fde565b820191906000526020600020905b815481529060010190602001808311610fc157829003601f168201915b505050505081526020019060010190610f46565b5050505096508580548060200260200160405190810160405280929190818152602001828054801561104357602002820191906000526020600020905b81548152602001906001019080831161102f575b505050505095508480546110569061420e565b80601f01602080910402602001604051908101604052809291908181526020018280546110829061420e565b80156110cf5780601f106110a4576101008083540402835291602001916110cf565b820191906000526020600020905b8154815290600101906020018083116110b257829003601f168201915b505050505094508380546110e29061420e565b80601f016020809104026020016040519081016040528092919081815260200182805461110e9061420e565b801561115b5780601f106111305761010080835404028352916020019161115b565b820191906000526020600020905b81548152906001019060200180831161113e57829003601f168201915b505050505093509b509b509b509b509b509b509b509b509b509b509b505091939597999b90929496989a50565b806111923361148a565b10156111fe5760405162461bcd60e51b815260206004820152603560248201527f45524332304775696c643a20556e61626c6520746f2072656c65617365206d6f6044820152741c99481d1bdad95b9cc81d1a185b881b1bd8dad959605a1b606482015260840161094b565b336000908152600e6020526040902060010154421161125f5760405162461bcd60e51b815260206004820152601f60248201527f45524332304775696c643a20546f6b656e73207374696c6c206c6f636b656400604482015260640161094b565b6112683361296e565b611270612998565b336000908152600e602052604090205461128a90826129a7565b336000908152600e60205260409020556009546112a790826129a7565b600955600a5460405163f3fef3a360e01b8152336004820152602481018390526001600160a01b039091169063f3fef3a390604401600060405180830381600087803b1580156112f657600080fd5b505af115801561130a573d6000803e3d6000fd5b505060408051338152602081018590527fc7798891864187665ac6dd119286e44ec13f014527aeeb2b8eb3fd413df9317993500190505b60405180910390a150565b6001600160a01b0382166000908152600d602090815260408083206001600160e01b03198516845290915290205460ff1692915050565b61138c3361296e565b611394612998565b600a546040516311f9fbc960e21b8152336004820152602481018390526001600160a01b03909116906347e7ef2490604401600060405180830381600087803b1580156113e057600080fd5b505af11580156113f4573d6000803e3d6000fd5b5050336000908152600e602052604090205461141392509050826129ba565b336000908152600e60205260409020556008546114319042906129ba565b336000908152600e602052604090206001015560095461145190826129ba565b60095560408051338152602081018390527fac87f20a77d28ee8bbb58ec87ea8fa968b3393efae1a368fd50b767c2847391c9101611341565b6001600160a01b03166000908152600e602052604090205490565b600054610100900460ff16806114be575060005460ff16155b6115215760405162461bcd60e51b815260206004820152602e60248201527f496e697469616c697a61626c653a20636f6e747261637420697320616c72656160448201526d191e481a5b9a5d1a585b1a5e995960921b606482015260840161094b565b600054610100900460ff16158015611543576000805461ffff19166101011790555b6001600160a01b038a166115a75760405162461bcd60e51b815260206004820152602560248201527f45524332304775696c643a20746f6b656e20697320746865207a65726f206164604482015264647265737360d81b606482015260840161094b565b84516115ba9060019060208801906133bc565b506000805462010000600160b01b031916620100006001600160a01b038d16021790556040516115e990613440565b604051809103906000f080158015611605573d6000803e3d6000fd5b50600a80546001600160a01b0319166001600160a01b0392831690811790915560005460405163485cc95560e01b81526201000090910490921660048301523060248301529063485cc95590604401600060405180830381600087803b15801561166e57600080fd5b505af1158015611682573d6000803e3d6000fd5b50505050611695898989898888886127ee565b306000908152600d60209081526040808320632015d6c760e11b8452909152808220805460ff199081166001908117909255635cb7c64f60e11b84529183208054909216179055805460ff60b01b1916600160b01b17905580156116ff576000805461ff00191690555b50505050505050505050565b6040516bffffffffffffffffffffffff19606085901b16602082015260348101839052605481018290526000906074016040516020818303038152906040528051906020012090509392505050565b6010818154811061176a57600080fd5b600091825260209091200154905081565b60016000828152600f602052604090206009015460ff1660048111156117a3576117a3613a6a565b146117c05760405162461bcd60e51b815260040161094b906143bc565b6000818152600f6020526040902060020154421161182c5760405162461bcd60e51b8152602060048201526024808201527f45524332304775696c643a2050726f706f73616c206861736e7420656e646564604482015263081e595d60e21b606482015260840161094b565b611835816129c6565b50565b600054600160b01b900460ff166118615760405162461bcd60e51b815260040161094b90614290565b3330146118c75760405162461bcd60e51b815260206004820152602e60248201527f45524332304775696c643a204f6e6c792063616c6c61626c652062792045524360448201526d191833bab4b6321034ba39b2b63360911b606482015260840161094b565b815183511480156118d9575080518351145b6119595760405162461bcd60e51b815260206004820152604560248201527f45524332304775696c643a2057726f6e67206c656e677468206f6620746f2c2060448201527f66756e6374696f6e5369676e6174757265206f7220616c6c6f77616e63652061606482015264727261797360d81b608482015260a40161094b565b60005b8351811015611b5157825160009084908390811061197c5761197c614249565b60200260200101516001600160e01b03191614156119ed5760405162461bcd60e51b815260206004820152602860248201527f45524332304775696c643a20456d70747920736967616e7475726573206e6f7460448201526708185b1b1bddd95960c21b606482015260840161094b565b8181815181106119ff576119ff614249565b6020026020010151600d6000868481518110611a1d57611a1d614249565b60200260200101516001600160a01b03166001600160a01b031681526020019081526020016000206000858481518110611a5957611a59614249565b60200260200101516001600160e01b0319166001600160e01b031916815260200190815260200160002060006101000a81548160ff021916908315150217905550838181518110611aac57611aac614249565b60200260200101516001600160a01b03167f31e41e795ddf7710d216f93d4d9a1080ca53618ba00822e743d12f31a7dfc980848381518110611af057611af0614249565b6020026020010151848481518110611b0a57611b0a614249565b6020026020010151604051611b379291906001600160e01b03199290921682521515602082015260400190565b60405180910390a280611b4981614275565b91505061195c565b50306000908152600d60209081526040808320632015d6c760e11b845290915290205460ff16611be95760405162461bcd60e51b815260206004820152603b60248201527f45524332304775696c643a20736574436f6e6669672066756e6374696f6e206160448201527f6c6c6f77616e63652063616e74206265207475726e6564206f66660000000000606482015260840161094b565b306000908152600d60209081526040808320635cb7c64f60e11b845290915290205460ff166109af5760405162461bcd60e51b815260206004820152603e60248201527f45524332304775696c643a20736574416c6c6f77616e63652066756e6374696f60448201527f6e20616c6c6f77616e63652063616e74206265207475726e6564206f66660000606482015260840161094b565b6000828152600f60205260409020600a01548190611c9f903390610bf1565b1015611ced5760405162461bcd60e51b815260206004820152601a60248201527f45524332304775696c643a20496e76616c696420616d6f756e74000000000000604482015260640161094b565b611cf833838361227a565b611d0133612e2c565b5050565b6060600083516001600160401b03811115611d2257611d22613633565b604051908082528060200260200182016040528015611d4b578160200160208202803683370190505b50905060005b8451811015611dc557611d96858281518110611d6f57611d6f614249565b6020026020010151858381518110611d8957611d89614249565b6020026020010151610bf1565b828281518110611da857611da8614249565b602090810291909101015280611dbd81614275565b915050611d51565b509392505050565b600054606090600160b01b900460ff16611df95760405162461bcd60e51b815260040161094b90614290565b600554611e053361148a565b1015611e235760405162461bcd60e51b815260040161094b906142c7565b84518651148015611e35575083518651145b611e515760405162461bcd60e51b815260040161094b90614317565b8151835114611ec85760405162461bcd60e51b815260206004820152603d60248201527f45524332304775696c643a2057726f6e67206c656e677468206f66206465736360448201527f72697074696f6e206f7220636f6e74656e744861736820617272617973000000606482015260840161094b565b6000865111611ee95760405162461bcd60e51b815260040161094b9061436b565b600083516001600160401b03811115611f0457611f04613633565b604051908082528060200260200182016040528015611f2d578160200160208202803683370190505b508451885191925090600090611f439083612ebf565b905060005b82811015612193576000826001600160401b03811115611f6a57611f6a613633565b604051908082528060200260200182016040528015611f93578160200160208202803683370190505b5090506000836001600160401b03811115611fb057611fb0613633565b604051908082528060200260200182016040528015611fe357816020015b6060815260200190600190039081611fce5790505b5090506000846001600160401b0381111561200057612000613633565b604051908082528060200260200182016040528015612029578160200160208202803683370190505b5090506000806120398787612ecb565b90505b8681101561211e578e818151811061205657612056614249565b602002602001015185838151811061207057612070614249565b60200260200101906001600160a01b031690816001600160a01b0316815250508d81815181106120a2576120a2614249565b60200260200101518483815181106120bc576120bc614249565b60200260200101819052508c81815181106120d9576120d9614249565b60200260200101518383815181106120f3576120f3614249565b60209081029190910101528161210881614275565b925050808061211690614275565b91505061203c565b5061215e8484848e898151811061213757612137614249565b60200260200101518e8a8151811061215157612151614249565b6020026020010151612554565b88868151811061217057612170614249565b60200260200101818152505050505050808061218b90614275565b915050611f48565b509198975050505050505050565b60008060006121b18460126126ff565b9150915081156121c2579392505050565b505060095492915050565b6060600082516001600160401b038111156121ea576121ea613633565b604051908082528060200260200182016040528015612213578160200160208202803683370190505b50905060005b83518110156122735761224484828151811061223757612237614249565b602002602001015161148a565b82828151811061225657612256614249565b60209081029190910101528061226b81614275565b915050612219565b5092915050565b600054600160b01b900460ff166122a35760405162461bcd60e51b815260040161094b90614290565b60016000838152600f602052604090206009015460ff1660048111156122cb576122cb613a6a565b146122e85760405162461bcd60e51b815260040161094b906143bc565b806122f28461148a565b10156123405760405162461bcd60e51b815260206004820152601a60248201527f45524332304775696c643a20496e76616c696420616d6f756e74000000000000604482015260640161094b565b6000828152600f602090815260408083206001600160a01b0387168452600b01909152902054811115612440576000828152600f602090815260408083206001600160a01b0387168452600b019091529020546123ba906123a29083906129a7565b6000848152600f6020526040902060080154906129ba565b6000838152600f6020908152604080832060088101949094556001600160a01b0387168352600b9093019052205482907f994c1e2cd59a94ec7f932ab317a85dabd5f43917c5cfb959b751a9648140c0c29085906124199085906129a7565b604080516001600160a01b03909316835260208301919091520160405180910390a261250d565b6000828152600f602090815260408083206001600160a01b0387168452600b0190915290205461248c9061247490836129a7565b6000848152600f6020526040902060080154906129a7565b6000838152600f6020908152604080832060088101949094556001600160a01b0387168352600b9093019052205482907f79f996adb5f064cd332cb02f590abdf662bafabcbe22469b8b316466e475c2c19085906124ea90856129a7565b604080516001600160a01b03909316835260208301919091520160405180910390a25b6000918252600f602090815260408084206001600160a01b039095168452600b909401905291902055565b60008060006125478585612ed7565b91509150611dc581612f44565b600b54604080513360601b6bffffffffffffffffffffffff1916602080830191909152426034830152605480830185905283518084039091018152607490920190925280519101206000916125aa9060016129ba565b600b556014546125bb9060016129ba565b6014556000818152600f6020526040902080546001600160a01b0319163317815542600182018190556002546125f191906129ba565b6002820155875161260b90600383019060208b019061344d565b50865161262190600483019060208a01906134a2565b50855161263790600583019060208901906134fb565b50845161264d90600683019060208801906133bc565b50835161266390600783019060208701906133bc565b5060006008820181905560098201805460ff19166001179055601454600a83015560405183917f288a29bca04edb18fcdb2c76d6e3b03b8a137c85c70d1a4cb8aacfa868d6051091a26126bf33836126ba3361148a565b61227a565b50601080546001810182556000919091527f1b6847dc741a1b0cd08d278845f9d819d87b734759afb55fe2de5cb82a9ae672018190559695505050505050565b600080600084116127485760405162461bcd60e51b8152602060048201526013602482015272045524332304775696c643a206964206973203606c1b604482015260640161094b565b60145484111561279a5760405162461bcd60e51b815260206004820152601a60248201527f45524332304775696c643a206e6f6e6578697374656e74206964000000000000604482015260640161094b565b60006127a684866130ff565b84549091508114156127bf5760008092509250506127e7565b60018460010182815481106127d6576127d6614249565b906000526020600020015492509250505b9250929050565b600054600160b01b900460ff16158061280657503330145b6128785760405162461bcd60e51b815260206004820152603f60248201527f45524332304775696c643a204f6e6c792063616c6c61626c652062792045524360448201527f32306775696c6420697473656c66207768656e20696e697469616c697a656400606482015260840161094b565b600085116128e65760405162461bcd60e51b815260206004820152603560248201527f45524332304775696c643a20766f74657320666f7220657865637574696f6e20604482015274068617320746f206265206d6f7265207468616e203605c1b606482015260840161094b565b6000811161294e5760405162461bcd60e51b815260206004820152602f60248201527f45524332304775696c643a206c6f636b54696d652073686f756c64206265206860448201526e6967686572207468616e207a65726f60881b606482015260840161094b565b600296909655600394909455600492909255600555600655600755600855565b6001600160a01b0381166000908152601160205260409020611835906129938361148a565b6131aa565b6129a560126009546131aa565b565b60006129b38284614401565b9392505050565b60006129b38284614418565b6004546000828152600f6020526040902060080154108015612a0d575060016000828152600f602052604090206009015460ff166004811115612a0b57612a0b613a6a565b145b15612a58576000818152600f6020526040808220600901805460ff191660021790555182917f55295d4ce992922fa2e5ffbf3a3dcdb367de0a15e125ace083456017fd22060f91a250565b6003546000828152600f60205260409020600201544291612a7991906129ba565b108015612aab575060016000828152600f602052604090206009015460ff166004811115612aa957612aa9613a6a565b145b15612af6576000818152600f6020526040808220600901805460ff191660041790555182917f0126984176eaaeb6ba34a0bd7ee6e99c473c100f79bee0bb6d17f0f44c83f1f991a250565b60016000828152600f602052604090206009015460ff166004811115612b1e57612b1e613a6a565b1415611835576000818152600f60205260408120600901805460ff191660031790555b6000828152600f6020526040902060030154811015612dfd576000828152600f602052604081206004018054612c1c919084908110612b8257612b82614249565b906000526020600020018054612b979061420e565b80601f0160208091040260200160405190810160405280929190818152602001828054612bc39061420e565b8015612c105780601f10612be557610100808354040283529160200191612c10565b820191906000526020600020905b815481529060010190602001808311612bf357829003601f168201915b50505050506020015190565b6000848152600f602052604090206003018054919250612c619184908110612c4657612c46614249565b6000918252602090912001546001600160a01b03168261134c565b612cad5760405162461bcd60e51b815260206004820152601c60248201527f45524332304775696c643a204e6f7420616c6c6f7765642063616c6c00000000604482015260640161094b565b6000838152600f60205260408120600301805484908110612cd057612cd0614249565b6000918252602080832090910154868352600f909152604090912060050180546001600160a01b039092169185908110612d0c57612d0c614249565b9060005260206000200154600f60008781526020019081526020016000206004018581548110612d3e57612d3e614249565b90600052602060002001604051612d559190614430565b60006040518083038185875af1925050503d8060008114612d92576040519150601f19603f3d011682016040523d82523d6000602084013e612d97565b606091505b5050905080612de85760405162461bcd60e51b815260206004820181905260248201527f45524332304775696c643a2050726f706f73616c2063616c6c206661696c6564604482015260640161094b565b50508080612df590614275565b915050612b41565b5060405181907f7b1bcf1ccf901a11589afff5504d59fd0a53780eed2a952adade0348985139e090600090a250565b600054600160b01b900460ff16612e555760405162461bcd60e51b815260040161094b90614290565b60065415611835576000612e80612e776007543a6131eb90919063ffffffff16565b60065490612ecb565b9050804710611d01576040516001600160a01b0383169082156108fc029083906000818181858888f193505050501580156109af573d6000803e3d6000fd5b60006129b382846144e2565b60006129b382846144f6565b600080825160411415612f0e5760208301516040840151606085015160001a612f0287828585613201565b945094505050506127e7565b825160401415612f385760208301516040840151612f2d8683836132ee565b9350935050506127e7565b506000905060026127e7565b6000816004811115612f5857612f58613a6a565b1415612f615750565b6001816004811115612f7557612f75613a6a565b1415612fc35760405162461bcd60e51b815260206004820152601860248201527f45434453413a20696e76616c6964207369676e61747572650000000000000000604482015260640161094b565b6002816004811115612fd757612fd7613a6a565b14156130255760405162461bcd60e51b815260206004820152601f60248201527f45434453413a20696e76616c6964207369676e6174757265206c656e67746800604482015260640161094b565b600381600481111561303957613039613a6a565b14156130925760405162461bcd60e51b815260206004820152602260248201527f45434453413a20696e76616c6964207369676e6174757265202773272076616c604482015261756560f01b606482015260840161094b565b60048160048111156130a6576130a6613a6a565b14156118355760405162461bcd60e51b815260206004820152602260248201527f45434453413a20696e76616c6964207369676e6174757265202776272076616c604482015261756560f01b606482015260840161094b565b815460009081905b8082101561315d57600061311b838361331d565b90508486828154811061313057613130614249565b9060005260206000200154111561314957809150613157565b613154816001614418565b92505b50613107565b60008211801561319257508385613175600185614401565b8154811061318557613185614249565b9060005260206000200154145b156131a257610c34600183614401565b509050610c39565b601454806131b784613374565b10156109af578254600180820185556000858152602080822090930193909355938401805494850181558252902090910155565b60008183106131fa57816129b3565b5090919050565b6000807f7fffffffffffffffffffffffffffffff5d576e7357a4501ddfe92f46681b20a083111561323857506000905060036132e5565b8460ff16601b1415801561325057508460ff16601c14155b1561326157506000905060046132e5565b6040805160008082526020820180845289905260ff881692820192909252606081018690526080810185905260019060a0016020604051602081039080840390855afa1580156132b5573d6000803e3d6000fd5b5050604051601f1901519150506001600160a01b0381166132de576000600192509250506132e5565b9150600090505b94509492505050565b6000806001600160ff1b03831660ff84901c601b0161330f87828885613201565b935093505050935093915050565b6000600261332b8184614515565b613336600286614515565b6133409190614418565b61334a91906144e2565b6133556002846144e2565b6133606002866144e2565b61336a9190614418565b6129b39190614418565b805460009061338557506000919050565b8154829061339590600190614401565b815481106133a5576133a5614249565b90600052602060002001549050919050565b919050565b8280546133c89061420e565b90600052602060002090601f0160209004810192826133ea5760008555613430565b82601f1061340357805160ff1916838001178555613430565b82800160010185558215613430579182015b82811115613430578251825591602001919060010190613415565b5061343c929150613535565b5090565b61063d8061452a83390190565b828054828255906000526020600020908101928215613430579160200282015b8281111561343057825182546001600160a01b0319166001600160a01b0390911617825560209092019160019091019061346d565b8280548282559060005260206000209081019282156134ef579160200282015b828111156134ef57825180516134df9184916020909101906133bc565b50916020019190600101906134c2565b5061343c92915061354a565b8280548282559060005260206000209081019282156134305791602002820182811115613430578251825591602001919060010190613415565b5b8082111561343c5760008155600101613536565b8082111561343c57600061355e8282613567565b5060010161354a565b5080546135739061420e565b6000825580601f10613583575050565b601f0160209004906000526020600020908101906118359190613535565b80356001600160a01b03811681146133b757600080fd5b6000602082840312156135ca57600080fd5b6129b3826135a1565b6000815180845260005b818110156135f9576020818501810151868301820152016135dd565b8181111561360b576000602083870101525b50601f01601f19169290920160200192915050565b6020815260006129b360208301846135d3565b634e487b7160e01b600052604160045260246000fd5b604051601f8201601f191681016001600160401b038111828210171561367157613671613633565b604052919050565b600082601f83011261368a57600080fd5b81356001600160401b038111156136a3576136a3613633565b6136b6601f8201601f1916602001613649565b8181528460208386010111156136cb57600080fd5b816020850160208301376000918101602001919091529392505050565b6000602082840312156136fa57600080fd5b81356001600160401b0381111561371057600080fd5b61371c84828501613679565b949350505050565b60006001600160401b0382111561373d5761373d613633565b5060051b60200190565b600082601f83011261375857600080fd5b8135602061376d61376883613724565b613649565b82815260059290921b8401810191818101908684111561378c57600080fd5b8286015b848110156137a75780358352918301918301613790565b509695505050505050565b600080604083850312156137c557600080fd5b82356001600160401b03808211156137dc57600080fd5b6137e886838701613747565b935060208501359150808211156137fe57600080fd5b5061380b85828601613747565b9150509250929050565b6000806000806080858703121561382b57600080fd5b8435935060208501359250613842604086016135a1565b915060608501356001600160401b0381111561385d57600080fd5b61386987828801613679565b91505092959194509250565b600082601f83011261388657600080fd5b8135602061389661376883613724565b82815260059290921b840181019181810190868411156138b557600080fd5b8286015b848110156137a7576138ca816135a1565b83529183019183016138b9565b600082601f8301126138e857600080fd5b813560206138f861376883613724565b82815260059290921b8401810191818101908684111561391757600080fd5b8286015b848110156137a75780356001600160401b0381111561393a5760008081fd5b6139488986838b0101613679565b84525091830191830161391b565b600080600080600060a0868803121561396e57600080fd5b85356001600160401b038082111561398557600080fd5b61399189838a01613875565b965060208801359150808211156139a757600080fd5b6139b389838a016138d7565b955060408801359150808211156139c957600080fd5b6139d589838a01613747565b945060608801359150808211156139eb57600080fd5b6139f789838a01613679565b93506080880135915080821115613a0d57600080fd5b50613a1a88828901613679565b9150509295509295909350565b600060208284031215613a3957600080fd5b5035919050565b60008060408385031215613a5357600080fd5b613a5c836135a1565b946020939093013593505050565b634e487b7160e01b600052602160045260246000fd5b60058110613a9e57634e487b7160e01b600052602160045260246000fd5b9052565b600061010060018060a01b038b168352896020840152886040840152806060840152613ad0818401896135d3565b90508281036080840152613ae481886135d3565b9150508460a0830152613afa60c0830185613a80565b8260e08301529998505050505050505050565b60008060008060808587031215613b2357600080fd5b84356001600160401b0380821115613b3a57600080fd5b613b4688838901613747565b95506020870135915080821115613b5c57600080fd5b613b6888838901613747565b94506040870135915080821115613b7e57600080fd5b613b8a88838901613875565b93506060870135915080821115613ba057600080fd5b50613869878288016138d7565b600080600080600080600060e0888a031215613bc857600080fd5b505085359760208701359750604087013596606081013596506080810135955060a0810135945060c0013592509050565b600082825180855260208086019550808260051b84010181860160005b84811015613c4457601f19868403018952613c328383516135d3565b98840198925090830190600101613c16565b5090979650505050505050565b600081518084526020808501945080840160005b83811015613c8157815187529582019590820190600101613c65565b509495945050505050565b6000610160820160018060a01b03808f1684528d60208501528c60408501526101606060850152818c518084526101808601915060208e01935060005b81811015613ce95784518416835260209485019490920191600101613cc9565b50508481036080860152613cfd818d613bf9565b9250505082810360a0840152613d13818a613c51565b905082810360c0840152613d2781896135d3565b905082810360e0840152613d3b81886135d3565b91505084610100830152613d53610120830185613a80565b826101408301529c9b505050505050505050505050565b80356001600160e01b0319811681146133b757600080fd5b60008060408385031215613d9557600080fd5b613d9e836135a1565b9150613dac60208401613d6a565b90509250929050565b60008060008060008060008060006101208a8c031215613dd457600080fd5b613ddd8a6135a1565b985060208a0135975060408a0135965060608a0135955060808a0135945060a08a01356001600160401b03811115613e1457600080fd5b613e208c828d01613679565b94505060c08a0135925060e08a013591506101008a013590509295985092959850929598565b600080600060608486031215613e5b57600080fd5b613e64846135a1565b95602085013595506040909401359392505050565b600082601f830112613e8a57600080fd5b81356020613e9a61376883613724565b82815260059290921b84018101918181019086841115613eb957600080fd5b8286015b848110156137a75780358015158114613ed65760008081fd5b8352918301918301613ebd565b600080600060608486031215613ef857600080fd5b83356001600160401b0380821115613f0f57600080fd5b613f1b87838801613875565b9450602091508186013581811115613f3257600080fd5b8601601f81018813613f4357600080fd5b8035613f5161376882613724565b81815260059190911b8201840190848101908a831115613f7057600080fd5b928501925b82841015613f9557613f8684613d6a565b82529285019290850190613f75565b96505050506040860135915080821115613fae57600080fd5b50613fbb86828701613e79565b9150509250925092565b60008060408385031215613fd857600080fd5b50508035926020909101359150565b60008060408385031215613ffa57600080fd5b82359150613dac602084016135a1565b6000806040838503121561401d57600080fd5b82356001600160401b038082111561403457600080fd5b6137e886838701613875565b6020815260006129b36020830184613c51565b600082601f83011261406457600080fd5b8135602061407461376883613724565b82815260059290921b8401810191818101908684111561409357600080fd5b8286015b848110156137a75780356001600160401b038111156140b65760008081fd5b6140c48986838b0101613679565b845250918301918301614097565b600080600080600060a086880312156140ea57600080fd5b85356001600160401b038082111561410157600080fd5b61410d89838a01613875565b9650602088013591508082111561412357600080fd5b61412f89838a016138d7565b9550604088013591508082111561414557600080fd5b61415189838a01613747565b9450606088013591508082111561416757600080fd5b61417389838a01614053565b9350608088013591508082111561418957600080fd5b50613a1a888289016138d7565b6020808252825182820181905260009190848201906040850190845b818110156141ce578351835292840192918401916001016141b2565b50909695505050505050565b6000602082840312156141ec57600080fd5b81356001600160401b0381111561420257600080fd5b61371c84828501613875565b600181811c9082168061422257607f821691505b6020821081141561424357634e487b7160e01b600052602260045260246000fd5b50919050565b634e487b7160e01b600052603260045260246000fd5b634e487b7160e01b600052601160045260246000fd5b60006000198214156142895761428961425f565b5060010190565b6020808252601a908201527f45524332304775696c643a204e6f7420696e6974696c697a6564000000000000604082015260600190565b60208082526030908201527f45524332304775696c643a204e6f7420656e6f75676820746f6b656e7320746f60408201526f0818dc99585d19481c1c9bdc1bdcd85b60821b606082015260800190565b60208082526034908201527f45524332304775696c643a2057726f6e67206c656e677468206f6620746f2c2060408201527364617461206f722076616c75652061727261797360601b606082015260800190565b60208082526031908201527f45524332304775696c643a20746f2c20646174612076616c7565206172726179604082015270732063616e6e6f7420626520656d70747960781b606082015260800190565b60208082526025908201527f45524332304775696c643a2050726f706f73616c20616c72656164792065786560408201526418dd5d195960da1b606082015260800190565b6000828210156144135761441361425f565b500390565b6000821982111561442b5761442b61425f565b500190565b600080835481600182811c91508083168061444c57607f831692505b602080841082141561446c57634e487b7160e01b86526022600452602486fd5b8180156144805760018114614491576144be565b60ff198616895284890196506144be565b60008a81526020902060005b868110156144b65781548b82015290850190830161449d565b505084890196505b509498975050505050505050565b634e487b7160e01b600052601260045260246000fd5b6000826144f1576144f16144cc565b500490565b60008160001904831182151516156145105761451061425f565b500290565b600082614524576145246144cc565b50069056fe60806040526001805460ff60a01b1916905534801561001d57600080fd5b506106108061002d6000396000f3fe608060405234801561001057600080fd5b506004361061007d5760003560e01c8063485cc9551161005b578063485cc955146100ee578063f3fef3a314610101578063f851a44014610114578063fc0c546a1461013f57600080fd5b8063158ef93e1461008257806327e235e3146100ab57806347e7ef24146100d9575b600080fd5b60015461009690600160a01b900460ff1681565b60405190151581526020015b60405180910390f35b6100cb6100b93660046104fb565b60026020526000908152604090205481565b6040519081526020016100a2565b6100ec6100e7366004610516565b610158565b005b6100ec6100fc366004610540565b6102a4565b6100ec61010f366004610516565b61039f565b600154610127906001600160a01b031681565b6040516001600160a01b0390911681526020016100a2565b600054610127906201000090046001600160a01b031681565b600154600160a01b900460ff166101b65760405162461bcd60e51b815260206004820152601a60248201527f546f6b656e5661756c743a204e6f7420696e6974696c697a656400000000000060448201526064015b60405180910390fd5b6001546001600160a01b031633146101cd57600080fd5b6000546040516323b872dd60e01b81526001600160a01b0384811660048301523060248301526044820184905262010000909204909116906323b872dd90606401602060405180830381600087803b15801561022857600080fd5b505af115801561023c573d6000803e3d6000fd5b505050506040513d601f19601f820116820180604052508101906102609190610573565b506001600160a01b03821660009081526002602052604090205461028490826104c0565b6001600160a01b0390921660009081526002602052604090209190915550565b600054610100900460ff16806102bd575060005460ff16155b6103205760405162461bcd60e51b815260206004820152602e60248201527f496e697469616c697a61626c653a20636f6e747261637420697320616c72656160448201526d191e481a5b9a5d1a585b1a5e995960921b60648201526084016101ad565b600054610100900460ff16158015610342576000805461ffff19166101011790555b600080546001600160a01b03808616620100000262010000600160b01b031990921691909117909155600180546001600160a81b03191691841691909117600160a01b179055801561039a576000805461ff00191690555b505050565b600154600160a01b900460ff166103f85760405162461bcd60e51b815260206004820152601a60248201527f546f6b656e5661756c743a204e6f7420696e6974696c697a656400000000000060448201526064016101ad565b6001546001600160a01b0316331461040f57600080fd5b60005460405163a9059cbb60e01b81526001600160a01b03848116600483015260248201849052620100009092049091169063a9059cbb90604401602060405180830381600087803b15801561046457600080fd5b505af1158015610478573d6000803e3d6000fd5b505050506040513d601f19601f8201168201806040525081019061049c9190610573565b506001600160a01b03821660009081526002602052604090205461028490826104d3565b60006104cc82846105ab565b9392505050565b60006104cc82846105c3565b80356001600160a01b03811681146104f657600080fd5b919050565b60006020828403121561050d57600080fd5b6104cc826104df565b6000806040838503121561052957600080fd5b610532836104df565b946020939093013593505050565b6000806040838503121561055357600080fd5b61055c836104df565b915061056a602084016104df565b90509250929050565b60006020828403121561058557600080fd5b815180151581146104cc57600080fd5b634e487b7160e01b600052601160045260246000fd5b600082198211156105be576105be610595565b500190565b6000828210156105d5576105d5610595565b50039056fea2646970667358221220ed228133b5b6a1d4223004479c53dd0eb4479b5ae101c8120491a2f3b4e3663f64736f6c63430008080033a2646970667358221220d483e64e94132069b0e99f2febb8b961efe665d951bb101e70277874c44a78c864736f6c63430008080033",
  "linkReferences": {},
  "deployedLinkReferences": {}
}