{
  "_format": "hh-sol-artifact-1",
  "contractName": "ERC20Guild",
  "sourceName": "contracts/erc20guild/ERC20Guild.sol",
  "abi": [
    {
      "anonymous": false,
      "inputs": [
        {
          "indexed": true,
          "internalType": "bytes32",
          "name": "proposalId",
          "type": "bytes32"
        }
      ],
      "name": "ProposalCreated",
      "type": "event"
    },
    {
      "anonymous": false,
      "inputs": [
        {
          "indexed": true,
          "internalType": "bytes32",
          "name": "proposalId",
          "type": "bytes32"
        }
      ],
      "name": "ProposalEnded",
      "type": "event"
    },
    {
      "anonymous": false,
      "inputs": [
        {
          "indexed": true,
          "internalType": "bytes32",
          "name": "proposalId",
          "type": "bytes32"
        }
      ],
      "name": "ProposalExecuted",
      "type": "event"
    },
    {
      "anonymous": false,
      "inputs": [
        {
          "indexed": true,
          "internalType": "bytes32",
          "name": "proposalId",
          "type": "bytes32"
        }
      ],
      "name": "ProposalRejected",
      "type": "event"
    },
    {
      "anonymous": false,
      "inputs": [
        {
          "indexed": true,
          "internalType": "address",
          "name": "to",
          "type": "address"
        },
        {
          "indexed": false,
          "internalType": "bytes4",
          "name": "functionSignature",
          "type": "bytes4"
        },
        {
          "indexed": false,
          "internalType": "bool",
          "name": "allowance",
          "type": "bool"
        }
      ],
      "name": "SetAllowance",
      "type": "event"
    },
    {
      "anonymous": false,
      "inputs": [
        {
          "indexed": false,
          "internalType": "address",
          "name": "voter",
          "type": "address"
        },
        {
          "indexed": false,
          "internalType": "uint256",
          "name": "value",
          "type": "uint256"
        }
      ],
      "name": "TokensLocked",
      "type": "event"
    },
    {
      "anonymous": false,
      "inputs": [
        {
          "indexed": false,
          "internalType": "address",
          "name": "voter",
          "type": "address"
        },
        {
          "indexed": false,
          "internalType": "uint256",
          "name": "value",
          "type": "uint256"
        }
      ],
      "name": "TokensReleased",
      "type": "event"
    },
    {
      "anonymous": false,
      "inputs": [
        {
          "indexed": true,
          "internalType": "bytes32",
          "name": "proposalId",
          "type": "bytes32"
        },
        {
          "indexed": false,
          "internalType": "address",
          "name": "voter",
          "type": "address"
        },
        {
          "indexed": false,
          "internalType": "uint256",
          "name": "amount",
          "type": "uint256"
        }
      ],
      "name": "VoteAdded",
      "type": "event"
    },
    {
      "anonymous": false,
      "inputs": [
        {
          "indexed": true,
          "internalType": "bytes32",
          "name": "proposalId",
          "type": "bytes32"
        },
        {
          "indexed": false,
          "internalType": "address",
          "name": "voter",
          "type": "address"
        },
        {
          "indexed": false,
          "internalType": "uint256",
          "name": "amount",
          "type": "uint256"
        }
      ],
      "name": "VoteRemoved",
      "type": "event"
    },
    {
      "stateMutability": "payable",
      "type": "fallback"
    },
    {
      "inputs": [
        {
          "internalType": "bytes32",
          "name": "",
          "type": "bytes32"
        }
      ],
      "name": "EIP1271SignedHashes",
      "outputs": [
        {
          "internalType": "bool",
          "name": "",
          "type": "bool"
        }
      ],
      "stateMutability": "view",
      "type": "function"
    },
    {
      "inputs": [
        {
          "internalType": "address",
          "name": "",
          "type": "address"
        },
        {
          "internalType": "bytes4",
          "name": "",
          "type": "bytes4"
        }
      ],
      "name": "callPermissions",
      "outputs": [
        {
          "internalType": "bool",
          "name": "",
          "type": "bool"
        }
      ],
      "stateMutability": "view",
      "type": "function"
    },
    {
      "inputs": [
        {
          "internalType": "address[]",
          "name": "to",
          "type": "address[]"
        },
        {
          "internalType": "bytes[]",
          "name": "data",
          "type": "bytes[]"
        },
        {
          "internalType": "uint256[]",
          "name": "value",
          "type": "uint256[]"
        },
        {
          "internalType": "string",
          "name": "description",
          "type": "string"
        },
        {
          "internalType": "bytes",
          "name": "contentHash",
          "type": "bytes"
        }
      ],
      "name": "createProposal",
      "outputs": [
        {
          "internalType": "bytes32",
          "name": "",
          "type": "bytes32"
        }
      ],
      "stateMutability": "nonpayable",
      "type": "function"
    },
    {
      "inputs": [
        {
          "internalType": "address[]",
          "name": "to",
          "type": "address[]"
        },
        {
          "internalType": "bytes[]",
          "name": "data",
          "type": "bytes[]"
        },
        {
          "internalType": "uint256[]",
          "name": "value",
          "type": "uint256[]"
        },
        {
          "internalType": "string[]",
          "name": "description",
          "type": "string[]"
        },
        {
          "internalType": "bytes[]",
          "name": "contentHash",
          "type": "bytes[]"
        }
      ],
      "name": "createProposals",
      "outputs": [
        {
          "internalType": "bytes32[]",
          "name": "",
          "type": "bytes32[]"
        }
      ],
      "stateMutability": "nonpayable",
      "type": "function"
    },
    {
      "inputs": [
        {
          "internalType": "bytes32",
          "name": "proposalId",
          "type": "bytes32"
        }
      ],
      "name": "endProposal",
      "outputs": [],
      "stateMutability": "nonpayable",
      "type": "function"
    },
    {
      "inputs": [
        {
          "internalType": "address",
          "name": "to",
          "type": "address"
        },
        {
          "internalType": "bytes4",
          "name": "functionSignature",
          "type": "bytes4"
        }
      ],
      "name": "getCallPermission",
      "outputs": [
        {
          "internalType": "bool",
          "name": "",
          "type": "bool"
        }
      ],
      "stateMutability": "view",
      "type": "function"
    },
    {
      "inputs": [
        {
          "internalType": "bytes",
          "name": "data",
          "type": "bytes"
        }
      ],
      "name": "getFuncSignature",
      "outputs": [
        {
          "internalType": "bytes4",
          "name": "",
          "type": "bytes4"
        }
      ],
      "stateMutability": "view",
      "type": "function"
    },
    {
      "inputs": [
        {
          "internalType": "bytes32",
          "name": "proposalId",
          "type": "bytes32"
        }
      ],
      "name": "getProposal",
      "outputs": [
        {
          "internalType": "address",
          "name": "creator",
          "type": "address"
        },
        {
          "internalType": "uint256",
          "name": "startTime",
          "type": "uint256"
        },
        {
          "internalType": "uint256",
          "name": "endTime",
          "type": "uint256"
        },
        {
          "internalType": "address[]",
          "name": "to",
          "type": "address[]"
        },
        {
          "internalType": "bytes[]",
          "name": "data",
          "type": "bytes[]"
        },
        {
          "internalType": "uint256[]",
          "name": "value",
          "type": "uint256[]"
        },
        {
          "internalType": "string",
          "name": "description",
          "type": "string"
        },
        {
          "internalType": "bytes",
          "name": "contentHash",
          "type": "bytes"
        },
        {
          "internalType": "uint256",
          "name": "totalVotes",
          "type": "uint256"
        },
        {
          "internalType": "enum ERC20Guild.ProposalState",
          "name": "state",
          "type": "uint8"
        },
        {
          "internalType": "uint256",
          "name": "snapshotId",
          "type": "uint256"
        }
      ],
      "stateMutability": "view",
      "type": "function"
    },
    {
      "inputs": [
        {
          "internalType": "bytes32",
          "name": "proposalId",
          "type": "bytes32"
        },
        {
          "internalType": "address",
          "name": "voter",
          "type": "address"
        }
      ],
      "name": "getProposalVotes",
      "outputs": [
        {
          "internalType": "uint256",
          "name": "",
          "type": "uint256"
        }
      ],
      "stateMutability": "view",
      "type": "function"
    },
    {
      "inputs": [],
      "name": "getProposalsIdsLength",
      "outputs": [
        {
          "internalType": "uint256",
          "name": "",
          "type": "uint256"
        }
      ],
      "stateMutability": "view",
      "type": "function"
    },
    {
      "inputs": [],
      "name": "getVotesForCreation",
      "outputs": [
        {
          "internalType": "uint256",
          "name": "",
          "type": "uint256"
        }
      ],
      "stateMutability": "view",
      "type": "function"
    },
    {
      "inputs": [],
      "name": "getVotesForExecution",
      "outputs": [
        {
          "internalType": "uint256",
          "name": "",
          "type": "uint256"
        }
      ],
      "stateMutability": "view",
      "type": "function"
    },
    {
      "inputs": [
        {
          "internalType": "address",
          "name": "voter",
          "type": "address"
        },
        {
          "internalType": "bytes32",
          "name": "proposalId",
          "type": "bytes32"
        },
        {
          "internalType": "uint256",
          "name": "amount",
          "type": "uint256"
        }
      ],
      "name": "hashVote",
      "outputs": [
        {
          "internalType": "bytes32",
          "name": "",
          "type": "bytes32"
        }
      ],
      "stateMutability": "pure",
      "type": "function"
    },
    {
      "inputs": [
        {
          "internalType": "address",
          "name": "_token",
          "type": "address"
        },
        {
          "internalType": "uint256",
          "name": "_proposalTime",
          "type": "uint256"
        },
        {
          "internalType": "uint256",
          "name": "_timeForExecution",
          "type": "uint256"
        },
        {
          "internalType": "uint256",
          "name": "_votesForExecution",
          "type": "uint256"
        },
        {
          "internalType": "uint256",
          "name": "_votesForCreation",
          "type": "uint256"
        },
        {
          "internalType": "string",
          "name": "_name",
          "type": "string"
        },
        {
          "internalType": "uint256",
          "name": "_voteGas",
          "type": "uint256"
        },
        {
          "internalType": "uint256",
          "name": "_maxGasPrice",
          "type": "uint256"
        },
        {
          "internalType": "uint256",
          "name": "_lockTime",
          "type": "uint256"
        }
      ],
      "name": "initialize",
      "outputs": [],
      "stateMutability": "nonpayable",
      "type": "function"
    },
    {
      "inputs": [],
      "name": "initialized",
      "outputs": [
        {
          "internalType": "bool",
          "name": "",
          "type": "bool"
        }
      ],
      "stateMutability": "view",
      "type": "function"
    },
    {
      "inputs": [
        {
          "internalType": "bytes32",
          "name": "hash",
          "type": "bytes32"
        },
        {
          "internalType": "bytes",
          "name": "signature",
          "type": "bytes"
        }
      ],
      "name": "isValidSignature",
      "outputs": [
        {
          "internalType": "bytes4",
          "name": "magicValue",
          "type": "bytes4"
        }
      ],
      "stateMutability": "view",
      "type": "function"
    },
    {
      "inputs": [],
      "name": "lockTime",
      "outputs": [
        {
          "internalType": "uint256",
          "name": "",
          "type": "uint256"
        }
      ],
      "stateMutability": "view",
      "type": "function"
    },
    {
      "inputs": [
        {
          "internalType": "uint256",
          "name": "amount",
          "type": "uint256"
        }
      ],
      "name": "lockTokens",
      "outputs": [],
      "stateMutability": "nonpayable",
      "type": "function"
    },
    {
      "inputs": [],
      "name": "maxGasPrice",
      "outputs": [
        {
          "internalType": "uint256",
          "name": "",
          "type": "uint256"
        }
      ],
      "stateMutability": "view",
      "type": "function"
    },
    {
      "inputs": [],
      "name": "name",
      "outputs": [
        {
          "internalType": "string",
          "name": "",
          "type": "string"
        }
      ],
      "stateMutability": "view",
      "type": "function"
    },
    {
      "inputs": [],
      "name": "proposalNonce",
      "outputs": [
        {
          "internalType": "uint256",
          "name": "",
          "type": "uint256"
        }
      ],
      "stateMutability": "view",
      "type": "function"
    },
    {
      "inputs": [],
      "name": "proposalTime",
      "outputs": [
        {
          "internalType": "uint256",
          "name": "",
          "type": "uint256"
        }
      ],
      "stateMutability": "view",
      "type": "function"
    },
    {
      "inputs": [
        {
          "internalType": "bytes32",
          "name": "",
          "type": "bytes32"
        }
      ],
      "name": "proposals",
      "outputs": [
        {
          "internalType": "address",
          "name": "creator",
          "type": "address"
        },
        {
          "internalType": "uint256",
          "name": "startTime",
          "type": "uint256"
        },
        {
          "internalType": "uint256",
          "name": "endTime",
          "type": "uint256"
        },
        {
          "internalType": "string",
          "name": "description",
          "type": "string"
        },
        {
          "internalType": "bytes",
          "name": "contentHash",
          "type": "bytes"
        },
        {
          "internalType": "uint256",
          "name": "totalVotes",
          "type": "uint256"
        },
        {
          "internalType": "enum ERC20Guild.ProposalState",
          "name": "state",
          "type": "uint8"
        },
        {
          "internalType": "uint256",
          "name": "snapshotId",
          "type": "uint256"
        }
      ],
      "stateMutability": "view",
      "type": "function"
    },
    {
      "inputs": [
        {
          "internalType": "uint256",
          "name": "",
          "type": "uint256"
        }
      ],
      "name": "proposalsIds",
      "outputs": [
        {
          "internalType": "bytes32",
          "name": "",
          "type": "bytes32"
        }
      ],
      "stateMutability": "view",
      "type": "function"
    },
    {
      "inputs": [
        {
          "internalType": "uint256",
          "name": "amount",
          "type": "uint256"
        }
      ],
      "name": "releaseTokens",
      "outputs": [],
      "stateMutability": "nonpayable",
      "type": "function"
    },
    {
      "inputs": [
        {
          "internalType": "address[]",
          "name": "to",
          "type": "address[]"
        },
        {
          "internalType": "bytes4[]",
          "name": "functionSignature",
          "type": "bytes4[]"
        },
        {
          "internalType": "bool[]",
          "name": "allowance",
          "type": "bool[]"
        }
      ],
      "name": "setAllowance",
      "outputs": [],
      "stateMutability": "nonpayable",
      "type": "function"
    },
    {
      "inputs": [
        {
          "internalType": "uint256",
          "name": "_proposalTime",
          "type": "uint256"
        },
        {
          "internalType": "uint256",
          "name": "_timeForExecution",
          "type": "uint256"
        },
        {
          "internalType": "uint256",
          "name": "_votesForExecution",
          "type": "uint256"
        },
        {
          "internalType": "uint256",
          "name": "_votesForCreation",
          "type": "uint256"
        },
        {
          "internalType": "uint256",
          "name": "_voteGas",
          "type": "uint256"
        },
        {
          "internalType": "uint256",
          "name": "_maxGasPrice",
          "type": "uint256"
        },
        {
          "internalType": "uint256",
          "name": "_lockTime",
          "type": "uint256"
        }
      ],
      "name": "setConfig",
      "outputs": [],
      "stateMutability": "nonpayable",
      "type": "function"
    },
    {
      "inputs": [
        {
          "internalType": "bytes32",
          "name": "_hash",
          "type": "bytes32"
        }
      ],
      "name": "setEIP1271SignedHash",
      "outputs": [],
      "stateMutability": "nonpayable",
      "type": "function"
    },
    {
      "inputs": [
        {
          "internalType": "bytes32",
          "name": "proposalId",
          "type": "bytes32"
        },
        {
          "internalType": "uint256",
          "name": "amount",
          "type": "uint256"
        },
        {
          "internalType": "address",
          "name": "voter",
          "type": "address"
        },
        {
          "internalType": "bytes",
          "name": "signature",
          "type": "bytes"
        }
      ],
      "name": "setSignedVote",
      "outputs": [],
      "stateMutability": "nonpayable",
      "type": "function"
    },
    {
      "inputs": [
        {
          "internalType": "bytes32[]",
          "name": "proposalIds",
          "type": "bytes32[]"
        },
        {
          "internalType": "uint256[]",
          "name": "amounts",
          "type": "uint256[]"
        },
        {
          "internalType": "address[]",
          "name": "voters",
          "type": "address[]"
        },
        {
          "internalType": "bytes[]",
          "name": "signatures",
          "type": "bytes[]"
        }
      ],
      "name": "setSignedVotes",
      "outputs": [],
      "stateMutability": "nonpayable",
      "type": "function"
    },
    {
      "inputs": [
        {
          "internalType": "bytes32",
          "name": "proposalId",
          "type": "bytes32"
        },
        {
          "internalType": "uint256",
          "name": "amount",
          "type": "uint256"
        }
      ],
      "name": "setVote",
      "outputs": [],
      "stateMutability": "nonpayable",
      "type": "function"
    },
    {
      "inputs": [
        {
          "internalType": "bytes32[]",
          "name": "proposalIds",
          "type": "bytes32[]"
        },
        {
          "internalType": "uint256[]",
          "name": "amounts",
          "type": "uint256[]"
        }
      ],
      "name": "setVotes",
      "outputs": [],
      "stateMutability": "nonpayable",
      "type": "function"
    },
    {
      "inputs": [
        {
          "internalType": "bytes32",
          "name": "",
          "type": "bytes32"
        }
      ],
      "name": "signedVotes",
      "outputs": [
        {
          "internalType": "bool",
          "name": "",
          "type": "bool"
        }
      ],
      "stateMutability": "view",
      "type": "function"
    },
    {
      "inputs": [],
      "name": "timeForExecution",
      "outputs": [
        {
          "internalType": "uint256",
          "name": "",
          "type": "uint256"
        }
      ],
      "stateMutability": "view",
      "type": "function"
    },
    {
      "inputs": [],
      "name": "token",
      "outputs": [
        {
          "internalType": "contract IERC20Upgradeable",
          "name": "",
          "type": "address"
        }
      ],
      "stateMutability": "view",
      "type": "function"
    },
    {
      "inputs": [],
      "name": "tokenVault",
      "outputs": [
        {
          "internalType": "contract TokenVault",
          "name": "",
          "type": "address"
        }
      ],
      "stateMutability": "view",
      "type": "function"
    },
    {
      "inputs": [
        {
          "internalType": "address",
          "name": "",
          "type": "address"
        }
      ],
      "name": "tokensLocked",
      "outputs": [
        {
          "internalType": "uint256",
          "name": "amount",
          "type": "uint256"
        },
        {
          "internalType": "uint256",
          "name": "timestamp",
          "type": "uint256"
        }
      ],
      "stateMutability": "view",
      "type": "function"
    },
    {
      "inputs": [],
      "name": "totalLocked",
      "outputs": [
        {
          "internalType": "uint256",
          "name": "",
          "type": "uint256"
        }
      ],
      "stateMutability": "view",
      "type": "function"
    },
    {
      "inputs": [
        {
          "internalType": "uint256",
          "name": "snapshotId",
          "type": "uint256"
        }
      ],
      "name": "totalLockedAt",
      "outputs": [
        {
          "internalType": "uint256",
          "name": "",
          "type": "uint256"
        }
      ],
      "stateMutability": "view",
      "type": "function"
    },
    {
      "inputs": [],
      "name": "voteGas",
      "outputs": [
        {
          "internalType": "uint256",
          "name": "",
          "type": "uint256"
        }
      ],
      "stateMutability": "view",
      "type": "function"
    },
    {
      "inputs": [],
      "name": "votesForCreation",
      "outputs": [
        {
          "internalType": "uint256",
          "name": "",
          "type": "uint256"
        }
      ],
      "stateMutability": "view",
      "type": "function"
    },
    {
      "inputs": [],
      "name": "votesForExecution",
      "outputs": [
        {
          "internalType": "uint256",
          "name": "",
          "type": "uint256"
        }
      ],
      "stateMutability": "view",
      "type": "function"
    },
    {
      "inputs": [
        {
          "internalType": "address",
          "name": "account",
          "type": "address"
        }
      ],
      "name": "votesOf",
      "outputs": [
        {
          "internalType": "uint256",
          "name": "",
          "type": "uint256"
        }
      ],
      "stateMutability": "view",
      "type": "function"
    },
    {
      "inputs": [
        {
          "internalType": "address[]",
          "name": "accounts",
          "type": "address[]"
        }
      ],
      "name": "votesOf",
      "outputs": [
        {
          "internalType": "uint256[]",
          "name": "",
          "type": "uint256[]"
        }
      ],
      "stateMutability": "view",
      "type": "function"
    },
    {
      "inputs": [
        {
          "internalType": "address",
          "name": "account",
          "type": "address"
        },
        {
          "internalType": "uint256",
          "name": "snapshotId",
          "type": "uint256"
        }
      ],
      "name": "votesOfAt",
      "outputs": [
        {
          "internalType": "uint256",
          "name": "",
          "type": "uint256"
        }
      ],
      "stateMutability": "view",
      "type": "function"
    },
    {
      "inputs": [
        {
          "internalType": "address[]",
          "name": "accounts",
          "type": "address[]"
        },
        {
          "internalType": "uint256[]",
          "name": "snapshotIds",
          "type": "uint256[]"
        }
      ],
      "name": "votesOfAt",
      "outputs": [
        {
          "internalType": "uint256[]",
          "name": "",
          "type": "uint256[]"
        }
      ],
      "stateMutability": "view",
      "type": "function"
    },
    {
      "stateMutability": "payable",
      "type": "receive"
    }
  ],
  "bytecode": "0x608060405234801561001057600080fd5b50614cea806100206000396000f3fe6080604052600436106102695760003560e01c80635bc789d911610143578063b3b47061116100bb578063ea1627c011610077578063ea1627c01461082b578063ed996f5e14610858578063f4ff96aa14610878578063f977cd2914610898578063fc0c546a146108ad578063fc4e703f146108d357005b8063b3b4706114610741578063b96f8c9e14610761578063bec11c0e14610781578063cc3c74a1146107a1578063d5c1b6fc146107b7578063db0c41bf146107fe57005b80637e17e3fc1161010a5780637e17e3fc146106865780638c20a9c5146106a65780639669b1cb146106bc5780639840dccc146106d1578063adbba7ae14610701578063b3929aaa1461072157005b80635bc789d9146105b0578063663bb4af146105e85780636e27d8891461060b57806376b0243a1461062b57806379ec5d3a1461066657005b806327f2bdde116101e15780633f10cf151161019d5780633f10cf15146104ed5780633fe229f714610503578063402bad8e14610523578063430694cf146105435780634b0babdd1461057a578063568914121461059a57005b806327f2bdde146104135780632fd99c001461043357806332315fc41461046357806332ed5b12146104835780633a3bed00146104b75780633de39c11146104d757005b806314621a3a1161023057806314621a3a14610361578063158ef93e146103815780631626ba7e146103b2578063184a0ae9146103d25780631c3e89f4146103e85780632229a0e2146103fe57005b806301a598a61461027257806306fdde03146102c0578063088af182146102e25780630d6680871461031d5780630f9a85531461034157005b3661027057005b005b34801561027e57600080fd5b506102a661028d3660046136d0565b600e602052600090815260409020805460019091015482565b604080519283526020830191909152015b60405180910390f35b3480156102cc57600080fd5b506102d56108e9565b6040516102b79190613738565b3480156102ee57600080fd5b506103046102fd366004613800565b6020015190565b6040516001600160e01b031990911681526020016102b7565b34801561032957600080fd5b5061033360085481565b6040519081526020016102b7565b34801561034d57600080fd5b5061027061035c3660046138ca565b610977565b34801561036d57600080fd5b5061027061037c36600461392d565b610a48565b34801561038d57600080fd5b506000546103a290600160b01b900460ff1681565b60405190151581526020016102b7565b3480156103be57600080fd5b506103046103cd36600461398d565b610bcb565b3480156103de57600080fd5b5061033360025481565b3480156103f457600080fd5b5061033360045481565b34801561040a57600080fd5b50601154610333565b34801561041f57600080fd5b5061033361042e366004613aaa565b610c13565b34801561043f57600080fd5b506103a261044e366004613b7b565b600c6020526000908152604090205460ff1681565b34801561046f57600080fd5b5061033361047e366004613b94565b610ccd565b34801561048f57600080fd5b506104a361049e366004613b7b565b610d19565b6040516102b7989796959493929190613bf6565b3480156104c357600080fd5b506102706104d2366004613c61565b610e7c565b3480156104e357600080fd5b5061033360075481565b3480156104f957600080fd5b5061033360035481565b34801561050f57600080fd5b5061027061051e366004613b7b565b610f11565b34801561052f57600080fd5b5061027061053e366004613d01565b610f8a565b34801561054f57600080fd5b5061056361055e366004613b7b565b610fa2565b6040516102b79b9a99989796959493929190613dda565b34801561058657600080fd5b50610270610595366004613b7b565b6112db565b3480156105a657600080fd5b5061033360095481565b3480156105bc57600080fd5b50600a546105d0906001600160a01b031681565b6040516001600160a01b0390911681526020016102b7565b3480156105f457600080fd5b506103a2610603366004613ed0565b600192915050565b34801561061757600080fd5b50610270610626366004613b7b565b61149f565b34801561063757600080fd5b506103a2610646366004613ed0565b600d60209081526000928352604080842090915290825290205460ff1681565b34801561067257600080fd5b506103336106813660046136d0565b6115a6565b34801561069257600080fd5b506102706106a1366004613f03565b6115c1565b3480156106b257600080fd5b5061033360055481565b3480156106c857600080fd5b50600454610333565b3480156106dd57600080fd5b506103a26106ec366004613b7b565b600f6020526000908152604090205460ff1681565b34801561070d57600080fd5b5061033361071c366004613f94565b61183c565b34801561072d57600080fd5b5061033361073c366004613b7b565b61188b565b34801561074d57600080fd5b5061027061075c366004613b7b565b6118ac565b34801561076d57600080fd5b5061027061077c366004614031565b611969565b34801561078d57600080fd5b5061027061079c366004614113565b611db1565b3480156107ad57600080fd5b50610333600b5481565b3480156107c357600080fd5b506103336107d2366004614135565b60008281526010602090815260408083206001600160a01b0385168452600b0190915290205492915050565b34801561080a57600080fd5b5061081e610819366004614158565b611e36565b6040516102b7919061418e565b34801561083757600080fd5b5061084b610846366004614220565b611efe565b6040516102b791906142e4565b34801561086457600080fd5b50610333610873366004613b7b565b6122d2565b34801561088457600080fd5b5061081e610893366004614328565b6122fe565b3480156108a457600080fd5b50600554610333565b3480156108b957600080fd5b506000546105d0906201000090046001600160a01b031681565b3480156108df57600080fd5b5061033360065481565b600180546108f69061435c565b80601f01602080910402602001604051908101604052809291908181526020018280546109229061435c565b801561096f5780601f106109445761010080835404028352916020019161096f565b820191906000526020600020905b81548152906001019060200180831161095257829003601f168201915b505050505081565b80518251146109e85760405162461bcd60e51b815260206004820152603260248201527f45524332304775696c643a2057726f6e67206c656e677468206f662070726f706044820152716f73616c496473206f7220616d6f756e747360701b60648201526084015b60405180910390fd5b60005b8251811015610a4357610a3133848381518110610a0a57610a0a614397565b6020026020010151848481518110610a2457610a24614397565b60200260200101516123ab565b80610a3b816143c3565b9150506109eb565b505050565b600054600160b01b900460ff16610a715760405162461bcd60e51b81526004016109df906143de565b6000610a7e83868661183c565b6000818152600c602052604090205490915060ff1615610ae05760405162461bcd60e51b815260206004820152601960248201527f45524332304775696c643a20416c726561647920766f7465640000000000000060448201526064016109df565b610b4182610b3b836040517f19457468657265756d205369676e6564204d6573736167653a0a3332000000006020820152603c8101829052600090605c01604051602081830303815290604052805190602001209050919050565b90612669565b6001600160a01b0316836001600160a01b031614610ba15760405162461bcd60e51b815260206004820152601860248201527f45524332304775696c643a2057726f6e67207369676e6572000000000000000060448201526064016109df565b610bac8386866123ab565b6000908152600c60205260409020805460ff1916600117905550505050565b600080610bdb6106818585612669565b118015610bf657506000838152600f602052604090205460ff165b610c01576000610c0a565b630b135d3f60e11b5b90505b92915050565b60008054600160b01b900460ff16610c3d5760405162461bcd60e51b81526004016109df906143de565b600554610c49336115a6565b1015610c675760405162461bcd60e51b81526004016109df90614415565b84518651148015610c79575083518651145b610c955760405162461bcd60e51b81526004016109df90614465565b6000865111610cb65760405162461bcd60e51b81526004016109df906144b9565b610cc38686868686612685565b9695505050505050565b6001600160a01b038216600090815260126020526040812081908190610cf4908590612830565b915091508115610d07579150610c0d9050565b610d10856115a6565b92505050610c0d565b60106020526000908152604090208054600182015460028301546006840180546001600160a01b03909416949293919291610d539061435c565b80601f0160208091040260200160405190810160405280929190818152602001828054610d7f9061435c565b8015610dcc5780601f10610da157610100808354040283529160200191610dcc565b820191906000526020600020905b815481529060010190602001808311610daf57829003601f168201915b505050505090806007018054610de19061435c565b80601f0160208091040260200160405190810160405280929190818152602001828054610e0d9061435c565b8015610e5a5780601f10610e2f57610100808354040283529160200191610e5a565b820191906000526020600020905b815481529060010190602001808311610e3d57829003601f168201915b5050505060088301546009840154600a909401549293909260ff909116915088565b60005b8451811015610f0a57610ef8858281518110610e9d57610e9d614397565b6020026020010151858381518110610eb757610eb7614397565b6020026020010151858481518110610ed157610ed1614397565b6020026020010151858581518110610eeb57610eeb614397565b6020026020010151610a48565b80610f02816143c3565b915050610e7f565b5050505050565b333014610f6f5760405162461bcd60e51b815260206004820152602660248201527f45524332304775696c643a204f6e6c792063616c6c61626c65206279207468656044820152650819dd5a5b1960d21b60648201526084016109df565b6000908152600f60205260409020805460ff19166001179055565b610f998787878787878761291f565b50505050505050565b60008060006060806060806060600080600080601060008e815260200190815260200160002090508060000160009054906101000a90046001600160a01b031681600101548260020154836003018460040185600501866006018760070188600801548960090160009054906101000a900460ff168a600a01548780548060200260200160405190810160405280929190818152602001828054801561107157602002820191906000526020600020905b81546001600160a01b03168152600190910190602001808311611053575b5050505050975086805480602002602001604051908101604052809291908181526020016000905b828210156111455783829060005260206000200180546110b89061435c565b80601f01602080910402602001604051908101604052809291908181526020018280546110e49061435c565b80156111315780601f1061110657610100808354040283529160200191611131565b820191906000526020600020905b81548152906001019060200180831161111457829003601f168201915b505050505081526020019060010190611099565b5050505096508580548060200260200160405190810160405280929190818152602001828054801561119657602002820191906000526020600020905b815481526020019060010190808311611182575b505050505095508480546111a99061435c565b80601f01602080910402602001604051908101604052809291908181526020018280546111d59061435c565b80156112225780601f106111f757610100808354040283529160200191611222565b820191906000526020600020905b81548152906001019060200180831161120557829003601f168201915b505050505094508380546112359061435c565b80601f01602080910402602001604051908101604052809291908181526020018280546112619061435c565b80156112ae5780601f10611283576101008083540402835291602001916112ae565b820191906000526020600020905b81548152906001019060200180831161129157829003601f168201915b505050505093509b509b509b509b509b509b509b509b509b509b509b505091939597999b90929496989a50565b806112e5336115a6565b10156113515760405162461bcd60e51b815260206004820152603560248201527f45524332304775696c643a20556e61626c6520746f2072656c65617365206d6f6044820152741c99481d1bdad95b9cc81d1a185b881b1bd8dad959605a1b60648201526084016109df565b336000908152600e602052604090206001015442116113b25760405162461bcd60e51b815260206004820152601f60248201527f45524332304775696c643a20546f6b656e73207374696c6c206c6f636b65640060448201526064016109df565b6113bb33612a9f565b6113c3612ac9565b336000908152600e60205260409020546113dd9082612ad8565b336000908152600e60205260409020556009546113fa9082612ad8565b600955600a5460405163f3fef3a360e01b8152336004820152602481018390526001600160a01b039091169063f3fef3a390604401600060405180830381600087803b15801561144957600080fd5b505af115801561145d573d6000803e3d6000fd5b505060408051338152602081018590527fc7798891864187665ac6dd119286e44ec13f014527aeeb2b8eb3fd413df9317993500190505b60405180910390a150565b6114a833612a9f565b6114b0612ac9565b600a546040516311f9fbc960e21b8152336004820152602481018390526001600160a01b03909116906347e7ef2490604401600060405180830381600087803b1580156114fc57600080fd5b505af1158015611510573d6000803e3d6000fd5b5050336000908152600e602052604090205461152f9250905082612ae4565b336000908152600e602052604090205560085461154d904290612ae4565b336000908152600e602052604090206001015560095461156d9082612ae4565b60095560408051338152602081018390527fac87f20a77d28ee8bbb58ec87ea8fa968b3393efae1a368fd50b767c2847391c9101611494565b6001600160a01b03166000908152600e602052604090205490565b600054610100900460ff16806115da575060005460ff16155b61163d5760405162461bcd60e51b815260206004820152602e60248201527f496e697469616c697a61626c653a20636f6e747261637420697320616c72656160448201526d191e481a5b9a5d1a585b1a5e995960921b60648201526084016109df565b600054610100900460ff1615801561165f576000805461ffff19166101011790555b6001600160a01b038a166116c35760405162461bcd60e51b815260206004820152602560248201527f45524332304775696c643a20746f6b656e20697320746865207a65726f206164604482015264647265737360d81b60648201526084016109df565b84516116d69060019060208801906134d4565b506000805462010000600160b01b031916620100006001600160a01b038d160217905560405161170590613558565b604051809103906000f080158015611721573d6000803e3d6000fd5b50600a80546001600160a01b0319166001600160a01b0392831690811790915560005460405163485cc95560e01b81526201000090910490921660048301523060248301529063485cc95590604401600060405180830381600087803b15801561178a57600080fd5b505af115801561179e573d6000803e3d6000fd5b505050506117b18989898988888861291f565b306000908152600d60209081526040808320632015d6c760e11b8452909152808220805460ff199081166001908117909255635cb7c64f60e11b84528284208054821683179055635a2bcc6b60e11b84529183208054909216179055805460ff60b01b1916600160b01b1790558015611830576000805461ff00191690555b50505050505050505050565b6040516bffffffffffffffffffffffff19606085901b16602082015260348101839052605481018290526000906074016040516020818303038152906040528051906020012090509392505050565b6011818154811061189b57600080fd5b600091825260209091200154905081565b600160008281526010602052604090206009015460ff1660048111156118d4576118d4613bbe565b146118f15760405162461bcd60e51b81526004016109df9061450a565b600081815260106020526040902060020154421161195d5760405162461bcd60e51b8152602060048201526024808201527f45524332304775696c643a2050726f706f73616c206861736e7420656e646564604482015263081e595d60e21b60648201526084016109df565b61196681612af0565b50565b600054600160b01b900460ff166119925760405162461bcd60e51b81526004016109df906143de565b3330146119f85760405162461bcd60e51b815260206004820152602e60248201527f45524332304775696c643a204f6e6c792063616c6c61626c652062792045524360448201526d191833bab4b6321034ba39b2b63360911b60648201526084016109df565b81518351148015611a0a575080518351145b611a8a5760405162461bcd60e51b815260206004820152604560248201527f45524332304775696c643a2057726f6e67206c656e677468206f6620746f2c2060448201527f66756e6374696f6e5369676e6174757265206f7220616c6c6f77616e63652061606482015264727261797360d81b608482015260a4016109df565b60005b8351811015611c82578251600090849083908110611aad57611aad614397565b60200260200101516001600160e01b0319161415611b1e5760405162461bcd60e51b815260206004820152602860248201527f45524332304775696c643a20456d70747920736967616e7475726573206e6f7460448201526708185b1b1bddd95960c21b60648201526084016109df565b818181518110611b3057611b30614397565b6020026020010151600d6000868481518110611b4e57611b4e614397565b60200260200101516001600160a01b03166001600160a01b031681526020019081526020016000206000858481518110611b8a57611b8a614397565b60200260200101516001600160e01b0319166001600160e01b031916815260200190815260200160002060006101000a81548160ff021916908315150217905550838181518110611bdd57611bdd614397565b60200260200101516001600160a01b03167f31e41e795ddf7710d216f93d4d9a1080ca53618ba00822e743d12f31a7dfc980848381518110611c2157611c21614397565b6020026020010151848481518110611c3b57611c3b614397565b6020026020010151604051611c689291906001600160e01b03199290921682521515602082015260400190565b60405180910390a280611c7a816143c3565b915050611a8d565b50306000908152600d60209081526040808320632015d6c760e11b845290915290205460ff16611d1a5760405162461bcd60e51b815260206004820152603b60248201527f45524332304775696c643a20736574436f6e6669672066756e6374696f6e206160448201527f6c6c6f77616e63652063616e74206265207475726e6564206f6666000000000060648201526084016109df565b306000908152600d60209081526040808320635cb7c64f60e11b845290915290205460ff16610a435760405162461bcd60e51b815260206004820152603e60248201527f45524332304775696c643a20736574416c6c6f77616e63652066756e6374696f60448201527f6e20616c6c6f77616e63652063616e74206265207475726e6564206f6666000060648201526084016109df565b6000828152601060205260409020600a01548190611dd0903390610ccd565b1015611e1e5760405162461bcd60e51b815260206004820152601a60248201527f45524332304775696c643a20496e76616c696420616d6f756e7400000000000060448201526064016109df565b611e293383836123ab565b611e3233612f44565b5050565b6060600083516001600160401b03811115611e5357611e5361374b565b604051908082528060200260200182016040528015611e7c578160200160208202803683370190505b50905060005b8451811015611ef657611ec7858281518110611ea057611ea0614397565b6020026020010151858381518110611eba57611eba614397565b6020026020010151610ccd565b828281518110611ed957611ed9614397565b602090810291909101015280611eee816143c3565b915050611e82565b509392505050565b600054606090600160b01b900460ff16611f2a5760405162461bcd60e51b81526004016109df906143de565b600554611f36336115a6565b1015611f545760405162461bcd60e51b81526004016109df90614415565b84518651148015611f66575083518651145b611f825760405162461bcd60e51b81526004016109df90614465565b8151835114611ff95760405162461bcd60e51b815260206004820152603d60248201527f45524332304775696c643a2057726f6e67206c656e677468206f66206465736360448201527f72697074696f6e206f7220636f6e74656e74486173682061727261797300000060648201526084016109df565b600086511161201a5760405162461bcd60e51b81526004016109df906144b9565b600083516001600160401b038111156120355761203561374b565b60405190808252806020026020018201604052801561205e578160200160208202803683370190505b5084518851919250906000906120749083612fd7565b905060005b828110156122c4576000826001600160401b0381111561209b5761209b61374b565b6040519080825280602002602001820160405280156120c4578160200160208202803683370190505b5090506000836001600160401b038111156120e1576120e161374b565b60405190808252806020026020018201604052801561211457816020015b60608152602001906001900390816120ff5790505b5090506000846001600160401b038111156121315761213161374b565b60405190808252806020026020018201604052801561215a578160200160208202803683370190505b50905060008061216a8787612fe3565b90505b8681101561224f578e818151811061218757612187614397565b60200260200101518583815181106121a1576121a1614397565b60200260200101906001600160a01b031690816001600160a01b0316815250508d81815181106121d3576121d3614397565b60200260200101518483815181106121ed576121ed614397565b60200260200101819052508c818151811061220a5761220a614397565b602002602001015183838151811061222457612224614397565b602090810291909101015281612239816143c3565b9250508080612247906143c3565b91505061216d565b5061228f8484848e898151811061226857612268614397565b60200260200101518e8a8151811061228257612282614397565b6020026020010151612685565b8886815181106122a1576122a1614397565b6020026020010181815250505050505080806122bc906143c3565b915050612079565b509198975050505050505050565b60008060006122e2846013612830565b9150915081156122f3579392505050565b505060095492915050565b6060600082516001600160401b0381111561231b5761231b61374b565b604051908082528060200260200182016040528015612344578160200160208202803683370190505b50905060005b83518110156123a45761237584828151811061236857612368614397565b60200260200101516115a6565b82828151811061238757612387614397565b60209081029190910101528061239c816143c3565b91505061234a565b5092915050565b600054600160b01b900460ff166123d45760405162461bcd60e51b81526004016109df906143de565b600160008381526010602052604090206009015460ff1660048111156123fc576123fc613bbe565b146124195760405162461bcd60e51b81526004016109df9061450a565b80612423846115a6565b10156124715760405162461bcd60e51b815260206004820152601a60248201527f45524332304775696c643a20496e76616c696420616d6f756e7400000000000060448201526064016109df565b60008281526010602090815260408083206001600160a01b0387168452600b019091529020548111156125715760008281526010602090815260408083206001600160a01b0387168452600b019091529020546124eb906124d3908390612ad8565b60008481526010602052604090206008015490612ae4565b600083815260106020908152604080832060088101949094556001600160a01b0387168352600b9093019052205482907f994c1e2cd59a94ec7f932ab317a85dabd5f43917c5cfb959b751a9648140c0c290859061254a908590612ad8565b604080516001600160a01b03909316835260208301919091520160405180910390a261263e565b60008281526010602090815260408083206001600160a01b0387168452600b019091529020546125bd906125a59083612ad8565b60008481526010602052604090206008015490612ad8565b600083815260106020908152604080832060088101949094556001600160a01b0387168352600b9093019052205482907f79f996adb5f064cd332cb02f590abdf662bafabcbe22469b8b316466e475c2c190859061261b9085612ad8565b604080516001600160a01b03909316835260208301919091520160405180910390a25b60009182526010602090815260408084206001600160a01b039095168452600b909401905291902055565b60008060006126788585612fef565b91509150611ef68161305c565b600b54604080513360601b6bffffffffffffffffffffffff1916602080830191909152426034830152605480830185905283518084039091018152607490920190925280519101206000916126db906001612ae4565b600b556015546126ec906001612ae4565b601555600081815260106020526040902080546001600160a01b0319163317815542600182018190556002546127229190612ae4565b6002820155875161273c90600383019060208b0190613565565b50865161275290600483019060208a01906135ba565b5085516127689060058301906020890190613613565b50845161277e90600683019060208801906134d4565b50835161279490600783019060208701906134d4565b5060006008820181905560098201805460ff19166001179055601554600a83015560405183917f288a29bca04edb18fcdb2c76d6e3b03b8a137c85c70d1a4cb8aacfa868d6051091a26127f033836127eb336115a6565b6123ab565b50601180546001810182556000919091527f31ecc21a745e3968a04e9570e4425bc18fa8019c68028196b546d1669c200c68018190559695505050505050565b600080600084116128795760405162461bcd60e51b8152602060048201526013602482015272045524332304775696c643a206964206973203606c1b60448201526064016109df565b6015548411156128cb5760405162461bcd60e51b815260206004820152601a60248201527f45524332304775696c643a206e6f6e6578697374656e7420696400000000000060448201526064016109df565b60006128d78486613217565b84549091508114156128f0576000809250925050612918565b600184600101828154811061290757612907614397565b906000526020600020015492509250505b9250929050565b600054600160b01b900460ff16158061293757503330145b6129a95760405162461bcd60e51b815260206004820152603f60248201527f45524332304775696c643a204f6e6c792063616c6c61626c652062792045524360448201527f32306775696c6420697473656c66207768656e20696e697469616c697a65640060648201526084016109df565b60008511612a175760405162461bcd60e51b815260206004820152603560248201527f45524332304775696c643a20766f74657320666f7220657865637574696f6e20604482015274068617320746f206265206d6f7265207468616e203605c1b60648201526084016109df565b60008111612a7f5760405162461bcd60e51b815260206004820152602f60248201527f45524332304775696c643a206c6f636b54696d652073686f756c64206265206860448201526e6967686572207468616e207a65726f60881b60648201526084016109df565b600296909655600394909455600492909255600555600655600755600855565b6001600160a01b038116600090815260126020526040902061196690612ac4836115a6565b6132c2565b612ad660136009546132c2565b565b6000610c0a828461454f565b6000610c0a8284614566565b600454600082815260106020526040902060080154108015612b375750600160008281526010602052604090206009015460ff166004811115612b3557612b35613bbe565b145b15612b8257600081815260106020526040808220600901805460ff191660021790555182917f55295d4ce992922fa2e5ffbf3a3dcdb367de0a15e125ace083456017fd22060f91a250565b6003546000828152601060205260409020600201544291612ba39190612ae4565b108015612bd55750600160008281526010602052604090206009015460ff166004811115612bd357612bd3613bbe565b145b15612c2057600081815260106020526040808220600901805460ff191660041790555182917f0126984176eaaeb6ba34a0bd7ee6e99c473c100f79bee0bb6d17f0f44c83f1f991a250565b600160008281526010602052604090206009015460ff166004811115612c4857612c48613bbe565b1415611966576000818152601060205260408120600901805460ff191660031790555b600082815260106020526040902060030154811015612f155760008281526010602052604081206004018054612d46919084908110612cac57612cac614397565b906000526020600020018054612cc19061435c565b80601f0160208091040260200160405190810160405280929190818152602001828054612ced9061435c565b8015612d3a5780601f10612d0f57610100808354040283529160200191612d3a565b820191906000526020600020905b815481529060010190602001808311612d1d57829003601f168201915b50505050506020015190565b60008481526010602052604090206003018054919250612d799184908110612d7057612d70614397565b50600052600190565b612dc55760405162461bcd60e51b815260206004820152601c60248201527f45524332304775696c643a204e6f7420616c6c6f7765642063616c6c0000000060448201526064016109df565b6000838152601060205260408120600301805484908110612de857612de8614397565b60009182526020808320909101548683526010909152604090912060050180546001600160a01b039092169185908110612e2457612e24614397565b9060005260206000200154601060008781526020019081526020016000206004018581548110612e5657612e56614397565b90600052602060002001604051612e6d919061457e565b60006040518083038185875af1925050503d8060008114612eaa576040519150601f19603f3d011682016040523d82523d6000602084013e612eaf565b606091505b5050905080612f005760405162461bcd60e51b815260206004820181905260248201527f45524332304775696c643a2050726f706f73616c2063616c6c206661696c656460448201526064016109df565b50508080612f0d906143c3565b915050612c6b565b5060405181907f7b1bcf1ccf901a11589afff5504d59fd0a53780eed2a952adade0348985139e090600090a250565b600054600160b01b900460ff16612f6d5760405162461bcd60e51b81526004016109df906143de565b60065415611966576000612f98612f8f6007543a61330390919063ffffffff16565b60065490612fe3565b9050804710611e32576040516001600160a01b0383169082156108fc029083906000818181858888f19350505050158015610a43573d6000803e3d6000fd5b6000610c0a8284614630565b6000610c0a8284614644565b6000808251604114156130265760208301516040840151606085015160001a61301a87828585613319565b94509450505050612918565b8251604014156130505760208301516040840151613045868383613406565b935093505050612918565b50600090506002612918565b600081600481111561307057613070613bbe565b14156130795750565b600181600481111561308d5761308d613bbe565b14156130db5760405162461bcd60e51b815260206004820152601860248201527f45434453413a20696e76616c6964207369676e6174757265000000000000000060448201526064016109df565b60028160048111156130ef576130ef613bbe565b141561313d5760405162461bcd60e51b815260206004820152601f60248201527f45434453413a20696e76616c6964207369676e6174757265206c656e6774680060448201526064016109df565b600381600481111561315157613151613bbe565b14156131aa5760405162461bcd60e51b815260206004820152602260248201527f45434453413a20696e76616c6964207369676e6174757265202773272076616c604482015261756560f01b60648201526084016109df565b60048160048111156131be576131be613bbe565b14156119665760405162461bcd60e51b815260206004820152602260248201527f45434453413a20696e76616c6964207369676e6174757265202776272076616c604482015261756560f01b60648201526084016109df565b815460009081905b808210156132755760006132338383613435565b90508486828154811061324857613248614397565b906000526020600020015411156132615780915061326f565b61326c816001614566565b92505b5061321f565b6000821180156132aa5750838561328d60018561454f565b8154811061329d5761329d614397565b9060005260206000200154145b156132ba57610d1060018361454f565b509050610c0d565b601554806132cf8461348c565b1015610a43578254600180820185556000858152602080822090930193909355938401805494850181558252902090910155565b60008183106133125781610c0a565b5090919050565b6000807f7fffffffffffffffffffffffffffffff5d576e7357a4501ddfe92f46681b20a083111561335057506000905060036133fd565b8460ff16601b1415801561336857508460ff16601c14155b1561337957506000905060046133fd565b6040805160008082526020820180845289905260ff881692820192909252606081018690526080810185905260019060a0016020604051602081039080840390855afa1580156133cd573d6000803e3d6000fd5b5050604051601f1901519150506001600160a01b0381166133f6576000600192509250506133fd565b9150600090505b94509492505050565b6000806001600160ff1b03831660ff84901c601b0161342787828885613319565b935093505050935093915050565b600060026134438184614663565b61344e600286614663565b6134589190614566565b6134629190614630565b61346d600284614630565b613478600286614630565b6134829190614566565b610c0a9190614566565b805460009061349d57506000919050565b815482906134ad9060019061454f565b815481106134bd576134bd614397565b90600052602060002001549050919050565b919050565b8280546134e09061435c565b90600052602060002090601f0160209004810192826135025760008555613548565b82601f1061351b57805160ff1916838001178555613548565b82800160010185558215613548579182015b8281111561354857825182559160200191906001019061352d565b5061355492915061364d565b5090565b61063d8061467883390190565b828054828255906000526020600020908101928215613548579160200282015b8281111561354857825182546001600160a01b0319166001600160a01b03909116178255602090920191600190910190613585565b828054828255906000526020600020908101928215613607579160200282015b8281111561360757825180516135f79184916020909101906134d4565b50916020019190600101906135da565b50613554929150613662565b828054828255906000526020600020908101928215613548579160200282018281111561354857825182559160200191906001019061352d565b5b80821115613554576000815560010161364e565b80821115613554576000613676828261367f565b50600101613662565b50805461368b9061435c565b6000825580601f1061369b575050565b601f016020900490600052602060002090810190611966919061364d565b80356001600160a01b03811681146134cf57600080fd5b6000602082840312156136e257600080fd5b610c0a826136b9565b6000815180845260005b81811015613711576020818501810151868301820152016136f5565b81811115613723576000602083870101525b50601f01601f19169290920160200192915050565b602081526000610c0a60208301846136eb565b634e487b7160e01b600052604160045260246000fd5b604051601f8201601f191681016001600160401b03811182821017156137895761378961374b565b604052919050565b600082601f8301126137a257600080fd5b81356001600160401b038111156137bb576137bb61374b565b6137ce601f8201601f1916602001613761565b8181528460208386010111156137e357600080fd5b816020850160208301376000918101602001919091529392505050565b60006020828403121561381257600080fd5b81356001600160401b0381111561382857600080fd5b61383484828501613791565b949350505050565b60006001600160401b038211156138555761385561374b565b5060051b60200190565b600082601f83011261387057600080fd5b813560206138856138808361383c565b613761565b82815260059290921b840181019181810190868411156138a457600080fd5b8286015b848110156138bf57803583529183019183016138a8565b509695505050505050565b600080604083850312156138dd57600080fd5b82356001600160401b03808211156138f457600080fd5b6139008683870161385f565b9350602085013591508082111561391657600080fd5b506139238582860161385f565b9150509250929050565b6000806000806080858703121561394357600080fd5b843593506020850135925061395a604086016136b9565b915060608501356001600160401b0381111561397557600080fd5b61398187828801613791565b91505092959194509250565b600080604083850312156139a057600080fd5b8235915060208301356001600160401b038111156139bd57600080fd5b61392385828601613791565b600082601f8301126139da57600080fd5b813560206139ea6138808361383c565b82815260059290921b84018101918181019086841115613a0957600080fd5b8286015b848110156138bf57613a1e816136b9565b8352918301918301613a0d565b600082601f830112613a3c57600080fd5b81356020613a4c6138808361383c565b82815260059290921b84018101918181019086841115613a6b57600080fd5b8286015b848110156138bf5780356001600160401b03811115613a8e5760008081fd5b613a9c8986838b0101613791565b845250918301918301613a6f565b600080600080600060a08688031215613ac257600080fd5b85356001600160401b0380821115613ad957600080fd5b613ae589838a016139c9565b96506020880135915080821115613afb57600080fd5b613b0789838a01613a2b565b95506040880135915080821115613b1d57600080fd5b613b2989838a0161385f565b94506060880135915080821115613b3f57600080fd5b613b4b89838a01613791565b93506080880135915080821115613b6157600080fd5b50613b6e88828901613791565b9150509295509295909350565b600060208284031215613b8d57600080fd5b5035919050565b60008060408385031215613ba757600080fd5b613bb0836136b9565b946020939093013593505050565b634e487b7160e01b600052602160045260246000fd5b60058110613bf257634e487b7160e01b600052602160045260246000fd5b9052565b600061010060018060a01b038b168352896020840152886040840152806060840152613c24818401896136eb565b90508281036080840152613c3881886136eb565b9150508460a0830152613c4e60c0830185613bd4565b8260e08301529998505050505050505050565b60008060008060808587031215613c7757600080fd5b84356001600160401b0380821115613c8e57600080fd5b613c9a8883890161385f565b95506020870135915080821115613cb057600080fd5b613cbc8883890161385f565b94506040870135915080821115613cd257600080fd5b613cde888389016139c9565b93506060870135915080821115613cf457600080fd5b5061398187828801613a2b565b600080600080600080600060e0888a031215613d1c57600080fd5b505085359760208701359750604087013596606081013596506080810135955060a0810135945060c0013592509050565b6000815180845260208085019450848260051b860182860160005b85811015613d92578383038952613d808383516136eb565b98850198925090840190600101613d68565b5090979650505050505050565b600081518084526020808501945080840160005b83811015613dcf57815187529582019590820190600101613db3565b509495945050505050565b6000610160820160018060a01b03808f1684528d60208501528c60408501526101606060850152818c518084526101808601915060208e01935060005b81811015613e375784518416835260209485019490920191600101613e17565b50508481036080860152613e4b818d613d4d565b9250505082810360a0840152613e61818a613d9f565b905082810360c0840152613e7581896136eb565b905082810360e0840152613e8981886136eb565b91505084610100830152613ea1610120830185613bd4565b826101408301529c9b505050505050505050505050565b80356001600160e01b0319811681146134cf57600080fd5b60008060408385031215613ee357600080fd5b613eec836136b9565b9150613efa60208401613eb8565b90509250929050565b60008060008060008060008060006101208a8c031215613f2257600080fd5b613f2b8a6136b9565b985060208a0135975060408a0135965060608a0135955060808a0135945060a08a01356001600160401b03811115613f6257600080fd5b613f6e8c828d01613791565b94505060c08a0135925060e08a013591506101008a013590509295985092959850929598565b600080600060608486031215613fa957600080fd5b613fb2846136b9565b95602085013595506040909401359392505050565b600082601f830112613fd857600080fd5b81356020613fe86138808361383c565b82815260059290921b8401810191818101908684111561400757600080fd5b8286015b848110156138bf57803580151581146140245760008081fd5b835291830191830161400b565b60008060006060848603121561404657600080fd5b83356001600160401b038082111561405d57600080fd5b614069878388016139c9565b945060209150818601358181111561408057600080fd5b8601601f8101881361409157600080fd5b803561409f6138808261383c565b81815260059190911b8201840190848101908a8311156140be57600080fd5b928501925b828410156140e3576140d484613eb8565b825292850192908501906140c3565b965050505060408601359150808211156140fc57600080fd5b5061410986828701613fc7565b9150509250925092565b6000806040838503121561412657600080fd5b50508035926020909101359150565b6000806040838503121561414857600080fd5b82359150613efa602084016136b9565b6000806040838503121561416b57600080fd5b82356001600160401b038082111561418257600080fd5b613900868387016139c9565b602081526000610c0a6020830184613d9f565b600082601f8301126141b257600080fd5b813560206141c26138808361383c565b82815260059290921b840181019181810190868411156141e157600080fd5b8286015b848110156138bf5780356001600160401b038111156142045760008081fd5b6142128986838b0101613791565b8452509183019183016141e5565b600080600080600060a0868803121561423857600080fd5b85356001600160401b038082111561424f57600080fd5b61425b89838a016139c9565b9650602088013591508082111561427157600080fd5b61427d89838a01613a2b565b9550604088013591508082111561429357600080fd5b61429f89838a0161385f565b945060608801359150808211156142b557600080fd5b6142c189838a016141a1565b935060808801359150808211156142d757600080fd5b50613b6e88828901613a2b565b6020808252825182820181905260009190848201906040850190845b8181101561431c57835183529284019291840191600101614300565b50909695505050505050565b60006020828403121561433a57600080fd5b81356001600160401b0381111561435057600080fd5b613834848285016139c9565b600181811c9082168061437057607f821691505b6020821081141561439157634e487b7160e01b600052602260045260246000fd5b50919050565b634e487b7160e01b600052603260045260246000fd5b634e487b7160e01b600052601160045260246000fd5b60006000198214156143d7576143d76143ad565b5060010190565b6020808252601a908201527f45524332304775696c643a204e6f7420696e6974696c697a6564000000000000604082015260600190565b60208082526030908201527f45524332304775696c643a204e6f7420656e6f75676820746f6b656e7320746f60408201526f0818dc99585d19481c1c9bdc1bdcd85b60821b606082015260800190565b60208082526034908201527f45524332304775696c643a2057726f6e67206c656e677468206f6620746f2c2060408201527364617461206f722076616c75652061727261797360601b606082015260800190565b60208082526031908201527f45524332304775696c643a20746f2c20646174612076616c7565206172726179604082015270732063616e6e6f7420626520656d70747960781b606082015260800190565b60208082526025908201527f45524332304775696c643a2050726f706f73616c20616c72656164792065786560408201526418dd5d195960da1b606082015260800190565b600082821015614561576145616143ad565b500390565b60008219821115614579576145796143ad565b500190565b600080835481600182811c91508083168061459a57607f831692505b60208084108214156145ba57634e487b7160e01b86526022600452602486fd5b8180156145ce57600181146145df5761460c565b60ff1986168952848901965061460c565b60008a81526020902060005b868110156146045781548b8201529085019083016145eb565b505084890196505b509498975050505050505050565b634e487b7160e01b600052601260045260246000fd5b60008261463f5761463f61461a565b500490565b600081600019048311821515161561465e5761465e6143ad565b500290565b6000826146725761467261461a565b50069056fe60806040526001805460ff60a01b1916905534801561001d57600080fd5b506106108061002d6000396000f3fe608060405234801561001057600080fd5b506004361061007d5760003560e01c8063485cc9551161005b578063485cc955146100ee578063f3fef3a314610101578063f851a44014610114578063fc0c546a1461013f57600080fd5b8063158ef93e1461008257806327e235e3146100ab57806347e7ef24146100d9575b600080fd5b60015461009690600160a01b900460ff1681565b60405190151581526020015b60405180910390f35b6100cb6100b93660046104fb565b60026020526000908152604090205481565b6040519081526020016100a2565b6100ec6100e7366004610516565b610158565b005b6100ec6100fc366004610540565b6102a4565b6100ec61010f366004610516565b61039f565b600154610127906001600160a01b031681565b6040516001600160a01b0390911681526020016100a2565b600054610127906201000090046001600160a01b031681565b600154600160a01b900460ff166101b65760405162461bcd60e51b815260206004820152601a60248201527f546f6b656e5661756c743a204e6f7420696e6974696c697a656400000000000060448201526064015b60405180910390fd5b6001546001600160a01b031633146101cd57600080fd5b6000546040516323b872dd60e01b81526001600160a01b0384811660048301523060248301526044820184905262010000909204909116906323b872dd90606401602060405180830381600087803b15801561022857600080fd5b505af115801561023c573d6000803e3d6000fd5b505050506040513d601f19601f820116820180604052508101906102609190610573565b506001600160a01b03821660009081526002602052604090205461028490826104c0565b6001600160a01b0390921660009081526002602052604090209190915550565b600054610100900460ff16806102bd575060005460ff16155b6103205760405162461bcd60e51b815260206004820152602e60248201527f496e697469616c697a61626c653a20636f6e747261637420697320616c72656160448201526d191e481a5b9a5d1a585b1a5e995960921b60648201526084016101ad565b600054610100900460ff16158015610342576000805461ffff19166101011790555b600080546001600160a01b03808616620100000262010000600160b01b031990921691909117909155600180546001600160a81b03191691841691909117600160a01b179055801561039a576000805461ff00191690555b505050565b600154600160a01b900460ff166103f85760405162461bcd60e51b815260206004820152601a60248201527f546f6b656e5661756c743a204e6f7420696e6974696c697a656400000000000060448201526064016101ad565b6001546001600160a01b0316331461040f57600080fd5b60005460405163a9059cbb60e01b81526001600160a01b03848116600483015260248201849052620100009092049091169063a9059cbb90604401602060405180830381600087803b15801561046457600080fd5b505af1158015610478573d6000803e3d6000fd5b505050506040513d601f19601f8201168201806040525081019061049c9190610573565b506001600160a01b03821660009081526002602052604090205461028490826104d3565b60006104cc82846105ab565b9392505050565b60006104cc82846105c3565b80356001600160a01b03811681146104f657600080fd5b919050565b60006020828403121561050d57600080fd5b6104cc826104df565b6000806040838503121561052957600080fd5b610532836104df565b946020939093013593505050565b6000806040838503121561055357600080fd5b61055c836104df565b915061056a602084016104df565b90509250929050565b60006020828403121561058557600080fd5b815180151581146104cc57600080fd5b634e487b7160e01b600052601160045260246000fd5b600082198211156105be576105be610595565b500190565b6000828210156105d5576105d5610595565b50039056fea2646970667358221220ed228133b5b6a1d4223004479c53dd0eb4479b5ae101c8120491a2f3b4e3663f64736f6c63430008080033a264697066735822122014b9a038160411e6cc89a09106bf96fdd04055711fffbc7e4963686ac4a3381464736f6c63430008080033",
  "linkReferences": {},
  "deployedLinkReferences": {}
}