{
  "_format": "hh-sol-artifact-1",
  "contractName": "ERC20Guild",
  "sourceName": "contracts/erc20guild/ERC20Guild.sol",
  "abi": [
    {
      "anonymous": false,
      "inputs": [
        {
          "indexed": true,
          "internalType": "bytes32",
          "name": "proposalId",
          "type": "bytes32"
        }
      ],
      "name": "ProposalCreated",
      "type": "event"
    },
    {
      "anonymous": false,
      "inputs": [
        {
          "indexed": true,
          "internalType": "bytes32",
          "name": "proposalId",
          "type": "bytes32"
        }
      ],
      "name": "ProposalEnded",
      "type": "event"
    },
    {
      "anonymous": false,
      "inputs": [
        {
          "indexed": true,
          "internalType": "bytes32",
          "name": "proposalId",
          "type": "bytes32"
        }
      ],
      "name": "ProposalExecuted",
      "type": "event"
    },
    {
      "anonymous": false,
      "inputs": [
        {
          "indexed": true,
          "internalType": "bytes32",
          "name": "proposalId",
          "type": "bytes32"
        }
      ],
      "name": "ProposalRejected",
      "type": "event"
    },
    {
      "anonymous": false,
      "inputs": [
        {
          "indexed": true,
          "internalType": "address",
          "name": "to",
          "type": "address"
        },
        {
          "indexed": false,
          "internalType": "bytes4",
          "name": "functionSignature",
          "type": "bytes4"
        },
        {
          "indexed": false,
          "internalType": "bool",
          "name": "allowance",
          "type": "bool"
        }
      ],
      "name": "SetAllowance",
      "type": "event"
    },
    {
      "anonymous": false,
      "inputs": [
        {
          "indexed": false,
          "internalType": "address",
          "name": "voter",
          "type": "address"
        },
        {
          "indexed": false,
          "internalType": "uint256",
          "name": "value",
          "type": "uint256"
        }
      ],
      "name": "TokensLocked",
      "type": "event"
    },
    {
      "anonymous": false,
      "inputs": [
        {
          "indexed": false,
          "internalType": "address",
          "name": "voter",
          "type": "address"
        },
        {
          "indexed": false,
          "internalType": "uint256",
          "name": "value",
          "type": "uint256"
        }
      ],
      "name": "TokensReleased",
      "type": "event"
    },
    {
      "anonymous": false,
      "inputs": [
        {
          "indexed": true,
          "internalType": "bytes32",
          "name": "proposalId",
          "type": "bytes32"
        },
        {
          "indexed": false,
          "internalType": "address",
          "name": "voter",
          "type": "address"
        },
        {
          "indexed": false,
          "internalType": "uint256",
          "name": "amount",
          "type": "uint256"
        }
      ],
      "name": "VoteAdded",
      "type": "event"
    },
    {
      "anonymous": false,
      "inputs": [
        {
          "indexed": true,
          "internalType": "bytes32",
          "name": "proposalId",
          "type": "bytes32"
        },
        {
          "indexed": false,
          "internalType": "address",
          "name": "voter",
          "type": "address"
        },
        {
          "indexed": false,
          "internalType": "uint256",
          "name": "amount",
          "type": "uint256"
        }
      ],
      "name": "VoteRemoved",
      "type": "event"
    },
    {
      "stateMutability": "payable",
      "type": "fallback"
    },
    {
      "inputs": [
        {
          "internalType": "bytes32",
          "name": "",
          "type": "bytes32"
        }
      ],
      "name": "EIP1271SignedHashes",
      "outputs": [
        {
          "internalType": "bool",
          "name": "",
          "type": "bool"
        }
      ],
      "stateMutability": "view",
      "type": "function"
    },
    {
      "inputs": [
        {
          "internalType": "address",
          "name": "",
          "type": "address"
        },
        {
          "internalType": "bytes4",
          "name": "",
          "type": "bytes4"
        }
      ],
      "name": "callPermissions",
      "outputs": [
        {
          "internalType": "bool",
          "name": "",
          "type": "bool"
        }
      ],
      "stateMutability": "view",
      "type": "function"
    },
    {
      "inputs": [
        {
          "internalType": "address[]",
          "name": "to",
          "type": "address[]"
        },
        {
          "internalType": "bytes[]",
          "name": "data",
          "type": "bytes[]"
        },
        {
          "internalType": "uint256[]",
          "name": "value",
          "type": "uint256[]"
        },
        {
          "internalType": "string",
          "name": "description",
          "type": "string"
        },
        {
          "internalType": "bytes",
          "name": "contentHash",
          "type": "bytes"
        }
      ],
      "name": "createProposal",
      "outputs": [
        {
          "internalType": "bytes32",
          "name": "",
          "type": "bytes32"
        }
      ],
      "stateMutability": "nonpayable",
      "type": "function"
    },
    {
      "inputs": [
        {
          "internalType": "address[]",
          "name": "to",
          "type": "address[]"
        },
        {
          "internalType": "bytes[]",
          "name": "data",
          "type": "bytes[]"
        },
        {
          "internalType": "uint256[]",
          "name": "value",
          "type": "uint256[]"
        },
        {
          "internalType": "string[]",
          "name": "description",
          "type": "string[]"
        },
        {
          "internalType": "bytes[]",
          "name": "contentHash",
          "type": "bytes[]"
        }
      ],
      "name": "createProposals",
      "outputs": [
        {
          "internalType": "bytes32[]",
          "name": "",
          "type": "bytes32[]"
        }
      ],
      "stateMutability": "nonpayable",
      "type": "function"
    },
    {
      "inputs": [
        {
          "internalType": "bytes32",
          "name": "proposalId",
          "type": "bytes32"
        }
      ],
      "name": "endProposal",
      "outputs": [],
      "stateMutability": "nonpayable",
      "type": "function"
    },
    {
      "inputs": [
        {
          "internalType": "address",
          "name": "to",
          "type": "address"
        },
        {
          "internalType": "bytes4",
          "name": "functionSignature",
          "type": "bytes4"
        }
      ],
      "name": "getCallPermission",
      "outputs": [
        {
          "internalType": "bool",
          "name": "",
          "type": "bool"
        }
      ],
      "stateMutability": "view",
      "type": "function"
    },
    {
      "inputs": [
        {
          "internalType": "bytes",
          "name": "data",
          "type": "bytes"
        }
      ],
      "name": "getFuncSignature",
      "outputs": [
        {
          "internalType": "bytes4",
          "name": "",
          "type": "bytes4"
        }
      ],
      "stateMutability": "view",
      "type": "function"
    },
    {
      "inputs": [
        {
          "internalType": "bytes32",
          "name": "proposalId",
          "type": "bytes32"
        }
      ],
      "name": "getProposal",
      "outputs": [
        {
          "internalType": "address",
          "name": "creator",
          "type": "address"
        },
        {
          "internalType": "uint256",
          "name": "startTime",
          "type": "uint256"
        },
        {
          "internalType": "uint256",
          "name": "endTime",
          "type": "uint256"
        },
        {
          "internalType": "address[]",
          "name": "to",
          "type": "address[]"
        },
        {
          "internalType": "bytes[]",
          "name": "data",
          "type": "bytes[]"
        },
        {
          "internalType": "uint256[]",
          "name": "value",
          "type": "uint256[]"
        },
        {
          "internalType": "string",
          "name": "description",
          "type": "string"
        },
        {
          "internalType": "bytes",
          "name": "contentHash",
          "type": "bytes"
        },
        {
          "internalType": "uint256",
          "name": "totalVotes",
          "type": "uint256"
        },
        {
          "internalType": "enum ERC20Guild.ProposalState",
          "name": "state",
          "type": "uint8"
        },
        {
          "internalType": "uint256",
          "name": "snapshotId",
          "type": "uint256"
        }
      ],
      "stateMutability": "view",
      "type": "function"
    },
    {
      "inputs": [
        {
          "internalType": "bytes32",
          "name": "proposalId",
          "type": "bytes32"
        },
        {
          "internalType": "address",
          "name": "voter",
          "type": "address"
        }
      ],
      "name": "getProposalVotes",
      "outputs": [
        {
          "internalType": "uint256",
          "name": "",
          "type": "uint256"
        }
      ],
      "stateMutability": "view",
      "type": "function"
    },
    {
      "inputs": [],
      "name": "getProposalsIdsLength",
      "outputs": [
        {
          "internalType": "uint256",
          "name": "",
          "type": "uint256"
        }
      ],
      "stateMutability": "view",
      "type": "function"
    },
    {
      "inputs": [],
      "name": "getVotesForCreation",
      "outputs": [
        {
          "internalType": "uint256",
          "name": "",
          "type": "uint256"
        }
      ],
      "stateMutability": "view",
      "type": "function"
    },
    {
      "inputs": [],
      "name": "getVotesForExecution",
      "outputs": [
        {
          "internalType": "uint256",
          "name": "",
          "type": "uint256"
        }
      ],
      "stateMutability": "view",
      "type": "function"
    },
    {
      "inputs": [
        {
          "internalType": "address",
          "name": "voter",
          "type": "address"
        },
        {
          "internalType": "bytes32",
          "name": "proposalId",
          "type": "bytes32"
        },
        {
          "internalType": "uint256",
          "name": "amount",
          "type": "uint256"
        }
      ],
      "name": "hashVote",
      "outputs": [
        {
          "internalType": "bytes32",
          "name": "",
          "type": "bytes32"
        }
      ],
      "stateMutability": "pure",
      "type": "function"
    },
    {
      "inputs": [
        {
          "internalType": "address",
          "name": "_token",
          "type": "address"
        },
        {
          "internalType": "uint256",
          "name": "_proposalTime",
          "type": "uint256"
        },
        {
          "internalType": "uint256",
          "name": "_timeForExecution",
          "type": "uint256"
        },
        {
          "internalType": "uint256",
          "name": "_votesForExecution",
          "type": "uint256"
        },
        {
          "internalType": "uint256",
          "name": "_votesForCreation",
          "type": "uint256"
        },
        {
          "internalType": "string",
          "name": "_name",
          "type": "string"
        },
        {
          "internalType": "uint256",
          "name": "_voteGas",
          "type": "uint256"
        },
        {
          "internalType": "uint256",
          "name": "_maxGasPrice",
          "type": "uint256"
        },
        {
          "internalType": "uint256",
          "name": "_lockTime",
          "type": "uint256"
        }
      ],
      "name": "initialize",
      "outputs": [],
      "stateMutability": "nonpayable",
      "type": "function"
    },
    {
      "inputs": [],
      "name": "initialized",
      "outputs": [
        {
          "internalType": "bool",
          "name": "",
          "type": "bool"
        }
      ],
      "stateMutability": "view",
      "type": "function"
    },
    {
      "inputs": [
        {
          "internalType": "bytes32",
          "name": "hash",
          "type": "bytes32"
        },
        {
          "internalType": "bytes",
          "name": "signature",
          "type": "bytes"
        }
      ],
      "name": "isValidSignature",
      "outputs": [
        {
          "internalType": "bytes4",
          "name": "magicValue",
          "type": "bytes4"
        }
      ],
      "stateMutability": "view",
      "type": "function"
    },
    {
      "inputs": [],
      "name": "lockTime",
      "outputs": [
        {
          "internalType": "uint256",
          "name": "",
          "type": "uint256"
        }
      ],
      "stateMutability": "view",
      "type": "function"
    },
    {
      "inputs": [
        {
          "internalType": "uint256",
          "name": "amount",
          "type": "uint256"
        }
      ],
      "name": "lockTokens",
      "outputs": [],
      "stateMutability": "nonpayable",
      "type": "function"
    },
    {
      "inputs": [],
      "name": "maxGasPrice",
      "outputs": [
        {
          "internalType": "uint256",
          "name": "",
          "type": "uint256"
        }
      ],
      "stateMutability": "view",
      "type": "function"
    },
    {
      "inputs": [],
      "name": "name",
      "outputs": [
        {
          "internalType": "string",
          "name": "",
          "type": "string"
        }
      ],
      "stateMutability": "view",
      "type": "function"
    },
    {
      "inputs": [],
      "name": "proposalNonce",
      "outputs": [
        {
          "internalType": "uint256",
          "name": "",
          "type": "uint256"
        }
      ],
      "stateMutability": "view",
      "type": "function"
    },
    {
      "inputs": [],
      "name": "proposalTime",
      "outputs": [
        {
          "internalType": "uint256",
          "name": "",
          "type": "uint256"
        }
      ],
      "stateMutability": "view",
      "type": "function"
    },
    {
      "inputs": [
        {
          "internalType": "bytes32",
          "name": "",
          "type": "bytes32"
        }
      ],
      "name": "proposals",
      "outputs": [
        {
          "internalType": "address",
          "name": "creator",
          "type": "address"
        },
        {
          "internalType": "uint256",
          "name": "startTime",
          "type": "uint256"
        },
        {
          "internalType": "uint256",
          "name": "endTime",
          "type": "uint256"
        },
        {
          "internalType": "string",
          "name": "description",
          "type": "string"
        },
        {
          "internalType": "bytes",
          "name": "contentHash",
          "type": "bytes"
        },
        {
          "internalType": "uint256",
          "name": "totalVotes",
          "type": "uint256"
        },
        {
          "internalType": "enum ERC20Guild.ProposalState",
          "name": "state",
          "type": "uint8"
        },
        {
          "internalType": "uint256",
          "name": "snapshotId",
          "type": "uint256"
        }
      ],
      "stateMutability": "view",
      "type": "function"
    },
    {
      "inputs": [
        {
          "internalType": "uint256",
          "name": "",
          "type": "uint256"
        }
      ],
      "name": "proposalsIds",
      "outputs": [
        {
          "internalType": "bytes32",
          "name": "",
          "type": "bytes32"
        }
      ],
      "stateMutability": "view",
      "type": "function"
    },
    {
      "inputs": [
        {
          "internalType": "uint256",
          "name": "amount",
          "type": "uint256"
        }
      ],
      "name": "releaseTokens",
      "outputs": [],
      "stateMutability": "nonpayable",
      "type": "function"
    },
    {
      "inputs": [
        {
          "internalType": "address[]",
          "name": "to",
          "type": "address[]"
        },
        {
          "internalType": "bytes4[]",
          "name": "functionSignature",
          "type": "bytes4[]"
        },
        {
          "internalType": "bool[]",
          "name": "allowance",
          "type": "bool[]"
        }
      ],
      "name": "setAllowance",
      "outputs": [],
      "stateMutability": "nonpayable",
      "type": "function"
    },
    {
      "inputs": [
        {
          "internalType": "uint256",
          "name": "_proposalTime",
          "type": "uint256"
        },
        {
          "internalType": "uint256",
          "name": "_timeForExecution",
          "type": "uint256"
        },
        {
          "internalType": "uint256",
          "name": "_votesForExecution",
          "type": "uint256"
        },
        {
          "internalType": "uint256",
          "name": "_votesForCreation",
          "type": "uint256"
        },
        {
          "internalType": "uint256",
          "name": "_voteGas",
          "type": "uint256"
        },
        {
          "internalType": "uint256",
          "name": "_maxGasPrice",
          "type": "uint256"
        },
        {
          "internalType": "uint256",
          "name": "_lockTime",
          "type": "uint256"
        }
      ],
      "name": "setConfig",
      "outputs": [],
      "stateMutability": "nonpayable",
      "type": "function"
    },
    {
      "inputs": [
        {
          "internalType": "bytes32",
          "name": "_hash",
          "type": "bytes32"
        },
        {
          "internalType": "bool",
          "name": "valid",
          "type": "bool"
        }
      ],
      "name": "setEIP1271SignedHash",
      "outputs": [],
      "stateMutability": "nonpayable",
      "type": "function"
    },
    {
      "inputs": [
        {
          "internalType": "bytes32",
          "name": "proposalId",
          "type": "bytes32"
        },
        {
          "internalType": "uint256",
          "name": "amount",
          "type": "uint256"
        },
        {
          "internalType": "address",
          "name": "voter",
          "type": "address"
        },
        {
          "internalType": "bytes",
          "name": "signature",
          "type": "bytes"
        }
      ],
      "name": "setSignedVote",
      "outputs": [],
      "stateMutability": "nonpayable",
      "type": "function"
    },
    {
      "inputs": [
        {
          "internalType": "bytes32[]",
          "name": "proposalIds",
          "type": "bytes32[]"
        },
        {
          "internalType": "uint256[]",
          "name": "amounts",
          "type": "uint256[]"
        },
        {
          "internalType": "address[]",
          "name": "voters",
          "type": "address[]"
        },
        {
          "internalType": "bytes[]",
          "name": "signatures",
          "type": "bytes[]"
        }
      ],
      "name": "setSignedVotes",
      "outputs": [],
      "stateMutability": "nonpayable",
      "type": "function"
    },
    {
      "inputs": [
        {
          "internalType": "bytes32",
          "name": "proposalId",
          "type": "bytes32"
        },
        {
          "internalType": "uint256",
          "name": "amount",
          "type": "uint256"
        }
      ],
      "name": "setVote",
      "outputs": [],
      "stateMutability": "nonpayable",
      "type": "function"
    },
    {
      "inputs": [
        {
          "internalType": "bytes32[]",
          "name": "proposalIds",
          "type": "bytes32[]"
        },
        {
          "internalType": "uint256[]",
          "name": "amounts",
          "type": "uint256[]"
        }
      ],
      "name": "setVotes",
      "outputs": [],
      "stateMutability": "nonpayable",
      "type": "function"
    },
    {
      "inputs": [
        {
          "internalType": "bytes32",
          "name": "",
          "type": "bytes32"
        }
      ],
      "name": "signedVotes",
      "outputs": [
        {
          "internalType": "bool",
          "name": "",
          "type": "bool"
        }
      ],
      "stateMutability": "view",
      "type": "function"
    },
    {
      "inputs": [],
      "name": "timeForExecution",
      "outputs": [
        {
          "internalType": "uint256",
          "name": "",
          "type": "uint256"
        }
      ],
      "stateMutability": "view",
      "type": "function"
    },
    {
      "inputs": [],
      "name": "token",
      "outputs": [
        {
          "internalType": "contract IERC20Upgradeable",
          "name": "",
          "type": "address"
        }
      ],
      "stateMutability": "view",
      "type": "function"
    },
    {
      "inputs": [],
      "name": "tokenVault",
      "outputs": [
        {
          "internalType": "contract TokenVault",
          "name": "",
          "type": "address"
        }
      ],
      "stateMutability": "view",
      "type": "function"
    },
    {
      "inputs": [
        {
          "internalType": "address",
          "name": "",
          "type": "address"
        }
      ],
      "name": "tokensLocked",
      "outputs": [
        {
          "internalType": "uint256",
          "name": "amount",
          "type": "uint256"
        },
        {
          "internalType": "uint256",
          "name": "timestamp",
          "type": "uint256"
        }
      ],
      "stateMutability": "view",
      "type": "function"
    },
    {
      "inputs": [],
      "name": "totalLocked",
      "outputs": [
        {
          "internalType": "uint256",
          "name": "",
          "type": "uint256"
        }
      ],
      "stateMutability": "view",
      "type": "function"
    },
    {
      "inputs": [
        {
          "internalType": "uint256",
          "name": "snapshotId",
          "type": "uint256"
        }
      ],
      "name": "totalLockedAt",
      "outputs": [
        {
          "internalType": "uint256",
          "name": "",
          "type": "uint256"
        }
      ],
      "stateMutability": "view",
      "type": "function"
    },
    {
      "inputs": [],
      "name": "voteGas",
      "outputs": [
        {
          "internalType": "uint256",
          "name": "",
          "type": "uint256"
        }
      ],
      "stateMutability": "view",
      "type": "function"
    },
    {
      "inputs": [],
      "name": "votesForCreation",
      "outputs": [
        {
          "internalType": "uint256",
          "name": "",
          "type": "uint256"
        }
      ],
      "stateMutability": "view",
      "type": "function"
    },
    {
      "inputs": [],
      "name": "votesForExecution",
      "outputs": [
        {
          "internalType": "uint256",
          "name": "",
          "type": "uint256"
        }
      ],
      "stateMutability": "view",
      "type": "function"
    },
    {
      "inputs": [
        {
          "internalType": "address",
          "name": "account",
          "type": "address"
        }
      ],
      "name": "votesOf",
      "outputs": [
        {
          "internalType": "uint256",
          "name": "",
          "type": "uint256"
        }
      ],
      "stateMutability": "view",
      "type": "function"
    },
    {
      "inputs": [
        {
          "internalType": "address[]",
          "name": "accounts",
          "type": "address[]"
        }
      ],
      "name": "votesOf",
      "outputs": [
        {
          "internalType": "uint256[]",
          "name": "",
          "type": "uint256[]"
        }
      ],
      "stateMutability": "view",
      "type": "function"
    },
    {
      "inputs": [
        {
          "internalType": "address",
          "name": "account",
          "type": "address"
        },
        {
          "internalType": "uint256",
          "name": "snapshotId",
          "type": "uint256"
        }
      ],
      "name": "votesOfAt",
      "outputs": [
        {
          "internalType": "uint256",
          "name": "",
          "type": "uint256"
        }
      ],
      "stateMutability": "view",
      "type": "function"
    },
    {
      "inputs": [
        {
          "internalType": "address[]",
          "name": "accounts",
          "type": "address[]"
        },
        {
          "internalType": "uint256[]",
          "name": "snapshotIds",
          "type": "uint256[]"
        }
      ],
      "name": "votesOfAt",
      "outputs": [
        {
          "internalType": "uint256[]",
          "name": "",
          "type": "uint256[]"
        }
      ],
      "stateMutability": "view",
      "type": "function"
    },
    {
      "stateMutability": "payable",
      "type": "receive"
    }
  ],
  "bytecode": "0x608060405234801561001057600080fd5b50614d1d806100206000396000f3fe6080604052600436106102695760003560e01c8063663bb4af11610143578063b3b47061116100bb578063ea1627c011610077578063ea1627c01461082b578063ed996f5e14610858578063f4ff96aa14610878578063f977cd2914610898578063fc0c546a146108ad578063fc4e703f146108d357005b8063b3b4706114610741578063b96f8c9e14610761578063bec11c0e14610781578063cc3c74a1146107a1578063d5c1b6fc146107b7578063db0c41bf146107fe57005b80637e17e3fc1161010a5780637e17e3fc146106865780638c20a9c5146106a65780639669b1cb146106bc5780639840dccc146106d1578063adbba7ae14610701578063b3929aaa1461072157005b8063663bb4af146105c85780636e27d889146105eb57806376b0243a1461060b578063785b3ed81461064657806379ec5d3a1461066657005b806327f2bdde116101e15780633f10cf151161019d5780633f10cf15146104ed578063402bad8e14610503578063430694cf146105235780634b0babdd1461055a578063568914121461057a5780635bc789d91461059057005b806327f2bdde146104135780632fd99c001461043357806332315fc41461046357806332ed5b12146104835780633a3bed00146104b75780633de39c11146104d757005b806314621a3a1161023057806314621a3a14610361578063158ef93e146103815780631626ba7e146103b2578063184a0ae9146103d25780631c3e89f4146103e85780632229a0e2146103fe57005b806301a598a61461027257806306fdde03146102c0578063088af182146102e25780630d6680871461031d5780630f9a85531461034157005b3661027057005b005b34801561027e57600080fd5b506102a661028d3660046136d5565b600e602052600090815260409020805460019091015482565b604080519283526020830191909152015b60405180910390f35b3480156102cc57600080fd5b506102d56108e9565b6040516102b7919061373d565b3480156102ee57600080fd5b506103046102fd366004613805565b6020015190565b6040516001600160e01b031990911681526020016102b7565b34801561032957600080fd5b5061033360085481565b6040519081526020016102b7565b34801561034d57600080fd5b5061027061035c3660046138cf565b610977565b34801561036d57600080fd5b5061027061037c366004613932565b610a48565b34801561038d57600080fd5b506000546103a290600160b01b900460ff1681565b60405190151581526020016102b7565b3480156103be57600080fd5b506103046103cd366004613992565b610bcb565b3480156103de57600080fd5b5061033360025481565b3480156103f457600080fd5b5061033360045481565b34801561040a57600080fd5b50601154610333565b34801561041f57600080fd5b5061033361042e366004613aaf565b610c13565b34801561043f57600080fd5b506103a261044e366004613b80565b600c6020526000908152604090205460ff1681565b34801561046f57600080fd5b5061033361047e366004613b99565b610ccd565b34801561048f57600080fd5b506104a361049e366004613b80565b610d19565b6040516102b7989796959493929190613bfb565b3480156104c357600080fd5b506102706104d2366004613c66565b610e7c565b3480156104e357600080fd5b5061033360075481565b3480156104f957600080fd5b5061033360035481565b34801561050f57600080fd5b5061027061051e366004613d06565b610f11565b34801561052f57600080fd5b5061054361053e366004613b80565b610f29565b6040516102b79b9a99989796959493929190613de2565b34801561056657600080fd5b50610270610575366004613b80565b611262565b34801561058657600080fd5b5061033360095481565b34801561059c57600080fd5b50600a546105b0906001600160a01b031681565b6040516001600160a01b0390911681526020016102b7565b3480156105d457600080fd5b506103a26105e3366004613ed8565b600192915050565b3480156105f757600080fd5b50610270610606366004613b80565b611426565b34801561061757600080fd5b506103a2610626366004613ed8565b600d60209081526000928352604080842090915290825290205460ff1681565b34801561065257600080fd5b50610270610661366004613f1b565b61152d565b34801561067257600080fd5b506103336106813660046136d5565b6115ab565b34801561069257600080fd5b506102706106a1366004613f3e565b6115c6565b3480156106b257600080fd5b5061033360055481565b3480156106c857600080fd5b50600454610333565b3480156106dd57600080fd5b506103a26106ec366004613b80565b600f6020526000908152604090205460ff1681565b34801561070d57600080fd5b5061033361071c366004613fcf565b611841565b34801561072d57600080fd5b5061033361073c366004613b80565b611890565b34801561074d57600080fd5b5061027061075c366004613b80565b6118b1565b34801561076d57600080fd5b5061027061077c366004614064565b61196e565b34801561078d57600080fd5b5061027061079c366004614146565b611db6565b3480156107ad57600080fd5b50610333600b5481565b3480156107c357600080fd5b506103336107d2366004614168565b60008281526010602090815260408083206001600160a01b0385168452600b0190915290205492915050565b34801561080a57600080fd5b5061081e61081936600461418b565b611e3b565b6040516102b791906141c1565b34801561083757600080fd5b5061084b610846366004614253565b611f03565b6040516102b79190614317565b34801561086457600080fd5b50610333610873366004613b80565b6122d7565b34801561088457600080fd5b5061081e61089336600461435b565b612303565b3480156108a457600080fd5b50600554610333565b3480156108b957600080fd5b506000546105b0906201000090046001600160a01b031681565b3480156108df57600080fd5b5061033360065481565b600180546108f69061438f565b80601f01602080910402602001604051908101604052809291908181526020018280546109229061438f565b801561096f5780601f106109445761010080835404028352916020019161096f565b820191906000526020600020905b81548152906001019060200180831161095257829003601f168201915b505050505081565b80518251146109e85760405162461bcd60e51b815260206004820152603260248201527f45524332304775696c643a2057726f6e67206c656e677468206f662070726f706044820152716f73616c496473206f7220616d6f756e747360701b60648201526084015b60405180910390fd5b60005b8251811015610a4357610a3133848381518110610a0a57610a0a6143ca565b6020026020010151848481518110610a2457610a246143ca565b60200260200101516123b0565b80610a3b816143f6565b9150506109eb565b505050565b600054600160b01b900460ff16610a715760405162461bcd60e51b81526004016109df90614411565b6000610a7e838686611841565b6000818152600c602052604090205490915060ff1615610ae05760405162461bcd60e51b815260206004820152601960248201527f45524332304775696c643a20416c726561647920766f7465640000000000000060448201526064016109df565b610b4182610b3b836040517f19457468657265756d205369676e6564204d6573736167653a0a3332000000006020820152603c8101829052600090605c01604051602081830303815290604052805190602001209050919050565b9061266e565b6001600160a01b0316836001600160a01b031614610ba15760405162461bcd60e51b815260206004820152601860248201527f45524332304775696c643a2057726f6e67207369676e6572000000000000000060448201526064016109df565b610bac8386866123b0565b6000908152600c60205260409020805460ff1916600117905550505050565b600080610bdb610681858561266e565b118015610bf657506000838152600f602052604090205460ff165b610c01576000610c0a565b630b135d3f60e11b5b90505b92915050565b60008054600160b01b900460ff16610c3d5760405162461bcd60e51b81526004016109df90614411565b600554610c49336115ab565b1015610c675760405162461bcd60e51b81526004016109df90614448565b84518651148015610c79575083518651145b610c955760405162461bcd60e51b81526004016109df90614498565b6000865111610cb65760405162461bcd60e51b81526004016109df906144ec565b610cc3868686868661268a565b9695505050505050565b6001600160a01b038216600090815260126020526040812081908190610cf4908590612835565b915091508115610d07579150610c0d9050565b610d10856115ab565b92505050610c0d565b60106020526000908152604090208054600182015460028301546006840180546001600160a01b03909416949293919291610d539061438f565b80601f0160208091040260200160405190810160405280929190818152602001828054610d7f9061438f565b8015610dcc5780601f10610da157610100808354040283529160200191610dcc565b820191906000526020600020905b815481529060010190602001808311610daf57829003601f168201915b505050505090806007018054610de19061438f565b80601f0160208091040260200160405190810160405280929190818152602001828054610e0d9061438f565b8015610e5a5780601f10610e2f57610100808354040283529160200191610e5a565b820191906000526020600020905b815481529060010190602001808311610e3d57829003601f168201915b5050505060088301546009840154600a909401549293909260ff909116915088565b60005b8451811015610f0a57610ef8858281518110610e9d57610e9d6143ca565b6020026020010151858381518110610eb757610eb76143ca565b6020026020010151858481518110610ed157610ed16143ca565b6020026020010151858581518110610eeb57610eeb6143ca565b6020026020010151610a48565b80610f02816143f6565b915050610e7f565b5050505050565b610f2087878787878787612924565b50505050505050565b60008060006060806060806060600080600080601060008e815260200190815260200160002090508060000160009054906101000a90046001600160a01b031681600101548260020154836003018460040185600501866006018760070188600801548960090160009054906101000a900460ff168a600a015487805480602002602001604051908101604052809291908181526020018280548015610ff857602002820191906000526020600020905b81546001600160a01b03168152600190910190602001808311610fda575b5050505050975086805480602002602001604051908101604052809291908181526020016000905b828210156110cc57838290600052602060002001805461103f9061438f565b80601f016020809104026020016040519081016040528092919081815260200182805461106b9061438f565b80156110b85780601f1061108d576101008083540402835291602001916110b8565b820191906000526020600020905b81548152906001019060200180831161109b57829003601f168201915b505050505081526020019060010190611020565b5050505096508580548060200260200160405190810160405280929190818152602001828054801561111d57602002820191906000526020600020905b815481526020019060010190808311611109575b505050505095508480546111309061438f565b80601f016020809104026020016040519081016040528092919081815260200182805461115c9061438f565b80156111a95780601f1061117e576101008083540402835291602001916111a9565b820191906000526020600020905b81548152906001019060200180831161118c57829003601f168201915b505050505094508380546111bc9061438f565b80601f01602080910402602001604051908101604052809291908181526020018280546111e89061438f565b80156112355780601f1061120a57610100808354040283529160200191611235565b820191906000526020600020905b81548152906001019060200180831161121857829003601f168201915b505050505093509b509b509b509b509b509b509b509b509b509b509b505091939597999b90929496989a50565b8061126c336115ab565b10156112d85760405162461bcd60e51b815260206004820152603560248201527f45524332304775696c643a20556e61626c6520746f2072656c65617365206d6f6044820152741c99481d1bdad95b9cc81d1a185b881b1bd8dad959605a1b60648201526084016109df565b336000908152600e602052604090206001015442116113395760405162461bcd60e51b815260206004820152601f60248201527f45524332304775696c643a20546f6b656e73207374696c6c206c6f636b65640060448201526064016109df565b61134233612aa4565b61134a612ace565b336000908152600e60205260409020546113649082612add565b336000908152600e60205260409020556009546113819082612add565b600955600a5460405163f3fef3a360e01b8152336004820152602481018390526001600160a01b039091169063f3fef3a390604401600060405180830381600087803b1580156113d057600080fd5b505af11580156113e4573d6000803e3d6000fd5b505060408051338152602081018590527fc7798891864187665ac6dd119286e44ec13f014527aeeb2b8eb3fd413df9317993500190505b60405180910390a150565b61142f33612aa4565b611437612ace565b600a546040516311f9fbc960e21b8152336004820152602481018390526001600160a01b03909116906347e7ef2490604401600060405180830381600087803b15801561148357600080fd5b505af1158015611497573d6000803e3d6000fd5b5050336000908152600e60205260409020546114b69250905082612ae9565b336000908152600e60205260409020556008546114d4904290612ae9565b336000908152600e60205260409020600101556009546114f49082612ae9565b60095560408051338152602081018390527fac87f20a77d28ee8bbb58ec87ea8fa968b3393efae1a368fd50b767c2847391c910161141b565b33301461158b5760405162461bcd60e51b815260206004820152602660248201527f45524332304775696c643a204f6e6c792063616c6c61626c65206279207468656044820152650819dd5a5b1960d21b60648201526084016109df565b6000918252600f6020526040909120805460ff1916911515919091179055565b6001600160a01b03166000908152600e602052604090205490565b600054610100900460ff16806115df575060005460ff16155b6116425760405162461bcd60e51b815260206004820152602e60248201527f496e697469616c697a61626c653a20636f6e747261637420697320616c72656160448201526d191e481a5b9a5d1a585b1a5e995960921b60648201526084016109df565b600054610100900460ff16158015611664576000805461ffff19166101011790555b6001600160a01b038a166116c85760405162461bcd60e51b815260206004820152602560248201527f45524332304775696c643a20746f6b656e20697320746865207a65726f206164604482015264647265737360d81b60648201526084016109df565b84516116db9060019060208801906134d9565b506000805462010000600160b01b031916620100006001600160a01b038d160217905560405161170a9061355d565b604051809103906000f080158015611726573d6000803e3d6000fd5b50600a80546001600160a01b0319166001600160a01b0392831690811790915560005460405163485cc95560e01b81526201000090910490921660048301523060248301529063485cc95590604401600060405180830381600087803b15801561178f57600080fd5b505af11580156117a3573d6000803e3d6000fd5b505050506117b689898989888888612924565b306000908152600d60209081526040808320632015d6c760e11b8452909152808220805460ff199081166001908117909255635cb7c64f60e11b84528284208054821683179055635a2bcc6b60e11b84529183208054909216179055805460ff60b01b1916600160b01b1790558015611835576000805461ff00191690555b50505050505050505050565b6040516bffffffffffffffffffffffff19606085901b16602082015260348101839052605481018290526000906074016040516020818303038152906040528051906020012090509392505050565b601181815481106118a057600080fd5b600091825260209091200154905081565b600160008281526010602052604090206009015460ff1660048111156118d9576118d9613bc3565b146118f65760405162461bcd60e51b81526004016109df9061453d565b60008181526010602052604090206002015442116119625760405162461bcd60e51b8152602060048201526024808201527f45524332304775696c643a2050726f706f73616c206861736e7420656e646564604482015263081e595d60e21b60648201526084016109df565b61196b81612af5565b50565b600054600160b01b900460ff166119975760405162461bcd60e51b81526004016109df90614411565b3330146119fd5760405162461bcd60e51b815260206004820152602e60248201527f45524332304775696c643a204f6e6c792063616c6c61626c652062792045524360448201526d191833bab4b6321034ba39b2b63360911b60648201526084016109df565b81518351148015611a0f575080518351145b611a8f5760405162461bcd60e51b815260206004820152604560248201527f45524332304775696c643a2057726f6e67206c656e677468206f6620746f2c2060448201527f66756e6374696f6e5369676e6174757265206f7220616c6c6f77616e63652061606482015264727261797360d81b608482015260a4016109df565b60005b8351811015611c87578251600090849083908110611ab257611ab26143ca565b60200260200101516001600160e01b0319161415611b235760405162461bcd60e51b815260206004820152602860248201527f45524332304775696c643a20456d70747920736967616e7475726573206e6f7460448201526708185b1b1bddd95960c21b60648201526084016109df565b818181518110611b3557611b356143ca565b6020026020010151600d6000868481518110611b5357611b536143ca565b60200260200101516001600160a01b03166001600160a01b031681526020019081526020016000206000858481518110611b8f57611b8f6143ca565b60200260200101516001600160e01b0319166001600160e01b031916815260200190815260200160002060006101000a81548160ff021916908315150217905550838181518110611be257611be26143ca565b60200260200101516001600160a01b03167f31e41e795ddf7710d216f93d4d9a1080ca53618ba00822e743d12f31a7dfc980848381518110611c2657611c266143ca565b6020026020010151848481518110611c4057611c406143ca565b6020026020010151604051611c6d9291906001600160e01b03199290921682521515602082015260400190565b60405180910390a280611c7f816143f6565b915050611a92565b50306000908152600d60209081526040808320632015d6c760e11b845290915290205460ff16611d1f5760405162461bcd60e51b815260206004820152603b60248201527f45524332304775696c643a20736574436f6e6669672066756e6374696f6e206160448201527f6c6c6f77616e63652063616e74206265207475726e6564206f6666000000000060648201526084016109df565b306000908152600d60209081526040808320635cb7c64f60e11b845290915290205460ff16610a435760405162461bcd60e51b815260206004820152603e60248201527f45524332304775696c643a20736574416c6c6f77616e63652066756e6374696f60448201527f6e20616c6c6f77616e63652063616e74206265207475726e6564206f6666000060648201526084016109df565b6000828152601060205260409020600a01548190611dd5903390610ccd565b1015611e235760405162461bcd60e51b815260206004820152601a60248201527f45524332304775696c643a20496e76616c696420616d6f756e7400000000000060448201526064016109df565b611e2e3383836123b0565b611e3733612f49565b5050565b6060600083516001600160401b03811115611e5857611e58613750565b604051908082528060200260200182016040528015611e81578160200160208202803683370190505b50905060005b8451811015611efb57611ecc858281518110611ea557611ea56143ca565b6020026020010151858381518110611ebf57611ebf6143ca565b6020026020010151610ccd565b828281518110611ede57611ede6143ca565b602090810291909101015280611ef3816143f6565b915050611e87565b509392505050565b600054606090600160b01b900460ff16611f2f5760405162461bcd60e51b81526004016109df90614411565b600554611f3b336115ab565b1015611f595760405162461bcd60e51b81526004016109df90614448565b84518651148015611f6b575083518651145b611f875760405162461bcd60e51b81526004016109df90614498565b8151835114611ffe5760405162461bcd60e51b815260206004820152603d60248201527f45524332304775696c643a2057726f6e67206c656e677468206f66206465736360448201527f72697074696f6e206f7220636f6e74656e74486173682061727261797300000060648201526084016109df565b600086511161201f5760405162461bcd60e51b81526004016109df906144ec565b600083516001600160401b0381111561203a5761203a613750565b604051908082528060200260200182016040528015612063578160200160208202803683370190505b5084518851919250906000906120799083612fdc565b905060005b828110156122c9576000826001600160401b038111156120a0576120a0613750565b6040519080825280602002602001820160405280156120c9578160200160208202803683370190505b5090506000836001600160401b038111156120e6576120e6613750565b60405190808252806020026020018201604052801561211957816020015b60608152602001906001900390816121045790505b5090506000846001600160401b0381111561213657612136613750565b60405190808252806020026020018201604052801561215f578160200160208202803683370190505b50905060008061216f8787612fe8565b90505b86811015612254578e818151811061218c5761218c6143ca565b60200260200101518583815181106121a6576121a66143ca565b60200260200101906001600160a01b031690816001600160a01b0316815250508d81815181106121d8576121d86143ca565b60200260200101518483815181106121f2576121f26143ca565b60200260200101819052508c818151811061220f5761220f6143ca565b6020026020010151838381518110612229576122296143ca565b60209081029190910101528161223e816143f6565b925050808061224c906143f6565b915050612172565b506122948484848e898151811061226d5761226d6143ca565b60200260200101518e8a81518110612287576122876143ca565b602002602001015161268a565b8886815181106122a6576122a66143ca565b6020026020010181815250505050505080806122c1906143f6565b91505061207e565b509198975050505050505050565b60008060006122e7846013612835565b9150915081156122f8579392505050565b505060095492915050565b6060600082516001600160401b0381111561232057612320613750565b604051908082528060200260200182016040528015612349578160200160208202803683370190505b50905060005b83518110156123a95761237a84828151811061236d5761236d6143ca565b60200260200101516115ab565b82828151811061238c5761238c6143ca565b6020908102919091010152806123a1816143f6565b91505061234f565b5092915050565b600054600160b01b900460ff166123d95760405162461bcd60e51b81526004016109df90614411565b600160008381526010602052604090206009015460ff16600481111561240157612401613bc3565b1461241e5760405162461bcd60e51b81526004016109df9061453d565b80612428846115ab565b10156124765760405162461bcd60e51b815260206004820152601a60248201527f45524332304775696c643a20496e76616c696420616d6f756e7400000000000060448201526064016109df565b60008281526010602090815260408083206001600160a01b0387168452600b019091529020548111156125765760008281526010602090815260408083206001600160a01b0387168452600b019091529020546124f0906124d8908390612add565b60008481526010602052604090206008015490612ae9565b600083815260106020908152604080832060088101949094556001600160a01b0387168352600b9093019052205482907f994c1e2cd59a94ec7f932ab317a85dabd5f43917c5cfb959b751a9648140c0c290859061254f908590612add565b604080516001600160a01b03909316835260208301919091520160405180910390a2612643565b60008281526010602090815260408083206001600160a01b0387168452600b019091529020546125c2906125aa9083612add565b60008481526010602052604090206008015490612add565b600083815260106020908152604080832060088101949094556001600160a01b0387168352600b9093019052205482907f79f996adb5f064cd332cb02f590abdf662bafabcbe22469b8b316466e475c2c19085906126209085612add565b604080516001600160a01b03909316835260208301919091520160405180910390a25b60009182526010602090815260408084206001600160a01b039095168452600b909401905291902055565b600080600061267d8585612ff4565b91509150611efb81613061565b600b54604080513360601b6bffffffffffffffffffffffff1916602080830191909152426034830152605480830185905283518084039091018152607490920190925280519101206000916126e0906001612ae9565b600b556015546126f1906001612ae9565b601555600081815260106020526040902080546001600160a01b0319163317815542600182018190556002546127279190612ae9565b6002820155875161274190600383019060208b019061356a565b50865161275790600483019060208a01906135bf565b50855161276d9060058301906020890190613618565b50845161278390600683019060208801906134d9565b50835161279990600783019060208701906134d9565b5060006008820181905560098201805460ff19166001179055601554600a83015560405183917f288a29bca04edb18fcdb2c76d6e3b03b8a137c85c70d1a4cb8aacfa868d6051091a26127f533836127f0336115ab565b6123b0565b50601180546001810182556000919091527f31ecc21a745e3968a04e9570e4425bc18fa8019c68028196b546d1669c200c68018190559695505050505050565b6000806000841161287e5760405162461bcd60e51b8152602060048201526013602482015272045524332304775696c643a206964206973203606c1b60448201526064016109df565b6015548411156128d05760405162461bcd60e51b815260206004820152601a60248201527f45524332304775696c643a206e6f6e6578697374656e7420696400000000000060448201526064016109df565b60006128dc848661321c565b84549091508114156128f557600080925092505061291d565b600184600101828154811061290c5761290c6143ca565b906000526020600020015492509250505b9250929050565b600054600160b01b900460ff16158061293c57503330145b6129ae5760405162461bcd60e51b815260206004820152603f60248201527f45524332304775696c643a204f6e6c792063616c6c61626c652062792045524360448201527f32306775696c6420697473656c66207768656e20696e697469616c697a65640060648201526084016109df565b60008511612a1c5760405162461bcd60e51b815260206004820152603560248201527f45524332304775696c643a20766f74657320666f7220657865637574696f6e20604482015274068617320746f206265206d6f7265207468616e203605c1b60648201526084016109df565b60008111612a845760405162461bcd60e51b815260206004820152602f60248201527f45524332304775696c643a206c6f636b54696d652073686f756c64206265206860448201526e6967686572207468616e207a65726f60881b60648201526084016109df565b600296909655600394909455600492909255600555600655600755600855565b6001600160a01b038116600090815260126020526040902061196b90612ac9836115ab565b6132c7565b612adb60136009546132c7565b565b6000610c0a8284614582565b6000610c0a8284614599565b600454600082815260106020526040902060080154108015612b3c5750600160008281526010602052604090206009015460ff166004811115612b3a57612b3a613bc3565b145b15612b8757600081815260106020526040808220600901805460ff191660021790555182917f55295d4ce992922fa2e5ffbf3a3dcdb367de0a15e125ace083456017fd22060f91a250565b6003546000828152601060205260409020600201544291612ba89190612ae9565b108015612bda5750600160008281526010602052604090206009015460ff166004811115612bd857612bd8613bc3565b145b15612c2557600081815260106020526040808220600901805460ff191660041790555182917f0126984176eaaeb6ba34a0bd7ee6e99c473c100f79bee0bb6d17f0f44c83f1f991a250565b600160008281526010602052604090206009015460ff166004811115612c4d57612c4d613bc3565b141561196b576000818152601060205260408120600901805460ff191660031790555b600082815260106020526040902060030154811015612f1a5760008281526010602052604081206004018054612d4b919084908110612cb157612cb16143ca565b906000526020600020018054612cc69061438f565b80601f0160208091040260200160405190810160405280929190818152602001828054612cf29061438f565b8015612d3f5780601f10612d1457610100808354040283529160200191612d3f565b820191906000526020600020905b815481529060010190602001808311612d2257829003601f168201915b50505050506020015190565b60008481526010602052604090206003018054919250612d7e9184908110612d7557612d756143ca565b50600052600190565b612dca5760405162461bcd60e51b815260206004820152601c60248201527f45524332304775696c643a204e6f7420616c6c6f7765642063616c6c0000000060448201526064016109df565b6000838152601060205260408120600301805484908110612ded57612ded6143ca565b60009182526020808320909101548683526010909152604090912060050180546001600160a01b039092169185908110612e2957612e296143ca565b9060005260206000200154601060008781526020019081526020016000206004018581548110612e5b57612e5b6143ca565b90600052602060002001604051612e7291906145b1565b60006040518083038185875af1925050503d8060008114612eaf576040519150601f19603f3d011682016040523d82523d6000602084013e612eb4565b606091505b5050905080612f055760405162461bcd60e51b815260206004820181905260248201527f45524332304775696c643a2050726f706f73616c2063616c6c206661696c656460448201526064016109df565b50508080612f12906143f6565b915050612c70565b5060405181907f7b1bcf1ccf901a11589afff5504d59fd0a53780eed2a952adade0348985139e090600090a250565b600054600160b01b900460ff16612f725760405162461bcd60e51b81526004016109df90614411565b6006541561196b576000612f9d612f946007543a61330890919063ffffffff16565b60065490612fe8565b9050804710611e37576040516001600160a01b0383169082156108fc029083906000818181858888f19350505050158015610a43573d6000803e3d6000fd5b6000610c0a8284614663565b6000610c0a8284614677565b60008082516041141561302b5760208301516040840151606085015160001a61301f8782858561331e565b9450945050505061291d565b825160401415613055576020830151604084015161304a86838361340b565b93509350505061291d565b5060009050600261291d565b600081600481111561307557613075613bc3565b141561307e5750565b600181600481111561309257613092613bc3565b14156130e05760405162461bcd60e51b815260206004820152601860248201527f45434453413a20696e76616c6964207369676e6174757265000000000000000060448201526064016109df565b60028160048111156130f4576130f4613bc3565b14156131425760405162461bcd60e51b815260206004820152601f60248201527f45434453413a20696e76616c6964207369676e6174757265206c656e6774680060448201526064016109df565b600381600481111561315657613156613bc3565b14156131af5760405162461bcd60e51b815260206004820152602260248201527f45434453413a20696e76616c6964207369676e6174757265202773272076616c604482015261756560f01b60648201526084016109df565b60048160048111156131c3576131c3613bc3565b141561196b5760405162461bcd60e51b815260206004820152602260248201527f45434453413a20696e76616c6964207369676e6174757265202776272076616c604482015261756560f01b60648201526084016109df565b815460009081905b8082101561327a576000613238838361343a565b90508486828154811061324d5761324d6143ca565b9060005260206000200154111561326657809150613274565b613271816001614599565b92505b50613224565b6000821180156132af57508385613292600185614582565b815481106132a2576132a26143ca565b9060005260206000200154145b156132bf57610d10600183614582565b509050610c0d565b601554806132d484613491565b1015610a43578254600180820185556000858152602080822090930193909355938401805494850181558252902090910155565b60008183106133175781610c0a565b5090919050565b6000807f7fffffffffffffffffffffffffffffff5d576e7357a4501ddfe92f46681b20a08311156133555750600090506003613402565b8460ff16601b1415801561336d57508460ff16601c14155b1561337e5750600090506004613402565b6040805160008082526020820180845289905260ff881692820192909252606081018690526080810185905260019060a0016020604051602081039080840390855afa1580156133d2573d6000803e3d6000fd5b5050604051601f1901519150506001600160a01b0381166133fb57600060019250925050613402565b9150600090505b94509492505050565b6000806001600160ff1b03831660ff84901c601b0161342c8782888561331e565b935093505050935093915050565b600060026134488184614696565b613453600286614696565b61345d9190614599565b6134679190614663565b613472600284614663565b61347d600286614663565b6134879190614599565b610c0a9190614599565b80546000906134a257506000919050565b815482906134b290600190614582565b815481106134c2576134c26143ca565b90600052602060002001549050919050565b919050565b8280546134e59061438f565b90600052602060002090601f016020900481019282613507576000855561354d565b82601f1061352057805160ff191683800117855561354d565b8280016001018555821561354d579182015b8281111561354d578251825591602001919060010190613532565b50613559929150613652565b5090565b61063d806146ab83390190565b82805482825590600052602060002090810192821561354d579160200282015b8281111561354d57825182546001600160a01b0319166001600160a01b0390911617825560209092019160019091019061358a565b82805482825590600052602060002090810192821561360c579160200282015b8281111561360c57825180516135fc9184916020909101906134d9565b50916020019190600101906135df565b50613559929150613667565b82805482825590600052602060002090810192821561354d579160200282018281111561354d578251825591602001919060010190613532565b5b808211156135595760008155600101613653565b8082111561355957600061367b8282613684565b50600101613667565b5080546136909061438f565b6000825580601f106136a0575050565b601f01602090049060005260206000209081019061196b9190613652565b80356001600160a01b03811681146134d457600080fd5b6000602082840312156136e757600080fd5b610c0a826136be565b6000815180845260005b81811015613716576020818501810151868301820152016136fa565b81811115613728576000602083870101525b50601f01601f19169290920160200192915050565b602081526000610c0a60208301846136f0565b634e487b7160e01b600052604160045260246000fd5b604051601f8201601f191681016001600160401b038111828210171561378e5761378e613750565b604052919050565b600082601f8301126137a757600080fd5b81356001600160401b038111156137c0576137c0613750565b6137d3601f8201601f1916602001613766565b8181528460208386010111156137e857600080fd5b816020850160208301376000918101602001919091529392505050565b60006020828403121561381757600080fd5b81356001600160401b0381111561382d57600080fd5b61383984828501613796565b949350505050565b60006001600160401b0382111561385a5761385a613750565b5060051b60200190565b600082601f83011261387557600080fd5b8135602061388a61388583613841565b613766565b82815260059290921b840181019181810190868411156138a957600080fd5b8286015b848110156138c457803583529183019183016138ad565b509695505050505050565b600080604083850312156138e257600080fd5b82356001600160401b03808211156138f957600080fd5b61390586838701613864565b9350602085013591508082111561391b57600080fd5b5061392885828601613864565b9150509250929050565b6000806000806080858703121561394857600080fd5b843593506020850135925061395f604086016136be565b915060608501356001600160401b0381111561397a57600080fd5b61398687828801613796565b91505092959194509250565b600080604083850312156139a557600080fd5b8235915060208301356001600160401b038111156139c257600080fd5b61392885828601613796565b600082601f8301126139df57600080fd5b813560206139ef61388583613841565b82815260059290921b84018101918181019086841115613a0e57600080fd5b8286015b848110156138c457613a23816136be565b8352918301918301613a12565b600082601f830112613a4157600080fd5b81356020613a5161388583613841565b82815260059290921b84018101918181019086841115613a7057600080fd5b8286015b848110156138c45780356001600160401b03811115613a935760008081fd5b613aa18986838b0101613796565b845250918301918301613a74565b600080600080600060a08688031215613ac757600080fd5b85356001600160401b0380821115613ade57600080fd5b613aea89838a016139ce565b96506020880135915080821115613b0057600080fd5b613b0c89838a01613a30565b95506040880135915080821115613b2257600080fd5b613b2e89838a01613864565b94506060880135915080821115613b4457600080fd5b613b5089838a01613796565b93506080880135915080821115613b6657600080fd5b50613b7388828901613796565b9150509295509295909350565b600060208284031215613b9257600080fd5b5035919050565b60008060408385031215613bac57600080fd5b613bb5836136be565b946020939093013593505050565b634e487b7160e01b600052602160045260246000fd5b60058110613bf757634e487b7160e01b600052602160045260246000fd5b9052565b600061010060018060a01b038b168352896020840152886040840152806060840152613c29818401896136f0565b90508281036080840152613c3d81886136f0565b9150508460a0830152613c5360c0830185613bd9565b8260e08301529998505050505050505050565b60008060008060808587031215613c7c57600080fd5b84356001600160401b0380821115613c9357600080fd5b613c9f88838901613864565b95506020870135915080821115613cb557600080fd5b613cc188838901613864565b94506040870135915080821115613cd757600080fd5b613ce3888389016139ce565b93506060870135915080821115613cf957600080fd5b5061398687828801613a30565b600080600080600080600060e0888a031215613d2157600080fd5b505085359760208701359750604087013596606081013596506080810135955060a0810135945060c0013592509050565b600081518084526020808501808196508360051b8101915082860160005b85811015613d9a578284038952613d888483516136f0565b98850198935090840190600101613d70565b5091979650505050505050565b600081518084526020808501945080840160005b83811015613dd757815187529582019590820190600101613dbb565b509495945050505050565b6000610160820160018060a01b03808f1684528d60208501528c60408501526101606060850152818c518084526101808601915060208e01935060005b81811015613e3f5784518416835260209485019490920191600101613e1f565b50508481036080860152613e53818d613d52565b9250505082810360a0840152613e69818a613da7565b905082810360c0840152613e7d81896136f0565b905082810360e0840152613e9181886136f0565b91505084610100830152613ea9610120830185613bd9565b826101408301529c9b505050505050505050505050565b80356001600160e01b0319811681146134d457600080fd5b60008060408385031215613eeb57600080fd5b613ef4836136be565b9150613f0260208401613ec0565b90509250929050565b803580151581146134d457600080fd5b60008060408385031215613f2e57600080fd5b82359150613f0260208401613f0b565b60008060008060008060008060006101208a8c031215613f5d57600080fd5b613f668a6136be565b985060208a0135975060408a0135965060608a0135955060808a0135945060a08a01356001600160401b03811115613f9d57600080fd5b613fa98c828d01613796565b94505060c08a0135925060e08a013591506101008a013590509295985092959850929598565b600080600060608486031215613fe457600080fd5b613fed846136be565b95602085013595506040909401359392505050565b600082601f83011261401357600080fd5b8135602061402361388583613841565b82815260059290921b8401810191818101908684111561404257600080fd5b8286015b848110156138c45761405781613f0b565b8352918301918301614046565b60008060006060848603121561407957600080fd5b83356001600160401b038082111561409057600080fd5b61409c878388016139ce565b94506020915081860135818111156140b357600080fd5b8601601f810188136140c457600080fd5b80356140d261388582613841565b81815260059190911b8201840190848101908a8311156140f157600080fd5b928501925b828410156141165761410784613ec0565b825292850192908501906140f6565b9650505050604086013591508082111561412f57600080fd5b5061413c86828701614002565b9150509250925092565b6000806040838503121561415957600080fd5b50508035926020909101359150565b6000806040838503121561417b57600080fd5b82359150613f02602084016136be565b6000806040838503121561419e57600080fd5b82356001600160401b03808211156141b557600080fd5b613905868387016139ce565b602081526000610c0a6020830184613da7565b600082601f8301126141e557600080fd5b813560206141f561388583613841565b82815260059290921b8401810191818101908684111561421457600080fd5b8286015b848110156138c45780356001600160401b038111156142375760008081fd5b6142458986838b0101613796565b845250918301918301614218565b600080600080600060a0868803121561426b57600080fd5b85356001600160401b038082111561428257600080fd5b61428e89838a016139ce565b965060208801359150808211156142a457600080fd5b6142b089838a01613a30565b955060408801359150808211156142c657600080fd5b6142d289838a01613864565b945060608801359150808211156142e857600080fd5b6142f489838a016141d4565b9350608088013591508082111561430a57600080fd5b50613b7388828901613a30565b6020808252825182820181905260009190848201906040850190845b8181101561434f57835183529284019291840191600101614333565b50909695505050505050565b60006020828403121561436d57600080fd5b81356001600160401b0381111561438357600080fd5b613839848285016139ce565b600181811c908216806143a357607f821691505b602082108114156143c457634e487b7160e01b600052602260045260246000fd5b50919050565b634e487b7160e01b600052603260045260246000fd5b634e487b7160e01b600052601160045260246000fd5b600060001982141561440a5761440a6143e0565b5060010190565b6020808252601a908201527f45524332304775696c643a204e6f7420696e6974696c697a6564000000000000604082015260600190565b60208082526030908201527f45524332304775696c643a204e6f7420656e6f75676820746f6b656e7320746f60408201526f0818dc99585d19481c1c9bdc1bdcd85b60821b606082015260800190565b60208082526034908201527f45524332304775696c643a2057726f6e67206c656e677468206f6620746f2c2060408201527364617461206f722076616c75652061727261797360601b606082015260800190565b60208082526031908201527f45524332304775696c643a20746f2c20646174612076616c7565206172726179604082015270732063616e6e6f7420626520656d70747960781b606082015260800190565b60208082526025908201527f45524332304775696c643a2050726f706f73616c20616c72656164792065786560408201526418dd5d195960da1b606082015260800190565b600082821015614594576145946143e0565b500390565b600082198211156145ac576145ac6143e0565b500190565b600080835481600182811c9150808316806145cd57607f831692505b60208084108214156145ed57634e487b7160e01b86526022600452602486fd5b81801561460157600181146146125761463f565b60ff1986168952848901965061463f565b60008a81526020902060005b868110156146375781548b82015290850190830161461e565b505084890196505b509498975050505050505050565b634e487b7160e01b600052601260045260246000fd5b6000826146725761467261464d565b500490565b6000816000190483118215151615614691576146916143e0565b500290565b6000826146a5576146a561464d565b50069056fe60806040526001805460ff60a01b1916905534801561001d57600080fd5b506106108061002d6000396000f3fe608060405234801561001057600080fd5b506004361061007d5760003560e01c8063485cc9551161005b578063485cc955146100ee578063f3fef3a314610101578063f851a44014610114578063fc0c546a1461013f57600080fd5b8063158ef93e1461008257806327e235e3146100ab57806347e7ef24146100d9575b600080fd5b60015461009690600160a01b900460ff1681565b60405190151581526020015b60405180910390f35b6100cb6100b93660046104fb565b60026020526000908152604090205481565b6040519081526020016100a2565b6100ec6100e7366004610516565b610158565b005b6100ec6100fc366004610540565b6102a4565b6100ec61010f366004610516565b61039f565b600154610127906001600160a01b031681565b6040516001600160a01b0390911681526020016100a2565b600054610127906201000090046001600160a01b031681565b600154600160a01b900460ff166101b65760405162461bcd60e51b815260206004820152601a60248201527f546f6b656e5661756c743a204e6f7420696e6974696c697a656400000000000060448201526064015b60405180910390fd5b6001546001600160a01b031633146101cd57600080fd5b6000546040516323b872dd60e01b81526001600160a01b0384811660048301523060248301526044820184905262010000909204909116906323b872dd90606401602060405180830381600087803b15801561022857600080fd5b505af115801561023c573d6000803e3d6000fd5b505050506040513d601f19601f820116820180604052508101906102609190610573565b506001600160a01b03821660009081526002602052604090205461028490826104c0565b6001600160a01b0390921660009081526002602052604090209190915550565b600054610100900460ff16806102bd575060005460ff16155b6103205760405162461bcd60e51b815260206004820152602e60248201527f496e697469616c697a61626c653a20636f6e747261637420697320616c72656160448201526d191e481a5b9a5d1a585b1a5e995960921b60648201526084016101ad565b600054610100900460ff16158015610342576000805461ffff19166101011790555b600080546001600160a01b03808616620100000262010000600160b01b031990921691909117909155600180546001600160a81b03191691841691909117600160a01b179055801561039a576000805461ff00191690555b505050565b600154600160a01b900460ff166103f85760405162461bcd60e51b815260206004820152601a60248201527f546f6b656e5661756c743a204e6f7420696e6974696c697a656400000000000060448201526064016101ad565b6001546001600160a01b0316331461040f57600080fd5b60005460405163a9059cbb60e01b81526001600160a01b03848116600483015260248201849052620100009092049091169063a9059cbb90604401602060405180830381600087803b15801561046457600080fd5b505af1158015610478573d6000803e3d6000fd5b505050506040513d601f19601f8201168201806040525081019061049c9190610573565b506001600160a01b03821660009081526002602052604090205461028490826104d3565b60006104cc82846105ab565b9392505050565b60006104cc82846105c3565b80356001600160a01b03811681146104f657600080fd5b919050565b60006020828403121561050d57600080fd5b6104cc826104df565b6000806040838503121561052957600080fd5b610532836104df565b946020939093013593505050565b6000806040838503121561055357600080fd5b61055c836104df565b915061056a602084016104df565b90509250929050565b60006020828403121561058557600080fd5b815180151581146104cc57600080fd5b634e487b7160e01b600052601160045260246000fd5b600082198211156105be576105be610595565b500190565b6000828210156105d5576105d5610595565b50039056fea2646970667358221220ed228133b5b6a1d4223004479c53dd0eb4479b5ae101c8120491a2f3b4e3663f64736f6c63430008080033a2646970667358221220a0b24fc49a5751b5f3d45e95cc8483a9cada916f5116d7dab797e5b5fb8a553664736f6c63430008080033",
  "linkReferences": {},
  "deployedLinkReferences": {}
}