{
  "contracts/erc20guild/ERC20Guild.sol": {
    "ERC20Guild": {
      "abi": [
        {
          "anonymous": false,
          "inputs": [
            {
              "indexed": true,
              "internalType": "bytes32",
              "name": "proposalId",
              "type": "bytes32"
            }
          ],
          "name": "ProposalCreated",
          "type": "event"
        },
        {
          "anonymous": false,
          "inputs": [
            {
              "indexed": true,
              "internalType": "bytes32",
              "name": "proposalId",
              "type": "bytes32"
            }
          ],
          "name": "ProposalEnded",
          "type": "event"
        },
        {
          "anonymous": false,
          "inputs": [
            {
              "indexed": true,
              "internalType": "bytes32",
              "name": "proposalId",
              "type": "bytes32"
            }
          ],
          "name": "ProposalExecuted",
          "type": "event"
        },
        {
          "anonymous": false,
          "inputs": [
            {
              "indexed": true,
              "internalType": "bytes32",
              "name": "proposalId",
              "type": "bytes32"
            }
          ],
          "name": "ProposalRejected",
          "type": "event"
        },
        {
          "anonymous": false,
          "inputs": [
            {
              "indexed": true,
              "internalType": "address",
              "name": "to",
              "type": "address"
            },
            {
              "indexed": false,
              "internalType": "bytes4",
              "name": "functionSignature",
              "type": "bytes4"
            },
            {
              "indexed": false,
              "internalType": "bool",
              "name": "allowance",
              "type": "bool"
            }
          ],
          "name": "SetAllowance",
          "type": "event"
        },
        {
          "anonymous": false,
          "inputs": [
            {
              "indexed": false,
              "internalType": "address",
              "name": "voter",
              "type": "address"
            },
            {
              "indexed": false,
              "internalType": "uint256",
              "name": "value",
              "type": "uint256"
            }
          ],
          "name": "TokensLocked",
          "type": "event"
        },
        {
          "anonymous": false,
          "inputs": [
            {
              "indexed": false,
              "internalType": "address",
              "name": "voter",
              "type": "address"
            },
            {
              "indexed": false,
              "internalType": "uint256",
              "name": "value",
              "type": "uint256"
            }
          ],
          "name": "TokensReleased",
          "type": "event"
        },
        {
          "anonymous": false,
          "inputs": [
            {
              "indexed": true,
              "internalType": "bytes32",
              "name": "proposalId",
              "type": "bytes32"
            },
            {
              "indexed": false,
              "internalType": "address",
              "name": "voter",
              "type": "address"
            },
            {
              "indexed": false,
              "internalType": "uint256",
              "name": "amount",
              "type": "uint256"
            }
          ],
          "name": "VoteAdded",
          "type": "event"
        },
        {
          "anonymous": false,
          "inputs": [
            {
              "indexed": true,
              "internalType": "bytes32",
              "name": "proposalId",
              "type": "bytes32"
            },
            {
              "indexed": false,
              "internalType": "address",
              "name": "voter",
              "type": "address"
            },
            {
              "indexed": false,
              "internalType": "uint256",
              "name": "amount",
              "type": "uint256"
            }
          ],
          "name": "VoteRemoved",
          "type": "event"
        },
        {
          "stateMutability": "payable",
          "type": "fallback"
        },
        {
          "inputs": [
            {
              "internalType": "address",
              "name": "",
              "type": "address"
            },
            {
              "internalType": "bytes4",
              "name": "",
              "type": "bytes4"
            }
          ],
          "name": "callPermissions",
          "outputs": [
            {
              "internalType": "bool",
              "name": "",
              "type": "bool"
            }
          ],
          "stateMutability": "view",
          "type": "function"
        },
        {
          "inputs": [
            {
              "internalType": "address[]",
              "name": "to",
              "type": "address[]"
            },
            {
              "internalType": "bytes[]",
              "name": "data",
              "type": "bytes[]"
            },
            {
              "internalType": "uint256[]",
              "name": "value",
              "type": "uint256[]"
            },
            {
              "internalType": "string",
              "name": "description",
              "type": "string"
            },
            {
              "internalType": "bytes",
              "name": "contentHash",
              "type": "bytes"
            }
          ],
          "name": "createProposal",
          "outputs": [
            {
              "internalType": "bytes32",
              "name": "",
              "type": "bytes32"
            }
          ],
          "stateMutability": "nonpayable",
          "type": "function"
        },
        {
          "inputs": [
            {
              "internalType": "address[]",
              "name": "to",
              "type": "address[]"
            },
            {
              "internalType": "bytes[]",
              "name": "data",
              "type": "bytes[]"
            },
            {
              "internalType": "uint256[]",
              "name": "value",
              "type": "uint256[]"
            },
            {
              "internalType": "string[]",
              "name": "description",
              "type": "string[]"
            },
            {
              "internalType": "bytes[]",
              "name": "contentHash",
              "type": "bytes[]"
            }
          ],
          "name": "createProposals",
          "outputs": [
            {
              "internalType": "bytes32[]",
              "name": "",
              "type": "bytes32[]"
            }
          ],
          "stateMutability": "nonpayable",
          "type": "function"
        },
        {
          "inputs": [
            {
              "internalType": "bytes32",
              "name": "proposalId",
              "type": "bytes32"
            }
          ],
          "name": "endProposal",
          "outputs": [],
          "stateMutability": "nonpayable",
          "type": "function"
        },
        {
          "inputs": [
            {
              "internalType": "address",
              "name": "to",
              "type": "address"
            },
            {
              "internalType": "bytes4",
              "name": "functionSignature",
              "type": "bytes4"
            }
          ],
          "name": "getCallPermission",
          "outputs": [
            {
              "internalType": "bool",
              "name": "",
              "type": "bool"
            }
          ],
          "stateMutability": "view",
          "type": "function"
        },
        {
          "inputs": [
            {
              "internalType": "bytes",
              "name": "data",
              "type": "bytes"
            }
          ],
          "name": "getFuncSignature",
          "outputs": [
            {
              "internalType": "bytes4",
              "name": "",
              "type": "bytes4"
            }
          ],
          "stateMutability": "view",
          "type": "function"
        },
        {
          "inputs": [
            {
              "internalType": "bytes32",
              "name": "proposalId",
              "type": "bytes32"
            }
          ],
          "name": "getProposal",
          "outputs": [
            {
              "internalType": "address",
              "name": "creator",
              "type": "address"
            },
            {
              "internalType": "uint256",
              "name": "startTime",
              "type": "uint256"
            },
            {
              "internalType": "uint256",
              "name": "endTime",
              "type": "uint256"
            },
            {
              "internalType": "address[]",
              "name": "to",
              "type": "address[]"
            },
            {
              "internalType": "bytes[]",
              "name": "data",
              "type": "bytes[]"
            },
            {
              "internalType": "uint256[]",
              "name": "value",
              "type": "uint256[]"
            },
            {
              "internalType": "string",
              "name": "description",
              "type": "string"
            },
            {
              "internalType": "bytes",
              "name": "contentHash",
              "type": "bytes"
            },
            {
              "internalType": "uint256",
              "name": "totalVotes",
              "type": "uint256"
            },
            {
              "internalType": "enum ERC20Guild.ProposalState",
              "name": "state",
              "type": "uint8"
            },
            {
              "internalType": "uint256",
              "name": "snapshotId",
              "type": "uint256"
            }
          ],
          "stateMutability": "view",
          "type": "function"
        },
        {
          "inputs": [
            {
              "internalType": "bytes32",
              "name": "proposalId",
              "type": "bytes32"
            },
            {
              "internalType": "address",
              "name": "voter",
              "type": "address"
            }
          ],
          "name": "getProposalVotes",
          "outputs": [
            {
              "internalType": "uint256",
              "name": "",
              "type": "uint256"
            }
          ],
          "stateMutability": "view",
          "type": "function"
        },
        {
          "inputs": [],
          "name": "getProposalsIdsLength",
          "outputs": [
            {
              "internalType": "uint256",
              "name": "",
              "type": "uint256"
            }
          ],
          "stateMutability": "view",
          "type": "function"
        },
        {
          "inputs": [],
          "name": "getVotesForCreation",
          "outputs": [
            {
              "internalType": "uint256",
              "name": "",
              "type": "uint256"
            }
          ],
          "stateMutability": "view",
          "type": "function"
        },
        {
          "inputs": [],
          "name": "getVotesForExecution",
          "outputs": [
            {
              "internalType": "uint256",
              "name": "",
              "type": "uint256"
            }
          ],
          "stateMutability": "view",
          "type": "function"
        },
        {
          "inputs": [
            {
              "internalType": "address",
              "name": "voter",
              "type": "address"
            },
            {
              "internalType": "bytes32",
              "name": "proposalId",
              "type": "bytes32"
            },
            {
              "internalType": "uint256",
              "name": "amount",
              "type": "uint256"
            }
          ],
          "name": "hashVote",
          "outputs": [
            {
              "internalType": "bytes32",
              "name": "",
              "type": "bytes32"
            }
          ],
          "stateMutability": "pure",
          "type": "function"
        },
        {
          "inputs": [
            {
              "internalType": "address",
              "name": "_token",
              "type": "address"
            },
            {
              "internalType": "uint256",
              "name": "_proposalTime",
              "type": "uint256"
            },
            {
              "internalType": "uint256",
              "name": "_timeForExecution",
              "type": "uint256"
            },
            {
              "internalType": "uint256",
              "name": "_votesForExecution",
              "type": "uint256"
            },
            {
              "internalType": "uint256",
              "name": "_votesForCreation",
              "type": "uint256"
            },
            {
              "internalType": "string",
              "name": "_name",
              "type": "string"
            },
            {
              "internalType": "uint256",
              "name": "_voteGas",
              "type": "uint256"
            },
            {
              "internalType": "uint256",
              "name": "_maxGasPrice",
              "type": "uint256"
            },
            {
              "internalType": "uint256",
              "name": "_lockTime",
              "type": "uint256"
            }
          ],
          "name": "initialize",
          "outputs": [],
          "stateMutability": "nonpayable",
          "type": "function"
        },
        {
          "inputs": [],
          "name": "initialized",
          "outputs": [
            {
              "internalType": "bool",
              "name": "",
              "type": "bool"
            }
          ],
          "stateMutability": "view",
          "type": "function"
        },
        {
          "inputs": [],
          "name": "lockTime",
          "outputs": [
            {
              "internalType": "uint256",
              "name": "",
              "type": "uint256"
            }
          ],
          "stateMutability": "view",
          "type": "function"
        },
        {
          "inputs": [
            {
              "internalType": "uint256",
              "name": "amount",
              "type": "uint256"
            }
          ],
          "name": "lockTokens",
          "outputs": [],
          "stateMutability": "nonpayable",
          "type": "function"
        },
        {
          "inputs": [],
          "name": "maxGasPrice",
          "outputs": [
            {
              "internalType": "uint256",
              "name": "",
              "type": "uint256"
            }
          ],
          "stateMutability": "view",
          "type": "function"
        },
        {
          "inputs": [],
          "name": "name",
          "outputs": [
            {
              "internalType": "string",
              "name": "",
              "type": "string"
            }
          ],
          "stateMutability": "view",
          "type": "function"
        },
        {
          "inputs": [],
          "name": "proposalNonce",
          "outputs": [
            {
              "internalType": "uint256",
              "name": "",
              "type": "uint256"
            }
          ],
          "stateMutability": "view",
          "type": "function"
        },
        {
          "inputs": [],
          "name": "proposalTime",
          "outputs": [
            {
              "internalType": "uint256",
              "name": "",
              "type": "uint256"
            }
          ],
          "stateMutability": "view",
          "type": "function"
        },
        {
          "inputs": [
            {
              "internalType": "bytes32",
              "name": "",
              "type": "bytes32"
            }
          ],
          "name": "proposals",
          "outputs": [
            {
              "internalType": "address",
              "name": "creator",
              "type": "address"
            },
            {
              "internalType": "uint256",
              "name": "startTime",
              "type": "uint256"
            },
            {
              "internalType": "uint256",
              "name": "endTime",
              "type": "uint256"
            },
            {
              "internalType": "string",
              "name": "description",
              "type": "string"
            },
            {
              "internalType": "bytes",
              "name": "contentHash",
              "type": "bytes"
            },
            {
              "internalType": "uint256",
              "name": "totalVotes",
              "type": "uint256"
            },
            {
              "internalType": "enum ERC20Guild.ProposalState",
              "name": "state",
              "type": "uint8"
            },
            {
              "internalType": "uint256",
              "name": "snapshotId",
              "type": "uint256"
            }
          ],
          "stateMutability": "view",
          "type": "function"
        },
        {
          "inputs": [
            {
              "internalType": "uint256",
              "name": "",
              "type": "uint256"
            }
          ],
          "name": "proposalsIds",
          "outputs": [
            {
              "internalType": "bytes32",
              "name": "",
              "type": "bytes32"
            }
          ],
          "stateMutability": "view",
          "type": "function"
        },
        {
          "inputs": [
            {
              "internalType": "uint256",
              "name": "amount",
              "type": "uint256"
            }
          ],
          "name": "releaseTokens",
          "outputs": [],
          "stateMutability": "nonpayable",
          "type": "function"
        },
        {
          "inputs": [
            {
              "internalType": "address[]",
              "name": "to",
              "type": "address[]"
            },
            {
              "internalType": "bytes4[]",
              "name": "functionSignature",
              "type": "bytes4[]"
            },
            {
              "internalType": "bool[]",
              "name": "allowance",
              "type": "bool[]"
            }
          ],
          "name": "setAllowance",
          "outputs": [],
          "stateMutability": "nonpayable",
          "type": "function"
        },
        {
          "inputs": [
            {
              "internalType": "uint256",
              "name": "_proposalTime",
              "type": "uint256"
            },
            {
              "internalType": "uint256",
              "name": "_timeForExecution",
              "type": "uint256"
            },
            {
              "internalType": "uint256",
              "name": "_votesForExecution",
              "type": "uint256"
            },
            {
              "internalType": "uint256",
              "name": "_votesForCreation",
              "type": "uint256"
            },
            {
              "internalType": "uint256",
              "name": "_voteGas",
              "type": "uint256"
            },
            {
              "internalType": "uint256",
              "name": "_maxGasPrice",
              "type": "uint256"
            },
            {
              "internalType": "uint256",
              "name": "_lockTime",
              "type": "uint256"
            }
          ],
          "name": "setConfig",
          "outputs": [],
          "stateMutability": "nonpayable",
          "type": "function"
        },
        {
          "inputs": [
            {
              "internalType": "bytes32",
              "name": "proposalId",
              "type": "bytes32"
            },
            {
              "internalType": "uint256",
              "name": "amount",
              "type": "uint256"
            },
            {
              "internalType": "address",
              "name": "voter",
              "type": "address"
            },
            {
              "internalType": "bytes",
              "name": "signature",
              "type": "bytes"
            }
          ],
          "name": "setSignedVote",
          "outputs": [],
          "stateMutability": "nonpayable",
          "type": "function"
        },
        {
          "inputs": [
            {
              "internalType": "bytes32[]",
              "name": "proposalIds",
              "type": "bytes32[]"
            },
            {
              "internalType": "uint256[]",
              "name": "amounts",
              "type": "uint256[]"
            },
            {
              "internalType": "address[]",
              "name": "voters",
              "type": "address[]"
            },
            {
              "internalType": "bytes[]",
              "name": "signatures",
              "type": "bytes[]"
            }
          ],
          "name": "setSignedVotes",
          "outputs": [],
          "stateMutability": "nonpayable",
          "type": "function"
        },
        {
          "inputs": [
            {
              "internalType": "bytes32",
              "name": "proposalId",
              "type": "bytes32"
            },
            {
              "internalType": "uint256",
              "name": "amount",
              "type": "uint256"
            }
          ],
          "name": "setVote",
          "outputs": [],
          "stateMutability": "nonpayable",
          "type": "function"
        },
        {
          "inputs": [
            {
              "internalType": "bytes32[]",
              "name": "proposalIds",
              "type": "bytes32[]"
            },
            {
              "internalType": "uint256[]",
              "name": "amounts",
              "type": "uint256[]"
            }
          ],
          "name": "setVotes",
          "outputs": [],
          "stateMutability": "nonpayable",
          "type": "function"
        },
        {
          "inputs": [
            {
              "internalType": "bytes32",
              "name": "",
              "type": "bytes32"
            }
          ],
          "name": "signedVotes",
          "outputs": [
            {
              "internalType": "bool",
              "name": "",
              "type": "bool"
            }
          ],
          "stateMutability": "view",
          "type": "function"
        },
        {
          "inputs": [],
          "name": "timeForExecution",
          "outputs": [
            {
              "internalType": "uint256",
              "name": "",
              "type": "uint256"
            }
          ],
          "stateMutability": "view",
          "type": "function"
        },
        {
          "inputs": [],
          "name": "token",
          "outputs": [
            {
              "internalType": "contract IERC20Upgradeable",
              "name": "",
              "type": "address"
            }
          ],
          "stateMutability": "view",
          "type": "function"
        },
        {
          "inputs": [],
          "name": "tokenVault",
          "outputs": [
            {
              "internalType": "contract TokenVault",
              "name": "",
              "type": "address"
            }
          ],
          "stateMutability": "view",
          "type": "function"
        },
        {
          "inputs": [
            {
              "internalType": "address",
              "name": "",
              "type": "address"
            }
          ],
          "name": "tokensLocked",
          "outputs": [
            {
              "internalType": "uint256",
              "name": "amount",
              "type": "uint256"
            },
            {
              "internalType": "uint256",
              "name": "timestamp",
              "type": "uint256"
            }
          ],
          "stateMutability": "view",
          "type": "function"
        },
        {
          "inputs": [],
          "name": "totalLocked",
          "outputs": [
            {
              "internalType": "uint256",
              "name": "",
              "type": "uint256"
            }
          ],
          "stateMutability": "view",
          "type": "function"
        },
        {
          "inputs": [
            {
              "internalType": "uint256",
              "name": "snapshotId",
              "type": "uint256"
            }
          ],
          "name": "totalLockedAt",
          "outputs": [
            {
              "internalType": "uint256",
              "name": "",
              "type": "uint256"
            }
          ],
          "stateMutability": "view",
          "type": "function"
        },
        {
          "inputs": [],
          "name": "voteGas",
          "outputs": [
            {
              "internalType": "uint256",
              "name": "",
              "type": "uint256"
            }
          ],
          "stateMutability": "view",
          "type": "function"
        },
        {
          "inputs": [],
          "name": "votesForCreation",
          "outputs": [
            {
              "internalType": "uint256",
              "name": "",
              "type": "uint256"
            }
          ],
          "stateMutability": "view",
          "type": "function"
        },
        {
          "inputs": [],
          "name": "votesForExecution",
          "outputs": [
            {
              "internalType": "uint256",
              "name": "",
              "type": "uint256"
            }
          ],
          "stateMutability": "view",
          "type": "function"
        },
        {
          "inputs": [
            {
              "internalType": "address",
              "name": "account",
              "type": "address"
            }
          ],
          "name": "votesOf",
          "outputs": [
            {
              "internalType": "uint256",
              "name": "",
              "type": "uint256"
            }
          ],
          "stateMutability": "view",
          "type": "function"
        },
        {
          "inputs": [
            {
              "internalType": "address[]",
              "name": "accounts",
              "type": "address[]"
            }
          ],
          "name": "votesOf",
          "outputs": [
            {
              "internalType": "uint256[]",
              "name": "",
              "type": "uint256[]"
            }
          ],
          "stateMutability": "view",
          "type": "function"
        },
        {
          "inputs": [
            {
              "internalType": "address",
              "name": "account",
              "type": "address"
            },
            {
              "internalType": "uint256",
              "name": "snapshotId",
              "type": "uint256"
            }
          ],
          "name": "votesOfAt",
          "outputs": [
            {
              "internalType": "uint256",
              "name": "",
              "type": "uint256"
            }
          ],
          "stateMutability": "view",
          "type": "function"
        },
        {
          "inputs": [
            {
              "internalType": "address[]",
              "name": "accounts",
              "type": "address[]"
            },
            {
              "internalType": "uint256[]",
              "name": "snapshotIds",
              "type": "uint256[]"
            }
          ],
          "name": "votesOfAt",
          "outputs": [
            {
              "internalType": "uint256[]",
              "name": "",
              "type": "uint256[]"
            }
          ],
          "stateMutability": "view",
          "type": "function"
        },
        {
          "stateMutability": "payable",
          "type": "receive"
        }
      ],
      "evm": {
        "bytecode": {
          "linkReferences": {},
          "object": "608060405234801561001057600080fd5b506149bd806100206000396000f3fe6080604052600436106102605760003560e01c80635bc789d911610144578063b96f8c9e116100b6578063ea1627c01161007a578063ea1627c01461070a578063ed996f5e14610737578063f4ff96aa14610757578063f977cd2914610777578063fc0c546a1461078c578063fc4e703f146107a157610267565b8063b96f8c9e14610668578063bec11c0e14610688578063cc3c74a1146106a8578063d5c1b6fc146106bd578063db0c41bf146106dd57610267565b80637e17e3fc116101085780637e17e3fc146105be5780638c20a9c5146105de5780639669b1cb146105f3578063adbba7ae14610608578063b3929aaa14610628578063b3b470611461064857610267565b80635bc789d91461051c578063663bb4af1461053e5780636e27d8891461055e57806376b0243a1461057e57806379ec5d3a1461059e57610267565b806327f2bdde116101dd5780633de39c11116101a15780633de39c11146104665780633f10cf151461047b578063402bad8e14610490578063430694cf146104b05780634b0babdd146104e7578063568914121461050757610267565b806327f2bdde146103b25780632fd99c00146103d257806332315fc4146103f257806332ed5b12146104125780633a3bed001461044657610267565b806314621a3a1161022457806314621a3a14610331578063158ef93e14610351578063184a0ae9146103735780631c3e89f4146103885780632229a0e21461039d57610267565b806301a598a61461026957806306fdde03146102a0578063088af182146102c25780630d668087146102ef5780630f9a85531461031157610267565b3661026757005b005b34801561027557600080fd5b506102896102843660046130a4565b6107b6565b604051610297929190614205565b60405180910390f35b3480156102ac57600080fd5b506102b56107cf565b6040516102979190613a8c565b3480156102ce57600080fd5b506102e26102dd366004613664565b61085c565b6040516102979190613a47565b3480156102fb57600080fd5b50610304610867565b6040516102979190613a3e565b34801561031d57600080fd5b5061026761032c3660046134dc565b61086d565b34801561033d57600080fd5b5061026761034c366004613612565b6108e1565b34801561035d57600080fd5b506103666109b6565b6040516102979190613a33565b34801561037f57600080fd5b506103046109c6565b34801561039457600080fd5b506103046109cc565b3480156103a957600080fd5b506103046109d2565b3480156103be57600080fd5b506103046103cd3660046133be565b6109d8565b3480156103de57600080fd5b506103666103ed3660046135b7565b610a97565b3480156103fe57600080fd5b5061030461040d366004613122565b610aac565b34801561041e57600080fd5b5061043261042d3660046135b7565b610afa565b604051610297989796959493929190613971565b34801561045257600080fd5b50610267610461366004613510565b610c60565b34801561047257600080fd5b50610304610cd3565b34801561048757600080fd5b50610304610cd9565b34801561049c57600080fd5b506102676104ab366004613696565b610cdf565b3480156104bc57600080fd5b506104d06104cb3660046135b7565b610cf7565b6040516102979b9a99989796959493929190613894565b3480156104f357600080fd5b506102676105023660046135b7565b611033565b34801561051357600080fd5b50610304611177565b34801561052857600080fd5b5061053161117d565b6040516102979190613a78565b34801561054a57600080fd5b506103666105593660046130f0565b61118c565b34801561056a57600080fd5b506102676105793660046135b7565b6111c3565b34801561058a57600080fd5b506103666105993660046130f0565b6112c6565b3480156105aa57600080fd5b506103046105b93660046130a4565b6112e6565b3480156105ca57600080fd5b506102676105d936600461314b565b611301565b3480156105ea57600080fd5b5061030461151a565b3480156105ff57600080fd5b50610304611520565b34801561061457600080fd5b506103046106233660046130be565b611526565b34801561063457600080fd5b506103046106433660046135b7565b61155c565b34801561065457600080fd5b506102676106633660046135b7565b61157d565b34801561067457600080fd5b50610267610683366004613214565b6115f8565b34801561069457600080fd5b506102676106a33660046135f1565b61185d565b3480156106b457600080fd5b506103046118b2565b3480156106c957600080fd5b506103046106d83660046135cf565b6118b8565b3480156106e957600080fd5b506106fd6106f836600461347c565b6118e4565b6040516102979190613a20565b34801561071657600080fd5b5061072a6107253660046132f3565b61198f565b60405161029791906139dc565b34801561074357600080fd5b506103046107523660046135b7565b611cbc565b34801561076357600080fd5b506106fd6107723660046131da565b611ceb565b34801561078357600080fd5b50610304611d81565b34801561079857600080fd5b50610531611d87565b3480156107ad57600080fd5b50610304611d9c565b600e602052600090815260409020805460019091015482565b60018054604080516020600284861615610100026000190190941693909304601f810184900484028201840190925281815292918301828280156108545780601f1061082957610100808354040283529160200191610854565b820191906000526020600020905b81548152906001019060200180831161083757829003601f168201915b505050505081565b60208101515b919050565b60085481565b80518251146108975760405162461bcd60e51b815260040161088e90613cac565b60405180910390fd5b60005b82518110156108dc576108d4338483815181106108b357fe5b60200260200101518484815181106108c757fe5b6020026020010151611da2565b60010161089a565b505050565b600054600160b01b900460ff1661090a5760405162461bcd60e51b815260040161088e90613a9f565b6000610917838686611526565b6000818152600c602052604090205490915060ff16156109495760405162461bcd60e51b815260040161088e90614153565b61095c8261095683612012565b90612063565b6001600160a01b0316836001600160a01b03161461098c5760405162461bcd60e51b815260040161088e9061418a565b610997838686611da2565b6000908152600c60205260409020805460ff1916600117905550505050565b600054600160b01b900460ff1681565b60025481565b60045481565b60105490565b60008054600160b01b900460ff16610a025760405162461bcd60e51b815260040161088e90613a9f565b610a0a611d81565b610a13336112e6565b1015610a315760405162461bcd60e51b815260040161088e90613e1e565b84518651148015610a43575083518651145b610a5f5760405162461bcd60e51b815260040161088e906140c8565b6000865111610a805760405162461bcd60e51b815260040161088e90613f27565b610a8d86868686866120d9565b9695505050505050565b600c6020526000908152604090205460ff1681565b6001600160a01b038216600090815260116020526040812081908190610ad3908590612276565b915091508115610ae6579150610af49050565b610aef856112e6565b925050505b92915050565b600f60209081526000918252604091829020805460018083015460028085015460068601805489516101009682161596909602600019011692909204601f81018890048802850188019098528784526001600160a01b03909416969195939493909190830182828015610bae5780601f10610b8357610100808354040283529160200191610bae565b820191906000526020600020905b815481529060010190602001808311610b9157829003601f168201915b5050505060078301805460408051602060026001851615610100026000190190941693909304601f8101849004840282018401909252818152949594935090830182828015610c3e5780601f10610c1357610100808354040283529160200191610c3e565b820191906000526020600020905b815481529060010190602001808311610c2157829003601f168201915b5050505060088301546009840154600a909401549293909260ff909116915088565b60005b8451811015610ccc57610cc4858281518110610c7b57fe5b6020026020010151858381518110610c8f57fe5b6020026020010151858481518110610ca357fe5b6020026020010151858581518110610cb757fe5b60200260200101516108e1565b600101610c63565b5050505050565b60075481565b60035481565b610cee87878787878787612309565b50505050505050565b60008060006060806060806060600080600080600f60008e815260200190815260200160002090508060000160009054906101000a90046001600160a01b031681600101548260020154836003018460040185600501866006018760070188600801548960090160009054906101000a900460ff168a600a015487805480602002602001604051908101604052809291908181526020018280548015610dc657602002820191906000526020600020905b81546001600160a01b03168152600190910190602001808311610da8575b5050505050975086805480602002602001604051908101604052809291908181526020016000905b82821015610e995760008481526020908190208301805460408051601f6002600019610100600187161502019094169390930492830185900485028101850190915281815292830182828015610e855780601f10610e5a57610100808354040283529160200191610e85565b820191906000526020600020905b815481529060010190602001808311610e6857829003601f168201915b505050505081526020019060010190610dee565b50505050965085805480602002602001604051908101604052809291908181526020018280548015610eea57602002820191906000526020600020905b815481526020019060010190808311610ed6575b5050885460408051602060026001851615610100026000190190941693909304601f8101849004840282018401909252818152959b508a945092508401905082828015610f785780601f10610f4d57610100808354040283529160200191610f78565b820191906000526020600020905b815481529060010190602001808311610f5b57829003601f168201915b5050875460408051602060026001851615610100026000190190941693909304601f8101849004840282018401909252818152959a50899450925084019050828280156110065780601f10610fdb57610100808354040283529160200191611006565b820191906000526020600020905b815481529060010190602001808311610fe957829003601f168201915b505050505093509b509b509b509b509b509b509b509b509b509b509b505091939597999b90929496989a50565b8061103d336112e6565b101561105b5760405162461bcd60e51b815260040161088e90613e9b565b336000908152600e6020526040902060010154421161108c5760405162461bcd60e51b815260040161088e90613cfe565b6110953361239d565b61109d6123c7565b336000908152600e60205260409020546110b790826123d6565b336000908152600e60205260409020556009546110d490826123d6565b600955600a5460405163f3fef3a360e01b81526001600160a01b039091169063f3fef3a3906111099033908590600401613861565b600060405180830381600087803b15801561112357600080fd5b505af1158015611137573d6000803e3d6000fd5b505050507fc7798891864187665ac6dd119286e44ec13f014527aeeb2b8eb3fd413df93179338260405161116c929190613861565b60405180910390a150565b60095481565b600a546001600160a01b031681565b6001600160a01b0382166000908152600d602090815260408083206001600160e01b03198516845290915290205460ff1692915050565b6111cc3361239d565b6111d46123c7565b600a546040516311f9fbc960e21b81526001600160a01b03909116906347e7ef24906112069033908590600401613861565b600060405180830381600087803b15801561122057600080fd5b505af1158015611234573d6000803e3d6000fd5b5050336000908152600e60205260409020546112539250905082612433565b336000908152600e6020526040902055600854611271904290612433565b336000908152600e60205260409020600101556009546112919082612433565b6009556040517fac87f20a77d28ee8bbb58ec87ea8fa968b3393efae1a368fd50b767c2847391c9061116c9033908490613861565b600d60209081526000928352604080842090915290825290205460ff1681565b6001600160a01b03166000908152600e602052604090205490565b600054610100900460ff168061131a575061131a612494565b80611328575060005460ff16155b6113635760405162461bcd60e51b815260040180806020018281038252602e815260200180614917602e913960400191505060405180910390fd5b600054610100900460ff1615801561138e576000805460ff1961ff0019909116610100171660011790555b6001600160a01b038a166113b45760405162461bcd60e51b815260040161088e90613bad565b84516113c7906001906020880190612c91565b506000805462010000600160b01b031916620100006001600160a01b038d16021790556040516113f690612d1d565b604051809103906000f080158015611412573d6000803e3d6000fd5b50600a80546001600160a01b0319166001600160a01b03928316179081905560005460405163485cc95560e01b81529183169263485cc955926114639262010000900490911690309060040161387a565b600060405180830381600087803b15801561147d57600080fd5b505af1158015611491573d6000803e3d6000fd5b505050506114a489898989888888612309565b306000908152600d60209081526040808320632015d6c760e11b8452909152808220805460ff199081166001908117909255635cb7c64f60e11b84529183208054909216179055805460ff60b01b1916600160b01b179055801561150e576000805461ff00191690555b50505050505050505050565b60055481565b60045490565b600083838360405160200161153d939291906137c7565b6040516020818303038152906040528051906020012090509392505050565b6010818154811061156c57600080fd5b600091825260209091200154905081565b60016000828152600f602052604090206009015460ff16600481111561159f57fe5b146115bc5760405162461bcd60e51b815260040161088e90613d8a565b6000818152600f602052604090206002015442116115ec5760405162461bcd60e51b815260040161088e906141c1565b6115f5816124a5565b50565b600054600160b01b900460ff166116215760405162461bcd60e51b815260040161088e90613a9f565b3330146116405760405162461bcd60e51b815260040161088e90613f78565b81518351148015611652575080518351145b61166e5760405162461bcd60e51b815260040161088e90613ad6565b60005b83518110156117da57825160009084908390811061168b57fe5b60200260200101516001600160e01b03191614156116bb5760405162461bcd60e51b815260040161088e90613fc6565b8181815181106116c757fe5b6020026020010151600d60008684815181106116df57fe5b60200260200101516001600160a01b03166001600160a01b03168152602001908152602001600020600085848151811061171557fe5b60200260200101516001600160e01b0319166001600160e01b031916815260200190815260200160002060006101000a81548160ff02191690831515021790555083818151811061176257fe5b60200260200101516001600160a01b03167f31e41e795ddf7710d216f93d4d9a1080ca53618ba00822e743d12f31a7dfc9808483815181106117a057fe5b60200260200101518484815181106117b457fe5b60200260200101516040516117ca929190613a5c565b60405180910390a2600101611671565b50306000908152600d60209081526040808320632015d6c760e11b845290915290205460ff1661181c5760405162461bcd60e51b815260040161088e90613c4f565b306000908152600d60209081526040808320635cb7c64f60e11b845290915290205460ff166108dc5760405162461bcd60e51b815260040161088e9061406b565b6000828152600f60205260409020600a0154819061187c903390610aac565b101561189a5760405162461bcd60e51b815260040161088e90613ef0565b6118a5338383611da2565b6118ae33612877565b5050565b600b5481565b6000828152600f602090815260408083206001600160a01b0385168452600b0190915290205492915050565b6060600083516001600160401b03811180156118ff57600080fd5b50604051908082528060200260200182016040528015611929578160200160208202803683370190505b50905060005b84518110156119875761196885828151811061194757fe5b602002602001015185838151811061195b57fe5b6020026020010151610aac565b82828151811061197457fe5b602090810291909101015260010161192f565b509392505050565b600054606090600160b01b900460ff166119bb5760405162461bcd60e51b815260040161088e90613a9f565b6119c3611d81565b6119cc336112e6565b10156119ea5760405162461bcd60e51b815260040161088e90613e1e565b845186511480156119fc575083518651145b611a185760405162461bcd60e51b815260040161088e906140c8565b8151835114611a395760405162461bcd60e51b815260040161088e90613bf2565b6000865111611a5a5760405162461bcd60e51b815260040161088e90613f27565b600083516001600160401b0381118015611a7357600080fd5b50604051908082528060200260200182016040528015611a9d578160200160208202803683370190505b508451885191925090600090611ab3908361290a565b905060005b82811015611cae576000826001600160401b0381118015611ad857600080fd5b50604051908082528060200260200182016040528015611b02578160200160208202803683370190505b5090506000836001600160401b0381118015611b1d57600080fd5b50604051908082528060200260200182016040528015611b5157816020015b6060815260200190600190039081611b3c5790505b5090506000846001600160401b0381118015611b6c57600080fd5b50604051908082528060200260200182016040528015611b96578160200160208202803683370190505b509050600080611ba68787612971565b90505b86811015611c53578e8181518110611bbd57fe5b6020026020010151858381518110611bd157fe5b60200260200101906001600160a01b031690816001600160a01b0316815250508d8181518110611bfd57fe5b6020026020010151848381518110611c1157fe5b60200260200101819052508c8181518110611c2857fe5b6020026020010151838381518110611c3c57fe5b602090810291909101015260019182019101611ba9565b50611c878484848e8981518110611c6657fe5b60200260200101518e8a81518110611c7a57fe5b60200260200101516120d9565b888681518110611c9357fe5b6020908102919091010152505060019092019150611ab89050565b509198975050505050505050565b6000806000611ccc846012612276565b915091508115611cdf5791506108629050565b60095492505050610862565b6060600082516001600160401b0381118015611d0657600080fd5b50604051908082528060200260200182016040528015611d30578160200160208202803683370190505b50905060005b8351811015611d7a57611d5b848281518110611d4e57fe5b60200260200101516112e6565b828281518110611d6757fe5b6020908102919091010152600101611d36565b5092915050565b60055490565b6000546201000090046001600160a01b031681565b60065481565b600054600160b01b900460ff16611dcb5760405162461bcd60e51b815260040161088e90613a9f565b60016000838152600f602052604090206009015460ff166004811115611ded57fe5b14611e0a5760405162461bcd60e51b815260040161088e90613d8a565b80611e14846112e6565b1015611e325760405162461bcd60e51b815260040161088e90613ef0565b6000828152600f602090815260408083206001600160a01b0387168452600b01909152902054811115611f26576000828152600f602090815260408083206001600160a01b0387168452600b01909152902054611eac90611e949083906123d6565b6000848152600f602052604090206008015490612433565b6000838152600f6020908152604080832060088101949094556001600160a01b0387168352600b9093019052205482907f994c1e2cd59a94ec7f932ab317a85dabd5f43917c5cfb959b751a9648140c0c2908590611f0b9085906123d6565b604051611f19929190613861565b60405180910390a2611fe7565b6000828152600f602090815260408083206001600160a01b0387168452600b01909152902054611f7290611f5a90836123d6565b6000848152600f6020526040902060080154906123d6565b6000838152600f6020908152604080832060088101949094556001600160a01b0387168352600b9093019052205482907f79f996adb5f064cd332cb02f590abdf662bafabcbe22469b8b316466e475c2c1908590611fd090856123d6565b604051611fde929190613861565b60405180910390a25b6000918252600f602090815260408084206001600160a01b039095168452600b909401905291902055565b604080517f19457468657265756d205369676e6564204d6573736167653a0a333200000000602080830191909152603c8083019490945282518083039094018452605c909101909152815191012090565b600081516041146120bb576040805162461bcd60e51b815260206004820152601f60248201527f45434453413a20696e76616c6964207369676e6174757265206c656e67746800604482015290519081900360640190fd5b60208201516040830151606084015160001a610a8d868285856129ca565b6000803342600b546040516020016120f3939291906137c7565b6040516020818303038152906040528051906020012090506121216001600b5461243390919063ffffffff16565b600b55601454612132906001612433565b6014556000818152600f6020526040902080546001600160a01b0319163317815542600182018190556002546121689190612433565b6002820155875161218290600383019060208b0190612d2a565b50865161219890600483019060208a0190612d7f565b5085516121ae9060058301906020890190612dd8565b5084516121c49060068301906020880190612c91565b5083516121da9060078301906020870190612c91565b5060006008820181905560098201805460ff19166001179055601454600a83015560405183917f288a29bca04edb18fcdb2c76d6e3b03b8a137c85c70d1a4cb8aacfa868d6051091a26122363383612231336112e6565b611da2565b50601080546001810182556000919091527f1b6847dc741a1b0cd08d278845f9d819d87b734759afb55fe2de5cb82a9ae672018190559695505050505050565b600080600084116122995760405162461bcd60e51b815260040161088e90613e6e565b6014548411156122bb5760405162461bcd60e51b815260040161088e90613b76565b60006122c78486612b48565b84549091508114156122e0576000809250925050612302565b60018460010182815481106122f157fe5b906000526020600020015492509250505b9250929050565b600054600160b01b900460ff16158061232157503330145b61233d5760405162461bcd60e51b815260040161088e9061400e565b6000851161235d5760405162461bcd60e51b815260040161088e90613d35565b6000811161237d5760405162461bcd60e51b815260040161088e90613dcf565b600296909655600394909455600492909255600555600655600755600855565b6001600160a01b03811660009081526011602052604090206115f5906123c2836112e6565b612bda565b6123d46012600954612bda565b565b60008282111561242d576040805162461bcd60e51b815260206004820152601e60248201527f536166654d6174683a207375627472616374696f6e206f766572666c6f770000604482015290519081900360640190fd5b50900390565b60008282018381101561248d576040805162461bcd60e51b815260206004820152601b60248201527f536166654d6174683a206164646974696f6e206f766572666c6f770000000000604482015290519081900360640190fd5b9392505050565b600061249f30612c1b565b15905090565b6124ad611520565b6000828152600f60205260409020600801541080156124eb575060016000828152600f602052604090206009015460ff1660048111156124e957fe5b145b15612538576000818152600f6020526040808220600901805460ff191660021790555182917f55295d4ce992922fa2e5ffbf3a3dcdb367de0a15e125ace083456017fd22060f91a26115f5565b6003546000828152600f602052604090206002015442916125599190612433565b108015612585575060016000828152600f602052604090206009015460ff16600481111561258357fe5b145b156125d2576000818152600f6020526040808220600901805460ff191660041790555182917f0126984176eaaeb6ba34a0bd7ee6e99c473c100f79bee0bb6d17f0f44c83f1f991a26115f5565b60016000828152600f602052604090206009015460ff1660048111156125f457fe5b14156115f5576000818152600f60205260408120600901805460ff191660031790555b6000828152600f6020526040902060030154811015612848576000828152600f6020526040812060040180546126ea91908490811061265257fe5b600091825260209182902001805460408051601f60026000196101006001871615020190941693909304928301859004850281018501909152818152928301828280156126e05780601f106126b5576101008083540402835291602001916126e0565b820191906000526020600020905b8154815290600101906020018083116126c357829003601f168201915b505050505061085c565b6000848152600f602052604090206003018054919250612729918490811061270e57fe5b6000918252602090912001546001600160a01b03168261118c565b6127455760405162461bcd60e51b815260040161088e9061411c565b6000838152600f6020526040812060030180548490811061276257fe5b6000918252602080832090910154868352600f909152604090912060050180546001600160a01b03909216918590811061279857fe5b9060005260206000200154600f600087815260200190815260200160002060040185815481106127c457fe5b906000526020600020016040516127db91906137f1565b60006040518083038185875af1925050503d8060008114612818576040519150601f19603f3d011682016040523d82523d6000602084013e61281d565b606091505b505090508061283e5760405162461bcd60e51b815260040161088e90613b41565b5050600101612617565b5060405181907f7b1bcf1ccf901a11589afff5504d59fd0a53780eed2a952adade0348985139e090600090a250565b600054600160b01b900460ff166128a05760405162461bcd60e51b815260040161088e90613a9f565b600654156115f55760006128cb6128c26007543a612c2190919063ffffffff16565b60065490612971565b90508047106118ae576040516001600160a01b0383169082156108fc029083906000818181858888f193505050501580156108dc573d6000803e3d6000fd5b6000808211612960576040805162461bcd60e51b815260206004820152601a60248201527f536166654d6174683a206469766973696f6e206279207a65726f000000000000604482015290519081900360640190fd5b81838161296957fe5b049392505050565b60008261298057506000610af4565b8282028284828161298d57fe5b041461248d5760405162461bcd60e51b81526004018080602001828103825260218152602001806149676021913960400191505060405180910390fd5b60007f7fffffffffffffffffffffffffffffff5d576e7357a4501ddfe92f46681b20a0821115612a2b5760405162461bcd60e51b81526004018080602001828103825260228152602001806148f56022913960400191505060405180910390fd5b8360ff16601b1480612a4057508360ff16601c145b612a7b5760405162461bcd60e51b81526004018080602001828103825260228152602001806149456022913960400191505060405180910390fd5b600060018686868660405160008152602001604052604051808581526020018460ff1681526020018381526020018281526020019450505050506020604051602081039080840390855afa158015612ad7573d6000803e3d6000fd5b5050604051601f1901519150506001600160a01b038116612b3f576040805162461bcd60e51b815260206004820152601860248201527f45434453413a20696e76616c6964207369676e61747572650000000000000000604482015290519081900360640190fd5b95945050505050565b815460009081905b80821015612b99576000612b648383612c37565b905084868281548110612b7357fe5b90600052602060002001541115612b8c57809150612b93565b8060010192505b50612b50565b600082118015612bc1575083856001840381548110612bb457fe5b9060005260206000200154145b15612bd25750600019019050610af4565b509050610af4565b60145480612be784612c5c565b10156108dc578254600180820185556000858152602080822090930193909355938401805494850181558252902090910155565b3b151590565b6000818310612c30578161248d565b5090919050565b60006002808306600285060181612c4a57fe5b04600283046002850401019392505050565b8054600090612c6d57506000610862565b815482906000198101908110612c7f57fe5b90600052602060002001549050610862565b828054600181600116156101000203166002900490600052602060002090601f016020900481019282612cc75760008555612d0d565b82601f10612ce057805160ff1916838001178555612d0d565b82800160010185558215612d0d579182015b82811115612d0d578251825591602001919060010190612cf2565b50612d19929150612e12565b5090565b6106a18061425483390190565b828054828255906000526020600020908101928215612d0d579160200282015b82811115612d0d57825182546001600160a01b0319166001600160a01b03909116178255602090920191600190910190612d4a565b828054828255906000526020600020908101928215612dcc579160200282015b82811115612dcc5782518051612dbc918491602090910190612c91565b5091602001919060010190612d9f565b50612d19929150612e27565b828054828255906000526020600020908101928215612d0d5791602002820182811115612d0d578251825591602001919060010190612cf2565b5b80821115612d195760008155600101612e13565b80821115612d19576000612e3b8282612e44565b50600101612e27565b50805460018160011615610100020316600290046000825580601f10612e6a57506115f5565b601f0160209004906000526020600020908101906115f59190612e12565b80356001600160a01b038116811461086257600080fd5b600082601f830112612eaf578081fd5b81356020612ec4612ebf83614236565b614213565b8281528181019085830183850287018401881015612ee0578586fd5b855b85811015612f0557612ef382612e88565b84529284019290840190600101612ee2565b5090979650505050505050565b600082601f830112612f22578081fd5b81356020612f32612ebf83614236565b8281528181019085830183850287018401881015612f4e578586fd5b855b85811015612f055781358015158114612f67578788fd5b84529284019290840190600101612f50565b600082601f830112612f89578081fd5b81356020612f99612ebf83614236565b8281528181019085830183850287018401881015612fb5578586fd5b855b85811015612f0557813584529284019290840190600101612fb7565b600082601f830112612fe3578081fd5b81356020612ff3612ebf83614236565b82815281810190858301855b85811015612f0557613016898684358b0101613040565b84529284019290840190600101612fff565b80356001600160e01b03198116811461086257600080fd5b600082601f830112613050578081fd5b81356001600160401b0381111561306357fe5b613076601f8201601f1916602001614213565b81815284602083860101111561308a578283fd5b816020850160208301379081016020019190915292915050565b6000602082840312156130b5578081fd5b61248d82612e88565b6000806000606084860312156130d2578182fd5b6130db84612e88565b95602085013595506040909401359392505050565b60008060408385031215613102578182fd5b61310b83612e88565b915061311960208401613028565b90509250929050565b60008060408385031215613134578182fd5b61313d83612e88565b946020939093013593505050565b60008060008060008060008060006101208a8c031215613169578687fd5b6131728a612e88565b985060208a0135975060408a0135965060608a0135955060808a0135945060a08a01356001600160401b038111156131a8578485fd5b6131b48c828d01613040565b94505060c08a0135925060e08a013591506101008a013590509295985092959850929598565b6000602082840312156131eb578081fd5b81356001600160401b03811115613200578182fd5b61320c84828501612e9f565b949350505050565b600080600060608486031215613228578081fd5b83356001600160401b038082111561323e578283fd5b61324a87838801612e9f565b9450602091508186013581811115613260578384fd5b8601601f81018813613270578384fd5b803561327e612ebf82614236565b81815284810190838601868402850187018c101561329a578788fd5b8794505b838510156132c3576132af81613028565b83526001949094019391860191860161329e565b50965050505060408601359150808211156132dc578283fd5b506132e986828701612f12565b9150509250925092565b600080600080600060a0868803121561330a578283fd5b85356001600160401b0380821115613320578485fd5b61332c89838a01612e9f565b96506020880135915080821115613341578485fd5b61334d89838a01612fd3565b95506040880135915080821115613362578485fd5b61336e89838a01612f79565b94506060880135915080821115613383578283fd5b61338f89838a01612fd3565b935060808801359150808211156133a4578283fd5b506133b188828901612fd3565b9150509295509295909350565b600080600080600060a086880312156133d5578283fd5b85356001600160401b03808211156133eb578485fd5b6133f789838a01612e9f565b9650602088013591508082111561340c578485fd5b61341889838a01612fd3565b9550604088013591508082111561342d578485fd5b61343989838a01612f79565b9450606088013591508082111561344e578283fd5b61345a89838a01613040565b9350608088013591508082111561346f578283fd5b506133b188828901613040565b6000806040838503121561348e578182fd5b82356001600160401b03808211156134a4578384fd5b6134b086838701612e9f565b935060208501359150808211156134c5578283fd5b506134d285828601612f79565b9150509250929050565b600080604083850312156134ee578182fd5b82356001600160401b0380821115613504578384fd5b6134b086838701612f79565b60008060008060808587031215613525578182fd5b84356001600160401b038082111561353b578384fd5b61354788838901612f79565b9550602087013591508082111561355c578384fd5b61356888838901612f79565b9450604087013591508082111561357d578384fd5b61358988838901612e9f565b9350606087013591508082111561359e578283fd5b506135ab87828801612fd3565b91505092959194509250565b6000602082840312156135c8578081fd5b5035919050565b600080604083850312156135e1578182fd5b8235915061311960208401612e88565b60008060408385031215613603578182fd5b50508035926020909101359150565b60008060008060808587031215613627578182fd5b843593506020850135925061363e60408601612e88565b915060608501356001600160401b03811115613658578182fd5b6135ab87828801613040565b600060208284031215613675578081fd5b81356001600160401b0381111561368a578182fd5b61320c84828501613040565b600080600080600080600060e0888a0312156136b0578081fd5b505085359760208701359750604087013596606081013596506080810135955060a0810135945060c0013592509050565b6000815180845260208085018081965082840281019150828601855b8581101561372757828403895261371584835161376e565b988501989350908401906001016136fd565b5091979650505050505050565b6000815180845260208085019450808401835b8381101561376357815187529582019590820190600101613747565b509495945050505050565b60008151808452815b8181101561379357602081850181015186830182015201613777565b818111156137a45782602083870101525b50601f01601f19169290920160200192915050565b600581106137c357fe5b9052565b60609390931b6bffffffffffffffffffffffff191683526014830191909152603482015260540190565b6000808354600180821660008114613810576001811461382757613856565b60ff198316865260028304607f1686019350613856565b600283048786526020808720875b8381101561384e5781548a820152908501908201613835565b505050860193505b509195945050505050565b6001600160a01b03929092168252602082015260400190565b6001600160a01b0392831681529116602082015260400190565b6000610160820160018060a01b03808f1684528d60208501528c60408501526101606060850152818c518084526101808601915060208e019350845b818110156138f057845184168352602094850194909201916001016138d0565b50508481036080860152613904818d6136e1565b9250505082810360a084015261391a818a613734565b905082810360c084015261392e818961376e565b905082810360e0840152613942818861376e565b9150508461010083015261395a6101208301856137b9565b826101408301529c9b505050505050505050505050565b600061010060018060a01b038b16835289602084015288604084015280606084015261399f8184018961376e565b905082810360808401526139b3818861376e565b9150508460a08301526139c960c08301856137b9565b8260e08301529998505050505050505050565b6020808252825182820181905260009190848201906040850190845b81811015613a14578351835292840192918401916001016139f8565b50909695505050505050565b60006020825261248d6020830184613734565b901515815260200190565b90815260200190565b6001600160e01b031991909116815260200190565b6001600160e01b03199290921682521515602082015260400190565b6001600160a01b0391909116815260200190565b60006020825261248d602083018461376e565b6020808252601a908201527f45524332304775696c643a204e6f7420696e6974696c697a6564000000000000604082015260600190565b60208082526045908201527f45524332304775696c643a2057726f6e67206c656e677468206f6620746f2c2060408201527f66756e6374696f6e5369676e6174757265206f7220616c6c6f77616e63652061606082015264727261797360d81b608082015260a00190565b6020808252818101527f45524332304775696c643a2050726f706f73616c2063616c6c206661696c6564604082015260600190565b6020808252601a908201527f45524332304775696c643a206e6f6e6578697374656e74206964000000000000604082015260600190565b60208082526025908201527f45524332304775696c643a20746f6b656e20697320746865207a65726f206164604082015264647265737360d81b606082015260800190565b6020808252603d908201527f45524332304775696c643a2057726f6e67206c656e677468206f66206465736360408201527f72697074696f6e206f7220636f6e74656e744861736820617272617973000000606082015260800190565b6020808252603b908201527f45524332304775696c643a20736574436f6e6669672066756e6374696f6e206160408201527f6c6c6f77616e63652063616e74206265207475726e6564206f66660000000000606082015260800190565b60208082526032908201527f45524332304775696c643a2057726f6e67206c656e677468206f662070726f706040820152716f73616c496473206f7220616d6f756e747360701b606082015260800190565b6020808252601f908201527f45524332304775696c643a20546f6b656e73207374696c6c206c6f636b656400604082015260600190565b60208082526035908201527f45524332304775696c643a20766f74657320666f7220657865637574696f6e20604082015274068617320746f206265206d6f7265207468616e203605c1b606082015260800190565b60208082526025908201527f45524332304775696c643a2050726f706f73616c20616c72656164792065786560408201526418dd5d195960da1b606082015260800190565b6020808252602f908201527f45524332304775696c643a206c6f636b54696d652073686f756c64206265206860408201526e6967686572207468616e207a65726f60881b606082015260800190565b60208082526030908201527f45524332304775696c643a204e6f7420656e6f75676820746f6b656e7320746f60408201526f0818dc99585d19481c1c9bdc1bdcd85b60821b606082015260800190565b602080825260139082015272045524332304775696c643a206964206973203606c1b604082015260600190565b60208082526035908201527f45524332304775696c643a20556e61626c6520746f2072656c65617365206d6f6040820152741c99481d1bdad95b9cc81d1a185b881b1bd8dad959605a1b606082015260800190565b6020808252601a908201527f45524332304775696c643a20496e76616c696420616d6f756e74000000000000604082015260600190565b60208082526031908201527f45524332304775696c643a20746f2c20646174612076616c7565206172726179604082015270732063616e6e6f7420626520656d70747960781b606082015260800190565b6020808252602e908201527f45524332304775696c643a204f6e6c792063616c6c61626c652062792045524360408201526d191833bab4b6321034ba39b2b63360911b606082015260800190565b60208082526028908201527f45524332304775696c643a20456d70747920736967616e7475726573206e6f7460408201526708185b1b1bddd95960c21b606082015260800190565b6020808252603f908201527f45524332304775696c643a204f6e6c792063616c6c61626c652062792045524360408201527f32306775696c6420697473656c66207768656e20696e697469616c697a656400606082015260800190565b6020808252603e908201527f45524332304775696c643a20736574416c6c6f77616e63652066756e6374696f60408201527f6e20616c6c6f77616e63652063616e74206265207475726e6564206f66660000606082015260800190565b60208082526034908201527f45524332304775696c643a2057726f6e67206c656e677468206f6620746f2c2060408201527364617461206f722076616c75652061727261797360601b606082015260800190565b6020808252601c908201527f45524332304775696c643a204e6f7420616c6c6f7765642063616c6c00000000604082015260600190565b60208082526019908201527f45524332304775696c643a20416c726561647920766f74656400000000000000604082015260600190565b60208082526018908201527f45524332304775696c643a2057726f6e67207369676e65720000000000000000604082015260600190565b60208082526024908201527f45524332304775696c643a2050726f706f73616c206861736e7420656e646564604082015263081e595d60e21b606082015260800190565b918252602082015260400190565b6040518181016001600160401b038111828210171561422e57fe5b604052919050565b60006001600160401b0382111561424957fe5b506020908102019056fe60806040526001805460ff60a01b1916905534801561001d57600080fd5b506106748061002d6000396000f3fe608060405234801561001057600080fd5b506004361061007d5760003560e01c8063485cc9551161005b578063485cc95514610104578063f3fef3a314610132578063f851a4401461015e578063fc0c546a146101825761007d565b8063158ef93e1461008257806327e235e31461009e57806347e7ef24146100d6575b600080fd5b61008a61018a565b604080519115158252519081900360200190f35b6100c4600480360360208110156100b457600080fd5b50356001600160a01b031661019a565b60408051918252519081900360200190f35b610102600480360360408110156100ec57600080fd5b506001600160a01b0381351690602001356101ac565b005b6101026004803603604081101561011a57600080fd5b506001600160a01b03813581169160200135166102f4565b6101026004803603604081101561014857600080fd5b506001600160a01b0381351690602001356103e7565b610166610517565b604080516001600160a01b039092168252519081900360200190f35b610166610526565b600154600160a01b900460ff1681565b60026020526000908152604090205481565b600154600160a01b900460ff1661020a576040805162461bcd60e51b815260206004820152601a60248201527f546f6b656e5661756c743a204e6f7420696e6974696c697a6564000000000000604482015290519081900360640190fd5b6001546001600160a01b0316331461022157600080fd5b60008054604080516323b872dd60e01b81526001600160a01b03868116600483015230602483015260448201869052915162010000909304909116926323b872dd926064808401936020939083900390910190829087803b15801561028557600080fd5b505af1158015610299573d6000803e3d6000fd5b505050506040513d60208110156102af57600080fd5b50506001600160a01b0382166000908152600260205260409020546102d4908261053b565b6001600160a01b0390921660009081526002602052604090209190915550565b600054610100900460ff168061030d575061030d61059c565b8061031b575060005460ff16155b6103565760405162461bcd60e51b815260040180806020018281038252602e815260200180610611602e913960400191505060405180910390fd5b600054610100900460ff16158015610381576000805460ff1961ff0019909116610100171660011790555b600080546001600160a01b03808616620100000262010000600160b01b0319909216919091179091556001805460ff60a01b199285166001600160a01b03199091161791909116600160a01b17905580156103e2576000805461ff00191690555b505050565b600154600160a01b900460ff16610445576040805162461bcd60e51b815260206004820152601a60248201527f546f6b656e5661756c743a204e6f7420696e6974696c697a6564000000000000604482015290519081900360640190fd5b6001546001600160a01b0316331461045c57600080fd5b600060029054906101000a90046001600160a01b03166001600160a01b031663a9059cbb83836040518363ffffffff1660e01b815260040180836001600160a01b0316815260200182815260200192505050602060405180830381600087803b1580156104c857600080fd5b505af11580156104dc573d6000803e3d6000fd5b505050506040513d60208110156104f257600080fd5b50506001600160a01b0382166000908152600260205260409020546102d490826105ad565b6001546001600160a01b031681565b6000546201000090046001600160a01b031681565b600082820183811015610595576040805162461bcd60e51b815260206004820152601b60248201527f536166654d6174683a206164646974696f6e206f766572666c6f770000000000604482015290519081900360640190fd5b9392505050565b60006105a73061060a565b15905090565b600082821115610604576040805162461bcd60e51b815260206004820152601e60248201527f536166654d6174683a207375627472616374696f6e206f766572666c6f770000604482015290519081900360640190fd5b50900390565b3b15159056fe496e697469616c697a61626c653a20636f6e747261637420697320616c726561647920696e697469616c697a6564a2646970667358221220730888c859b2748f700441147ab8b01302a177c9a60c32287f8341809650a9b364736f6c6343000706003345434453413a20696e76616c6964207369676e6174757265202773272076616c7565496e697469616c697a61626c653a20636f6e747261637420697320616c726561647920696e697469616c697a656445434453413a20696e76616c6964207369676e6174757265202776272076616c7565536166654d6174683a206d756c7469706c69636174696f6e206f766572666c6f77a26469706673582212205e9d82be0f36d4bc0e0974049366e8113bd4737c879c9cce97cdb954dec533e664736f6c63430007060033",
          "opcodes": "PUSH1 0x80 PUSH1 0x40 MSTORE CALLVALUE DUP1 ISZERO PUSH2 0x10 JUMPI PUSH1 0x0 DUP1 REVERT JUMPDEST POP PUSH2 0x49BD DUP1 PUSH2 0x20 PUSH1 0x0 CODECOPY PUSH1 0x0 RETURN INVALID PUSH1 0x80 PUSH1 0x40 MSTORE PUSH1 0x4 CALLDATASIZE LT PUSH2 0x260 JUMPI PUSH1 0x0 CALLDATALOAD PUSH1 0xE0 SHR DUP1 PUSH4 0x5BC789D9 GT PUSH2 0x144 JUMPI DUP1 PUSH4 0xB96F8C9E GT PUSH2 0xB6 JUMPI DUP1 PUSH4 0xEA1627C0 GT PUSH2 0x7A JUMPI DUP1 PUSH4 0xEA1627C0 EQ PUSH2 0x70A JUMPI DUP1 PUSH4 0xED996F5E EQ PUSH2 0x737 JUMPI DUP1 PUSH4 0xF4FF96AA EQ PUSH2 0x757 JUMPI DUP1 PUSH4 0xF977CD29 EQ PUSH2 0x777 JUMPI DUP1 PUSH4 0xFC0C546A EQ PUSH2 0x78C JUMPI DUP1 PUSH4 0xFC4E703F EQ PUSH2 0x7A1 JUMPI PUSH2 0x267 JUMP JUMPDEST DUP1 PUSH4 0xB96F8C9E EQ PUSH2 0x668 JUMPI DUP1 PUSH4 0xBEC11C0E EQ PUSH2 0x688 JUMPI DUP1 PUSH4 0xCC3C74A1 EQ PUSH2 0x6A8 JUMPI DUP1 PUSH4 0xD5C1B6FC EQ PUSH2 0x6BD JUMPI DUP1 PUSH4 0xDB0C41BF EQ PUSH2 0x6DD JUMPI PUSH2 0x267 JUMP JUMPDEST DUP1 PUSH4 0x7E17E3FC GT PUSH2 0x108 JUMPI DUP1 PUSH4 0x7E17E3FC EQ PUSH2 0x5BE JUMPI DUP1 PUSH4 0x8C20A9C5 EQ PUSH2 0x5DE JUMPI DUP1 PUSH4 0x9669B1CB EQ PUSH2 0x5F3 JUMPI DUP1 PUSH4 0xADBBA7AE EQ PUSH2 0x608 JUMPI DUP1 PUSH4 0xB3929AAA EQ PUSH2 0x628 JUMPI DUP1 PUSH4 0xB3B47061 EQ PUSH2 0x648 JUMPI PUSH2 0x267 JUMP JUMPDEST DUP1 PUSH4 0x5BC789D9 EQ PUSH2 0x51C JUMPI DUP1 PUSH4 0x663BB4AF EQ PUSH2 0x53E JUMPI DUP1 PUSH4 0x6E27D889 EQ PUSH2 0x55E JUMPI DUP1 PUSH4 0x76B0243A EQ PUSH2 0x57E JUMPI DUP1 PUSH4 0x79EC5D3A EQ PUSH2 0x59E JUMPI PUSH2 0x267 JUMP JUMPDEST DUP1 PUSH4 0x27F2BDDE GT PUSH2 0x1DD JUMPI DUP1 PUSH4 0x3DE39C11 GT PUSH2 0x1A1 JUMPI DUP1 PUSH4 0x3DE39C11 EQ PUSH2 0x466 JUMPI DUP1 PUSH4 0x3F10CF15 EQ PUSH2 0x47B JUMPI DUP1 PUSH4 0x402BAD8E EQ PUSH2 0x490 JUMPI DUP1 PUSH4 0x430694CF EQ PUSH2 0x4B0 JUMPI DUP1 PUSH4 0x4B0BABDD EQ PUSH2 0x4E7 JUMPI DUP1 PUSH4 0x56891412 EQ PUSH2 0x507 JUMPI PUSH2 0x267 JUMP JUMPDEST DUP1 PUSH4 0x27F2BDDE EQ PUSH2 0x3B2 JUMPI DUP1 PUSH4 0x2FD99C00 EQ PUSH2 0x3D2 JUMPI DUP1 PUSH4 0x32315FC4 EQ PUSH2 0x3F2 JUMPI DUP1 PUSH4 0x32ED5B12 EQ PUSH2 0x412 JUMPI DUP1 PUSH4 0x3A3BED00 EQ PUSH2 0x446 JUMPI PUSH2 0x267 JUMP JUMPDEST DUP1 PUSH4 0x14621A3A GT PUSH2 0x224 JUMPI DUP1 PUSH4 0x14621A3A EQ PUSH2 0x331 JUMPI DUP1 PUSH4 0x158EF93E EQ PUSH2 0x351 JUMPI DUP1 PUSH4 0x184A0AE9 EQ PUSH2 0x373 JUMPI DUP1 PUSH4 0x1C3E89F4 EQ PUSH2 0x388 JUMPI DUP1 PUSH4 0x2229A0E2 EQ PUSH2 0x39D JUMPI PUSH2 0x267 JUMP JUMPDEST DUP1 PUSH4 0x1A598A6 EQ PUSH2 0x269 JUMPI DUP1 PUSH4 0x6FDDE03 EQ PUSH2 0x2A0 JUMPI DUP1 PUSH4 0x88AF182 EQ PUSH2 0x2C2 JUMPI DUP1 PUSH4 0xD668087 EQ PUSH2 0x2EF JUMPI DUP1 PUSH4 0xF9A8553 EQ PUSH2 0x311 JUMPI PUSH2 0x267 JUMP JUMPDEST CALLDATASIZE PUSH2 0x267 JUMPI STOP JUMPDEST STOP JUMPDEST CALLVALUE DUP1 ISZERO PUSH2 0x275 JUMPI PUSH1 0x0 DUP1 REVERT JUMPDEST POP PUSH2 0x289 PUSH2 0x284 CALLDATASIZE PUSH1 0x4 PUSH2 0x30A4 JUMP JUMPDEST PUSH2 0x7B6 JUMP JUMPDEST PUSH1 0x40 MLOAD PUSH2 0x297 SWAP3 SWAP2 SWAP1 PUSH2 0x4205 JUMP JUMPDEST PUSH1 0x40 MLOAD DUP1 SWAP2 SUB SWAP1 RETURN JUMPDEST CALLVALUE DUP1 ISZERO PUSH2 0x2AC JUMPI PUSH1 0x0 DUP1 REVERT JUMPDEST POP PUSH2 0x2B5 PUSH2 0x7CF JUMP JUMPDEST PUSH1 0x40 MLOAD PUSH2 0x297 SWAP2 SWAP1 PUSH2 0x3A8C JUMP JUMPDEST CALLVALUE DUP1 ISZERO PUSH2 0x2CE JUMPI PUSH1 0x0 DUP1 REVERT JUMPDEST POP PUSH2 0x2E2 PUSH2 0x2DD CALLDATASIZE PUSH1 0x4 PUSH2 0x3664 JUMP JUMPDEST PUSH2 0x85C JUMP JUMPDEST PUSH1 0x40 MLOAD PUSH2 0x297 SWAP2 SWAP1 PUSH2 0x3A47 JUMP JUMPDEST CALLVALUE DUP1 ISZERO PUSH2 0x2FB JUMPI PUSH1 0x0 DUP1 REVERT JUMPDEST POP PUSH2 0x304 PUSH2 0x867 JUMP JUMPDEST PUSH1 0x40 MLOAD PUSH2 0x297 SWAP2 SWAP1 PUSH2 0x3A3E JUMP JUMPDEST CALLVALUE DUP1 ISZERO PUSH2 0x31D JUMPI PUSH1 0x0 DUP1 REVERT JUMPDEST POP PUSH2 0x267 PUSH2 0x32C CALLDATASIZE PUSH1 0x4 PUSH2 0x34DC JUMP JUMPDEST PUSH2 0x86D JUMP JUMPDEST CALLVALUE DUP1 ISZERO PUSH2 0x33D JUMPI PUSH1 0x0 DUP1 REVERT JUMPDEST POP PUSH2 0x267 PUSH2 0x34C CALLDATASIZE PUSH1 0x4 PUSH2 0x3612 JUMP JUMPDEST PUSH2 0x8E1 JUMP JUMPDEST CALLVALUE DUP1 ISZERO PUSH2 0x35D JUMPI PUSH1 0x0 DUP1 REVERT JUMPDEST POP PUSH2 0x366 PUSH2 0x9B6 JUMP JUMPDEST PUSH1 0x40 MLOAD PUSH2 0x297 SWAP2 SWAP1 PUSH2 0x3A33 JUMP JUMPDEST CALLVALUE DUP1 ISZERO PUSH2 0x37F JUMPI PUSH1 0x0 DUP1 REVERT JUMPDEST POP PUSH2 0x304 PUSH2 0x9C6 JUMP JUMPDEST CALLVALUE DUP1 ISZERO PUSH2 0x394 JUMPI PUSH1 0x0 DUP1 REVERT JUMPDEST POP PUSH2 0x304 PUSH2 0x9CC JUMP JUMPDEST CALLVALUE DUP1 ISZERO PUSH2 0x3A9 JUMPI PUSH1 0x0 DUP1 REVERT JUMPDEST POP PUSH2 0x304 PUSH2 0x9D2 JUMP JUMPDEST CALLVALUE DUP1 ISZERO PUSH2 0x3BE JUMPI PUSH1 0x0 DUP1 REVERT JUMPDEST POP PUSH2 0x304 PUSH2 0x3CD CALLDATASIZE PUSH1 0x4 PUSH2 0x33BE JUMP JUMPDEST PUSH2 0x9D8 JUMP JUMPDEST CALLVALUE DUP1 ISZERO PUSH2 0x3DE JUMPI PUSH1 0x0 DUP1 REVERT JUMPDEST POP PUSH2 0x366 PUSH2 0x3ED CALLDATASIZE PUSH1 0x4 PUSH2 0x35B7 JUMP JUMPDEST PUSH2 0xA97 JUMP JUMPDEST CALLVALUE DUP1 ISZERO PUSH2 0x3FE JUMPI PUSH1 0x0 DUP1 REVERT JUMPDEST POP PUSH2 0x304 PUSH2 0x40D CALLDATASIZE PUSH1 0x4 PUSH2 0x3122 JUMP JUMPDEST PUSH2 0xAAC JUMP JUMPDEST CALLVALUE DUP1 ISZERO PUSH2 0x41E JUMPI PUSH1 0x0 DUP1 REVERT JUMPDEST POP PUSH2 0x432 PUSH2 0x42D CALLDATASIZE PUSH1 0x4 PUSH2 0x35B7 JUMP JUMPDEST PUSH2 0xAFA JUMP JUMPDEST PUSH1 0x40 MLOAD PUSH2 0x297 SWAP9 SWAP8 SWAP7 SWAP6 SWAP5 SWAP4 SWAP3 SWAP2 SWAP1 PUSH2 0x3971 JUMP JUMPDEST CALLVALUE DUP1 ISZERO PUSH2 0x452 JUMPI PUSH1 0x0 DUP1 REVERT JUMPDEST POP PUSH2 0x267 PUSH2 0x461 CALLDATASIZE PUSH1 0x4 PUSH2 0x3510 JUMP JUMPDEST PUSH2 0xC60 JUMP JUMPDEST CALLVALUE DUP1 ISZERO PUSH2 0x472 JUMPI PUSH1 0x0 DUP1 REVERT JUMPDEST POP PUSH2 0x304 PUSH2 0xCD3 JUMP JUMPDEST CALLVALUE DUP1 ISZERO PUSH2 0x487 JUMPI PUSH1 0x0 DUP1 REVERT JUMPDEST POP PUSH2 0x304 PUSH2 0xCD9 JUMP JUMPDEST CALLVALUE DUP1 ISZERO PUSH2 0x49C JUMPI PUSH1 0x0 DUP1 REVERT JUMPDEST POP PUSH2 0x267 PUSH2 0x4AB CALLDATASIZE PUSH1 0x4 PUSH2 0x3696 JUMP JUMPDEST PUSH2 0xCDF JUMP JUMPDEST CALLVALUE DUP1 ISZERO PUSH2 0x4BC JUMPI PUSH1 0x0 DUP1 REVERT JUMPDEST POP PUSH2 0x4D0 PUSH2 0x4CB CALLDATASIZE PUSH1 0x4 PUSH2 0x35B7 JUMP JUMPDEST PUSH2 0xCF7 JUMP JUMPDEST PUSH1 0x40 MLOAD PUSH2 0x297 SWAP12 SWAP11 SWAP10 SWAP9 SWAP8 SWAP7 SWAP6 SWAP5 SWAP4 SWAP3 SWAP2 SWAP1 PUSH2 0x3894 JUMP JUMPDEST CALLVALUE DUP1 ISZERO PUSH2 0x4F3 JUMPI PUSH1 0x0 DUP1 REVERT JUMPDEST POP PUSH2 0x267 PUSH2 0x502 CALLDATASIZE PUSH1 0x4 PUSH2 0x35B7 JUMP JUMPDEST PUSH2 0x1033 JUMP JUMPDEST CALLVALUE DUP1 ISZERO PUSH2 0x513 JUMPI PUSH1 0x0 DUP1 REVERT JUMPDEST POP PUSH2 0x304 PUSH2 0x1177 JUMP JUMPDEST CALLVALUE DUP1 ISZERO PUSH2 0x528 JUMPI PUSH1 0x0 DUP1 REVERT JUMPDEST POP PUSH2 0x531 PUSH2 0x117D JUMP JUMPDEST PUSH1 0x40 MLOAD PUSH2 0x297 SWAP2 SWAP1 PUSH2 0x3A78 JUMP JUMPDEST CALLVALUE DUP1 ISZERO PUSH2 0x54A JUMPI PUSH1 0x0 DUP1 REVERT JUMPDEST POP PUSH2 0x366 PUSH2 0x559 CALLDATASIZE PUSH1 0x4 PUSH2 0x30F0 JUMP JUMPDEST PUSH2 0x118C JUMP JUMPDEST CALLVALUE DUP1 ISZERO PUSH2 0x56A JUMPI PUSH1 0x0 DUP1 REVERT JUMPDEST POP PUSH2 0x267 PUSH2 0x579 CALLDATASIZE PUSH1 0x4 PUSH2 0x35B7 JUMP JUMPDEST PUSH2 0x11C3 JUMP JUMPDEST CALLVALUE DUP1 ISZERO PUSH2 0x58A JUMPI PUSH1 0x0 DUP1 REVERT JUMPDEST POP PUSH2 0x366 PUSH2 0x599 CALLDATASIZE PUSH1 0x4 PUSH2 0x30F0 JUMP JUMPDEST PUSH2 0x12C6 JUMP JUMPDEST CALLVALUE DUP1 ISZERO PUSH2 0x5AA JUMPI PUSH1 0x0 DUP1 REVERT JUMPDEST POP PUSH2 0x304 PUSH2 0x5B9 CALLDATASIZE PUSH1 0x4 PUSH2 0x30A4 JUMP JUMPDEST PUSH2 0x12E6 JUMP JUMPDEST CALLVALUE DUP1 ISZERO PUSH2 0x5CA JUMPI PUSH1 0x0 DUP1 REVERT JUMPDEST POP PUSH2 0x267 PUSH2 0x5D9 CALLDATASIZE PUSH1 0x4 PUSH2 0x314B JUMP JUMPDEST PUSH2 0x1301 JUMP JUMPDEST CALLVALUE DUP1 ISZERO PUSH2 0x5EA JUMPI PUSH1 0x0 DUP1 REVERT JUMPDEST POP PUSH2 0x304 PUSH2 0x151A JUMP JUMPDEST CALLVALUE DUP1 ISZERO PUSH2 0x5FF JUMPI PUSH1 0x0 DUP1 REVERT JUMPDEST POP PUSH2 0x304 PUSH2 0x1520 JUMP JUMPDEST CALLVALUE DUP1 ISZERO PUSH2 0x614 JUMPI PUSH1 0x0 DUP1 REVERT JUMPDEST POP PUSH2 0x304 PUSH2 0x623 CALLDATASIZE PUSH1 0x4 PUSH2 0x30BE JUMP JUMPDEST PUSH2 0x1526 JUMP JUMPDEST CALLVALUE DUP1 ISZERO PUSH2 0x634 JUMPI PUSH1 0x0 DUP1 REVERT JUMPDEST POP PUSH2 0x304 PUSH2 0x643 CALLDATASIZE PUSH1 0x4 PUSH2 0x35B7 JUMP JUMPDEST PUSH2 0x155C JUMP JUMPDEST CALLVALUE DUP1 ISZERO PUSH2 0x654 JUMPI PUSH1 0x0 DUP1 REVERT JUMPDEST POP PUSH2 0x267 PUSH2 0x663 CALLDATASIZE PUSH1 0x4 PUSH2 0x35B7 JUMP JUMPDEST PUSH2 0x157D JUMP JUMPDEST CALLVALUE DUP1 ISZERO PUSH2 0x674 JUMPI PUSH1 0x0 DUP1 REVERT JUMPDEST POP PUSH2 0x267 PUSH2 0x683 CALLDATASIZE PUSH1 0x4 PUSH2 0x3214 JUMP JUMPDEST PUSH2 0x15F8 JUMP JUMPDEST CALLVALUE DUP1 ISZERO PUSH2 0x694 JUMPI PUSH1 0x0 DUP1 REVERT JUMPDEST POP PUSH2 0x267 PUSH2 0x6A3 CALLDATASIZE PUSH1 0x4 PUSH2 0x35F1 JUMP JUMPDEST PUSH2 0x185D JUMP JUMPDEST CALLVALUE DUP1 ISZERO PUSH2 0x6B4 JUMPI PUSH1 0x0 DUP1 REVERT JUMPDEST POP PUSH2 0x304 PUSH2 0x18B2 JUMP JUMPDEST CALLVALUE DUP1 ISZERO PUSH2 0x6C9 JUMPI PUSH1 0x0 DUP1 REVERT JUMPDEST POP PUSH2 0x304 PUSH2 0x6D8 CALLDATASIZE PUSH1 0x4 PUSH2 0x35CF JUMP JUMPDEST PUSH2 0x18B8 JUMP JUMPDEST CALLVALUE DUP1 ISZERO PUSH2 0x6E9 JUMPI PUSH1 0x0 DUP1 REVERT JUMPDEST POP PUSH2 0x6FD PUSH2 0x6F8 CALLDATASIZE PUSH1 0x4 PUSH2 0x347C JUMP JUMPDEST PUSH2 0x18E4 JUMP JUMPDEST PUSH1 0x40 MLOAD PUSH2 0x297 SWAP2 SWAP1 PUSH2 0x3A20 JUMP JUMPDEST CALLVALUE DUP1 ISZERO PUSH2 0x716 JUMPI PUSH1 0x0 DUP1 REVERT JUMPDEST POP PUSH2 0x72A PUSH2 0x725 CALLDATASIZE PUSH1 0x4 PUSH2 0x32F3 JUMP JUMPDEST PUSH2 0x198F JUMP JUMPDEST PUSH1 0x40 MLOAD PUSH2 0x297 SWAP2 SWAP1 PUSH2 0x39DC JUMP JUMPDEST CALLVALUE DUP1 ISZERO PUSH2 0x743 JUMPI PUSH1 0x0 DUP1 REVERT JUMPDEST POP PUSH2 0x304 PUSH2 0x752 CALLDATASIZE PUSH1 0x4 PUSH2 0x35B7 JUMP JUMPDEST PUSH2 0x1CBC JUMP JUMPDEST CALLVALUE DUP1 ISZERO PUSH2 0x763 JUMPI PUSH1 0x0 DUP1 REVERT JUMPDEST POP PUSH2 0x6FD PUSH2 0x772 CALLDATASIZE PUSH1 0x4 PUSH2 0x31DA JUMP JUMPDEST PUSH2 0x1CEB JUMP JUMPDEST CALLVALUE DUP1 ISZERO PUSH2 0x783 JUMPI PUSH1 0x0 DUP1 REVERT JUMPDEST POP PUSH2 0x304 PUSH2 0x1D81 JUMP JUMPDEST CALLVALUE DUP1 ISZERO PUSH2 0x798 JUMPI PUSH1 0x0 DUP1 REVERT JUMPDEST POP PUSH2 0x531 PUSH2 0x1D87 JUMP JUMPDEST CALLVALUE DUP1 ISZERO PUSH2 0x7AD JUMPI PUSH1 0x0 DUP1 REVERT JUMPDEST POP PUSH2 0x304 PUSH2 0x1D9C JUMP JUMPDEST PUSH1 0xE PUSH1 0x20 MSTORE PUSH1 0x0 SWAP1 DUP2 MSTORE PUSH1 0x40 SWAP1 KECCAK256 DUP1 SLOAD PUSH1 0x1 SWAP1 SWAP2 ADD SLOAD DUP3 JUMP JUMPDEST PUSH1 0x1 DUP1 SLOAD PUSH1 0x40 DUP1 MLOAD PUSH1 0x20 PUSH1 0x2 DUP5 DUP7 AND ISZERO PUSH2 0x100 MUL PUSH1 0x0 NOT ADD SWAP1 SWAP5 AND SWAP4 SWAP1 SWAP4 DIV PUSH1 0x1F DUP2 ADD DUP5 SWAP1 DIV DUP5 MUL DUP3 ADD DUP5 ADD SWAP1 SWAP3 MSTORE DUP2 DUP2 MSTORE SWAP3 SWAP2 DUP4 ADD DUP3 DUP3 DUP1 ISZERO PUSH2 0x854 JUMPI DUP1 PUSH1 0x1F LT PUSH2 0x829 JUMPI PUSH2 0x100 DUP1 DUP4 SLOAD DIV MUL DUP4 MSTORE SWAP2 PUSH1 0x20 ADD SWAP2 PUSH2 0x854 JUMP JUMPDEST DUP3 ADD SWAP2 SWAP1 PUSH1 0x0 MSTORE PUSH1 0x20 PUSH1 0x0 KECCAK256 SWAP1 JUMPDEST DUP2 SLOAD DUP2 MSTORE SWAP1 PUSH1 0x1 ADD SWAP1 PUSH1 0x20 ADD DUP1 DUP4 GT PUSH2 0x837 JUMPI DUP3 SWAP1 SUB PUSH1 0x1F AND DUP3 ADD SWAP2 JUMPDEST POP POP POP POP POP DUP2 JUMP JUMPDEST PUSH1 0x20 DUP2 ADD MLOAD JUMPDEST SWAP2 SWAP1 POP JUMP JUMPDEST PUSH1 0x8 SLOAD DUP2 JUMP JUMPDEST DUP1 MLOAD DUP3 MLOAD EQ PUSH2 0x897 JUMPI PUSH1 0x40 MLOAD PUSH3 0x461BCD PUSH1 0xE5 SHL DUP2 MSTORE PUSH1 0x4 ADD PUSH2 0x88E SWAP1 PUSH2 0x3CAC JUMP JUMPDEST PUSH1 0x40 MLOAD DUP1 SWAP2 SUB SWAP1 REVERT JUMPDEST PUSH1 0x0 JUMPDEST DUP3 MLOAD DUP2 LT ISZERO PUSH2 0x8DC JUMPI PUSH2 0x8D4 CALLER DUP5 DUP4 DUP2 MLOAD DUP2 LT PUSH2 0x8B3 JUMPI INVALID JUMPDEST PUSH1 0x20 MUL PUSH1 0x20 ADD ADD MLOAD DUP5 DUP5 DUP2 MLOAD DUP2 LT PUSH2 0x8C7 JUMPI INVALID JUMPDEST PUSH1 0x20 MUL PUSH1 0x20 ADD ADD MLOAD PUSH2 0x1DA2 JUMP JUMPDEST PUSH1 0x1 ADD PUSH2 0x89A JUMP JUMPDEST POP POP POP JUMP JUMPDEST PUSH1 0x0 SLOAD PUSH1 0x1 PUSH1 0xB0 SHL SWAP1 DIV PUSH1 0xFF AND PUSH2 0x90A JUMPI PUSH1 0x40 MLOAD PUSH3 0x461BCD PUSH1 0xE5 SHL DUP2 MSTORE PUSH1 0x4 ADD PUSH2 0x88E SWAP1 PUSH2 0x3A9F JUMP JUMPDEST PUSH1 0x0 PUSH2 0x917 DUP4 DUP7 DUP7 PUSH2 0x1526 JUMP JUMPDEST PUSH1 0x0 DUP2 DUP2 MSTORE PUSH1 0xC PUSH1 0x20 MSTORE PUSH1 0x40 SWAP1 KECCAK256 SLOAD SWAP1 SWAP2 POP PUSH1 0xFF AND ISZERO PUSH2 0x949 JUMPI PUSH1 0x40 MLOAD PUSH3 0x461BCD PUSH1 0xE5 SHL DUP2 MSTORE PUSH1 0x4 ADD PUSH2 0x88E SWAP1 PUSH2 0x4153 JUMP JUMPDEST PUSH2 0x95C DUP3 PUSH2 0x956 DUP4 PUSH2 0x2012 JUMP JUMPDEST SWAP1 PUSH2 0x2063 JUMP JUMPDEST PUSH1 0x1 PUSH1 0x1 PUSH1 0xA0 SHL SUB AND DUP4 PUSH1 0x1 PUSH1 0x1 PUSH1 0xA0 SHL SUB AND EQ PUSH2 0x98C JUMPI PUSH1 0x40 MLOAD PUSH3 0x461BCD PUSH1 0xE5 SHL DUP2 MSTORE PUSH1 0x4 ADD PUSH2 0x88E SWAP1 PUSH2 0x418A JUMP JUMPDEST PUSH2 0x997 DUP4 DUP7 DUP7 PUSH2 0x1DA2 JUMP JUMPDEST PUSH1 0x0 SWAP1 DUP2 MSTORE PUSH1 0xC PUSH1 0x20 MSTORE PUSH1 0x40 SWAP1 KECCAK256 DUP1 SLOAD PUSH1 0xFF NOT AND PUSH1 0x1 OR SWAP1 SSTORE POP POP POP POP JUMP JUMPDEST PUSH1 0x0 SLOAD PUSH1 0x1 PUSH1 0xB0 SHL SWAP1 DIV PUSH1 0xFF AND DUP2 JUMP JUMPDEST PUSH1 0x2 SLOAD DUP2 JUMP JUMPDEST PUSH1 0x4 SLOAD DUP2 JUMP JUMPDEST PUSH1 0x10 SLOAD SWAP1 JUMP JUMPDEST PUSH1 0x0 DUP1 SLOAD PUSH1 0x1 PUSH1 0xB0 SHL SWAP1 DIV PUSH1 0xFF AND PUSH2 0xA02 JUMPI PUSH1 0x40 MLOAD PUSH3 0x461BCD PUSH1 0xE5 SHL DUP2 MSTORE PUSH1 0x4 ADD PUSH2 0x88E SWAP1 PUSH2 0x3A9F JUMP JUMPDEST PUSH2 0xA0A PUSH2 0x1D81 JUMP JUMPDEST PUSH2 0xA13 CALLER PUSH2 0x12E6 JUMP JUMPDEST LT ISZERO PUSH2 0xA31 JUMPI PUSH1 0x40 MLOAD PUSH3 0x461BCD PUSH1 0xE5 SHL DUP2 MSTORE PUSH1 0x4 ADD PUSH2 0x88E SWAP1 PUSH2 0x3E1E JUMP JUMPDEST DUP5 MLOAD DUP7 MLOAD EQ DUP1 ISZERO PUSH2 0xA43 JUMPI POP DUP4 MLOAD DUP7 MLOAD EQ JUMPDEST PUSH2 0xA5F JUMPI PUSH1 0x40 MLOAD PUSH3 0x461BCD PUSH1 0xE5 SHL DUP2 MSTORE PUSH1 0x4 ADD PUSH2 0x88E SWAP1 PUSH2 0x40C8 JUMP JUMPDEST PUSH1 0x0 DUP7 MLOAD GT PUSH2 0xA80 JUMPI PUSH1 0x40 MLOAD PUSH3 0x461BCD PUSH1 0xE5 SHL DUP2 MSTORE PUSH1 0x4 ADD PUSH2 0x88E SWAP1 PUSH2 0x3F27 JUMP JUMPDEST PUSH2 0xA8D DUP7 DUP7 DUP7 DUP7 DUP7 PUSH2 0x20D9 JUMP JUMPDEST SWAP7 SWAP6 POP POP POP POP POP POP JUMP JUMPDEST PUSH1 0xC PUSH1 0x20 MSTORE PUSH1 0x0 SWAP1 DUP2 MSTORE PUSH1 0x40 SWAP1 KECCAK256 SLOAD PUSH1 0xFF AND DUP2 JUMP JUMPDEST PUSH1 0x1 PUSH1 0x1 PUSH1 0xA0 SHL SUB DUP3 AND PUSH1 0x0 SWAP1 DUP2 MSTORE PUSH1 0x11 PUSH1 0x20 MSTORE PUSH1 0x40 DUP2 KECCAK256 DUP2 SWAP1 DUP2 SWAP1 PUSH2 0xAD3 SWAP1 DUP6 SWAP1 PUSH2 0x2276 JUMP JUMPDEST SWAP2 POP SWAP2 POP DUP2 ISZERO PUSH2 0xAE6 JUMPI SWAP2 POP PUSH2 0xAF4 SWAP1 POP JUMP JUMPDEST PUSH2 0xAEF DUP6 PUSH2 0x12E6 JUMP JUMPDEST SWAP3 POP POP POP JUMPDEST SWAP3 SWAP2 POP POP JUMP JUMPDEST PUSH1 0xF PUSH1 0x20 SWAP1 DUP2 MSTORE PUSH1 0x0 SWAP2 DUP3 MSTORE PUSH1 0x40 SWAP2 DUP3 SWAP1 KECCAK256 DUP1 SLOAD PUSH1 0x1 DUP1 DUP4 ADD SLOAD PUSH1 0x2 DUP1 DUP6 ADD SLOAD PUSH1 0x6 DUP7 ADD DUP1 SLOAD DUP10 MLOAD PUSH2 0x100 SWAP7 DUP3 AND ISZERO SWAP7 SWAP1 SWAP7 MUL PUSH1 0x0 NOT ADD AND SWAP3 SWAP1 SWAP3 DIV PUSH1 0x1F DUP2 ADD DUP9 SWAP1 DIV DUP9 MUL DUP6 ADD DUP9 ADD SWAP1 SWAP9 MSTORE DUP8 DUP5 MSTORE PUSH1 0x1 PUSH1 0x1 PUSH1 0xA0 SHL SUB SWAP1 SWAP5 AND SWAP7 SWAP2 SWAP6 SWAP4 SWAP5 SWAP4 SWAP1 SWAP2 SWAP1 DUP4 ADD DUP3 DUP3 DUP1 ISZERO PUSH2 0xBAE JUMPI DUP1 PUSH1 0x1F LT PUSH2 0xB83 JUMPI PUSH2 0x100 DUP1 DUP4 SLOAD DIV MUL DUP4 MSTORE SWAP2 PUSH1 0x20 ADD SWAP2 PUSH2 0xBAE JUMP JUMPDEST DUP3 ADD SWAP2 SWAP1 PUSH1 0x0 MSTORE PUSH1 0x20 PUSH1 0x0 KECCAK256 SWAP1 JUMPDEST DUP2 SLOAD DUP2 MSTORE SWAP1 PUSH1 0x1 ADD SWAP1 PUSH1 0x20 ADD DUP1 DUP4 GT PUSH2 0xB91 JUMPI DUP3 SWAP1 SUB PUSH1 0x1F AND DUP3 ADD SWAP2 JUMPDEST POP POP POP POP PUSH1 0x7 DUP4 ADD DUP1 SLOAD PUSH1 0x40 DUP1 MLOAD PUSH1 0x20 PUSH1 0x2 PUSH1 0x1 DUP6 AND ISZERO PUSH2 0x100 MUL PUSH1 0x0 NOT ADD SWAP1 SWAP5 AND SWAP4 SWAP1 SWAP4 DIV PUSH1 0x1F DUP2 ADD DUP5 SWAP1 DIV DUP5 MUL DUP3 ADD DUP5 ADD SWAP1 SWAP3 MSTORE DUP2 DUP2 MSTORE SWAP5 SWAP6 SWAP5 SWAP4 POP SWAP1 DUP4 ADD DUP3 DUP3 DUP1 ISZERO PUSH2 0xC3E JUMPI DUP1 PUSH1 0x1F LT PUSH2 0xC13 JUMPI PUSH2 0x100 DUP1 DUP4 SLOAD DIV MUL DUP4 MSTORE SWAP2 PUSH1 0x20 ADD SWAP2 PUSH2 0xC3E JUMP JUMPDEST DUP3 ADD SWAP2 SWAP1 PUSH1 0x0 MSTORE PUSH1 0x20 PUSH1 0x0 KECCAK256 SWAP1 JUMPDEST DUP2 SLOAD DUP2 MSTORE SWAP1 PUSH1 0x1 ADD SWAP1 PUSH1 0x20 ADD DUP1 DUP4 GT PUSH2 0xC21 JUMPI DUP3 SWAP1 SUB PUSH1 0x1F AND DUP3 ADD SWAP2 JUMPDEST POP POP POP POP PUSH1 0x8 DUP4 ADD SLOAD PUSH1 0x9 DUP5 ADD SLOAD PUSH1 0xA SWAP1 SWAP5 ADD SLOAD SWAP3 SWAP4 SWAP1 SWAP3 PUSH1 0xFF SWAP1 SWAP2 AND SWAP2 POP DUP9 JUMP JUMPDEST PUSH1 0x0 JUMPDEST DUP5 MLOAD DUP2 LT ISZERO PUSH2 0xCCC JUMPI PUSH2 0xCC4 DUP6 DUP3 DUP2 MLOAD DUP2 LT PUSH2 0xC7B JUMPI INVALID JUMPDEST PUSH1 0x20 MUL PUSH1 0x20 ADD ADD MLOAD DUP6 DUP4 DUP2 MLOAD DUP2 LT PUSH2 0xC8F JUMPI INVALID JUMPDEST PUSH1 0x20 MUL PUSH1 0x20 ADD ADD MLOAD DUP6 DUP5 DUP2 MLOAD DUP2 LT PUSH2 0xCA3 JUMPI INVALID JUMPDEST PUSH1 0x20 MUL PUSH1 0x20 ADD ADD MLOAD DUP6 DUP6 DUP2 MLOAD DUP2 LT PUSH2 0xCB7 JUMPI INVALID JUMPDEST PUSH1 0x20 MUL PUSH1 0x20 ADD ADD MLOAD PUSH2 0x8E1 JUMP JUMPDEST PUSH1 0x1 ADD PUSH2 0xC63 JUMP JUMPDEST POP POP POP POP POP JUMP JUMPDEST PUSH1 0x7 SLOAD DUP2 JUMP JUMPDEST PUSH1 0x3 SLOAD DUP2 JUMP JUMPDEST PUSH2 0xCEE DUP8 DUP8 DUP8 DUP8 DUP8 DUP8 DUP8 PUSH2 0x2309 JUMP JUMPDEST POP POP POP POP POP POP POP JUMP JUMPDEST PUSH1 0x0 DUP1 PUSH1 0x0 PUSH1 0x60 DUP1 PUSH1 0x60 DUP1 PUSH1 0x60 PUSH1 0x0 DUP1 PUSH1 0x0 DUP1 PUSH1 0xF PUSH1 0x0 DUP15 DUP2 MSTORE PUSH1 0x20 ADD SWAP1 DUP2 MSTORE PUSH1 0x20 ADD PUSH1 0x0 KECCAK256 SWAP1 POP DUP1 PUSH1 0x0 ADD PUSH1 0x0 SWAP1 SLOAD SWAP1 PUSH2 0x100 EXP SWAP1 DIV PUSH1 0x1 PUSH1 0x1 PUSH1 0xA0 SHL SUB AND DUP2 PUSH1 0x1 ADD SLOAD DUP3 PUSH1 0x2 ADD SLOAD DUP4 PUSH1 0x3 ADD DUP5 PUSH1 0x4 ADD DUP6 PUSH1 0x5 ADD DUP7 PUSH1 0x6 ADD DUP8 PUSH1 0x7 ADD DUP9 PUSH1 0x8 ADD SLOAD DUP10 PUSH1 0x9 ADD PUSH1 0x0 SWAP1 SLOAD SWAP1 PUSH2 0x100 EXP SWAP1 DIV PUSH1 0xFF AND DUP11 PUSH1 0xA ADD SLOAD DUP8 DUP1 SLOAD DUP1 PUSH1 0x20 MUL PUSH1 0x20 ADD PUSH1 0x40 MLOAD SWAP1 DUP2 ADD PUSH1 0x40 MSTORE DUP1 SWAP3 SWAP2 SWAP1 DUP2 DUP2 MSTORE PUSH1 0x20 ADD DUP3 DUP1 SLOAD DUP1 ISZERO PUSH2 0xDC6 JUMPI PUSH1 0x20 MUL DUP3 ADD SWAP2 SWAP1 PUSH1 0x0 MSTORE PUSH1 0x20 PUSH1 0x0 KECCAK256 SWAP1 JUMPDEST DUP2 SLOAD PUSH1 0x1 PUSH1 0x1 PUSH1 0xA0 SHL SUB AND DUP2 MSTORE PUSH1 0x1 SWAP1 SWAP2 ADD SWAP1 PUSH1 0x20 ADD DUP1 DUP4 GT PUSH2 0xDA8 JUMPI JUMPDEST POP POP POP POP POP SWAP8 POP DUP7 DUP1 SLOAD DUP1 PUSH1 0x20 MUL PUSH1 0x20 ADD PUSH1 0x40 MLOAD SWAP1 DUP2 ADD PUSH1 0x40 MSTORE DUP1 SWAP3 SWAP2 SWAP1 DUP2 DUP2 MSTORE PUSH1 0x20 ADD PUSH1 0x0 SWAP1 JUMPDEST DUP3 DUP3 LT ISZERO PUSH2 0xE99 JUMPI PUSH1 0x0 DUP5 DUP2 MSTORE PUSH1 0x20 SWAP1 DUP2 SWAP1 KECCAK256 DUP4 ADD DUP1 SLOAD PUSH1 0x40 DUP1 MLOAD PUSH1 0x1F PUSH1 0x2 PUSH1 0x0 NOT PUSH2 0x100 PUSH1 0x1 DUP8 AND ISZERO MUL ADD SWAP1 SWAP5 AND SWAP4 SWAP1 SWAP4 DIV SWAP3 DUP4 ADD DUP6 SWAP1 DIV DUP6 MUL DUP2 ADD DUP6 ADD SWAP1 SWAP2 MSTORE DUP2 DUP2 MSTORE SWAP3 DUP4 ADD DUP3 DUP3 DUP1 ISZERO PUSH2 0xE85 JUMPI DUP1 PUSH1 0x1F LT PUSH2 0xE5A JUMPI PUSH2 0x100 DUP1 DUP4 SLOAD DIV MUL DUP4 MSTORE SWAP2 PUSH1 0x20 ADD SWAP2 PUSH2 0xE85 JUMP JUMPDEST DUP3 ADD SWAP2 SWAP1 PUSH1 0x0 MSTORE PUSH1 0x20 PUSH1 0x0 KECCAK256 SWAP1 JUMPDEST DUP2 SLOAD DUP2 MSTORE SWAP1 PUSH1 0x1 ADD SWAP1 PUSH1 0x20 ADD DUP1 DUP4 GT PUSH2 0xE68 JUMPI DUP3 SWAP1 SUB PUSH1 0x1F AND DUP3 ADD SWAP2 JUMPDEST POP POP POP POP POP DUP2 MSTORE PUSH1 0x20 ADD SWAP1 PUSH1 0x1 ADD SWAP1 PUSH2 0xDEE JUMP JUMPDEST POP POP POP POP SWAP7 POP DUP6 DUP1 SLOAD DUP1 PUSH1 0x20 MUL PUSH1 0x20 ADD PUSH1 0x40 MLOAD SWAP1 DUP2 ADD PUSH1 0x40 MSTORE DUP1 SWAP3 SWAP2 SWAP1 DUP2 DUP2 MSTORE PUSH1 0x20 ADD DUP3 DUP1 SLOAD DUP1 ISZERO PUSH2 0xEEA JUMPI PUSH1 0x20 MUL DUP3 ADD SWAP2 SWAP1 PUSH1 0x0 MSTORE PUSH1 0x20 PUSH1 0x0 KECCAK256 SWAP1 JUMPDEST DUP2 SLOAD DUP2 MSTORE PUSH1 0x20 ADD SWAP1 PUSH1 0x1 ADD SWAP1 DUP1 DUP4 GT PUSH2 0xED6 JUMPI JUMPDEST POP POP DUP9 SLOAD PUSH1 0x40 DUP1 MLOAD PUSH1 0x20 PUSH1 0x2 PUSH1 0x1 DUP6 AND ISZERO PUSH2 0x100 MUL PUSH1 0x0 NOT ADD SWAP1 SWAP5 AND SWAP4 SWAP1 SWAP4 DIV PUSH1 0x1F DUP2 ADD DUP5 SWAP1 DIV DUP5 MUL DUP3 ADD DUP5 ADD SWAP1 SWAP3 MSTORE DUP2 DUP2 MSTORE SWAP6 SWAP12 POP DUP11 SWAP5 POP SWAP3 POP DUP5 ADD SWAP1 POP DUP3 DUP3 DUP1 ISZERO PUSH2 0xF78 JUMPI DUP1 PUSH1 0x1F LT PUSH2 0xF4D JUMPI PUSH2 0x100 DUP1 DUP4 SLOAD DIV MUL DUP4 MSTORE SWAP2 PUSH1 0x20 ADD SWAP2 PUSH2 0xF78 JUMP JUMPDEST DUP3 ADD SWAP2 SWAP1 PUSH1 0x0 MSTORE PUSH1 0x20 PUSH1 0x0 KECCAK256 SWAP1 JUMPDEST DUP2 SLOAD DUP2 MSTORE SWAP1 PUSH1 0x1 ADD SWAP1 PUSH1 0x20 ADD DUP1 DUP4 GT PUSH2 0xF5B JUMPI DUP3 SWAP1 SUB PUSH1 0x1F AND DUP3 ADD SWAP2 JUMPDEST POP POP DUP8 SLOAD PUSH1 0x40 DUP1 MLOAD PUSH1 0x20 PUSH1 0x2 PUSH1 0x1 DUP6 AND ISZERO PUSH2 0x100 MUL PUSH1 0x0 NOT ADD SWAP1 SWAP5 AND SWAP4 SWAP1 SWAP4 DIV PUSH1 0x1F DUP2 ADD DUP5 SWAP1 DIV DUP5 MUL DUP3 ADD DUP5 ADD SWAP1 SWAP3 MSTORE DUP2 DUP2 MSTORE SWAP6 SWAP11 POP DUP10 SWAP5 POP SWAP3 POP DUP5 ADD SWAP1 POP DUP3 DUP3 DUP1 ISZERO PUSH2 0x1006 JUMPI DUP1 PUSH1 0x1F LT PUSH2 0xFDB JUMPI PUSH2 0x100 DUP1 DUP4 SLOAD DIV MUL DUP4 MSTORE SWAP2 PUSH1 0x20 ADD SWAP2 PUSH2 0x1006 JUMP JUMPDEST DUP3 ADD SWAP2 SWAP1 PUSH1 0x0 MSTORE PUSH1 0x20 PUSH1 0x0 KECCAK256 SWAP1 JUMPDEST DUP2 SLOAD DUP2 MSTORE SWAP1 PUSH1 0x1 ADD SWAP1 PUSH1 0x20 ADD DUP1 DUP4 GT PUSH2 0xFE9 JUMPI DUP3 SWAP1 SUB PUSH1 0x1F AND DUP3 ADD SWAP2 JUMPDEST POP POP POP POP POP SWAP4 POP SWAP12 POP SWAP12 POP SWAP12 POP SWAP12 POP SWAP12 POP SWAP12 POP SWAP12 POP SWAP12 POP SWAP12 POP SWAP12 POP SWAP12 POP POP SWAP2 SWAP4 SWAP6 SWAP8 SWAP10 SWAP12 SWAP1 SWAP3 SWAP5 SWAP7 SWAP9 SWAP11 POP JUMP JUMPDEST DUP1 PUSH2 0x103D CALLER PUSH2 0x12E6 JUMP JUMPDEST LT ISZERO PUSH2 0x105B JUMPI PUSH1 0x40 MLOAD PUSH3 0x461BCD PUSH1 0xE5 SHL DUP2 MSTORE PUSH1 0x4 ADD PUSH2 0x88E SWAP1 PUSH2 0x3E9B JUMP JUMPDEST CALLER PUSH1 0x0 SWAP1 DUP2 MSTORE PUSH1 0xE PUSH1 0x20 MSTORE PUSH1 0x40 SWAP1 KECCAK256 PUSH1 0x1 ADD SLOAD TIMESTAMP GT PUSH2 0x108C JUMPI PUSH1 0x40 MLOAD PUSH3 0x461BCD PUSH1 0xE5 SHL DUP2 MSTORE PUSH1 0x4 ADD PUSH2 0x88E SWAP1 PUSH2 0x3CFE JUMP JUMPDEST PUSH2 0x1095 CALLER PUSH2 0x239D JUMP JUMPDEST PUSH2 0x109D PUSH2 0x23C7 JUMP JUMPDEST CALLER PUSH1 0x0 SWAP1 DUP2 MSTORE PUSH1 0xE PUSH1 0x20 MSTORE PUSH1 0x40 SWAP1 KECCAK256 SLOAD PUSH2 0x10B7 SWAP1 DUP3 PUSH2 0x23D6 JUMP JUMPDEST CALLER PUSH1 0x0 SWAP1 DUP2 MSTORE PUSH1 0xE PUSH1 0x20 MSTORE PUSH1 0x40 SWAP1 KECCAK256 SSTORE PUSH1 0x9 SLOAD PUSH2 0x10D4 SWAP1 DUP3 PUSH2 0x23D6 JUMP JUMPDEST PUSH1 0x9 SSTORE PUSH1 0xA SLOAD PUSH1 0x40 MLOAD PUSH4 0xF3FEF3A3 PUSH1 0xE0 SHL DUP2 MSTORE PUSH1 0x1 PUSH1 0x1 PUSH1 0xA0 SHL SUB SWAP1 SWAP2 AND SWAP1 PUSH4 0xF3FEF3A3 SWAP1 PUSH2 0x1109 SWAP1 CALLER SWAP1 DUP6 SWAP1 PUSH1 0x4 ADD PUSH2 0x3861 JUMP JUMPDEST PUSH1 0x0 PUSH1 0x40 MLOAD DUP1 DUP4 SUB DUP2 PUSH1 0x0 DUP8 DUP1 EXTCODESIZE ISZERO DUP1 ISZERO PUSH2 0x1123 JUMPI PUSH1 0x0 DUP1 REVERT JUMPDEST POP GAS CALL ISZERO DUP1 ISZERO PUSH2 0x1137 JUMPI RETURNDATASIZE PUSH1 0x0 DUP1 RETURNDATACOPY RETURNDATASIZE PUSH1 0x0 REVERT JUMPDEST POP POP POP POP PUSH32 0xC7798891864187665AC6DD119286E44EC13F014527AEEB2B8EB3FD413DF93179 CALLER DUP3 PUSH1 0x40 MLOAD PUSH2 0x116C SWAP3 SWAP2 SWAP1 PUSH2 0x3861 JUMP JUMPDEST PUSH1 0x40 MLOAD DUP1 SWAP2 SUB SWAP1 LOG1 POP JUMP JUMPDEST PUSH1 0x9 SLOAD DUP2 JUMP JUMPDEST PUSH1 0xA SLOAD PUSH1 0x1 PUSH1 0x1 PUSH1 0xA0 SHL SUB AND DUP2 JUMP JUMPDEST PUSH1 0x1 PUSH1 0x1 PUSH1 0xA0 SHL SUB DUP3 AND PUSH1 0x0 SWAP1 DUP2 MSTORE PUSH1 0xD PUSH1 0x20 SWAP1 DUP2 MSTORE PUSH1 0x40 DUP1 DUP4 KECCAK256 PUSH1 0x1 PUSH1 0x1 PUSH1 0xE0 SHL SUB NOT DUP6 AND DUP5 MSTORE SWAP1 SWAP2 MSTORE SWAP1 KECCAK256 SLOAD PUSH1 0xFF AND SWAP3 SWAP2 POP POP JUMP JUMPDEST PUSH2 0x11CC CALLER PUSH2 0x239D JUMP JUMPDEST PUSH2 0x11D4 PUSH2 0x23C7 JUMP JUMPDEST PUSH1 0xA SLOAD PUSH1 0x40 MLOAD PUSH4 0x11F9FBC9 PUSH1 0xE2 SHL DUP2 MSTORE PUSH1 0x1 PUSH1 0x1 PUSH1 0xA0 SHL SUB SWAP1 SWAP2 AND SWAP1 PUSH4 0x47E7EF24 SWAP1 PUSH2 0x1206 SWAP1 CALLER SWAP1 DUP6 SWAP1 PUSH1 0x4 ADD PUSH2 0x3861 JUMP JUMPDEST PUSH1 0x0 PUSH1 0x40 MLOAD DUP1 DUP4 SUB DUP2 PUSH1 0x0 DUP8 DUP1 EXTCODESIZE ISZERO DUP1 ISZERO PUSH2 0x1220 JUMPI PUSH1 0x0 DUP1 REVERT JUMPDEST POP GAS CALL ISZERO DUP1 ISZERO PUSH2 0x1234 JUMPI RETURNDATASIZE PUSH1 0x0 DUP1 RETURNDATACOPY RETURNDATASIZE PUSH1 0x0 REVERT JUMPDEST POP POP CALLER PUSH1 0x0 SWAP1 DUP2 MSTORE PUSH1 0xE PUSH1 0x20 MSTORE PUSH1 0x40 SWAP1 KECCAK256 SLOAD PUSH2 0x1253 SWAP3 POP SWAP1 POP DUP3 PUSH2 0x2433 JUMP JUMPDEST CALLER PUSH1 0x0 SWAP1 DUP2 MSTORE PUSH1 0xE PUSH1 0x20 MSTORE PUSH1 0x40 SWAP1 KECCAK256 SSTORE PUSH1 0x8 SLOAD PUSH2 0x1271 SWAP1 TIMESTAMP SWAP1 PUSH2 0x2433 JUMP JUMPDEST CALLER PUSH1 0x0 SWAP1 DUP2 MSTORE PUSH1 0xE PUSH1 0x20 MSTORE PUSH1 0x40 SWAP1 KECCAK256 PUSH1 0x1 ADD SSTORE PUSH1 0x9 SLOAD PUSH2 0x1291 SWAP1 DUP3 PUSH2 0x2433 JUMP JUMPDEST PUSH1 0x9 SSTORE PUSH1 0x40 MLOAD PUSH32 0xAC87F20A77D28EE8BBB58EC87EA8FA968B3393EFAE1A368FD50B767C2847391C SWAP1 PUSH2 0x116C SWAP1 CALLER SWAP1 DUP5 SWAP1 PUSH2 0x3861 JUMP JUMPDEST PUSH1 0xD PUSH1 0x20 SWAP1 DUP2 MSTORE PUSH1 0x0 SWAP3 DUP4 MSTORE PUSH1 0x40 DUP1 DUP5 KECCAK256 SWAP1 SWAP2 MSTORE SWAP1 DUP3 MSTORE SWAP1 KECCAK256 SLOAD PUSH1 0xFF AND DUP2 JUMP JUMPDEST PUSH1 0x1 PUSH1 0x1 PUSH1 0xA0 SHL SUB AND PUSH1 0x0 SWAP1 DUP2 MSTORE PUSH1 0xE PUSH1 0x20 MSTORE PUSH1 0x40 SWAP1 KECCAK256 SLOAD SWAP1 JUMP JUMPDEST PUSH1 0x0 SLOAD PUSH2 0x100 SWAP1 DIV PUSH1 0xFF AND DUP1 PUSH2 0x131A JUMPI POP PUSH2 0x131A PUSH2 0x2494 JUMP JUMPDEST DUP1 PUSH2 0x1328 JUMPI POP PUSH1 0x0 SLOAD PUSH1 0xFF AND ISZERO JUMPDEST PUSH2 0x1363 JUMPI PUSH1 0x40 MLOAD PUSH3 0x461BCD PUSH1 0xE5 SHL DUP2 MSTORE PUSH1 0x4 ADD DUP1 DUP1 PUSH1 0x20 ADD DUP3 DUP2 SUB DUP3 MSTORE PUSH1 0x2E DUP2 MSTORE PUSH1 0x20 ADD DUP1 PUSH2 0x4917 PUSH1 0x2E SWAP2 CODECOPY PUSH1 0x40 ADD SWAP2 POP POP PUSH1 0x40 MLOAD DUP1 SWAP2 SUB SWAP1 REVERT JUMPDEST PUSH1 0x0 SLOAD PUSH2 0x100 SWAP1 DIV PUSH1 0xFF AND ISZERO DUP1 ISZERO PUSH2 0x138E JUMPI PUSH1 0x0 DUP1 SLOAD PUSH1 0xFF NOT PUSH2 0xFF00 NOT SWAP1 SWAP2 AND PUSH2 0x100 OR AND PUSH1 0x1 OR SWAP1 SSTORE JUMPDEST PUSH1 0x1 PUSH1 0x1 PUSH1 0xA0 SHL SUB DUP11 AND PUSH2 0x13B4 JUMPI PUSH1 0x40 MLOAD PUSH3 0x461BCD PUSH1 0xE5 SHL DUP2 MSTORE PUSH1 0x4 ADD PUSH2 0x88E SWAP1 PUSH2 0x3BAD JUMP JUMPDEST DUP5 MLOAD PUSH2 0x13C7 SWAP1 PUSH1 0x1 SWAP1 PUSH1 0x20 DUP9 ADD SWAP1 PUSH2 0x2C91 JUMP JUMPDEST POP PUSH1 0x0 DUP1 SLOAD PUSH3 0x10000 PUSH1 0x1 PUSH1 0xB0 SHL SUB NOT AND PUSH3 0x10000 PUSH1 0x1 PUSH1 0x1 PUSH1 0xA0 SHL SUB DUP14 AND MUL OR SWAP1 SSTORE PUSH1 0x40 MLOAD PUSH2 0x13F6 SWAP1 PUSH2 0x2D1D JUMP JUMPDEST PUSH1 0x40 MLOAD DUP1 SWAP2 SUB SWAP1 PUSH1 0x0 CREATE DUP1 ISZERO DUP1 ISZERO PUSH2 0x1412 JUMPI RETURNDATASIZE PUSH1 0x0 DUP1 RETURNDATACOPY RETURNDATASIZE PUSH1 0x0 REVERT JUMPDEST POP PUSH1 0xA DUP1 SLOAD PUSH1 0x1 PUSH1 0x1 PUSH1 0xA0 SHL SUB NOT AND PUSH1 0x1 PUSH1 0x1 PUSH1 0xA0 SHL SUB SWAP3 DUP4 AND OR SWAP1 DUP2 SWAP1 SSTORE PUSH1 0x0 SLOAD PUSH1 0x40 MLOAD PUSH4 0x485CC955 PUSH1 0xE0 SHL DUP2 MSTORE SWAP2 DUP4 AND SWAP3 PUSH4 0x485CC955 SWAP3 PUSH2 0x1463 SWAP3 PUSH3 0x10000 SWAP1 DIV SWAP1 SWAP2 AND SWAP1 ADDRESS SWAP1 PUSH1 0x4 ADD PUSH2 0x387A JUMP JUMPDEST PUSH1 0x0 PUSH1 0x40 MLOAD DUP1 DUP4 SUB DUP2 PUSH1 0x0 DUP8 DUP1 EXTCODESIZE ISZERO DUP1 ISZERO PUSH2 0x147D JUMPI PUSH1 0x0 DUP1 REVERT JUMPDEST POP GAS CALL ISZERO DUP1 ISZERO PUSH2 0x1491 JUMPI RETURNDATASIZE PUSH1 0x0 DUP1 RETURNDATACOPY RETURNDATASIZE PUSH1 0x0 REVERT JUMPDEST POP POP POP POP PUSH2 0x14A4 DUP10 DUP10 DUP10 DUP10 DUP9 DUP9 DUP9 PUSH2 0x2309 JUMP JUMPDEST ADDRESS PUSH1 0x0 SWAP1 DUP2 MSTORE PUSH1 0xD PUSH1 0x20 SWAP1 DUP2 MSTORE PUSH1 0x40 DUP1 DUP4 KECCAK256 PUSH4 0x2015D6C7 PUSH1 0xE1 SHL DUP5 MSTORE SWAP1 SWAP2 MSTORE DUP1 DUP3 KECCAK256 DUP1 SLOAD PUSH1 0xFF NOT SWAP1 DUP2 AND PUSH1 0x1 SWAP1 DUP2 OR SWAP1 SWAP3 SSTORE PUSH4 0x5CB7C64F PUSH1 0xE1 SHL DUP5 MSTORE SWAP2 DUP4 KECCAK256 DUP1 SLOAD SWAP1 SWAP3 AND OR SWAP1 SSTORE DUP1 SLOAD PUSH1 0xFF PUSH1 0xB0 SHL NOT AND PUSH1 0x1 PUSH1 0xB0 SHL OR SWAP1 SSTORE DUP1 ISZERO PUSH2 0x150E JUMPI PUSH1 0x0 DUP1 SLOAD PUSH2 0xFF00 NOT AND SWAP1 SSTORE JUMPDEST POP POP POP POP POP POP POP POP POP POP JUMP JUMPDEST PUSH1 0x5 SLOAD DUP2 JUMP JUMPDEST PUSH1 0x4 SLOAD SWAP1 JUMP JUMPDEST PUSH1 0x0 DUP4 DUP4 DUP4 PUSH1 0x40 MLOAD PUSH1 0x20 ADD PUSH2 0x153D SWAP4 SWAP3 SWAP2 SWAP1 PUSH2 0x37C7 JUMP JUMPDEST PUSH1 0x40 MLOAD PUSH1 0x20 DUP2 DUP4 SUB SUB DUP2 MSTORE SWAP1 PUSH1 0x40 MSTORE DUP1 MLOAD SWAP1 PUSH1 0x20 ADD KECCAK256 SWAP1 POP SWAP4 SWAP3 POP POP POP JUMP JUMPDEST PUSH1 0x10 DUP2 DUP2 SLOAD DUP2 LT PUSH2 0x156C JUMPI PUSH1 0x0 DUP1 REVERT JUMPDEST PUSH1 0x0 SWAP2 DUP3 MSTORE PUSH1 0x20 SWAP1 SWAP2 KECCAK256 ADD SLOAD SWAP1 POP DUP2 JUMP JUMPDEST PUSH1 0x1 PUSH1 0x0 DUP3 DUP2 MSTORE PUSH1 0xF PUSH1 0x20 MSTORE PUSH1 0x40 SWAP1 KECCAK256 PUSH1 0x9 ADD SLOAD PUSH1 0xFF AND PUSH1 0x4 DUP2 GT ISZERO PUSH2 0x159F JUMPI INVALID JUMPDEST EQ PUSH2 0x15BC JUMPI PUSH1 0x40 MLOAD PUSH3 0x461BCD PUSH1 0xE5 SHL DUP2 MSTORE PUSH1 0x4 ADD PUSH2 0x88E SWAP1 PUSH2 0x3D8A JUMP JUMPDEST PUSH1 0x0 DUP2 DUP2 MSTORE PUSH1 0xF PUSH1 0x20 MSTORE PUSH1 0x40 SWAP1 KECCAK256 PUSH1 0x2 ADD SLOAD TIMESTAMP GT PUSH2 0x15EC JUMPI PUSH1 0x40 MLOAD PUSH3 0x461BCD PUSH1 0xE5 SHL DUP2 MSTORE PUSH1 0x4 ADD PUSH2 0x88E SWAP1 PUSH2 0x41C1 JUMP JUMPDEST PUSH2 0x15F5 DUP2 PUSH2 0x24A5 JUMP JUMPDEST POP JUMP JUMPDEST PUSH1 0x0 SLOAD PUSH1 0x1 PUSH1 0xB0 SHL SWAP1 DIV PUSH1 0xFF AND PUSH2 0x1621 JUMPI PUSH1 0x40 MLOAD PUSH3 0x461BCD PUSH1 0xE5 SHL DUP2 MSTORE PUSH1 0x4 ADD PUSH2 0x88E SWAP1 PUSH2 0x3A9F JUMP JUMPDEST CALLER ADDRESS EQ PUSH2 0x1640 JUMPI PUSH1 0x40 MLOAD PUSH3 0x461BCD PUSH1 0xE5 SHL DUP2 MSTORE PUSH1 0x4 ADD PUSH2 0x88E SWAP1 PUSH2 0x3F78 JUMP JUMPDEST DUP2 MLOAD DUP4 MLOAD EQ DUP1 ISZERO PUSH2 0x1652 JUMPI POP DUP1 MLOAD DUP4 MLOAD EQ JUMPDEST PUSH2 0x166E JUMPI PUSH1 0x40 MLOAD PUSH3 0x461BCD PUSH1 0xE5 SHL DUP2 MSTORE PUSH1 0x4 ADD PUSH2 0x88E SWAP1 PUSH2 0x3AD6 JUMP JUMPDEST PUSH1 0x0 JUMPDEST DUP4 MLOAD DUP2 LT ISZERO PUSH2 0x17DA JUMPI DUP3 MLOAD PUSH1 0x0 SWAP1 DUP5 SWAP1 DUP4 SWAP1 DUP2 LT PUSH2 0x168B JUMPI INVALID JUMPDEST PUSH1 0x20 MUL PUSH1 0x20 ADD ADD MLOAD PUSH1 0x1 PUSH1 0x1 PUSH1 0xE0 SHL SUB NOT AND EQ ISZERO PUSH2 0x16BB JUMPI PUSH1 0x40 MLOAD PUSH3 0x461BCD PUSH1 0xE5 SHL DUP2 MSTORE PUSH1 0x4 ADD PUSH2 0x88E SWAP1 PUSH2 0x3FC6 JUMP JUMPDEST DUP2 DUP2 DUP2 MLOAD DUP2 LT PUSH2 0x16C7 JUMPI INVALID JUMPDEST PUSH1 0x20 MUL PUSH1 0x20 ADD ADD MLOAD PUSH1 0xD PUSH1 0x0 DUP7 DUP5 DUP2 MLOAD DUP2 LT PUSH2 0x16DF JUMPI INVALID JUMPDEST PUSH1 0x20 MUL PUSH1 0x20 ADD ADD MLOAD PUSH1 0x1 PUSH1 0x1 PUSH1 0xA0 SHL SUB AND PUSH1 0x1 PUSH1 0x1 PUSH1 0xA0 SHL SUB AND DUP2 MSTORE PUSH1 0x20 ADD SWAP1 DUP2 MSTORE PUSH1 0x20 ADD PUSH1 0x0 KECCAK256 PUSH1 0x0 DUP6 DUP5 DUP2 MLOAD DUP2 LT PUSH2 0x1715 JUMPI INVALID JUMPDEST PUSH1 0x20 MUL PUSH1 0x20 ADD ADD MLOAD PUSH1 0x1 PUSH1 0x1 PUSH1 0xE0 SHL SUB NOT AND PUSH1 0x1 PUSH1 0x1 PUSH1 0xE0 SHL SUB NOT AND DUP2 MSTORE PUSH1 0x20 ADD SWAP1 DUP2 MSTORE PUSH1 0x20 ADD PUSH1 0x0 KECCAK256 PUSH1 0x0 PUSH2 0x100 EXP DUP2 SLOAD DUP2 PUSH1 0xFF MUL NOT AND SWAP1 DUP4 ISZERO ISZERO MUL OR SWAP1 SSTORE POP DUP4 DUP2 DUP2 MLOAD DUP2 LT PUSH2 0x1762 JUMPI INVALID JUMPDEST PUSH1 0x20 MUL PUSH1 0x20 ADD ADD MLOAD PUSH1 0x1 PUSH1 0x1 PUSH1 0xA0 SHL SUB AND PUSH32 0x31E41E795DDF7710D216F93D4D9A1080CA53618BA00822E743D12F31A7DFC980 DUP5 DUP4 DUP2 MLOAD DUP2 LT PUSH2 0x17A0 JUMPI INVALID JUMPDEST PUSH1 0x20 MUL PUSH1 0x20 ADD ADD MLOAD DUP5 DUP5 DUP2 MLOAD DUP2 LT PUSH2 0x17B4 JUMPI INVALID JUMPDEST PUSH1 0x20 MUL PUSH1 0x20 ADD ADD MLOAD PUSH1 0x40 MLOAD PUSH2 0x17CA SWAP3 SWAP2 SWAP1 PUSH2 0x3A5C JUMP JUMPDEST PUSH1 0x40 MLOAD DUP1 SWAP2 SUB SWAP1 LOG2 PUSH1 0x1 ADD PUSH2 0x1671 JUMP JUMPDEST POP ADDRESS PUSH1 0x0 SWAP1 DUP2 MSTORE PUSH1 0xD PUSH1 0x20 SWAP1 DUP2 MSTORE PUSH1 0x40 DUP1 DUP4 KECCAK256 PUSH4 0x2015D6C7 PUSH1 0xE1 SHL DUP5 MSTORE SWAP1 SWAP2 MSTORE SWAP1 KECCAK256 SLOAD PUSH1 0xFF AND PUSH2 0x181C JUMPI PUSH1 0x40 MLOAD PUSH3 0x461BCD PUSH1 0xE5 SHL DUP2 MSTORE PUSH1 0x4 ADD PUSH2 0x88E SWAP1 PUSH2 0x3C4F JUMP JUMPDEST ADDRESS PUSH1 0x0 SWAP1 DUP2 MSTORE PUSH1 0xD PUSH1 0x20 SWAP1 DUP2 MSTORE PUSH1 0x40 DUP1 DUP4 KECCAK256 PUSH4 0x5CB7C64F PUSH1 0xE1 SHL DUP5 MSTORE SWAP1 SWAP2 MSTORE SWAP1 KECCAK256 SLOAD PUSH1 0xFF AND PUSH2 0x8DC JUMPI PUSH1 0x40 MLOAD PUSH3 0x461BCD PUSH1 0xE5 SHL DUP2 MSTORE PUSH1 0x4 ADD PUSH2 0x88E SWAP1 PUSH2 0x406B JUMP JUMPDEST PUSH1 0x0 DUP3 DUP2 MSTORE PUSH1 0xF PUSH1 0x20 MSTORE PUSH1 0x40 SWAP1 KECCAK256 PUSH1 0xA ADD SLOAD DUP2 SWAP1 PUSH2 0x187C SWAP1 CALLER SWAP1 PUSH2 0xAAC JUMP JUMPDEST LT ISZERO PUSH2 0x189A JUMPI PUSH1 0x40 MLOAD PUSH3 0x461BCD PUSH1 0xE5 SHL DUP2 MSTORE PUSH1 0x4 ADD PUSH2 0x88E SWAP1 PUSH2 0x3EF0 JUMP JUMPDEST PUSH2 0x18A5 CALLER DUP4 DUP4 PUSH2 0x1DA2 JUMP JUMPDEST PUSH2 0x18AE CALLER PUSH2 0x2877 JUMP JUMPDEST POP POP JUMP JUMPDEST PUSH1 0xB SLOAD DUP2 JUMP JUMPDEST PUSH1 0x0 DUP3 DUP2 MSTORE PUSH1 0xF PUSH1 0x20 SWAP1 DUP2 MSTORE PUSH1 0x40 DUP1 DUP4 KECCAK256 PUSH1 0x1 PUSH1 0x1 PUSH1 0xA0 SHL SUB DUP6 AND DUP5 MSTORE PUSH1 0xB ADD SWAP1 SWAP2 MSTORE SWAP1 KECCAK256 SLOAD SWAP3 SWAP2 POP POP JUMP JUMPDEST PUSH1 0x60 PUSH1 0x0 DUP4 MLOAD PUSH1 0x1 PUSH1 0x1 PUSH1 0x40 SHL SUB DUP2 GT DUP1 ISZERO PUSH2 0x18FF JUMPI PUSH1 0x0 DUP1 REVERT JUMPDEST POP PUSH1 0x40 MLOAD SWAP1 DUP1 DUP3 MSTORE DUP1 PUSH1 0x20 MUL PUSH1 0x20 ADD DUP3 ADD PUSH1 0x40 MSTORE DUP1 ISZERO PUSH2 0x1929 JUMPI DUP2 PUSH1 0x20 ADD PUSH1 0x20 DUP3 MUL DUP1 CALLDATASIZE DUP4 CALLDATACOPY ADD SWAP1 POP JUMPDEST POP SWAP1 POP PUSH1 0x0 JUMPDEST DUP5 MLOAD DUP2 LT ISZERO PUSH2 0x1987 JUMPI PUSH2 0x1968 DUP6 DUP3 DUP2 MLOAD DUP2 LT PUSH2 0x1947 JUMPI INVALID JUMPDEST PUSH1 0x20 MUL PUSH1 0x20 ADD ADD MLOAD DUP6 DUP4 DUP2 MLOAD DUP2 LT PUSH2 0x195B JUMPI INVALID JUMPDEST PUSH1 0x20 MUL PUSH1 0x20 ADD ADD MLOAD PUSH2 0xAAC JUMP JUMPDEST DUP3 DUP3 DUP2 MLOAD DUP2 LT PUSH2 0x1974 JUMPI INVALID JUMPDEST PUSH1 0x20 SWAP1 DUP2 MUL SWAP2 SWAP1 SWAP2 ADD ADD MSTORE PUSH1 0x1 ADD PUSH2 0x192F JUMP JUMPDEST POP SWAP4 SWAP3 POP POP POP JUMP JUMPDEST PUSH1 0x0 SLOAD PUSH1 0x60 SWAP1 PUSH1 0x1 PUSH1 0xB0 SHL SWAP1 DIV PUSH1 0xFF AND PUSH2 0x19BB JUMPI PUSH1 0x40 MLOAD PUSH3 0x461BCD PUSH1 0xE5 SHL DUP2 MSTORE PUSH1 0x4 ADD PUSH2 0x88E SWAP1 PUSH2 0x3A9F JUMP JUMPDEST PUSH2 0x19C3 PUSH2 0x1D81 JUMP JUMPDEST PUSH2 0x19CC CALLER PUSH2 0x12E6 JUMP JUMPDEST LT ISZERO PUSH2 0x19EA JUMPI PUSH1 0x40 MLOAD PUSH3 0x461BCD PUSH1 0xE5 SHL DUP2 MSTORE PUSH1 0x4 ADD PUSH2 0x88E SWAP1 PUSH2 0x3E1E JUMP JUMPDEST DUP5 MLOAD DUP7 MLOAD EQ DUP1 ISZERO PUSH2 0x19FC JUMPI POP DUP4 MLOAD DUP7 MLOAD EQ JUMPDEST PUSH2 0x1A18 JUMPI PUSH1 0x40 MLOAD PUSH3 0x461BCD PUSH1 0xE5 SHL DUP2 MSTORE PUSH1 0x4 ADD PUSH2 0x88E SWAP1 PUSH2 0x40C8 JUMP JUMPDEST DUP2 MLOAD DUP4 MLOAD EQ PUSH2 0x1A39 JUMPI PUSH1 0x40 MLOAD PUSH3 0x461BCD PUSH1 0xE5 SHL DUP2 MSTORE PUSH1 0x4 ADD PUSH2 0x88E SWAP1 PUSH2 0x3BF2 JUMP JUMPDEST PUSH1 0x0 DUP7 MLOAD GT PUSH2 0x1A5A JUMPI PUSH1 0x40 MLOAD PUSH3 0x461BCD PUSH1 0xE5 SHL DUP2 MSTORE PUSH1 0x4 ADD PUSH2 0x88E SWAP1 PUSH2 0x3F27 JUMP JUMPDEST PUSH1 0x0 DUP4 MLOAD PUSH1 0x1 PUSH1 0x1 PUSH1 0x40 SHL SUB DUP2 GT DUP1 ISZERO PUSH2 0x1A73 JUMPI PUSH1 0x0 DUP1 REVERT JUMPDEST POP PUSH1 0x40 MLOAD SWAP1 DUP1 DUP3 MSTORE DUP1 PUSH1 0x20 MUL PUSH1 0x20 ADD DUP3 ADD PUSH1 0x40 MSTORE DUP1 ISZERO PUSH2 0x1A9D JUMPI DUP2 PUSH1 0x20 ADD PUSH1 0x20 DUP3 MUL DUP1 CALLDATASIZE DUP4 CALLDATACOPY ADD SWAP1 POP JUMPDEST POP DUP5 MLOAD DUP9 MLOAD SWAP2 SWAP3 POP SWAP1 PUSH1 0x0 SWAP1 PUSH2 0x1AB3 SWAP1 DUP4 PUSH2 0x290A JUMP JUMPDEST SWAP1 POP PUSH1 0x0 JUMPDEST DUP3 DUP2 LT ISZERO PUSH2 0x1CAE JUMPI PUSH1 0x0 DUP3 PUSH1 0x1 PUSH1 0x1 PUSH1 0x40 SHL SUB DUP2 GT DUP1 ISZERO PUSH2 0x1AD8 JUMPI PUSH1 0x0 DUP1 REVERT JUMPDEST POP PUSH1 0x40 MLOAD SWAP1 DUP1 DUP3 MSTORE DUP1 PUSH1 0x20 MUL PUSH1 0x20 ADD DUP3 ADD PUSH1 0x40 MSTORE DUP1 ISZERO PUSH2 0x1B02 JUMPI DUP2 PUSH1 0x20 ADD PUSH1 0x20 DUP3 MUL DUP1 CALLDATASIZE DUP4 CALLDATACOPY ADD SWAP1 POP JUMPDEST POP SWAP1 POP PUSH1 0x0 DUP4 PUSH1 0x1 PUSH1 0x1 PUSH1 0x40 SHL SUB DUP2 GT DUP1 ISZERO PUSH2 0x1B1D JUMPI PUSH1 0x0 DUP1 REVERT JUMPDEST POP PUSH1 0x40 MLOAD SWAP1 DUP1 DUP3 MSTORE DUP1 PUSH1 0x20 MUL PUSH1 0x20 ADD DUP3 ADD PUSH1 0x40 MSTORE DUP1 ISZERO PUSH2 0x1B51 JUMPI DUP2 PUSH1 0x20 ADD JUMPDEST PUSH1 0x60 DUP2 MSTORE PUSH1 0x20 ADD SWAP1 PUSH1 0x1 SWAP1 SUB SWAP1 DUP2 PUSH2 0x1B3C JUMPI SWAP1 POP JUMPDEST POP SWAP1 POP PUSH1 0x0 DUP5 PUSH1 0x1 PUSH1 0x1 PUSH1 0x40 SHL SUB DUP2 GT DUP1 ISZERO PUSH2 0x1B6C JUMPI PUSH1 0x0 DUP1 REVERT JUMPDEST POP PUSH1 0x40 MLOAD SWAP1 DUP1 DUP3 MSTORE DUP1 PUSH1 0x20 MUL PUSH1 0x20 ADD DUP3 ADD PUSH1 0x40 MSTORE DUP1 ISZERO PUSH2 0x1B96 JUMPI DUP2 PUSH1 0x20 ADD PUSH1 0x20 DUP3 MUL DUP1 CALLDATASIZE DUP4 CALLDATACOPY ADD SWAP1 POP JUMPDEST POP SWAP1 POP PUSH1 0x0 DUP1 PUSH2 0x1BA6 DUP8 DUP8 PUSH2 0x2971 JUMP JUMPDEST SWAP1 POP JUMPDEST DUP7 DUP2 LT ISZERO PUSH2 0x1C53 JUMPI DUP15 DUP2 DUP2 MLOAD DUP2 LT PUSH2 0x1BBD JUMPI INVALID JUMPDEST PUSH1 0x20 MUL PUSH1 0x20 ADD ADD MLOAD DUP6 DUP4 DUP2 MLOAD DUP2 LT PUSH2 0x1BD1 JUMPI INVALID JUMPDEST PUSH1 0x20 MUL PUSH1 0x20 ADD ADD SWAP1 PUSH1 0x1 PUSH1 0x1 PUSH1 0xA0 SHL SUB AND SWAP1 DUP2 PUSH1 0x1 PUSH1 0x1 PUSH1 0xA0 SHL SUB AND DUP2 MSTORE POP POP DUP14 DUP2 DUP2 MLOAD DUP2 LT PUSH2 0x1BFD JUMPI INVALID JUMPDEST PUSH1 0x20 MUL PUSH1 0x20 ADD ADD MLOAD DUP5 DUP4 DUP2 MLOAD DUP2 LT PUSH2 0x1C11 JUMPI INVALID JUMPDEST PUSH1 0x20 MUL PUSH1 0x20 ADD ADD DUP2 SWAP1 MSTORE POP DUP13 DUP2 DUP2 MLOAD DUP2 LT PUSH2 0x1C28 JUMPI INVALID JUMPDEST PUSH1 0x20 MUL PUSH1 0x20 ADD ADD MLOAD DUP4 DUP4 DUP2 MLOAD DUP2 LT PUSH2 0x1C3C JUMPI INVALID JUMPDEST PUSH1 0x20 SWAP1 DUP2 MUL SWAP2 SWAP1 SWAP2 ADD ADD MSTORE PUSH1 0x1 SWAP2 DUP3 ADD SWAP2 ADD PUSH2 0x1BA9 JUMP JUMPDEST POP PUSH2 0x1C87 DUP5 DUP5 DUP5 DUP15 DUP10 DUP2 MLOAD DUP2 LT PUSH2 0x1C66 JUMPI INVALID JUMPDEST PUSH1 0x20 MUL PUSH1 0x20 ADD ADD MLOAD DUP15 DUP11 DUP2 MLOAD DUP2 LT PUSH2 0x1C7A JUMPI INVALID JUMPDEST PUSH1 0x20 MUL PUSH1 0x20 ADD ADD MLOAD PUSH2 0x20D9 JUMP JUMPDEST DUP9 DUP7 DUP2 MLOAD DUP2 LT PUSH2 0x1C93 JUMPI INVALID JUMPDEST PUSH1 0x20 SWAP1 DUP2 MUL SWAP2 SWAP1 SWAP2 ADD ADD MSTORE POP POP PUSH1 0x1 SWAP1 SWAP3 ADD SWAP2 POP PUSH2 0x1AB8 SWAP1 POP JUMP JUMPDEST POP SWAP2 SWAP9 SWAP8 POP POP POP POP POP POP POP POP JUMP JUMPDEST PUSH1 0x0 DUP1 PUSH1 0x0 PUSH2 0x1CCC DUP5 PUSH1 0x12 PUSH2 0x2276 JUMP JUMPDEST SWAP2 POP SWAP2 POP DUP2 ISZERO PUSH2 0x1CDF JUMPI SWAP2 POP PUSH2 0x862 SWAP1 POP JUMP JUMPDEST PUSH1 0x9 SLOAD SWAP3 POP POP POP PUSH2 0x862 JUMP JUMPDEST PUSH1 0x60 PUSH1 0x0 DUP3 MLOAD PUSH1 0x1 PUSH1 0x1 PUSH1 0x40 SHL SUB DUP2 GT DUP1 ISZERO PUSH2 0x1D06 JUMPI PUSH1 0x0 DUP1 REVERT JUMPDEST POP PUSH1 0x40 MLOAD SWAP1 DUP1 DUP3 MSTORE DUP1 PUSH1 0x20 MUL PUSH1 0x20 ADD DUP3 ADD PUSH1 0x40 MSTORE DUP1 ISZERO PUSH2 0x1D30 JUMPI DUP2 PUSH1 0x20 ADD PUSH1 0x20 DUP3 MUL DUP1 CALLDATASIZE DUP4 CALLDATACOPY ADD SWAP1 POP JUMPDEST POP SWAP1 POP PUSH1 0x0 JUMPDEST DUP4 MLOAD DUP2 LT ISZERO PUSH2 0x1D7A JUMPI PUSH2 0x1D5B DUP5 DUP3 DUP2 MLOAD DUP2 LT PUSH2 0x1D4E JUMPI INVALID JUMPDEST PUSH1 0x20 MUL PUSH1 0x20 ADD ADD MLOAD PUSH2 0x12E6 JUMP JUMPDEST DUP3 DUP3 DUP2 MLOAD DUP2 LT PUSH2 0x1D67 JUMPI INVALID JUMPDEST PUSH1 0x20 SWAP1 DUP2 MUL SWAP2 SWAP1 SWAP2 ADD ADD MSTORE PUSH1 0x1 ADD PUSH2 0x1D36 JUMP JUMPDEST POP SWAP3 SWAP2 POP POP JUMP JUMPDEST PUSH1 0x5 SLOAD SWAP1 JUMP JUMPDEST PUSH1 0x0 SLOAD PUSH3 0x10000 SWAP1 DIV PUSH1 0x1 PUSH1 0x1 PUSH1 0xA0 SHL SUB AND DUP2 JUMP JUMPDEST PUSH1 0x6 SLOAD DUP2 JUMP JUMPDEST PUSH1 0x0 SLOAD PUSH1 0x1 PUSH1 0xB0 SHL SWAP1 DIV PUSH1 0xFF AND PUSH2 0x1DCB JUMPI PUSH1 0x40 MLOAD PUSH3 0x461BCD PUSH1 0xE5 SHL DUP2 MSTORE PUSH1 0x4 ADD PUSH2 0x88E SWAP1 PUSH2 0x3A9F JUMP JUMPDEST PUSH1 0x1 PUSH1 0x0 DUP4 DUP2 MSTORE PUSH1 0xF PUSH1 0x20 MSTORE PUSH1 0x40 SWAP1 KECCAK256 PUSH1 0x9 ADD SLOAD PUSH1 0xFF AND PUSH1 0x4 DUP2 GT ISZERO PUSH2 0x1DED JUMPI INVALID JUMPDEST EQ PUSH2 0x1E0A JUMPI PUSH1 0x40 MLOAD PUSH3 0x461BCD PUSH1 0xE5 SHL DUP2 MSTORE PUSH1 0x4 ADD PUSH2 0x88E SWAP1 PUSH2 0x3D8A JUMP JUMPDEST DUP1 PUSH2 0x1E14 DUP5 PUSH2 0x12E6 JUMP JUMPDEST LT ISZERO PUSH2 0x1E32 JUMPI PUSH1 0x40 MLOAD PUSH3 0x461BCD PUSH1 0xE5 SHL DUP2 MSTORE PUSH1 0x4 ADD PUSH2 0x88E SWAP1 PUSH2 0x3EF0 JUMP JUMPDEST PUSH1 0x0 DUP3 DUP2 MSTORE PUSH1 0xF PUSH1 0x20 SWAP1 DUP2 MSTORE PUSH1 0x40 DUP1 DUP4 KECCAK256 PUSH1 0x1 PUSH1 0x1 PUSH1 0xA0 SHL SUB DUP8 AND DUP5 MSTORE PUSH1 0xB ADD SWAP1 SWAP2 MSTORE SWAP1 KECCAK256 SLOAD DUP2 GT ISZERO PUSH2 0x1F26 JUMPI PUSH1 0x0 DUP3 DUP2 MSTORE PUSH1 0xF PUSH1 0x20 SWAP1 DUP2 MSTORE PUSH1 0x40 DUP1 DUP4 KECCAK256 PUSH1 0x1 PUSH1 0x1 PUSH1 0xA0 SHL SUB DUP8 AND DUP5 MSTORE PUSH1 0xB ADD SWAP1 SWAP2 MSTORE SWAP1 KECCAK256 SLOAD PUSH2 0x1EAC SWAP1 PUSH2 0x1E94 SWAP1 DUP4 SWAP1 PUSH2 0x23D6 JUMP JUMPDEST PUSH1 0x0 DUP5 DUP2 MSTORE PUSH1 0xF PUSH1 0x20 MSTORE PUSH1 0x40 SWAP1 KECCAK256 PUSH1 0x8 ADD SLOAD SWAP1 PUSH2 0x2433 JUMP JUMPDEST PUSH1 0x0 DUP4 DUP2 MSTORE PUSH1 0xF PUSH1 0x20 SWAP1 DUP2 MSTORE PUSH1 0x40 DUP1 DUP4 KECCAK256 PUSH1 0x8 DUP2 ADD SWAP5 SWAP1 SWAP5 SSTORE PUSH1 0x1 PUSH1 0x1 PUSH1 0xA0 SHL SUB DUP8 AND DUP4 MSTORE PUSH1 0xB SWAP1 SWAP4 ADD SWAP1 MSTORE KECCAK256 SLOAD DUP3 SWAP1 PUSH32 0x994C1E2CD59A94EC7F932AB317A85DABD5F43917C5CFB959B751A9648140C0C2 SWAP1 DUP6 SWAP1 PUSH2 0x1F0B SWAP1 DUP6 SWAP1 PUSH2 0x23D6 JUMP JUMPDEST PUSH1 0x40 MLOAD PUSH2 0x1F19 SWAP3 SWAP2 SWAP1 PUSH2 0x3861 JUMP JUMPDEST PUSH1 0x40 MLOAD DUP1 SWAP2 SUB SWAP1 LOG2 PUSH2 0x1FE7 JUMP JUMPDEST PUSH1 0x0 DUP3 DUP2 MSTORE PUSH1 0xF PUSH1 0x20 SWAP1 DUP2 MSTORE PUSH1 0x40 DUP1 DUP4 KECCAK256 PUSH1 0x1 PUSH1 0x1 PUSH1 0xA0 SHL SUB DUP8 AND DUP5 MSTORE PUSH1 0xB ADD SWAP1 SWAP2 MSTORE SWAP1 KECCAK256 SLOAD PUSH2 0x1F72 SWAP1 PUSH2 0x1F5A SWAP1 DUP4 PUSH2 0x23D6 JUMP JUMPDEST PUSH1 0x0 DUP5 DUP2 MSTORE PUSH1 0xF PUSH1 0x20 MSTORE PUSH1 0x40 SWAP1 KECCAK256 PUSH1 0x8 ADD SLOAD SWAP1 PUSH2 0x23D6 JUMP JUMPDEST PUSH1 0x0 DUP4 DUP2 MSTORE PUSH1 0xF PUSH1 0x20 SWAP1 DUP2 MSTORE PUSH1 0x40 DUP1 DUP4 KECCAK256 PUSH1 0x8 DUP2 ADD SWAP5 SWAP1 SWAP5 SSTORE PUSH1 0x1 PUSH1 0x1 PUSH1 0xA0 SHL SUB DUP8 AND DUP4 MSTORE PUSH1 0xB SWAP1 SWAP4 ADD SWAP1 MSTORE KECCAK256 SLOAD DUP3 SWAP1 PUSH32 0x79F996ADB5F064CD332CB02F590ABDF662BAFABCBE22469B8B316466E475C2C1 SWAP1 DUP6 SWAP1 PUSH2 0x1FD0 SWAP1 DUP6 PUSH2 0x23D6 JUMP JUMPDEST PUSH1 0x40 MLOAD PUSH2 0x1FDE SWAP3 SWAP2 SWAP1 PUSH2 0x3861 JUMP JUMPDEST PUSH1 0x40 MLOAD DUP1 SWAP2 SUB SWAP1 LOG2 JUMPDEST PUSH1 0x0 SWAP2 DUP3 MSTORE PUSH1 0xF PUSH1 0x20 SWAP1 DUP2 MSTORE PUSH1 0x40 DUP1 DUP5 KECCAK256 PUSH1 0x1 PUSH1 0x1 PUSH1 0xA0 SHL SUB SWAP1 SWAP6 AND DUP5 MSTORE PUSH1 0xB SWAP1 SWAP5 ADD SWAP1 MSTORE SWAP2 SWAP1 KECCAK256 SSTORE JUMP JUMPDEST PUSH1 0x40 DUP1 MLOAD PUSH32 0x19457468657265756D205369676E6564204D6573736167653A0A333200000000 PUSH1 0x20 DUP1 DUP4 ADD SWAP2 SWAP1 SWAP2 MSTORE PUSH1 0x3C DUP1 DUP4 ADD SWAP5 SWAP1 SWAP5 MSTORE DUP3 MLOAD DUP1 DUP4 SUB SWAP1 SWAP5 ADD DUP5 MSTORE PUSH1 0x5C SWAP1 SWAP2 ADD SWAP1 SWAP2 MSTORE DUP2 MLOAD SWAP2 ADD KECCAK256 SWAP1 JUMP JUMPDEST PUSH1 0x0 DUP2 MLOAD PUSH1 0x41 EQ PUSH2 0x20BB JUMPI PUSH1 0x40 DUP1 MLOAD PUSH3 0x461BCD PUSH1 0xE5 SHL DUP2 MSTORE PUSH1 0x20 PUSH1 0x4 DUP3 ADD MSTORE PUSH1 0x1F PUSH1 0x24 DUP3 ADD MSTORE PUSH32 0x45434453413A20696E76616C6964207369676E6174757265206C656E67746800 PUSH1 0x44 DUP3 ADD MSTORE SWAP1 MLOAD SWAP1 DUP2 SWAP1 SUB PUSH1 0x64 ADD SWAP1 REVERT JUMPDEST PUSH1 0x20 DUP3 ADD MLOAD PUSH1 0x40 DUP4 ADD MLOAD PUSH1 0x60 DUP5 ADD MLOAD PUSH1 0x0 BYTE PUSH2 0xA8D DUP7 DUP3 DUP6 DUP6 PUSH2 0x29CA JUMP JUMPDEST PUSH1 0x0 DUP1 CALLER TIMESTAMP PUSH1 0xB SLOAD PUSH1 0x40 MLOAD PUSH1 0x20 ADD PUSH2 0x20F3 SWAP4 SWAP3 SWAP2 SWAP1 PUSH2 0x37C7 JUMP JUMPDEST PUSH1 0x40 MLOAD PUSH1 0x20 DUP2 DUP4 SUB SUB DUP2 MSTORE SWAP1 PUSH1 0x40 MSTORE DUP1 MLOAD SWAP1 PUSH1 0x20 ADD KECCAK256 SWAP1 POP PUSH2 0x2121 PUSH1 0x1 PUSH1 0xB SLOAD PUSH2 0x2433 SWAP1 SWAP2 SWAP1 PUSH4 0xFFFFFFFF AND JUMP JUMPDEST PUSH1 0xB SSTORE PUSH1 0x14 SLOAD PUSH2 0x2132 SWAP1 PUSH1 0x1 PUSH2 0x2433 JUMP JUMPDEST PUSH1 0x14 SSTORE PUSH1 0x0 DUP2 DUP2 MSTORE PUSH1 0xF PUSH1 0x20 MSTORE PUSH1 0x40 SWAP1 KECCAK256 DUP1 SLOAD PUSH1 0x1 PUSH1 0x1 PUSH1 0xA0 SHL SUB NOT AND CALLER OR DUP2 SSTORE TIMESTAMP PUSH1 0x1 DUP3 ADD DUP2 SWAP1 SSTORE PUSH1 0x2 SLOAD PUSH2 0x2168 SWAP2 SWAP1 PUSH2 0x2433 JUMP JUMPDEST PUSH1 0x2 DUP3 ADD SSTORE DUP8 MLOAD PUSH2 0x2182 SWAP1 PUSH1 0x3 DUP4 ADD SWAP1 PUSH1 0x20 DUP12 ADD SWAP1 PUSH2 0x2D2A JUMP JUMPDEST POP DUP7 MLOAD PUSH2 0x2198 SWAP1 PUSH1 0x4 DUP4 ADD SWAP1 PUSH1 0x20 DUP11 ADD SWAP1 PUSH2 0x2D7F JUMP JUMPDEST POP DUP6 MLOAD PUSH2 0x21AE SWAP1 PUSH1 0x5 DUP4 ADD SWAP1 PUSH1 0x20 DUP10 ADD SWAP1 PUSH2 0x2DD8 JUMP JUMPDEST POP DUP5 MLOAD PUSH2 0x21C4 SWAP1 PUSH1 0x6 DUP4 ADD SWAP1 PUSH1 0x20 DUP9 ADD SWAP1 PUSH2 0x2C91 JUMP JUMPDEST POP DUP4 MLOAD PUSH2 0x21DA SWAP1 PUSH1 0x7 DUP4 ADD SWAP1 PUSH1 0x20 DUP8 ADD SWAP1 PUSH2 0x2C91 JUMP JUMPDEST POP PUSH1 0x0 PUSH1 0x8 DUP3 ADD DUP2 SWAP1 SSTORE PUSH1 0x9 DUP3 ADD DUP1 SLOAD PUSH1 0xFF NOT AND PUSH1 0x1 OR SWAP1 SSTORE PUSH1 0x14 SLOAD PUSH1 0xA DUP4 ADD SSTORE PUSH1 0x40 MLOAD DUP4 SWAP2 PUSH32 0x288A29BCA04EDB18FCDB2C76D6E3B03B8A137C85C70D1A4CB8AACFA868D60510 SWAP2 LOG2 PUSH2 0x2236 CALLER DUP4 PUSH2 0x2231 CALLER PUSH2 0x12E6 JUMP JUMPDEST PUSH2 0x1DA2 JUMP JUMPDEST POP PUSH1 0x10 DUP1 SLOAD PUSH1 0x1 DUP2 ADD DUP3 SSTORE PUSH1 0x0 SWAP2 SWAP1 SWAP2 MSTORE PUSH32 0x1B6847DC741A1B0CD08D278845F9D819D87B734759AFB55FE2DE5CB82A9AE672 ADD DUP2 SWAP1 SSTORE SWAP7 SWAP6 POP POP POP POP POP POP JUMP JUMPDEST PUSH1 0x0 DUP1 PUSH1 0x0 DUP5 GT PUSH2 0x2299 JUMPI PUSH1 0x40 MLOAD PUSH3 0x461BCD PUSH1 0xE5 SHL DUP2 MSTORE PUSH1 0x4 ADD PUSH2 0x88E SWAP1 PUSH2 0x3E6E JUMP JUMPDEST PUSH1 0x14 SLOAD DUP5 GT ISZERO PUSH2 0x22BB JUMPI PUSH1 0x40 MLOAD PUSH3 0x461BCD PUSH1 0xE5 SHL DUP2 MSTORE PUSH1 0x4 ADD PUSH2 0x88E SWAP1 PUSH2 0x3B76 JUMP JUMPDEST PUSH1 0x0 PUSH2 0x22C7 DUP5 DUP7 PUSH2 0x2B48 JUMP JUMPDEST DUP5 SLOAD SWAP1 SWAP2 POP DUP2 EQ ISZERO PUSH2 0x22E0 JUMPI PUSH1 0x0 DUP1 SWAP3 POP SWAP3 POP POP PUSH2 0x2302 JUMP JUMPDEST PUSH1 0x1 DUP5 PUSH1 0x1 ADD DUP3 DUP2 SLOAD DUP2 LT PUSH2 0x22F1 JUMPI INVALID JUMPDEST SWAP1 PUSH1 0x0 MSTORE PUSH1 0x20 PUSH1 0x0 KECCAK256 ADD SLOAD SWAP3 POP SWAP3 POP POP JUMPDEST SWAP3 POP SWAP3 SWAP1 POP JUMP JUMPDEST PUSH1 0x0 SLOAD PUSH1 0x1 PUSH1 0xB0 SHL SWAP1 DIV PUSH1 0xFF AND ISZERO DUP1 PUSH2 0x2321 JUMPI POP CALLER ADDRESS EQ JUMPDEST PUSH2 0x233D JUMPI PUSH1 0x40 MLOAD PUSH3 0x461BCD PUSH1 0xE5 SHL DUP2 MSTORE PUSH1 0x4 ADD PUSH2 0x88E SWAP1 PUSH2 0x400E JUMP JUMPDEST PUSH1 0x0 DUP6 GT PUSH2 0x235D JUMPI PUSH1 0x40 MLOAD PUSH3 0x461BCD PUSH1 0xE5 SHL DUP2 MSTORE PUSH1 0x4 ADD PUSH2 0x88E SWAP1 PUSH2 0x3D35 JUMP JUMPDEST PUSH1 0x0 DUP2 GT PUSH2 0x237D JUMPI PUSH1 0x40 MLOAD PUSH3 0x461BCD PUSH1 0xE5 SHL DUP2 MSTORE PUSH1 0x4 ADD PUSH2 0x88E SWAP1 PUSH2 0x3DCF JUMP JUMPDEST PUSH1 0x2 SWAP7 SWAP1 SWAP7 SSTORE PUSH1 0x3 SWAP5 SWAP1 SWAP5 SSTORE PUSH1 0x4 SWAP3 SWAP1 SWAP3 SSTORE PUSH1 0x5 SSTORE PUSH1 0x6 SSTORE PUSH1 0x7 SSTORE PUSH1 0x8 SSTORE JUMP JUMPDEST PUSH1 0x1 PUSH1 0x1 PUSH1 0xA0 SHL SUB DUP2 AND PUSH1 0x0 SWAP1 DUP2 MSTORE PUSH1 0x11 PUSH1 0x20 MSTORE PUSH1 0x40 SWAP1 KECCAK256 PUSH2 0x15F5 SWAP1 PUSH2 0x23C2 DUP4 PUSH2 0x12E6 JUMP JUMPDEST PUSH2 0x2BDA JUMP JUMPDEST PUSH2 0x23D4 PUSH1 0x12 PUSH1 0x9 SLOAD PUSH2 0x2BDA JUMP JUMPDEST JUMP JUMPDEST PUSH1 0x0 DUP3 DUP3 GT ISZERO PUSH2 0x242D JUMPI PUSH1 0x40 DUP1 MLOAD PUSH3 0x461BCD PUSH1 0xE5 SHL DUP2 MSTORE PUSH1 0x20 PUSH1 0x4 DUP3 ADD MSTORE PUSH1 0x1E PUSH1 0x24 DUP3 ADD MSTORE PUSH32 0x536166654D6174683A207375627472616374696F6E206F766572666C6F770000 PUSH1 0x44 DUP3 ADD MSTORE SWAP1 MLOAD SWAP1 DUP2 SWAP1 SUB PUSH1 0x64 ADD SWAP1 REVERT JUMPDEST POP SWAP1 SUB SWAP1 JUMP JUMPDEST PUSH1 0x0 DUP3 DUP3 ADD DUP4 DUP2 LT ISZERO PUSH2 0x248D JUMPI PUSH1 0x40 DUP1 MLOAD PUSH3 0x461BCD PUSH1 0xE5 SHL DUP2 MSTORE PUSH1 0x20 PUSH1 0x4 DUP3 ADD MSTORE PUSH1 0x1B PUSH1 0x24 DUP3 ADD MSTORE PUSH32 0x536166654D6174683A206164646974696F6E206F766572666C6F770000000000 PUSH1 0x44 DUP3 ADD MSTORE SWAP1 MLOAD SWAP1 DUP2 SWAP1 SUB PUSH1 0x64 ADD SWAP1 REVERT JUMPDEST SWAP4 SWAP3 POP POP POP JUMP JUMPDEST PUSH1 0x0 PUSH2 0x249F ADDRESS PUSH2 0x2C1B JUMP JUMPDEST ISZERO SWAP1 POP SWAP1 JUMP JUMPDEST PUSH2 0x24AD PUSH2 0x1520 JUMP JUMPDEST PUSH1 0x0 DUP3 DUP2 MSTORE PUSH1 0xF PUSH1 0x20 MSTORE PUSH1 0x40 SWAP1 KECCAK256 PUSH1 0x8 ADD SLOAD LT DUP1 ISZERO PUSH2 0x24EB JUMPI POP PUSH1 0x1 PUSH1 0x0 DUP3 DUP2 MSTORE PUSH1 0xF PUSH1 0x20 MSTORE PUSH1 0x40 SWAP1 KECCAK256 PUSH1 0x9 ADD SLOAD PUSH1 0xFF AND PUSH1 0x4 DUP2 GT ISZERO PUSH2 0x24E9 JUMPI INVALID JUMPDEST EQ JUMPDEST ISZERO PUSH2 0x2538 JUMPI PUSH1 0x0 DUP2 DUP2 MSTORE PUSH1 0xF PUSH1 0x20 MSTORE PUSH1 0x40 DUP1 DUP3 KECCAK256 PUSH1 0x9 ADD DUP1 SLOAD PUSH1 0xFF NOT AND PUSH1 0x2 OR SWAP1 SSTORE MLOAD DUP3 SWAP2 PUSH32 0x55295D4CE992922FA2E5FFBF3A3DCDB367DE0A15E125ACE083456017FD22060F SWAP2 LOG2 PUSH2 0x15F5 JUMP JUMPDEST PUSH1 0x3 SLOAD PUSH1 0x0 DUP3 DUP2 MSTORE PUSH1 0xF PUSH1 0x20 MSTORE PUSH1 0x40 SWAP1 KECCAK256 PUSH1 0x2 ADD SLOAD TIMESTAMP SWAP2 PUSH2 0x2559 SWAP2 SWAP1 PUSH2 0x2433 JUMP JUMPDEST LT DUP1 ISZERO PUSH2 0x2585 JUMPI POP PUSH1 0x1 PUSH1 0x0 DUP3 DUP2 MSTORE PUSH1 0xF PUSH1 0x20 MSTORE PUSH1 0x40 SWAP1 KECCAK256 PUSH1 0x9 ADD SLOAD PUSH1 0xFF AND PUSH1 0x4 DUP2 GT ISZERO PUSH2 0x2583 JUMPI INVALID JUMPDEST EQ JUMPDEST ISZERO PUSH2 0x25D2 JUMPI PUSH1 0x0 DUP2 DUP2 MSTORE PUSH1 0xF PUSH1 0x20 MSTORE PUSH1 0x40 DUP1 DUP3 KECCAK256 PUSH1 0x9 ADD DUP1 SLOAD PUSH1 0xFF NOT AND PUSH1 0x4 OR SWAP1 SSTORE MLOAD DUP3 SWAP2 PUSH32 0x126984176EAAEB6BA34A0BD7EE6E99C473C100F79BEE0BB6D17F0F44C83F1F9 SWAP2 LOG2 PUSH2 0x15F5 JUMP JUMPDEST PUSH1 0x1 PUSH1 0x0 DUP3 DUP2 MSTORE PUSH1 0xF PUSH1 0x20 MSTORE PUSH1 0x40 SWAP1 KECCAK256 PUSH1 0x9 ADD SLOAD PUSH1 0xFF AND PUSH1 0x4 DUP2 GT ISZERO PUSH2 0x25F4 JUMPI INVALID JUMPDEST EQ ISZERO PUSH2 0x15F5 JUMPI PUSH1 0x0 DUP2 DUP2 MSTORE PUSH1 0xF PUSH1 0x20 MSTORE PUSH1 0x40 DUP2 KECCAK256 PUSH1 0x9 ADD DUP1 SLOAD PUSH1 0xFF NOT AND PUSH1 0x3 OR SWAP1 SSTORE JUMPDEST PUSH1 0x0 DUP3 DUP2 MSTORE PUSH1 0xF PUSH1 0x20 MSTORE PUSH1 0x40 SWAP1 KECCAK256 PUSH1 0x3 ADD SLOAD DUP2 LT ISZERO PUSH2 0x2848 JUMPI PUSH1 0x0 DUP3 DUP2 MSTORE PUSH1 0xF PUSH1 0x20 MSTORE PUSH1 0x40 DUP2 KECCAK256 PUSH1 0x4 ADD DUP1 SLOAD PUSH2 0x26EA SWAP2 SWAP1 DUP5 SWAP1 DUP2 LT PUSH2 0x2652 JUMPI INVALID JUMPDEST PUSH1 0x0 SWAP2 DUP3 MSTORE PUSH1 0x20 SWAP2 DUP3 SWAP1 KECCAK256 ADD DUP1 SLOAD PUSH1 0x40 DUP1 MLOAD PUSH1 0x1F PUSH1 0x2 PUSH1 0x0 NOT PUSH2 0x100 PUSH1 0x1 DUP8 AND ISZERO MUL ADD SWAP1 SWAP5 AND SWAP4 SWAP1 SWAP4 DIV SWAP3 DUP4 ADD DUP6 SWAP1 DIV DUP6 MUL DUP2 ADD DUP6 ADD SWAP1 SWAP2 MSTORE DUP2 DUP2 MSTORE SWAP3 DUP4 ADD DUP3 DUP3 DUP1 ISZERO PUSH2 0x26E0 JUMPI DUP1 PUSH1 0x1F LT PUSH2 0x26B5 JUMPI PUSH2 0x100 DUP1 DUP4 SLOAD DIV MUL DUP4 MSTORE SWAP2 PUSH1 0x20 ADD SWAP2 PUSH2 0x26E0 JUMP JUMPDEST DUP3 ADD SWAP2 SWAP1 PUSH1 0x0 MSTORE PUSH1 0x20 PUSH1 0x0 KECCAK256 SWAP1 JUMPDEST DUP2 SLOAD DUP2 MSTORE SWAP1 PUSH1 0x1 ADD SWAP1 PUSH1 0x20 ADD DUP1 DUP4 GT PUSH2 0x26C3 JUMPI DUP3 SWAP1 SUB PUSH1 0x1F AND DUP3 ADD SWAP2 JUMPDEST POP POP POP POP POP PUSH2 0x85C JUMP JUMPDEST PUSH1 0x0 DUP5 DUP2 MSTORE PUSH1 0xF PUSH1 0x20 MSTORE PUSH1 0x40 SWAP1 KECCAK256 PUSH1 0x3 ADD DUP1 SLOAD SWAP2 SWAP3 POP PUSH2 0x2729 SWAP2 DUP5 SWAP1 DUP2 LT PUSH2 0x270E JUMPI INVALID JUMPDEST PUSH1 0x0 SWAP2 DUP3 MSTORE PUSH1 0x20 SWAP1 SWAP2 KECCAK256 ADD SLOAD PUSH1 0x1 PUSH1 0x1 PUSH1 0xA0 SHL SUB AND DUP3 PUSH2 0x118C JUMP JUMPDEST PUSH2 0x2745 JUMPI PUSH1 0x40 MLOAD PUSH3 0x461BCD PUSH1 0xE5 SHL DUP2 MSTORE PUSH1 0x4 ADD PUSH2 0x88E SWAP1 PUSH2 0x411C JUMP JUMPDEST PUSH1 0x0 DUP4 DUP2 MSTORE PUSH1 0xF PUSH1 0x20 MSTORE PUSH1 0x40 DUP2 KECCAK256 PUSH1 0x3 ADD DUP1 SLOAD DUP5 SWAP1 DUP2 LT PUSH2 0x2762 JUMPI INVALID JUMPDEST PUSH1 0x0 SWAP2 DUP3 MSTORE PUSH1 0x20 DUP1 DUP4 KECCAK256 SWAP1 SWAP2 ADD SLOAD DUP7 DUP4 MSTORE PUSH1 0xF SWAP1 SWAP2 MSTORE PUSH1 0x40 SWAP1 SWAP2 KECCAK256 PUSH1 0x5 ADD DUP1 SLOAD PUSH1 0x1 PUSH1 0x1 PUSH1 0xA0 SHL SUB SWAP1 SWAP3 AND SWAP2 DUP6 SWAP1 DUP2 LT PUSH2 0x2798 JUMPI INVALID JUMPDEST SWAP1 PUSH1 0x0 MSTORE PUSH1 0x20 PUSH1 0x0 KECCAK256 ADD SLOAD PUSH1 0xF PUSH1 0x0 DUP8 DUP2 MSTORE PUSH1 0x20 ADD SWAP1 DUP2 MSTORE PUSH1 0x20 ADD PUSH1 0x0 KECCAK256 PUSH1 0x4 ADD DUP6 DUP2 SLOAD DUP2 LT PUSH2 0x27C4 JUMPI INVALID JUMPDEST SWAP1 PUSH1 0x0 MSTORE PUSH1 0x20 PUSH1 0x0 KECCAK256 ADD PUSH1 0x40 MLOAD PUSH2 0x27DB SWAP2 SWAP1 PUSH2 0x37F1 JUMP JUMPDEST PUSH1 0x0 PUSH1 0x40 MLOAD DUP1 DUP4 SUB DUP2 DUP6 DUP8 GAS CALL SWAP3 POP POP POP RETURNDATASIZE DUP1 PUSH1 0x0 DUP2 EQ PUSH2 0x2818 JUMPI PUSH1 0x40 MLOAD SWAP2 POP PUSH1 0x1F NOT PUSH1 0x3F RETURNDATASIZE ADD AND DUP3 ADD PUSH1 0x40 MSTORE RETURNDATASIZE DUP3 MSTORE RETURNDATASIZE PUSH1 0x0 PUSH1 0x20 DUP5 ADD RETURNDATACOPY PUSH2 0x281D JUMP JUMPDEST PUSH1 0x60 SWAP2 POP JUMPDEST POP POP SWAP1 POP DUP1 PUSH2 0x283E JUMPI PUSH1 0x40 MLOAD PUSH3 0x461BCD PUSH1 0xE5 SHL DUP2 MSTORE PUSH1 0x4 ADD PUSH2 0x88E SWAP1 PUSH2 0x3B41 JUMP JUMPDEST POP POP PUSH1 0x1 ADD PUSH2 0x2617 JUMP JUMPDEST POP PUSH1 0x40 MLOAD DUP2 SWAP1 PUSH32 0x7B1BCF1CCF901A11589AFFF5504D59FD0A53780EED2A952ADADE0348985139E0 SWAP1 PUSH1 0x0 SWAP1 LOG2 POP JUMP JUMPDEST PUSH1 0x0 SLOAD PUSH1 0x1 PUSH1 0xB0 SHL SWAP1 DIV PUSH1 0xFF AND PUSH2 0x28A0 JUMPI PUSH1 0x40 MLOAD PUSH3 0x461BCD PUSH1 0xE5 SHL DUP2 MSTORE PUSH1 0x4 ADD PUSH2 0x88E SWAP1 PUSH2 0x3A9F JUMP JUMPDEST PUSH1 0x6 SLOAD ISZERO PUSH2 0x15F5 JUMPI PUSH1 0x0 PUSH2 0x28CB PUSH2 0x28C2 PUSH1 0x7 SLOAD GASPRICE PUSH2 0x2C21 SWAP1 SWAP2 SWAP1 PUSH4 0xFFFFFFFF AND JUMP JUMPDEST PUSH1 0x6 SLOAD SWAP1 PUSH2 0x2971 JUMP JUMPDEST SWAP1 POP DUP1 SELFBALANCE LT PUSH2 0x18AE JUMPI PUSH1 0x40 MLOAD PUSH1 0x1 PUSH1 0x1 PUSH1 0xA0 SHL SUB DUP4 AND SWAP1 DUP3 ISZERO PUSH2 0x8FC MUL SWAP1 DUP4 SWAP1 PUSH1 0x0 DUP2 DUP2 DUP2 DUP6 DUP9 DUP9 CALL SWAP4 POP POP POP POP ISZERO DUP1 ISZERO PUSH2 0x8DC JUMPI RETURNDATASIZE PUSH1 0x0 DUP1 RETURNDATACOPY RETURNDATASIZE PUSH1 0x0 REVERT JUMPDEST PUSH1 0x0 DUP1 DUP3 GT PUSH2 0x2960 JUMPI PUSH1 0x40 DUP1 MLOAD PUSH3 0x461BCD PUSH1 0xE5 SHL DUP2 MSTORE PUSH1 0x20 PUSH1 0x4 DUP3 ADD MSTORE PUSH1 0x1A PUSH1 0x24 DUP3 ADD MSTORE PUSH32 0x536166654D6174683A206469766973696F6E206279207A65726F000000000000 PUSH1 0x44 DUP3 ADD MSTORE SWAP1 MLOAD SWAP1 DUP2 SWAP1 SUB PUSH1 0x64 ADD SWAP1 REVERT JUMPDEST DUP2 DUP4 DUP2 PUSH2 0x2969 JUMPI INVALID JUMPDEST DIV SWAP4 SWAP3 POP POP POP JUMP JUMPDEST PUSH1 0x0 DUP3 PUSH2 0x2980 JUMPI POP PUSH1 0x0 PUSH2 0xAF4 JUMP JUMPDEST DUP3 DUP3 MUL DUP3 DUP5 DUP3 DUP2 PUSH2 0x298D JUMPI INVALID JUMPDEST DIV EQ PUSH2 0x248D JUMPI PUSH1 0x40 MLOAD PUSH3 0x461BCD PUSH1 0xE5 SHL DUP2 MSTORE PUSH1 0x4 ADD DUP1 DUP1 PUSH1 0x20 ADD DUP3 DUP2 SUB DUP3 MSTORE PUSH1 0x21 DUP2 MSTORE PUSH1 0x20 ADD DUP1 PUSH2 0x4967 PUSH1 0x21 SWAP2 CODECOPY PUSH1 0x40 ADD SWAP2 POP POP PUSH1 0x40 MLOAD DUP1 SWAP2 SUB SWAP1 REVERT JUMPDEST PUSH1 0x0 PUSH32 0x7FFFFFFFFFFFFFFFFFFFFFFFFFFFFFFF5D576E7357A4501DDFE92F46681B20A0 DUP3 GT ISZERO PUSH2 0x2A2B JUMPI PUSH1 0x40 MLOAD PUSH3 0x461BCD PUSH1 0xE5 SHL DUP2 MSTORE PUSH1 0x4 ADD DUP1 DUP1 PUSH1 0x20 ADD DUP3 DUP2 SUB DUP3 MSTORE PUSH1 0x22 DUP2 MSTORE PUSH1 0x20 ADD DUP1 PUSH2 0x48F5 PUSH1 0x22 SWAP2 CODECOPY PUSH1 0x40 ADD SWAP2 POP POP PUSH1 0x40 MLOAD DUP1 SWAP2 SUB SWAP1 REVERT JUMPDEST DUP4 PUSH1 0xFF AND PUSH1 0x1B EQ DUP1 PUSH2 0x2A40 JUMPI POP DUP4 PUSH1 0xFF AND PUSH1 0x1C EQ JUMPDEST PUSH2 0x2A7B JUMPI PUSH1 0x40 MLOAD PUSH3 0x461BCD PUSH1 0xE5 SHL DUP2 MSTORE PUSH1 0x4 ADD DUP1 DUP1 PUSH1 0x20 ADD DUP3 DUP2 SUB DUP3 MSTORE PUSH1 0x22 DUP2 MSTORE PUSH1 0x20 ADD DUP1 PUSH2 0x4945 PUSH1 0x22 SWAP2 CODECOPY PUSH1 0x40 ADD SWAP2 POP POP PUSH1 0x40 MLOAD DUP1 SWAP2 SUB SWAP1 REVERT JUMPDEST PUSH1 0x0 PUSH1 0x1 DUP7 DUP7 DUP7 DUP7 PUSH1 0x40 MLOAD PUSH1 0x0 DUP2 MSTORE PUSH1 0x20 ADD PUSH1 0x40 MSTORE PUSH1 0x40 MLOAD DUP1 DUP6 DUP2 MSTORE PUSH1 0x20 ADD DUP5 PUSH1 0xFF AND DUP2 MSTORE PUSH1 0x20 ADD DUP4 DUP2 MSTORE PUSH1 0x20 ADD DUP3 DUP2 MSTORE PUSH1 0x20 ADD SWAP5 POP POP POP POP POP PUSH1 0x20 PUSH1 0x40 MLOAD PUSH1 0x20 DUP2 SUB SWAP1 DUP1 DUP5 SUB SWAP1 DUP6 GAS STATICCALL ISZERO DUP1 ISZERO PUSH2 0x2AD7 JUMPI RETURNDATASIZE PUSH1 0x0 DUP1 RETURNDATACOPY RETURNDATASIZE PUSH1 0x0 REVERT JUMPDEST POP POP PUSH1 0x40 MLOAD PUSH1 0x1F NOT ADD MLOAD SWAP2 POP POP PUSH1 0x1 PUSH1 0x1 PUSH1 0xA0 SHL SUB DUP2 AND PUSH2 0x2B3F JUMPI PUSH1 0x40 DUP1 MLOAD PUSH3 0x461BCD PUSH1 0xE5 SHL DUP2 MSTORE PUSH1 0x20 PUSH1 0x4 DUP3 ADD MSTORE PUSH1 0x18 PUSH1 0x24 DUP3 ADD MSTORE PUSH32 0x45434453413A20696E76616C6964207369676E61747572650000000000000000 PUSH1 0x44 DUP3 ADD MSTORE SWAP1 MLOAD SWAP1 DUP2 SWAP1 SUB PUSH1 0x64 ADD SWAP1 REVERT JUMPDEST SWAP6 SWAP5 POP POP POP POP POP JUMP JUMPDEST DUP2 SLOAD PUSH1 0x0 SWAP1 DUP2 SWAP1 JUMPDEST DUP1 DUP3 LT ISZERO PUSH2 0x2B99 JUMPI PUSH1 0x0 PUSH2 0x2B64 DUP4 DUP4 PUSH2 0x2C37 JUMP JUMPDEST SWAP1 POP DUP5 DUP7 DUP3 DUP2 SLOAD DUP2 LT PUSH2 0x2B73 JUMPI INVALID JUMPDEST SWAP1 PUSH1 0x0 MSTORE PUSH1 0x20 PUSH1 0x0 KECCAK256 ADD SLOAD GT ISZERO PUSH2 0x2B8C JUMPI DUP1 SWAP2 POP PUSH2 0x2B93 JUMP JUMPDEST DUP1 PUSH1 0x1 ADD SWAP3 POP JUMPDEST POP PUSH2 0x2B50 JUMP JUMPDEST PUSH1 0x0 DUP3 GT DUP1 ISZERO PUSH2 0x2BC1 JUMPI POP DUP4 DUP6 PUSH1 0x1 DUP5 SUB DUP2 SLOAD DUP2 LT PUSH2 0x2BB4 JUMPI INVALID JUMPDEST SWAP1 PUSH1 0x0 MSTORE PUSH1 0x20 PUSH1 0x0 KECCAK256 ADD SLOAD EQ JUMPDEST ISZERO PUSH2 0x2BD2 JUMPI POP PUSH1 0x0 NOT ADD SWAP1 POP PUSH2 0xAF4 JUMP JUMPDEST POP SWAP1 POP PUSH2 0xAF4 JUMP JUMPDEST PUSH1 0x14 SLOAD DUP1 PUSH2 0x2BE7 DUP5 PUSH2 0x2C5C JUMP JUMPDEST LT ISZERO PUSH2 0x8DC JUMPI DUP3 SLOAD PUSH1 0x1 DUP1 DUP3 ADD DUP6 SSTORE PUSH1 0x0 DUP6 DUP2 MSTORE PUSH1 0x20 DUP1 DUP3 KECCAK256 SWAP1 SWAP4 ADD SWAP4 SWAP1 SWAP4 SSTORE SWAP4 DUP5 ADD DUP1 SLOAD SWAP5 DUP6 ADD DUP2 SSTORE DUP3 MSTORE SWAP1 KECCAK256 SWAP1 SWAP2 ADD SSTORE JUMP JUMPDEST EXTCODESIZE ISZERO ISZERO SWAP1 JUMP JUMPDEST PUSH1 0x0 DUP2 DUP4 LT PUSH2 0x2C30 JUMPI DUP2 PUSH2 0x248D JUMP JUMPDEST POP SWAP1 SWAP2 SWAP1 POP JUMP JUMPDEST PUSH1 0x0 PUSH1 0x2 DUP1 DUP4 MOD PUSH1 0x2 DUP6 MOD ADD DUP2 PUSH2 0x2C4A JUMPI INVALID JUMPDEST DIV PUSH1 0x2 DUP4 DIV PUSH1 0x2 DUP6 DIV ADD ADD SWAP4 SWAP3 POP POP POP JUMP JUMPDEST DUP1 SLOAD PUSH1 0x0 SWAP1 PUSH2 0x2C6D JUMPI POP PUSH1 0x0 PUSH2 0x862 JUMP JUMPDEST DUP2 SLOAD DUP3 SWAP1 PUSH1 0x0 NOT DUP2 ADD SWAP1 DUP2 LT PUSH2 0x2C7F JUMPI INVALID JUMPDEST SWAP1 PUSH1 0x0 MSTORE PUSH1 0x20 PUSH1 0x0 KECCAK256 ADD SLOAD SWAP1 POP PUSH2 0x862 JUMP JUMPDEST DUP3 DUP1 SLOAD PUSH1 0x1 DUP2 PUSH1 0x1 AND ISZERO PUSH2 0x100 MUL SUB AND PUSH1 0x2 SWAP1 DIV SWAP1 PUSH1 0x0 MSTORE PUSH1 0x20 PUSH1 0x0 KECCAK256 SWAP1 PUSH1 0x1F ADD PUSH1 0x20 SWAP1 DIV DUP2 ADD SWAP3 DUP3 PUSH2 0x2CC7 JUMPI PUSH1 0x0 DUP6 SSTORE PUSH2 0x2D0D JUMP JUMPDEST DUP3 PUSH1 0x1F LT PUSH2 0x2CE0 JUMPI DUP1 MLOAD PUSH1 0xFF NOT AND DUP4 DUP1 ADD OR DUP6 SSTORE PUSH2 0x2D0D JUMP JUMPDEST DUP3 DUP1 ADD PUSH1 0x1 ADD DUP6 SSTORE DUP3 ISZERO PUSH2 0x2D0D JUMPI SWAP2 DUP3 ADD JUMPDEST DUP3 DUP2 GT ISZERO PUSH2 0x2D0D JUMPI DUP3 MLOAD DUP3 SSTORE SWAP2 PUSH1 0x20 ADD SWAP2 SWAP1 PUSH1 0x1 ADD SWAP1 PUSH2 0x2CF2 JUMP JUMPDEST POP PUSH2 0x2D19 SWAP3 SWAP2 POP PUSH2 0x2E12 JUMP JUMPDEST POP SWAP1 JUMP JUMPDEST PUSH2 0x6A1 DUP1 PUSH2 0x4254 DUP4 CODECOPY ADD SWAP1 JUMP JUMPDEST DUP3 DUP1 SLOAD DUP3 DUP3 SSTORE SWAP1 PUSH1 0x0 MSTORE PUSH1 0x20 PUSH1 0x0 KECCAK256 SWAP1 DUP2 ADD SWAP3 DUP3 ISZERO PUSH2 0x2D0D JUMPI SWAP2 PUSH1 0x20 MUL DUP3 ADD JUMPDEST DUP3 DUP2 GT ISZERO PUSH2 0x2D0D JUMPI DUP3 MLOAD DUP3 SLOAD PUSH1 0x1 PUSH1 0x1 PUSH1 0xA0 SHL SUB NOT AND PUSH1 0x1 PUSH1 0x1 PUSH1 0xA0 SHL SUB SWAP1 SWAP2 AND OR DUP3 SSTORE PUSH1 0x20 SWAP1 SWAP3 ADD SWAP2 PUSH1 0x1 SWAP1 SWAP2 ADD SWAP1 PUSH2 0x2D4A JUMP JUMPDEST DUP3 DUP1 SLOAD DUP3 DUP3 SSTORE SWAP1 PUSH1 0x0 MSTORE PUSH1 0x20 PUSH1 0x0 KECCAK256 SWAP1 DUP2 ADD SWAP3 DUP3 ISZERO PUSH2 0x2DCC JUMPI SWAP2 PUSH1 0x20 MUL DUP3 ADD JUMPDEST DUP3 DUP2 GT ISZERO PUSH2 0x2DCC JUMPI DUP3 MLOAD DUP1 MLOAD PUSH2 0x2DBC SWAP2 DUP5 SWAP2 PUSH1 0x20 SWAP1 SWAP2 ADD SWAP1 PUSH2 0x2C91 JUMP JUMPDEST POP SWAP2 PUSH1 0x20 ADD SWAP2 SWAP1 PUSH1 0x1 ADD SWAP1 PUSH2 0x2D9F JUMP JUMPDEST POP PUSH2 0x2D19 SWAP3 SWAP2 POP PUSH2 0x2E27 JUMP JUMPDEST DUP3 DUP1 SLOAD DUP3 DUP3 SSTORE SWAP1 PUSH1 0x0 MSTORE PUSH1 0x20 PUSH1 0x0 KECCAK256 SWAP1 DUP2 ADD SWAP3 DUP3 ISZERO PUSH2 0x2D0D JUMPI SWAP2 PUSH1 0x20 MUL DUP3 ADD DUP3 DUP2 GT ISZERO PUSH2 0x2D0D JUMPI DUP3 MLOAD DUP3 SSTORE SWAP2 PUSH1 0x20 ADD SWAP2 SWAP1 PUSH1 0x1 ADD SWAP1 PUSH2 0x2CF2 JUMP JUMPDEST JUMPDEST DUP1 DUP3 GT ISZERO PUSH2 0x2D19 JUMPI PUSH1 0x0 DUP2 SSTORE PUSH1 0x1 ADD PUSH2 0x2E13 JUMP JUMPDEST DUP1 DUP3 GT ISZERO PUSH2 0x2D19 JUMPI PUSH1 0x0 PUSH2 0x2E3B DUP3 DUP3 PUSH2 0x2E44 JUMP JUMPDEST POP PUSH1 0x1 ADD PUSH2 0x2E27 JUMP JUMPDEST POP DUP1 SLOAD PUSH1 0x1 DUP2 PUSH1 0x1 AND ISZERO PUSH2 0x100 MUL SUB AND PUSH1 0x2 SWAP1 DIV PUSH1 0x0 DUP3 SSTORE DUP1 PUSH1 0x1F LT PUSH2 0x2E6A JUMPI POP PUSH2 0x15F5 JUMP JUMPDEST PUSH1 0x1F ADD PUSH1 0x20 SWAP1 DIV SWAP1 PUSH1 0x0 MSTORE PUSH1 0x20 PUSH1 0x0 KECCAK256 SWAP1 DUP2 ADD SWAP1 PUSH2 0x15F5 SWAP2 SWAP1 PUSH2 0x2E12 JUMP JUMPDEST DUP1 CALLDATALOAD PUSH1 0x1 PUSH1 0x1 PUSH1 0xA0 SHL SUB DUP2 AND DUP2 EQ PUSH2 0x862 JUMPI PUSH1 0x0 DUP1 REVERT JUMPDEST PUSH1 0x0 DUP3 PUSH1 0x1F DUP4 ADD SLT PUSH2 0x2EAF JUMPI DUP1 DUP2 REVERT JUMPDEST DUP2 CALLDATALOAD PUSH1 0x20 PUSH2 0x2EC4 PUSH2 0x2EBF DUP4 PUSH2 0x4236 JUMP JUMPDEST PUSH2 0x4213 JUMP JUMPDEST DUP3 DUP2 MSTORE DUP2 DUP2 ADD SWAP1 DUP6 DUP4 ADD DUP4 DUP6 MUL DUP8 ADD DUP5 ADD DUP9 LT ISZERO PUSH2 0x2EE0 JUMPI DUP6 DUP7 REVERT JUMPDEST DUP6 JUMPDEST DUP6 DUP2 LT ISZERO PUSH2 0x2F05 JUMPI PUSH2 0x2EF3 DUP3 PUSH2 0x2E88 JUMP JUMPDEST DUP5 MSTORE SWAP3 DUP5 ADD SWAP3 SWAP1 DUP5 ADD SWAP1 PUSH1 0x1 ADD PUSH2 0x2EE2 JUMP JUMPDEST POP SWAP1 SWAP8 SWAP7 POP POP POP POP POP POP POP JUMP JUMPDEST PUSH1 0x0 DUP3 PUSH1 0x1F DUP4 ADD SLT PUSH2 0x2F22 JUMPI DUP1 DUP2 REVERT JUMPDEST DUP2 CALLDATALOAD PUSH1 0x20 PUSH2 0x2F32 PUSH2 0x2EBF DUP4 PUSH2 0x4236 JUMP JUMPDEST DUP3 DUP2 MSTORE DUP2 DUP2 ADD SWAP1 DUP6 DUP4 ADD DUP4 DUP6 MUL DUP8 ADD DUP5 ADD DUP9 LT ISZERO PUSH2 0x2F4E JUMPI DUP6 DUP7 REVERT JUMPDEST DUP6 JUMPDEST DUP6 DUP2 LT ISZERO PUSH2 0x2F05 JUMPI DUP2 CALLDATALOAD DUP1 ISZERO ISZERO DUP2 EQ PUSH2 0x2F67 JUMPI DUP8 DUP9 REVERT JUMPDEST DUP5 MSTORE SWAP3 DUP5 ADD SWAP3 SWAP1 DUP5 ADD SWAP1 PUSH1 0x1 ADD PUSH2 0x2F50 JUMP JUMPDEST PUSH1 0x0 DUP3 PUSH1 0x1F DUP4 ADD SLT PUSH2 0x2F89 JUMPI DUP1 DUP2 REVERT JUMPDEST DUP2 CALLDATALOAD PUSH1 0x20 PUSH2 0x2F99 PUSH2 0x2EBF DUP4 PUSH2 0x4236 JUMP JUMPDEST DUP3 DUP2 MSTORE DUP2 DUP2 ADD SWAP1 DUP6 DUP4 ADD DUP4 DUP6 MUL DUP8 ADD DUP5 ADD DUP9 LT ISZERO PUSH2 0x2FB5 JUMPI DUP6 DUP7 REVERT JUMPDEST DUP6 JUMPDEST DUP6 DUP2 LT ISZERO PUSH2 0x2F05 JUMPI DUP2 CALLDATALOAD DUP5 MSTORE SWAP3 DUP5 ADD SWAP3 SWAP1 DUP5 ADD SWAP1 PUSH1 0x1 ADD PUSH2 0x2FB7 JUMP JUMPDEST PUSH1 0x0 DUP3 PUSH1 0x1F DUP4 ADD SLT PUSH2 0x2FE3 JUMPI DUP1 DUP2 REVERT JUMPDEST DUP2 CALLDATALOAD PUSH1 0x20 PUSH2 0x2FF3 PUSH2 0x2EBF DUP4 PUSH2 0x4236 JUMP JUMPDEST DUP3 DUP2 MSTORE DUP2 DUP2 ADD SWAP1 DUP6 DUP4 ADD DUP6 JUMPDEST DUP6 DUP2 LT ISZERO PUSH2 0x2F05 JUMPI PUSH2 0x3016 DUP10 DUP7 DUP5 CALLDATALOAD DUP12 ADD ADD PUSH2 0x3040 JUMP JUMPDEST DUP5 MSTORE SWAP3 DUP5 ADD SWAP3 SWAP1 DUP5 ADD SWAP1 PUSH1 0x1 ADD PUSH2 0x2FFF JUMP JUMPDEST DUP1 CALLDATALOAD PUSH1 0x1 PUSH1 0x1 PUSH1 0xE0 SHL SUB NOT DUP2 AND DUP2 EQ PUSH2 0x862 JUMPI PUSH1 0x0 DUP1 REVERT JUMPDEST PUSH1 0x0 DUP3 PUSH1 0x1F DUP4 ADD SLT PUSH2 0x3050 JUMPI DUP1 DUP2 REVERT JUMPDEST DUP2 CALLDATALOAD PUSH1 0x1 PUSH1 0x1 PUSH1 0x40 SHL SUB DUP2 GT ISZERO PUSH2 0x3063 JUMPI INVALID JUMPDEST PUSH2 0x3076 PUSH1 0x1F DUP3 ADD PUSH1 0x1F NOT AND PUSH1 0x20 ADD PUSH2 0x4213 JUMP JUMPDEST DUP2 DUP2 MSTORE DUP5 PUSH1 0x20 DUP4 DUP7 ADD ADD GT ISZERO PUSH2 0x308A JUMPI DUP3 DUP4 REVERT JUMPDEST DUP2 PUSH1 0x20 DUP6 ADD PUSH1 0x20 DUP4 ADD CALLDATACOPY SWAP1 DUP2 ADD PUSH1 0x20 ADD SWAP2 SWAP1 SWAP2 MSTORE SWAP3 SWAP2 POP POP JUMP JUMPDEST PUSH1 0x0 PUSH1 0x20 DUP3 DUP5 SUB SLT ISZERO PUSH2 0x30B5 JUMPI DUP1 DUP2 REVERT JUMPDEST PUSH2 0x248D DUP3 PUSH2 0x2E88 JUMP JUMPDEST PUSH1 0x0 DUP1 PUSH1 0x0 PUSH1 0x60 DUP5 DUP7 SUB SLT ISZERO PUSH2 0x30D2 JUMPI DUP2 DUP3 REVERT JUMPDEST PUSH2 0x30DB DUP5 PUSH2 0x2E88 JUMP JUMPDEST SWAP6 PUSH1 0x20 DUP6 ADD CALLDATALOAD SWAP6 POP PUSH1 0x40 SWAP1 SWAP5 ADD CALLDATALOAD SWAP4 SWAP3 POP POP POP JUMP JUMPDEST PUSH1 0x0 DUP1 PUSH1 0x40 DUP4 DUP6 SUB SLT ISZERO PUSH2 0x3102 JUMPI DUP2 DUP3 REVERT JUMPDEST PUSH2 0x310B DUP4 PUSH2 0x2E88 JUMP JUMPDEST SWAP2 POP PUSH2 0x3119 PUSH1 0x20 DUP5 ADD PUSH2 0x3028 JUMP JUMPDEST SWAP1 POP SWAP3 POP SWAP3 SWAP1 POP JUMP JUMPDEST PUSH1 0x0 DUP1 PUSH1 0x40 DUP4 DUP6 SUB SLT ISZERO PUSH2 0x3134 JUMPI DUP2 DUP3 REVERT JUMPDEST PUSH2 0x313D DUP4 PUSH2 0x2E88 JUMP JUMPDEST SWAP5 PUSH1 0x20 SWAP4 SWAP1 SWAP4 ADD CALLDATALOAD SWAP4 POP POP POP JUMP JUMPDEST PUSH1 0x0 DUP1 PUSH1 0x0 DUP1 PUSH1 0x0 DUP1 PUSH1 0x0 DUP1 PUSH1 0x0 PUSH2 0x120 DUP11 DUP13 SUB SLT ISZERO PUSH2 0x3169 JUMPI DUP7 DUP8 REVERT JUMPDEST PUSH2 0x3172 DUP11 PUSH2 0x2E88 JUMP JUMPDEST SWAP9 POP PUSH1 0x20 DUP11 ADD CALLDATALOAD SWAP8 POP PUSH1 0x40 DUP11 ADD CALLDATALOAD SWAP7 POP PUSH1 0x60 DUP11 ADD CALLDATALOAD SWAP6 POP PUSH1 0x80 DUP11 ADD CALLDATALOAD SWAP5 POP PUSH1 0xA0 DUP11 ADD CALLDATALOAD PUSH1 0x1 PUSH1 0x1 PUSH1 0x40 SHL SUB DUP2 GT ISZERO PUSH2 0x31A8 JUMPI DUP5 DUP6 REVERT JUMPDEST PUSH2 0x31B4 DUP13 DUP3 DUP14 ADD PUSH2 0x3040 JUMP JUMPDEST SWAP5 POP POP PUSH1 0xC0 DUP11 ADD CALLDATALOAD SWAP3 POP PUSH1 0xE0 DUP11 ADD CALLDATALOAD SWAP2 POP PUSH2 0x100 DUP11 ADD CALLDATALOAD SWAP1 POP SWAP3 SWAP6 SWAP9 POP SWAP3 SWAP6 SWAP9 POP SWAP3 SWAP6 SWAP9 JUMP JUMPDEST PUSH1 0x0 PUSH1 0x20 DUP3 DUP5 SUB SLT ISZERO PUSH2 0x31EB JUMPI DUP1 DUP2 REVERT JUMPDEST DUP2 CALLDATALOAD PUSH1 0x1 PUSH1 0x1 PUSH1 0x40 SHL SUB DUP2 GT ISZERO PUSH2 0x3200 JUMPI DUP2 DUP3 REVERT JUMPDEST PUSH2 0x320C DUP5 DUP3 DUP6 ADD PUSH2 0x2E9F JUMP JUMPDEST SWAP5 SWAP4 POP POP POP POP JUMP JUMPDEST PUSH1 0x0 DUP1 PUSH1 0x0 PUSH1 0x60 DUP5 DUP7 SUB SLT ISZERO PUSH2 0x3228 JUMPI DUP1 DUP2 REVERT JUMPDEST DUP4 CALLDATALOAD PUSH1 0x1 PUSH1 0x1 PUSH1 0x40 SHL SUB DUP1 DUP3 GT ISZERO PUSH2 0x323E JUMPI DUP3 DUP4 REVERT JUMPDEST PUSH2 0x324A DUP8 DUP4 DUP9 ADD PUSH2 0x2E9F JUMP JUMPDEST SWAP5 POP PUSH1 0x20 SWAP2 POP DUP2 DUP7 ADD CALLDATALOAD DUP2 DUP2 GT ISZERO PUSH2 0x3260 JUMPI DUP4 DUP5 REVERT JUMPDEST DUP7 ADD PUSH1 0x1F DUP2 ADD DUP9 SGT PUSH2 0x3270 JUMPI DUP4 DUP5 REVERT JUMPDEST DUP1 CALLDATALOAD PUSH2 0x327E PUSH2 0x2EBF DUP3 PUSH2 0x4236 JUMP JUMPDEST DUP2 DUP2 MSTORE DUP5 DUP2 ADD SWAP1 DUP4 DUP7 ADD DUP7 DUP5 MUL DUP6 ADD DUP8 ADD DUP13 LT ISZERO PUSH2 0x329A JUMPI DUP8 DUP9 REVERT JUMPDEST DUP8 SWAP5 POP JUMPDEST DUP4 DUP6 LT ISZERO PUSH2 0x32C3 JUMPI PUSH2 0x32AF DUP2 PUSH2 0x3028 JUMP JUMPDEST DUP4 MSTORE PUSH1 0x1 SWAP5 SWAP1 SWAP5 ADD SWAP4 SWAP2 DUP7 ADD SWAP2 DUP7 ADD PUSH2 0x329E JUMP JUMPDEST POP SWAP7 POP POP POP POP PUSH1 0x40 DUP7 ADD CALLDATALOAD SWAP2 POP DUP1 DUP3 GT ISZERO PUSH2 0x32DC JUMPI DUP3 DUP4 REVERT JUMPDEST POP PUSH2 0x32E9 DUP7 DUP3 DUP8 ADD PUSH2 0x2F12 JUMP JUMPDEST SWAP2 POP POP SWAP3 POP SWAP3 POP SWAP3 JUMP JUMPDEST PUSH1 0x0 DUP1 PUSH1 0x0 DUP1 PUSH1 0x0 PUSH1 0xA0 DUP7 DUP9 SUB SLT ISZERO PUSH2 0x330A JUMPI DUP3 DUP4 REVERT JUMPDEST DUP6 CALLDATALOAD PUSH1 0x1 PUSH1 0x1 PUSH1 0x40 SHL SUB DUP1 DUP3 GT ISZERO PUSH2 0x3320 JUMPI DUP5 DUP6 REVERT JUMPDEST PUSH2 0x332C DUP10 DUP4 DUP11 ADD PUSH2 0x2E9F JUMP JUMPDEST SWAP7 POP PUSH1 0x20 DUP9 ADD CALLDATALOAD SWAP2 POP DUP1 DUP3 GT ISZERO PUSH2 0x3341 JUMPI DUP5 DUP6 REVERT JUMPDEST PUSH2 0x334D DUP10 DUP4 DUP11 ADD PUSH2 0x2FD3 JUMP JUMPDEST SWAP6 POP PUSH1 0x40 DUP9 ADD CALLDATALOAD SWAP2 POP DUP1 DUP3 GT ISZERO PUSH2 0x3362 JUMPI DUP5 DUP6 REVERT JUMPDEST PUSH2 0x336E DUP10 DUP4 DUP11 ADD PUSH2 0x2F79 JUMP JUMPDEST SWAP5 POP PUSH1 0x60 DUP9 ADD CALLDATALOAD SWAP2 POP DUP1 DUP3 GT ISZERO PUSH2 0x3383 JUMPI DUP3 DUP4 REVERT JUMPDEST PUSH2 0x338F DUP10 DUP4 DUP11 ADD PUSH2 0x2FD3 JUMP JUMPDEST SWAP4 POP PUSH1 0x80 DUP9 ADD CALLDATALOAD SWAP2 POP DUP1 DUP3 GT ISZERO PUSH2 0x33A4 JUMPI DUP3 DUP4 REVERT JUMPDEST POP PUSH2 0x33B1 DUP9 DUP3 DUP10 ADD PUSH2 0x2FD3 JUMP JUMPDEST SWAP2 POP POP SWAP3 SWAP6 POP SWAP3 SWAP6 SWAP1 SWAP4 POP JUMP JUMPDEST PUSH1 0x0 DUP1 PUSH1 0x0 DUP1 PUSH1 0x0 PUSH1 0xA0 DUP7 DUP9 SUB SLT ISZERO PUSH2 0x33D5 JUMPI DUP3 DUP4 REVERT JUMPDEST DUP6 CALLDATALOAD PUSH1 0x1 PUSH1 0x1 PUSH1 0x40 SHL SUB DUP1 DUP3 GT ISZERO PUSH2 0x33EB JUMPI DUP5 DUP6 REVERT JUMPDEST PUSH2 0x33F7 DUP10 DUP4 DUP11 ADD PUSH2 0x2E9F JUMP JUMPDEST SWAP7 POP PUSH1 0x20 DUP9 ADD CALLDATALOAD SWAP2 POP DUP1 DUP3 GT ISZERO PUSH2 0x340C JUMPI DUP5 DUP6 REVERT JUMPDEST PUSH2 0x3418 DUP10 DUP4 DUP11 ADD PUSH2 0x2FD3 JUMP JUMPDEST SWAP6 POP PUSH1 0x40 DUP9 ADD CALLDATALOAD SWAP2 POP DUP1 DUP3 GT ISZERO PUSH2 0x342D JUMPI DUP5 DUP6 REVERT JUMPDEST PUSH2 0x3439 DUP10 DUP4 DUP11 ADD PUSH2 0x2F79 JUMP JUMPDEST SWAP5 POP PUSH1 0x60 DUP9 ADD CALLDATALOAD SWAP2 POP DUP1 DUP3 GT ISZERO PUSH2 0x344E JUMPI DUP3 DUP4 REVERT JUMPDEST PUSH2 0x345A DUP10 DUP4 DUP11 ADD PUSH2 0x3040 JUMP JUMPDEST SWAP4 POP PUSH1 0x80 DUP9 ADD CALLDATALOAD SWAP2 POP DUP1 DUP3 GT ISZERO PUSH2 0x346F JUMPI DUP3 DUP4 REVERT JUMPDEST POP PUSH2 0x33B1 DUP9 DUP3 DUP10 ADD PUSH2 0x3040 JUMP JUMPDEST PUSH1 0x0 DUP1 PUSH1 0x40 DUP4 DUP6 SUB SLT ISZERO PUSH2 0x348E JUMPI DUP2 DUP3 REVERT JUMPDEST DUP3 CALLDATALOAD PUSH1 0x1 PUSH1 0x1 PUSH1 0x40 SHL SUB DUP1 DUP3 GT ISZERO PUSH2 0x34A4 JUMPI DUP4 DUP5 REVERT JUMPDEST PUSH2 0x34B0 DUP7 DUP4 DUP8 ADD PUSH2 0x2E9F JUMP JUMPDEST SWAP4 POP PUSH1 0x20 DUP6 ADD CALLDATALOAD SWAP2 POP DUP1 DUP3 GT ISZERO PUSH2 0x34C5 JUMPI DUP3 DUP4 REVERT JUMPDEST POP PUSH2 0x34D2 DUP6 DUP3 DUP7 ADD PUSH2 0x2F79 JUMP JUMPDEST SWAP2 POP POP SWAP3 POP SWAP3 SWAP1 POP JUMP JUMPDEST PUSH1 0x0 DUP1 PUSH1 0x40 DUP4 DUP6 SUB SLT ISZERO PUSH2 0x34EE JUMPI DUP2 DUP3 REVERT JUMPDEST DUP3 CALLDATALOAD PUSH1 0x1 PUSH1 0x1 PUSH1 0x40 SHL SUB DUP1 DUP3 GT ISZERO PUSH2 0x3504 JUMPI DUP4 DUP5 REVERT JUMPDEST PUSH2 0x34B0 DUP7 DUP4 DUP8 ADD PUSH2 0x2F79 JUMP JUMPDEST PUSH1 0x0 DUP1 PUSH1 0x0 DUP1 PUSH1 0x80 DUP6 DUP8 SUB SLT ISZERO PUSH2 0x3525 JUMPI DUP2 DUP3 REVERT JUMPDEST DUP5 CALLDATALOAD PUSH1 0x1 PUSH1 0x1 PUSH1 0x40 SHL SUB DUP1 DUP3 GT ISZERO PUSH2 0x353B JUMPI DUP4 DUP5 REVERT JUMPDEST PUSH2 0x3547 DUP9 DUP4 DUP10 ADD PUSH2 0x2F79 JUMP JUMPDEST SWAP6 POP PUSH1 0x20 DUP8 ADD CALLDATALOAD SWAP2 POP DUP1 DUP3 GT ISZERO PUSH2 0x355C JUMPI DUP4 DUP5 REVERT JUMPDEST PUSH2 0x3568 DUP9 DUP4 DUP10 ADD PUSH2 0x2F79 JUMP JUMPDEST SWAP5 POP PUSH1 0x40 DUP8 ADD CALLDATALOAD SWAP2 POP DUP1 DUP3 GT ISZERO PUSH2 0x357D JUMPI DUP4 DUP5 REVERT JUMPDEST PUSH2 0x3589 DUP9 DUP4 DUP10 ADD PUSH2 0x2E9F JUMP JUMPDEST SWAP4 POP PUSH1 0x60 DUP8 ADD CALLDATALOAD SWAP2 POP DUP1 DUP3 GT ISZERO PUSH2 0x359E JUMPI DUP3 DUP4 REVERT JUMPDEST POP PUSH2 0x35AB DUP8 DUP3 DUP9 ADD PUSH2 0x2FD3 JUMP JUMPDEST SWAP2 POP POP SWAP3 SWAP6 SWAP2 SWAP5 POP SWAP3 POP JUMP JUMPDEST PUSH1 0x0 PUSH1 0x20 DUP3 DUP5 SUB SLT ISZERO PUSH2 0x35C8 JUMPI DUP1 DUP2 REVERT JUMPDEST POP CALLDATALOAD SWAP2 SWAP1 POP JUMP JUMPDEST PUSH1 0x0 DUP1 PUSH1 0x40 DUP4 DUP6 SUB SLT ISZERO PUSH2 0x35E1 JUMPI DUP2 DUP3 REVERT JUMPDEST DUP3 CALLDATALOAD SWAP2 POP PUSH2 0x3119 PUSH1 0x20 DUP5 ADD PUSH2 0x2E88 JUMP JUMPDEST PUSH1 0x0 DUP1 PUSH1 0x40 DUP4 DUP6 SUB SLT ISZERO PUSH2 0x3603 JUMPI DUP2 DUP3 REVERT JUMPDEST POP POP DUP1 CALLDATALOAD SWAP3 PUSH1 0x20 SWAP1 SWAP2 ADD CALLDATALOAD SWAP2 POP JUMP JUMPDEST PUSH1 0x0 DUP1 PUSH1 0x0 DUP1 PUSH1 0x80 DUP6 DUP8 SUB SLT ISZERO PUSH2 0x3627 JUMPI DUP2 DUP3 REVERT JUMPDEST DUP5 CALLDATALOAD SWAP4 POP PUSH1 0x20 DUP6 ADD CALLDATALOAD SWAP3 POP PUSH2 0x363E PUSH1 0x40 DUP7 ADD PUSH2 0x2E88 JUMP JUMPDEST SWAP2 POP PUSH1 0x60 DUP6 ADD CALLDATALOAD PUSH1 0x1 PUSH1 0x1 PUSH1 0x40 SHL SUB DUP2 GT ISZERO PUSH2 0x3658 JUMPI DUP2 DUP3 REVERT JUMPDEST PUSH2 0x35AB DUP8 DUP3 DUP9 ADD PUSH2 0x3040 JUMP JUMPDEST PUSH1 0x0 PUSH1 0x20 DUP3 DUP5 SUB SLT ISZERO PUSH2 0x3675 JUMPI DUP1 DUP2 REVERT JUMPDEST DUP2 CALLDATALOAD PUSH1 0x1 PUSH1 0x1 PUSH1 0x40 SHL SUB DUP2 GT ISZERO PUSH2 0x368A JUMPI DUP2 DUP3 REVERT JUMPDEST PUSH2 0x320C DUP5 DUP3 DUP6 ADD PUSH2 0x3040 JUMP JUMPDEST PUSH1 0x0 DUP1 PUSH1 0x0 DUP1 PUSH1 0x0 DUP1 PUSH1 0x0 PUSH1 0xE0 DUP9 DUP11 SUB SLT ISZERO PUSH2 0x36B0 JUMPI DUP1 DUP2 REVERT JUMPDEST POP POP DUP6 CALLDATALOAD SWAP8 PUSH1 0x20 DUP8 ADD CALLDATALOAD SWAP8 POP PUSH1 0x40 DUP8 ADD CALLDATALOAD SWAP7 PUSH1 0x60 DUP2 ADD CALLDATALOAD SWAP7 POP PUSH1 0x80 DUP2 ADD CALLDATALOAD SWAP6 POP PUSH1 0xA0 DUP2 ADD CALLDATALOAD SWAP5 POP PUSH1 0xC0 ADD CALLDATALOAD SWAP3 POP SWAP1 POP JUMP JUMPDEST PUSH1 0x0 DUP2 MLOAD DUP1 DUP5 MSTORE PUSH1 0x20 DUP1 DUP6 ADD DUP1 DUP2 SWAP7 POP DUP3 DUP5 MUL DUP2 ADD SWAP2 POP DUP3 DUP7 ADD DUP6 JUMPDEST DUP6 DUP2 LT ISZERO PUSH2 0x3727 JUMPI DUP3 DUP5 SUB DUP10 MSTORE PUSH2 0x3715 DUP5 DUP4 MLOAD PUSH2 0x376E JUMP JUMPDEST SWAP9 DUP6 ADD SWAP9 SWAP4 POP SWAP1 DUP5 ADD SWAP1 PUSH1 0x1 ADD PUSH2 0x36FD JUMP JUMPDEST POP SWAP2 SWAP8 SWAP7 POP POP POP POP POP POP POP JUMP JUMPDEST PUSH1 0x0 DUP2 MLOAD DUP1 DUP5 MSTORE PUSH1 0x20 DUP1 DUP6 ADD SWAP5 POP DUP1 DUP5 ADD DUP4 JUMPDEST DUP4 DUP2 LT ISZERO PUSH2 0x3763 JUMPI DUP2 MLOAD DUP8 MSTORE SWAP6 DUP3 ADD SWAP6 SWAP1 DUP3 ADD SWAP1 PUSH1 0x1 ADD PUSH2 0x3747 JUMP JUMPDEST POP SWAP5 SWAP6 SWAP5 POP POP POP POP POP JUMP JUMPDEST PUSH1 0x0 DUP2 MLOAD DUP1 DUP5 MSTORE DUP2 JUMPDEST DUP2 DUP2 LT ISZERO PUSH2 0x3793 JUMPI PUSH1 0x20 DUP2 DUP6 ADD DUP2 ADD MLOAD DUP7 DUP4 ADD DUP3 ADD MSTORE ADD PUSH2 0x3777 JUMP JUMPDEST DUP2 DUP2 GT ISZERO PUSH2 0x37A4 JUMPI DUP3 PUSH1 0x20 DUP4 DUP8 ADD ADD MSTORE JUMPDEST POP PUSH1 0x1F ADD PUSH1 0x1F NOT AND SWAP3 SWAP1 SWAP3 ADD PUSH1 0x20 ADD SWAP3 SWAP2 POP POP JUMP JUMPDEST PUSH1 0x5 DUP2 LT PUSH2 0x37C3 JUMPI INVALID JUMPDEST SWAP1 MSTORE JUMP JUMPDEST PUSH1 0x60 SWAP4 SWAP1 SWAP4 SHL PUSH12 0xFFFFFFFFFFFFFFFFFFFFFFFF NOT AND DUP4 MSTORE PUSH1 0x14 DUP4 ADD SWAP2 SWAP1 SWAP2 MSTORE PUSH1 0x34 DUP3 ADD MSTORE PUSH1 0x54 ADD SWAP1 JUMP JUMPDEST PUSH1 0x0 DUP1 DUP4 SLOAD PUSH1 0x1 DUP1 DUP3 AND PUSH1 0x0 DUP2 EQ PUSH2 0x3810 JUMPI PUSH1 0x1 DUP2 EQ PUSH2 0x3827 JUMPI PUSH2 0x3856 JUMP JUMPDEST PUSH1 0xFF NOT DUP4 AND DUP7 MSTORE PUSH1 0x2 DUP4 DIV PUSH1 0x7F AND DUP7 ADD SWAP4 POP PUSH2 0x3856 JUMP JUMPDEST PUSH1 0x2 DUP4 DIV DUP8 DUP7 MSTORE PUSH1 0x20 DUP1 DUP8 KECCAK256 DUP8 JUMPDEST DUP4 DUP2 LT ISZERO PUSH2 0x384E JUMPI DUP2 SLOAD DUP11 DUP3 ADD MSTORE SWAP1 DUP6 ADD SWAP1 DUP3 ADD PUSH2 0x3835 JUMP JUMPDEST POP POP POP DUP7 ADD SWAP4 POP JUMPDEST POP SWAP2 SWAP6 SWAP5 POP POP POP POP POP JUMP JUMPDEST PUSH1 0x1 PUSH1 0x1 PUSH1 0xA0 SHL SUB SWAP3 SWAP1 SWAP3 AND DUP3 MSTORE PUSH1 0x20 DUP3 ADD MSTORE PUSH1 0x40 ADD SWAP1 JUMP JUMPDEST PUSH1 0x1 PUSH1 0x1 PUSH1 0xA0 SHL SUB SWAP3 DUP4 AND DUP2 MSTORE SWAP2 AND PUSH1 0x20 DUP3 ADD MSTORE PUSH1 0x40 ADD SWAP1 JUMP JUMPDEST PUSH1 0x0 PUSH2 0x160 DUP3 ADD PUSH1 0x1 DUP1 PUSH1 0xA0 SHL SUB DUP1 DUP16 AND DUP5 MSTORE DUP14 PUSH1 0x20 DUP6 ADD MSTORE DUP13 PUSH1 0x40 DUP6 ADD MSTORE PUSH2 0x160 PUSH1 0x60 DUP6 ADD MSTORE DUP2 DUP13 MLOAD DUP1 DUP5 MSTORE PUSH2 0x180 DUP7 ADD SWAP2 POP PUSH1 0x20 DUP15 ADD SWAP4 POP DUP5 JUMPDEST DUP2 DUP2 LT ISZERO PUSH2 0x38F0 JUMPI DUP5 MLOAD DUP5 AND DUP4 MSTORE PUSH1 0x20 SWAP5 DUP6 ADD SWAP5 SWAP1 SWAP3 ADD SWAP2 PUSH1 0x1 ADD PUSH2 0x38D0 JUMP JUMPDEST POP POP DUP5 DUP2 SUB PUSH1 0x80 DUP7 ADD MSTORE PUSH2 0x3904 DUP2 DUP14 PUSH2 0x36E1 JUMP JUMPDEST SWAP3 POP POP POP DUP3 DUP2 SUB PUSH1 0xA0 DUP5 ADD MSTORE PUSH2 0x391A DUP2 DUP11 PUSH2 0x3734 JUMP JUMPDEST SWAP1 POP DUP3 DUP2 SUB PUSH1 0xC0 DUP5 ADD MSTORE PUSH2 0x392E DUP2 DUP10 PUSH2 0x376E JUMP JUMPDEST SWAP1 POP DUP3 DUP2 SUB PUSH1 0xE0 DUP5 ADD MSTORE PUSH2 0x3942 DUP2 DUP9 PUSH2 0x376E JUMP JUMPDEST SWAP2 POP POP DUP5 PUSH2 0x100 DUP4 ADD MSTORE PUSH2 0x395A PUSH2 0x120 DUP4 ADD DUP6 PUSH2 0x37B9 JUMP JUMPDEST DUP3 PUSH2 0x140 DUP4 ADD MSTORE SWAP13 SWAP12 POP POP POP POP POP POP POP POP POP POP POP POP JUMP JUMPDEST PUSH1 0x0 PUSH2 0x100 PUSH1 0x1 DUP1 PUSH1 0xA0 SHL SUB DUP12 AND DUP4 MSTORE DUP10 PUSH1 0x20 DUP5 ADD MSTORE DUP9 PUSH1 0x40 DUP5 ADD MSTORE DUP1 PUSH1 0x60 DUP5 ADD MSTORE PUSH2 0x399F DUP2 DUP5 ADD DUP10 PUSH2 0x376E JUMP JUMPDEST SWAP1 POP DUP3 DUP2 SUB PUSH1 0x80 DUP5 ADD MSTORE PUSH2 0x39B3 DUP2 DUP9 PUSH2 0x376E JUMP JUMPDEST SWAP2 POP POP DUP5 PUSH1 0xA0 DUP4 ADD MSTORE PUSH2 0x39C9 PUSH1 0xC0 DUP4 ADD DUP6 PUSH2 0x37B9 JUMP JUMPDEST DUP3 PUSH1 0xE0 DUP4 ADD MSTORE SWAP10 SWAP9 POP POP POP POP POP POP POP POP POP JUMP JUMPDEST PUSH1 0x20 DUP1 DUP3 MSTORE DUP3 MLOAD DUP3 DUP3 ADD DUP2 SWAP1 MSTORE PUSH1 0x0 SWAP2 SWAP1 DUP5 DUP3 ADD SWAP1 PUSH1 0x40 DUP6 ADD SWAP1 DUP5 JUMPDEST DUP2 DUP2 LT ISZERO PUSH2 0x3A14 JUMPI DUP4 MLOAD DUP4 MSTORE SWAP3 DUP5 ADD SWAP3 SWAP2 DUP5 ADD SWAP2 PUSH1 0x1 ADD PUSH2 0x39F8 JUMP JUMPDEST POP SWAP1 SWAP7 SWAP6 POP POP POP POP POP POP JUMP JUMPDEST PUSH1 0x0 PUSH1 0x20 DUP3 MSTORE PUSH2 0x248D PUSH1 0x20 DUP4 ADD DUP5 PUSH2 0x3734 JUMP JUMPDEST SWAP1 ISZERO ISZERO DUP2 MSTORE PUSH1 0x20 ADD SWAP1 JUMP JUMPDEST SWAP1 DUP2 MSTORE PUSH1 0x20 ADD SWAP1 JUMP JUMPDEST PUSH1 0x1 PUSH1 0x1 PUSH1 0xE0 SHL SUB NOT SWAP2 SWAP1 SWAP2 AND DUP2 MSTORE PUSH1 0x20 ADD SWAP1 JUMP JUMPDEST PUSH1 0x1 PUSH1 0x1 PUSH1 0xE0 SHL SUB NOT SWAP3 SWAP1 SWAP3 AND DUP3 MSTORE ISZERO ISZERO PUSH1 0x20 DUP3 ADD MSTORE PUSH1 0x40 ADD SWAP1 JUMP JUMPDEST PUSH1 0x1 PUSH1 0x1 PUSH1 0xA0 SHL SUB SWAP2 SWAP1 SWAP2 AND DUP2 MSTORE PUSH1 0x20 ADD SWAP1 JUMP JUMPDEST PUSH1 0x0 PUSH1 0x20 DUP3 MSTORE PUSH2 0x248D PUSH1 0x20 DUP4 ADD DUP5 PUSH2 0x376E JUMP JUMPDEST PUSH1 0x20 DUP1 DUP3 MSTORE PUSH1 0x1A SWAP1 DUP3 ADD MSTORE PUSH32 0x45524332304775696C643A204E6F7420696E6974696C697A6564000000000000 PUSH1 0x40 DUP3 ADD MSTORE PUSH1 0x60 ADD SWAP1 JUMP JUMPDEST PUSH1 0x20 DUP1 DUP3 MSTORE PUSH1 0x45 SWAP1 DUP3 ADD MSTORE PUSH32 0x45524332304775696C643A2057726F6E67206C656E677468206F6620746F2C20 PUSH1 0x40 DUP3 ADD MSTORE PUSH32 0x66756E6374696F6E5369676E6174757265206F7220616C6C6F77616E63652061 PUSH1 0x60 DUP3 ADD MSTORE PUSH5 0x7272617973 PUSH1 0xD8 SHL PUSH1 0x80 DUP3 ADD MSTORE PUSH1 0xA0 ADD SWAP1 JUMP JUMPDEST PUSH1 0x20 DUP1 DUP3 MSTORE DUP2 DUP2 ADD MSTORE PUSH32 0x45524332304775696C643A2050726F706F73616C2063616C6C206661696C6564 PUSH1 0x40 DUP3 ADD MSTORE PUSH1 0x60 ADD SWAP1 JUMP JUMPDEST PUSH1 0x20 DUP1 DUP3 MSTORE PUSH1 0x1A SWAP1 DUP3 ADD MSTORE PUSH32 0x45524332304775696C643A206E6F6E6578697374656E74206964000000000000 PUSH1 0x40 DUP3 ADD MSTORE PUSH1 0x60 ADD SWAP1 JUMP JUMPDEST PUSH1 0x20 DUP1 DUP3 MSTORE PUSH1 0x25 SWAP1 DUP3 ADD MSTORE PUSH32 0x45524332304775696C643A20746F6B656E20697320746865207A65726F206164 PUSH1 0x40 DUP3 ADD MSTORE PUSH5 0x6472657373 PUSH1 0xD8 SHL PUSH1 0x60 DUP3 ADD MSTORE PUSH1 0x80 ADD SWAP1 JUMP JUMPDEST PUSH1 0x20 DUP1 DUP3 MSTORE PUSH1 0x3D SWAP1 DUP3 ADD MSTORE PUSH32 0x45524332304775696C643A2057726F6E67206C656E677468206F662064657363 PUSH1 0x40 DUP3 ADD MSTORE PUSH32 0x72697074696F6E206F7220636F6E74656E744861736820617272617973000000 PUSH1 0x60 DUP3 ADD MSTORE PUSH1 0x80 ADD SWAP1 JUMP JUMPDEST PUSH1 0x20 DUP1 DUP3 MSTORE PUSH1 0x3B SWAP1 DUP3 ADD MSTORE PUSH32 0x45524332304775696C643A20736574436F6E6669672066756E6374696F6E2061 PUSH1 0x40 DUP3 ADD MSTORE PUSH32 0x6C6C6F77616E63652063616E74206265207475726E6564206F66660000000000 PUSH1 0x60 DUP3 ADD MSTORE PUSH1 0x80 ADD SWAP1 JUMP JUMPDEST PUSH1 0x20 DUP1 DUP3 MSTORE PUSH1 0x32 SWAP1 DUP3 ADD MSTORE PUSH32 0x45524332304775696C643A2057726F6E67206C656E677468206F662070726F70 PUSH1 0x40 DUP3 ADD MSTORE PUSH18 0x6F73616C496473206F7220616D6F756E7473 PUSH1 0x70 SHL PUSH1 0x60 DUP3 ADD MSTORE PUSH1 0x80 ADD SWAP1 JUMP JUMPDEST PUSH1 0x20 DUP1 DUP3 MSTORE PUSH1 0x1F SWAP1 DUP3 ADD MSTORE PUSH32 0x45524332304775696C643A20546F6B656E73207374696C6C206C6F636B656400 PUSH1 0x40 DUP3 ADD MSTORE PUSH1 0x60 ADD SWAP1 JUMP JUMPDEST PUSH1 0x20 DUP1 DUP3 MSTORE PUSH1 0x35 SWAP1 DUP3 ADD MSTORE PUSH32 0x45524332304775696C643A20766F74657320666F7220657865637574696F6E20 PUSH1 0x40 DUP3 ADD MSTORE PUSH21 0x68617320746F206265206D6F7265207468616E203 PUSH1 0x5C SHL PUSH1 0x60 DUP3 ADD MSTORE PUSH1 0x80 ADD SWAP1 JUMP JUMPDEST PUSH1 0x20 DUP1 DUP3 MSTORE PUSH1 0x25 SWAP1 DUP3 ADD MSTORE PUSH32 0x45524332304775696C643A2050726F706F73616C20616C726561647920657865 PUSH1 0x40 DUP3 ADD MSTORE PUSH5 0x18DD5D1959 PUSH1 0xDA SHL PUSH1 0x60 DUP3 ADD MSTORE PUSH1 0x80 ADD SWAP1 JUMP JUMPDEST PUSH1 0x20 DUP1 DUP3 MSTORE PUSH1 0x2F SWAP1 DUP3 ADD MSTORE PUSH32 0x45524332304775696C643A206C6F636B54696D652073686F756C642062652068 PUSH1 0x40 DUP3 ADD MSTORE PUSH15 0x6967686572207468616E207A65726F PUSH1 0x88 SHL PUSH1 0x60 DUP3 ADD MSTORE PUSH1 0x80 ADD SWAP1 JUMP JUMPDEST PUSH1 0x20 DUP1 DUP3 MSTORE PUSH1 0x30 SWAP1 DUP3 ADD MSTORE PUSH32 0x45524332304775696C643A204E6F7420656E6F75676820746F6B656E7320746F PUSH1 0x40 DUP3 ADD MSTORE PUSH16 0x818DC99585D19481C1C9BDC1BDCD85B PUSH1 0x82 SHL PUSH1 0x60 DUP3 ADD MSTORE PUSH1 0x80 ADD SWAP1 JUMP JUMPDEST PUSH1 0x20 DUP1 DUP3 MSTORE PUSH1 0x13 SWAP1 DUP3 ADD MSTORE PUSH19 0x45524332304775696C643A206964206973203 PUSH1 0x6C SHL PUSH1 0x40 DUP3 ADD MSTORE PUSH1 0x60 ADD SWAP1 JUMP JUMPDEST PUSH1 0x20 DUP1 DUP3 MSTORE PUSH1 0x35 SWAP1 DUP3 ADD MSTORE PUSH32 0x45524332304775696C643A20556E61626C6520746F2072656C65617365206D6F PUSH1 0x40 DUP3 ADD MSTORE PUSH21 0x1C99481D1BDAD95B9CC81D1A185B881B1BD8DAD959 PUSH1 0x5A SHL PUSH1 0x60 DUP3 ADD MSTORE PUSH1 0x80 ADD SWAP1 JUMP JUMPDEST PUSH1 0x20 DUP1 DUP3 MSTORE PUSH1 0x1A SWAP1 DUP3 ADD MSTORE PUSH32 0x45524332304775696C643A20496E76616C696420616D6F756E74000000000000 PUSH1 0x40 DUP3 ADD MSTORE PUSH1 0x60 ADD SWAP1 JUMP JUMPDEST PUSH1 0x20 DUP1 DUP3 MSTORE PUSH1 0x31 SWAP1 DUP3 ADD MSTORE PUSH32 0x45524332304775696C643A20746F2C20646174612076616C7565206172726179 PUSH1 0x40 DUP3 ADD MSTORE PUSH17 0x732063616E6E6F7420626520656D707479 PUSH1 0x78 SHL PUSH1 0x60 DUP3 ADD MSTORE PUSH1 0x80 ADD SWAP1 JUMP JUMPDEST PUSH1 0x20 DUP1 DUP3 MSTORE PUSH1 0x2E SWAP1 DUP3 ADD MSTORE PUSH32 0x45524332304775696C643A204F6E6C792063616C6C61626C6520627920455243 PUSH1 0x40 DUP3 ADD MSTORE PUSH14 0x191833BAB4B6321034BA39B2B633 PUSH1 0x91 SHL PUSH1 0x60 DUP3 ADD MSTORE PUSH1 0x80 ADD SWAP1 JUMP JUMPDEST PUSH1 0x20 DUP1 DUP3 MSTORE PUSH1 0x28 SWAP1 DUP3 ADD MSTORE PUSH32 0x45524332304775696C643A20456D70747920736967616E7475726573206E6F74 PUSH1 0x40 DUP3 ADD MSTORE PUSH8 0x8185B1B1BDDD959 PUSH1 0xC2 SHL PUSH1 0x60 DUP3 ADD MSTORE PUSH1 0x80 ADD SWAP1 JUMP JUMPDEST PUSH1 0x20 DUP1 DUP3 MSTORE PUSH1 0x3F SWAP1 DUP3 ADD MSTORE PUSH32 0x45524332304775696C643A204F6E6C792063616C6C61626C6520627920455243 PUSH1 0x40 DUP3 ADD MSTORE PUSH32 0x32306775696C6420697473656C66207768656E20696E697469616C697A656400 PUSH1 0x60 DUP3 ADD MSTORE PUSH1 0x80 ADD SWAP1 JUMP JUMPDEST PUSH1 0x20 DUP1 DUP3 MSTORE PUSH1 0x3E SWAP1 DUP3 ADD MSTORE PUSH32 0x45524332304775696C643A20736574416C6C6F77616E63652066756E6374696F PUSH1 0x40 DUP3 ADD MSTORE PUSH32 0x6E20616C6C6F77616E63652063616E74206265207475726E6564206F66660000 PUSH1 0x60 DUP3 ADD MSTORE PUSH1 0x80 ADD SWAP1 JUMP JUMPDEST PUSH1 0x20 DUP1 DUP3 MSTORE PUSH1 0x34 SWAP1 DUP3 ADD MSTORE PUSH32 0x45524332304775696C643A2057726F6E67206C656E677468206F6620746F2C20 PUSH1 0x40 DUP3 ADD MSTORE PUSH20 0x64617461206F722076616C756520617272617973 PUSH1 0x60 SHL PUSH1 0x60 DUP3 ADD MSTORE PUSH1 0x80 ADD SWAP1 JUMP JUMPDEST PUSH1 0x20 DUP1 DUP3 MSTORE PUSH1 0x1C SWAP1 DUP3 ADD MSTORE PUSH32 0x45524332304775696C643A204E6F7420616C6C6F7765642063616C6C00000000 PUSH1 0x40 DUP3 ADD MSTORE PUSH1 0x60 ADD SWAP1 JUMP JUMPDEST PUSH1 0x20 DUP1 DUP3 MSTORE PUSH1 0x19 SWAP1 DUP3 ADD MSTORE PUSH32 0x45524332304775696C643A20416C726561647920766F74656400000000000000 PUSH1 0x40 DUP3 ADD MSTORE PUSH1 0x60 ADD SWAP1 JUMP JUMPDEST PUSH1 0x20 DUP1 DUP3 MSTORE PUSH1 0x18 SWAP1 DUP3 ADD MSTORE PUSH32 0x45524332304775696C643A2057726F6E67207369676E65720000000000000000 PUSH1 0x40 DUP3 ADD MSTORE PUSH1 0x60 ADD SWAP1 JUMP JUMPDEST PUSH1 0x20 DUP1 DUP3 MSTORE PUSH1 0x24 SWAP1 DUP3 ADD MSTORE PUSH32 0x45524332304775696C643A2050726F706F73616C206861736E7420656E646564 PUSH1 0x40 DUP3 ADD MSTORE PUSH4 0x81E595D PUSH1 0xE2 SHL PUSH1 0x60 DUP3 ADD MSTORE PUSH1 0x80 ADD SWAP1 JUMP JUMPDEST SWAP2 DUP3 MSTORE PUSH1 0x20 DUP3 ADD MSTORE PUSH1 0x40 ADD SWAP1 JUMP JUMPDEST PUSH1 0x40 MLOAD DUP2 DUP2 ADD PUSH1 0x1 PUSH1 0x1 PUSH1 0x40 SHL SUB DUP2 GT DUP3 DUP3 LT OR ISZERO PUSH2 0x422E JUMPI INVALID JUMPDEST PUSH1 0x40 MSTORE SWAP2 SWAP1 POP JUMP JUMPDEST PUSH1 0x0 PUSH1 0x1 PUSH1 0x1 PUSH1 0x40 SHL SUB DUP3 GT ISZERO PUSH2 0x4249 JUMPI INVALID JUMPDEST POP PUSH1 0x20 SWAP1 DUP2 MUL ADD SWAP1 JUMP INVALID PUSH1 0x80 PUSH1 0x40 MSTORE PUSH1 0x1 DUP1 SLOAD PUSH1 0xFF PUSH1 0xA0 SHL NOT AND SWAP1 SSTORE CALLVALUE DUP1 ISZERO PUSH2 0x1D JUMPI PUSH1 0x0 DUP1 REVERT JUMPDEST POP PUSH2 0x674 DUP1 PUSH2 0x2D PUSH1 0x0 CODECOPY PUSH1 0x0 RETURN INVALID PUSH1 0x80 PUSH1 0x40 MSTORE CALLVALUE DUP1 ISZERO PUSH2 0x10 JUMPI PUSH1 0x0 DUP1 REVERT JUMPDEST POP PUSH1 0x4 CALLDATASIZE LT PUSH2 0x7D JUMPI PUSH1 0x0 CALLDATALOAD PUSH1 0xE0 SHR DUP1 PUSH4 0x485CC955 GT PUSH2 0x5B JUMPI DUP1 PUSH4 0x485CC955 EQ PUSH2 0x104 JUMPI DUP1 PUSH4 0xF3FEF3A3 EQ PUSH2 0x132 JUMPI DUP1 PUSH4 0xF851A440 EQ PUSH2 0x15E JUMPI DUP1 PUSH4 0xFC0C546A EQ PUSH2 0x182 JUMPI PUSH2 0x7D JUMP JUMPDEST DUP1 PUSH4 0x158EF93E EQ PUSH2 0x82 JUMPI DUP1 PUSH4 0x27E235E3 EQ PUSH2 0x9E JUMPI DUP1 PUSH4 0x47E7EF24 EQ PUSH2 0xD6 JUMPI JUMPDEST PUSH1 0x0 DUP1 REVERT JUMPDEST PUSH2 0x8A PUSH2 0x18A JUMP JUMPDEST PUSH1 0x40 DUP1 MLOAD SWAP2 ISZERO ISZERO DUP3 MSTORE MLOAD SWAP1 DUP2 SWAP1 SUB PUSH1 0x20 ADD SWAP1 RETURN JUMPDEST PUSH2 0xC4 PUSH1 0x4 DUP1 CALLDATASIZE SUB PUSH1 0x20 DUP2 LT ISZERO PUSH2 0xB4 JUMPI PUSH1 0x0 DUP1 REVERT JUMPDEST POP CALLDATALOAD PUSH1 0x1 PUSH1 0x1 PUSH1 0xA0 SHL SUB AND PUSH2 0x19A JUMP JUMPDEST PUSH1 0x40 DUP1 MLOAD SWAP2 DUP3 MSTORE MLOAD SWAP1 DUP2 SWAP1 SUB PUSH1 0x20 ADD SWAP1 RETURN JUMPDEST PUSH2 0x102 PUSH1 0x4 DUP1 CALLDATASIZE SUB PUSH1 0x40 DUP2 LT ISZERO PUSH2 0xEC JUMPI PUSH1 0x0 DUP1 REVERT JUMPDEST POP PUSH1 0x1 PUSH1 0x1 PUSH1 0xA0 SHL SUB DUP2 CALLDATALOAD AND SWAP1 PUSH1 0x20 ADD CALLDATALOAD PUSH2 0x1AC JUMP JUMPDEST STOP JUMPDEST PUSH2 0x102 PUSH1 0x4 DUP1 CALLDATASIZE SUB PUSH1 0x40 DUP2 LT ISZERO PUSH2 0x11A JUMPI PUSH1 0x0 DUP1 REVERT JUMPDEST POP PUSH1 0x1 PUSH1 0x1 PUSH1 0xA0 SHL SUB DUP2 CALLDATALOAD DUP2 AND SWAP2 PUSH1 0x20 ADD CALLDATALOAD AND PUSH2 0x2F4 JUMP JUMPDEST PUSH2 0x102 PUSH1 0x4 DUP1 CALLDATASIZE SUB PUSH1 0x40 DUP2 LT ISZERO PUSH2 0x148 JUMPI PUSH1 0x0 DUP1 REVERT JUMPDEST POP PUSH1 0x1 PUSH1 0x1 PUSH1 0xA0 SHL SUB DUP2 CALLDATALOAD AND SWAP1 PUSH1 0x20 ADD CALLDATALOAD PUSH2 0x3E7 JUMP JUMPDEST PUSH2 0x166 PUSH2 0x517 JUMP JUMPDEST PUSH1 0x40 DUP1 MLOAD PUSH1 0x1 PUSH1 0x1 PUSH1 0xA0 SHL SUB SWAP1 SWAP3 AND DUP3 MSTORE MLOAD SWAP1 DUP2 SWAP1 SUB PUSH1 0x20 ADD SWAP1 RETURN JUMPDEST PUSH2 0x166 PUSH2 0x526 JUMP JUMPDEST PUSH1 0x1 SLOAD PUSH1 0x1 PUSH1 0xA0 SHL SWAP1 DIV PUSH1 0xFF AND DUP2 JUMP JUMPDEST PUSH1 0x2 PUSH1 0x20 MSTORE PUSH1 0x0 SWAP1 DUP2 MSTORE PUSH1 0x40 SWAP1 KECCAK256 SLOAD DUP2 JUMP JUMPDEST PUSH1 0x1 SLOAD PUSH1 0x1 PUSH1 0xA0 SHL SWAP1 DIV PUSH1 0xFF AND PUSH2 0x20A JUMPI PUSH1 0x40 DUP1 MLOAD PUSH3 0x461BCD PUSH1 0xE5 SHL DUP2 MSTORE PUSH1 0x20 PUSH1 0x4 DUP3 ADD MSTORE PUSH1 0x1A PUSH1 0x24 DUP3 ADD MSTORE PUSH32 0x546F6B656E5661756C743A204E6F7420696E6974696C697A6564000000000000 PUSH1 0x44 DUP3 ADD MSTORE SWAP1 MLOAD SWAP1 DUP2 SWAP1 SUB PUSH1 0x64 ADD SWAP1 REVERT JUMPDEST PUSH1 0x1 SLOAD PUSH1 0x1 PUSH1 0x1 PUSH1 0xA0 SHL SUB AND CALLER EQ PUSH2 0x221 JUMPI PUSH1 0x0 DUP1 REVERT JUMPDEST PUSH1 0x0 DUP1 SLOAD PUSH1 0x40 DUP1 MLOAD PUSH4 0x23B872DD PUSH1 0xE0 SHL DUP2 MSTORE PUSH1 0x1 PUSH1 0x1 PUSH1 0xA0 SHL SUB DUP7 DUP2 AND PUSH1 0x4 DUP4 ADD MSTORE ADDRESS PUSH1 0x24 DUP4 ADD MSTORE PUSH1 0x44 DUP3 ADD DUP7 SWAP1 MSTORE SWAP2 MLOAD PUSH3 0x10000 SWAP1 SWAP4 DIV SWAP1 SWAP2 AND SWAP3 PUSH4 0x23B872DD SWAP3 PUSH1 0x64 DUP1 DUP5 ADD SWAP4 PUSH1 0x20 SWAP4 SWAP1 DUP4 SWAP1 SUB SWAP1 SWAP2 ADD SWAP1 DUP3 SWAP1 DUP8 DUP1 EXTCODESIZE ISZERO DUP1 ISZERO PUSH2 0x285 JUMPI PUSH1 0x0 DUP1 REVERT JUMPDEST POP GAS CALL ISZERO DUP1 ISZERO PUSH2 0x299 JUMPI RETURNDATASIZE PUSH1 0x0 DUP1 RETURNDATACOPY RETURNDATASIZE PUSH1 0x0 REVERT JUMPDEST POP POP POP POP PUSH1 0x40 MLOAD RETURNDATASIZE PUSH1 0x20 DUP2 LT ISZERO PUSH2 0x2AF JUMPI PUSH1 0x0 DUP1 REVERT JUMPDEST POP POP PUSH1 0x1 PUSH1 0x1 PUSH1 0xA0 SHL SUB DUP3 AND PUSH1 0x0 SWAP1 DUP2 MSTORE PUSH1 0x2 PUSH1 0x20 MSTORE PUSH1 0x40 SWAP1 KECCAK256 SLOAD PUSH2 0x2D4 SWAP1 DUP3 PUSH2 0x53B JUMP JUMPDEST PUSH1 0x1 PUSH1 0x1 PUSH1 0xA0 SHL SUB SWAP1 SWAP3 AND PUSH1 0x0 SWAP1 DUP2 MSTORE PUSH1 0x2 PUSH1 0x20 MSTORE PUSH1 0x40 SWAP1 KECCAK256 SWAP2 SWAP1 SWAP2 SSTORE POP JUMP JUMPDEST PUSH1 0x0 SLOAD PUSH2 0x100 SWAP1 DIV PUSH1 0xFF AND DUP1 PUSH2 0x30D JUMPI POP PUSH2 0x30D PUSH2 0x59C JUMP JUMPDEST DUP1 PUSH2 0x31B JUMPI POP PUSH1 0x0 SLOAD PUSH1 0xFF AND ISZERO JUMPDEST PUSH2 0x356 JUMPI PUSH1 0x40 MLOAD PUSH3 0x461BCD PUSH1 0xE5 SHL DUP2 MSTORE PUSH1 0x4 ADD DUP1 DUP1 PUSH1 0x20 ADD DUP3 DUP2 SUB DUP3 MSTORE PUSH1 0x2E DUP2 MSTORE PUSH1 0x20 ADD DUP1 PUSH2 0x611 PUSH1 0x2E SWAP2 CODECOPY PUSH1 0x40 ADD SWAP2 POP POP PUSH1 0x40 MLOAD DUP1 SWAP2 SUB SWAP1 REVERT JUMPDEST PUSH1 0x0 SLOAD PUSH2 0x100 SWAP1 DIV PUSH1 0xFF AND ISZERO DUP1 ISZERO PUSH2 0x381 JUMPI PUSH1 0x0 DUP1 SLOAD PUSH1 0xFF NOT PUSH2 0xFF00 NOT SWAP1 SWAP2 AND PUSH2 0x100 OR AND PUSH1 0x1 OR SWAP1 SSTORE JUMPDEST PUSH1 0x0 DUP1 SLOAD PUSH1 0x1 PUSH1 0x1 PUSH1 0xA0 SHL SUB DUP1 DUP7 AND PUSH3 0x10000 MUL PUSH3 0x10000 PUSH1 0x1 PUSH1 0xB0 SHL SUB NOT SWAP1 SWAP3 AND SWAP2 SWAP1 SWAP2 OR SWAP1 SWAP2 SSTORE PUSH1 0x1 DUP1 SLOAD PUSH1 0xFF PUSH1 0xA0 SHL NOT SWAP3 DUP6 AND PUSH1 0x1 PUSH1 0x1 PUSH1 0xA0 SHL SUB NOT SWAP1 SWAP2 AND OR SWAP2 SWAP1 SWAP2 AND PUSH1 0x1 PUSH1 0xA0 SHL OR SWAP1 SSTORE DUP1 ISZERO PUSH2 0x3E2 JUMPI PUSH1 0x0 DUP1 SLOAD PUSH2 0xFF00 NOT AND SWAP1 SSTORE JUMPDEST POP POP POP JUMP JUMPDEST PUSH1 0x1 SLOAD PUSH1 0x1 PUSH1 0xA0 SHL SWAP1 DIV PUSH1 0xFF AND PUSH2 0x445 JUMPI PUSH1 0x40 DUP1 MLOAD PUSH3 0x461BCD PUSH1 0xE5 SHL DUP2 MSTORE PUSH1 0x20 PUSH1 0x4 DUP3 ADD MSTORE PUSH1 0x1A PUSH1 0x24 DUP3 ADD MSTORE PUSH32 0x546F6B656E5661756C743A204E6F7420696E6974696C697A6564000000000000 PUSH1 0x44 DUP3 ADD MSTORE SWAP1 MLOAD SWAP1 DUP2 SWAP1 SUB PUSH1 0x64 ADD SWAP1 REVERT JUMPDEST PUSH1 0x1 SLOAD PUSH1 0x1 PUSH1 0x1 PUSH1 0xA0 SHL SUB AND CALLER EQ PUSH2 0x45C JUMPI PUSH1 0x0 DUP1 REVERT JUMPDEST PUSH1 0x0 PUSH1 0x2 SWAP1 SLOAD SWAP1 PUSH2 0x100 EXP SWAP1 DIV PUSH1 0x1 PUSH1 0x1 PUSH1 0xA0 SHL SUB AND PUSH1 0x1 PUSH1 0x1 PUSH1 0xA0 SHL SUB AND PUSH4 0xA9059CBB DUP4 DUP4 PUSH1 0x40 MLOAD DUP4 PUSH4 0xFFFFFFFF AND PUSH1 0xE0 SHL DUP2 MSTORE PUSH1 0x4 ADD DUP1 DUP4 PUSH1 0x1 PUSH1 0x1 PUSH1 0xA0 SHL SUB AND DUP2 MSTORE PUSH1 0x20 ADD DUP3 DUP2 MSTORE PUSH1 0x20 ADD SWAP3 POP POP POP PUSH1 0x20 PUSH1 0x40 MLOAD DUP1 DUP4 SUB DUP2 PUSH1 0x0 DUP8 DUP1 EXTCODESIZE ISZERO DUP1 ISZERO PUSH2 0x4C8 JUMPI PUSH1 0x0 DUP1 REVERT JUMPDEST POP GAS CALL ISZERO DUP1 ISZERO PUSH2 0x4DC JUMPI RETURNDATASIZE PUSH1 0x0 DUP1 RETURNDATACOPY RETURNDATASIZE PUSH1 0x0 REVERT JUMPDEST POP POP POP POP PUSH1 0x40 MLOAD RETURNDATASIZE PUSH1 0x20 DUP2 LT ISZERO PUSH2 0x4F2 JUMPI PUSH1 0x0 DUP1 REVERT JUMPDEST POP POP PUSH1 0x1 PUSH1 0x1 PUSH1 0xA0 SHL SUB DUP3 AND PUSH1 0x0 SWAP1 DUP2 MSTORE PUSH1 0x2 PUSH1 0x20 MSTORE PUSH1 0x40 SWAP1 KECCAK256 SLOAD PUSH2 0x2D4 SWAP1 DUP3 PUSH2 0x5AD JUMP JUMPDEST PUSH1 0x1 SLOAD PUSH1 0x1 PUSH1 0x1 PUSH1 0xA0 SHL SUB AND DUP2 JUMP JUMPDEST PUSH1 0x0 SLOAD PUSH3 0x10000 SWAP1 DIV PUSH1 0x1 PUSH1 0x1 PUSH1 0xA0 SHL SUB AND DUP2 JUMP JUMPDEST PUSH1 0x0 DUP3 DUP3 ADD DUP4 DUP2 LT ISZERO PUSH2 0x595 JUMPI PUSH1 0x40 DUP1 MLOAD PUSH3 0x461BCD PUSH1 0xE5 SHL DUP2 MSTORE PUSH1 0x20 PUSH1 0x4 DUP3 ADD MSTORE PUSH1 0x1B PUSH1 0x24 DUP3 ADD MSTORE PUSH32 0x536166654D6174683A206164646974696F6E206F766572666C6F770000000000 PUSH1 0x44 DUP3 ADD MSTORE SWAP1 MLOAD SWAP1 DUP2 SWAP1 SUB PUSH1 0x64 ADD SWAP1 REVERT JUMPDEST SWAP4 SWAP3 POP POP POP JUMP JUMPDEST PUSH1 0x0 PUSH2 0x5A7 ADDRESS PUSH2 0x60A JUMP JUMPDEST ISZERO SWAP1 POP SWAP1 JUMP JUMPDEST PUSH1 0x0 DUP3 DUP3 GT ISZERO PUSH2 0x604 JUMPI PUSH1 0x40 DUP1 MLOAD PUSH3 0x461BCD PUSH1 0xE5 SHL DUP2 MSTORE PUSH1 0x20 PUSH1 0x4 DUP3 ADD MSTORE PUSH1 0x1E PUSH1 0x24 DUP3 ADD MSTORE PUSH32 0x536166654D6174683A207375627472616374696F6E206F766572666C6F770000 PUSH1 0x44 DUP3 ADD MSTORE SWAP1 MLOAD SWAP1 DUP2 SWAP1 SUB PUSH1 0x64 ADD SWAP1 REVERT JUMPDEST POP SWAP1 SUB SWAP1 JUMP JUMPDEST EXTCODESIZE ISZERO ISZERO SWAP1 JUMP INVALID 0x49 PUSH15 0x697469616C697A61626C653A20636F PUSH15 0x747261637420697320616C72656164 PUSH26 0x20696E697469616C697A6564A2646970667358221220730888C8 MSIZE 0xB2 PUSH21 0x8F700441147AB8B01302A177C9A60C32287F834180 SWAP7 POP 0xA9 0xB3 PUSH5 0x736F6C6343 STOP SMOD MOD STOP CALLER GASLIMIT NUMBER DIFFICULTY MSTORE8 COINBASE GASPRICE KECCAK256 PUSH10 0x6E76616C696420736967 PUSH15 0x6174757265202773272076616C7565 0x49 PUSH15 0x697469616C697A61626C653A20636F PUSH15 0x747261637420697320616C72656164 PUSH26 0x20696E697469616C697A656445434453413A20696E76616C6964 KECCAK256 PUSH20 0x69676E6174757265202776272076616C75655361 PUSH7 0x654D6174683A20 PUSH14 0x756C7469706C69636174696F6E20 PUSH16 0x766572666C6F77A26469706673582212 KECCAK256 0x5E SWAP14 DUP3 0xBE 0xF CALLDATASIZE 0xD4 0xBC 0xE MULMOD PUSH21 0x49366E8113BD4737C879C9CCE97CDB954DEC533E6 PUSH5 0x736F6C6343 STOP SMOD MOD STOP CALLER "
        },
        "methodIdentifiers": {
          "callPermissions(address,bytes4)": "76b0243a",
          "createProposal(address[],bytes[],uint256[],string,bytes)": "27f2bdde",
          "createProposals(address[],bytes[],uint256[],string[],bytes[])": "ea1627c0",
          "endProposal(bytes32)": "b3b47061",
          "getCallPermission(address,bytes4)": "663bb4af",
          "getFuncSignature(bytes)": "088af182",
          "getProposal(bytes32)": "430694cf",
          "getProposalVotes(bytes32,address)": "d5c1b6fc",
          "getProposalsIdsLength()": "2229a0e2",
          "getVotesForCreation()": "f977cd29",
          "getVotesForExecution()": "9669b1cb",
          "hashVote(address,bytes32,uint256)": "adbba7ae",
          "initialize(address,uint256,uint256,uint256,uint256,string,uint256,uint256,uint256)": "7e17e3fc",
          "initialized()": "158ef93e",
          "lockTime()": "0d668087",
          "lockTokens(uint256)": "6e27d889",
          "maxGasPrice()": "3de39c11",
          "name()": "06fdde03",
          "proposalNonce()": "cc3c74a1",
          "proposalTime()": "184a0ae9",
          "proposals(bytes32)": "32ed5b12",
          "proposalsIds(uint256)": "b3929aaa",
          "releaseTokens(uint256)": "4b0babdd",
          "setAllowance(address[],bytes4[],bool[])": "b96f8c9e",
          "setConfig(uint256,uint256,uint256,uint256,uint256,uint256,uint256)": "402bad8e",
          "setSignedVote(bytes32,uint256,address,bytes)": "14621a3a",
          "setSignedVotes(bytes32[],uint256[],address[],bytes[])": "3a3bed00",
          "setVote(bytes32,uint256)": "bec11c0e",
          "setVotes(bytes32[],uint256[])": "0f9a8553",
          "signedVotes(bytes32)": "2fd99c00",
          "timeForExecution()": "3f10cf15",
          "token()": "fc0c546a",
          "tokenVault()": "5bc789d9",
          "tokensLocked(address)": "01a598a6",
          "totalLocked()": "56891412",
          "totalLockedAt(uint256)": "ed996f5e",
          "voteGas()": "fc4e703f",
          "votesForCreation()": "8c20a9c5",
          "votesForExecution()": "1c3e89f4",
          "votesOf(address)": "79ec5d3a",
          "votesOf(address[])": "f4ff96aa",
          "votesOfAt(address,uint256)": "32315fc4",
          "votesOfAt(address[],uint256[])": "db0c41bf"
        }
      }
    }
  }
}