{
  "_format": "hh-sol-artifact-1",
  "contractName": "TokenVault",
  "sourceName": "contracts/utils/TokenVault.sol",
  "abi": [
    {
      "inputs": [],
      "name": "admin",
      "outputs": [
        {
          "internalType": "address",
          "name": "",
          "type": "address"
        }
      ],
      "stateMutability": "view",
      "type": "function"
    },
    {
      "inputs": [
        {
          "internalType": "address",
          "name": "",
          "type": "address"
        }
      ],
      "name": "balances",
      "outputs": [
        {
          "internalType": "uint256",
          "name": "",
          "type": "uint256"
        }
      ],
      "stateMutability": "view",
      "type": "function"
    },
    {
      "inputs": [
        {
          "internalType": "address",
          "name": "user",
          "type": "address"
        },
        {
          "internalType": "uint256",
          "name": "amount",
          "type": "uint256"
        }
      ],
      "name": "deposit",
      "outputs": [],
      "stateMutability": "nonpayable",
      "type": "function"
    },
    {
      "inputs": [
        {
          "internalType": "address",
          "name": "_token",
          "type": "address"
        },
        {
          "internalType": "address",
          "name": "_admin",
          "type": "address"
        }
      ],
      "name": "initialize",
      "outputs": [],
      "stateMutability": "nonpayable",
      "type": "function"
    },
    {
      "inputs": [],
      "name": "initialized",
      "outputs": [
        {
          "internalType": "bool",
          "name": "",
          "type": "bool"
        }
      ],
      "stateMutability": "view",
      "type": "function"
    },
    {
      "inputs": [],
      "name": "token",
      "outputs": [
        {
          "internalType": "contract IERC20Upgradeable",
          "name": "",
          "type": "address"
        }
      ],
      "stateMutability": "view",
      "type": "function"
    },
    {
      "inputs": [
        {
          "internalType": "address",
          "name": "user",
          "type": "address"
        },
        {
          "internalType": "uint256",
          "name": "amount",
          "type": "uint256"
        }
      ],
      "name": "withdraw",
      "outputs": [],
      "stateMutability": "nonpayable",
      "type": "function"
    }
  ],
  "bytecode": "0x60806040526001805460ff60a01b1916905534801561001d57600080fd5b506106748061002d6000396000f3fe608060405234801561001057600080fd5b506004361061007d5760003560e01c8063485cc9551161005b578063485cc95514610104578063f3fef3a314610132578063f851a4401461015e578063fc0c546a146101825761007d565b8063158ef93e1461008257806327e235e31461009e57806347e7ef24146100d6575b600080fd5b61008a61018a565b604080519115158252519081900360200190f35b6100c4600480360360208110156100b457600080fd5b50356001600160a01b031661019a565b60408051918252519081900360200190f35b610102600480360360408110156100ec57600080fd5b506001600160a01b0381351690602001356101ac565b005b6101026004803603604081101561011a57600080fd5b506001600160a01b03813581169160200135166102f4565b6101026004803603604081101561014857600080fd5b506001600160a01b0381351690602001356103e7565b610166610517565b604080516001600160a01b039092168252519081900360200190f35b610166610526565b600154600160a01b900460ff1681565b60026020526000908152604090205481565b600154600160a01b900460ff1661020a576040805162461bcd60e51b815260206004820152601a60248201527f546f6b656e5661756c743a204e6f7420696e6974696c697a6564000000000000604482015290519081900360640190fd5b6001546001600160a01b0316331461022157600080fd5b60008054604080516323b872dd60e01b81526001600160a01b03868116600483015230602483015260448201869052915162010000909304909116926323b872dd926064808401936020939083900390910190829087803b15801561028557600080fd5b505af1158015610299573d6000803e3d6000fd5b505050506040513d60208110156102af57600080fd5b50506001600160a01b0382166000908152600260205260409020546102d4908261053b565b6001600160a01b0390921660009081526002602052604090209190915550565b600054610100900460ff168061030d575061030d61059c565b8061031b575060005460ff16155b6103565760405162461bcd60e51b815260040180806020018281038252602e815260200180610611602e913960400191505060405180910390fd5b600054610100900460ff16158015610381576000805460ff1961ff0019909116610100171660011790555b600080546001600160a01b03808616620100000262010000600160b01b0319909216919091179091556001805460ff60a01b199285166001600160a01b03199091161791909116600160a01b17905580156103e2576000805461ff00191690555b505050565b600154600160a01b900460ff16610445576040805162461bcd60e51b815260206004820152601a60248201527f546f6b656e5661756c743a204e6f7420696e6974696c697a6564000000000000604482015290519081900360640190fd5b6001546001600160a01b0316331461045c57600080fd5b600060029054906101000a90046001600160a01b03166001600160a01b031663a9059cbb83836040518363ffffffff1660e01b815260040180836001600160a01b0316815260200182815260200192505050602060405180830381600087803b1580156104c857600080fd5b505af11580156104dc573d6000803e3d6000fd5b505050506040513d60208110156104f257600080fd5b50506001600160a01b0382166000908152600260205260409020546102d490826105ad565b6001546001600160a01b031681565b6000546201000090046001600160a01b031681565b600082820183811015610595576040805162461bcd60e51b815260206004820152601b60248201527f536166654d6174683a206164646974696f6e206f766572666c6f770000000000604482015290519081900360640190fd5b9392505050565b60006105a73061060a565b15905090565b600082821115610604576040805162461bcd60e51b815260206004820152601e60248201527f536166654d6174683a207375627472616374696f6e206f766572666c6f770000604482015290519081900360640190fd5b50900390565b3b15159056fe496e697469616c697a61626c653a20636f6e747261637420697320616c726561647920696e697469616c697a6564a2646970667358221220730888c859b2748f700441147ab8b01302a177c9a60c32287f8341809650a9b364736f6c63430007060033",
  "linkReferences": {},
  "deployedLinkReferences": {}
}