{
  "_format": "hh-sol-artifact-1",
  "contractName": "TokenVault",
  "sourceName": "contracts/utils/TokenVault.sol",
  "abi": [
    {
      "inputs": [],
      "name": "admin",
      "outputs": [
        {
          "internalType": "address",
          "name": "",
          "type": "address"
        }
      ],
      "stateMutability": "view",
      "type": "function"
    },
    {
      "inputs": [
        {
          "internalType": "address",
          "name": "",
          "type": "address"
        }
      ],
      "name": "balances",
      "outputs": [
        {
          "internalType": "uint256",
          "name": "",
          "type": "uint256"
        }
      ],
      "stateMutability": "view",
      "type": "function"
    },
    {
      "inputs": [
        {
          "internalType": "address",
          "name": "user",
          "type": "address"
        },
        {
          "internalType": "uint256",
          "name": "amount",
          "type": "uint256"
        }
      ],
      "name": "deposit",
      "outputs": [],
      "stateMutability": "nonpayable",
      "type": "function"
    },
    {
      "inputs": [
        {
          "internalType": "address",
          "name": "_token",
          "type": "address"
        },
        {
          "internalType": "address",
          "name": "_admin",
          "type": "address"
        }
      ],
      "name": "initialize",
      "outputs": [],
      "stateMutability": "nonpayable",
      "type": "function"
    },
    {
      "inputs": [],
      "name": "initialized",
      "outputs": [
        {
          "internalType": "bool",
          "name": "",
          "type": "bool"
        }
      ],
      "stateMutability": "view",
      "type": "function"
    },
    {
      "inputs": [],
      "name": "token",
      "outputs": [
        {
          "internalType": "contract IERC20Upgradeable",
          "name": "",
          "type": "address"
        }
      ],
      "stateMutability": "view",
      "type": "function"
    },
    {
      "inputs": [
        {
          "internalType": "address",
          "name": "user",
          "type": "address"
        },
        {
          "internalType": "uint256",
          "name": "amount",
          "type": "uint256"
        }
      ],
      "name": "withdraw",
      "outputs": [],
      "stateMutability": "nonpayable",
      "type": "function"
    }
  ],
  "bytecode": "0x60806040526001805460ff60a01b1916905534801561001d57600080fd5b506106108061002d6000396000f3fe608060405234801561001057600080fd5b506004361061007d5760003560e01c8063485cc9551161005b578063485cc955146100ee578063f3fef3a314610101578063f851a44014610114578063fc0c546a1461013f57600080fd5b8063158ef93e1461008257806327e235e3146100ab57806347e7ef24146100d9575b600080fd5b60015461009690600160a01b900460ff1681565b60405190151581526020015b60405180910390f35b6100cb6100b93660046104fb565b60026020526000908152604090205481565b6040519081526020016100a2565b6100ec6100e7366004610516565b610158565b005b6100ec6100fc366004610540565b6102a4565b6100ec61010f366004610516565b61039f565b600154610127906001600160a01b031681565b6040516001600160a01b0390911681526020016100a2565b600054610127906201000090046001600160a01b031681565b600154600160a01b900460ff166101b65760405162461bcd60e51b815260206004820152601a60248201527f546f6b656e5661756c743a204e6f7420696e6974696c697a656400000000000060448201526064015b60405180910390fd5b6001546001600160a01b031633146101cd57600080fd5b6000546040516323b872dd60e01b81526001600160a01b0384811660048301523060248301526044820184905262010000909204909116906323b872dd90606401602060405180830381600087803b15801561022857600080fd5b505af115801561023c573d6000803e3d6000fd5b505050506040513d601f19601f820116820180604052508101906102609190610573565b506001600160a01b03821660009081526002602052604090205461028490826104c0565b6001600160a01b0390921660009081526002602052604090209190915550565b600054610100900460ff16806102bd575060005460ff16155b6103205760405162461bcd60e51b815260206004820152602e60248201527f496e697469616c697a61626c653a20636f6e747261637420697320616c72656160448201526d191e481a5b9a5d1a585b1a5e995960921b60648201526084016101ad565b600054610100900460ff16158015610342576000805461ffff19166101011790555b600080546001600160a01b03808616620100000262010000600160b01b031990921691909117909155600180546001600160a81b03191691841691909117600160a01b179055801561039a576000805461ff00191690555b505050565b600154600160a01b900460ff166103f85760405162461bcd60e51b815260206004820152601a60248201527f546f6b656e5661756c743a204e6f7420696e6974696c697a656400000000000060448201526064016101ad565b6001546001600160a01b0316331461040f57600080fd5b60005460405163a9059cbb60e01b81526001600160a01b03848116600483015260248201849052620100009092049091169063a9059cbb90604401602060405180830381600087803b15801561046457600080fd5b505af1158015610478573d6000803e3d6000fd5b505050506040513d601f19601f8201168201806040525081019061049c9190610573565b506001600160a01b03821660009081526002602052604090205461028490826104d3565b60006104cc82846105ab565b9392505050565b60006104cc82846105c3565b80356001600160a01b03811681146104f657600080fd5b919050565b60006020828403121561050d57600080fd5b6104cc826104df565b6000806040838503121561052957600080fd5b610532836104df565b946020939093013593505050565b6000806040838503121561055357600080fd5b61055c836104df565b915061056a602084016104df565b90509250929050565b60006020828403121561058557600080fd5b815180151581146104cc57600080fd5b634e487b7160e01b600052601160045260246000fd5b600082198211156105be576105be610595565b500190565b6000828210156105d5576105d5610595565b50039056fea2646970667358221220ed228133b5b6a1d4223004479c53dd0eb4479b5ae101c8120491a2f3b4e3663f64736f6c63430008080033",
  "linkReferences": {},
  "deployedLinkReferences": {}
}