{
  "_format": "hh-sol-artifact-1",
  "contractName": "DDnD",
  "sourceName": "contracts/DDnD.sol",
  "abi": [
    {
      "inputs": [
        {
          "internalType": "address",
          "name": "_DDnDNFT",
          "type": "address"
        },
        {
          "internalType": "address",
          "name": "messageLogger",
          "type": "address"
        }
      ],
      "stateMutability": "nonpayable",
      "type": "constructor"
    },
    {
      "inputs": [],
      "name": "DDnDNFTMinter",
      "outputs": [
        {
          "internalType": "contract DDnDNFT",
          "name": "",
          "type": "address"
        }
      ],
      "stateMutability": "view",
      "type": "function"
    },
    {
      "inputs": [],
      "name": "MessageLogger",
      "outputs": [
        {
          "internalType": "address",
          "name": "",
          "type": "address"
        }
      ],
      "stateMutability": "view",
      "type": "function"
    },
    {
      "inputs": [
        {
          "internalType": "address",
          "name": "_token",
          "type": "address"
        },
        {
          "internalType": "uint256",
          "name": "_proposalTime",
          "type": "uint256"
        },
        {
          "internalType": "uint256",
          "name": "_timeForExecution",
          "type": "uint256"
        },
        {
          "internalType": "uint256",
          "name": "_votesForExecution",
          "type": "uint256"
        },
        {
          "internalType": "uint256",
          "name": "_votesForCreation",
          "type": "uint256"
        },
        {
          "internalType": "string",
          "name": "_name",
          "type": "string"
        },
        {
          "internalType": "uint256",
          "name": "_voteGas",
          "type": "uint256"
        },
        {
          "internalType": "uint256",
          "name": "_maxGasPrice",
          "type": "uint256"
        },
        {
          "internalType": "uint256",
          "name": "_lockTime",
          "type": "uint256"
        }
      ],
      "name": "createGuild",
      "outputs": [],
      "stateMutability": "nonpayable",
      "type": "function"
    },
    {
      "inputs": [],
      "name": "gameCount",
      "outputs": [
        {
          "internalType": "uint256",
          "name": "",
          "type": "uint256"
        }
      ],
      "stateMutability": "view",
      "type": "function"
    },
    {
      "inputs": [
        {
          "internalType": "uint256",
          "name": "",
          "type": "uint256"
        }
      ],
      "name": "games",
      "outputs": [
        {
          "internalType": "uint256",
          "name": "secondsPerTurn",
          "type": "uint256"
        },
        {
          "internalType": "uint256",
          "name": "winningPot",
          "type": "uint256"
        },
        {
          "internalType": "contract IERC20",
          "name": "paymentToken",
          "type": "address"
        },
        {
          "internalType": "uint256",
          "name": "dungeonMasterFee",
          "type": "uint256"
        },
        {
          "internalType": "uint256",
          "name": "dungeonMasterArbitrationFee",
          "type": "uint256"
        },
        {
          "internalType": "uint256",
          "name": "requiredSignaturesToArbitrate",
          "type": "uint256"
        },
        {
          "internalType": "address",
          "name": "daoArbitrator",
          "type": "address"
        },
        {
          "internalType": "uint256",
          "name": "turnNumber",
          "type": "uint256"
        },
        {
          "internalType": "uint256",
          "name": "gameState",
          "type": "uint256"
        },
        {
          "internalType": "address",
          "name": "winner",
          "type": "address"
        }
      ],
      "stateMutability": "view",
      "type": "function"
    },
    {
      "inputs": [
        {
          "internalType": "uint256",
          "name": "gameId",
          "type": "uint256"
        },
        {
          "internalType": "uint256",
          "name": "turnNumber",
          "type": "uint256"
        },
        {
          "internalType": "uint256",
          "name": "gameState",
          "type": "uint256"
        },
        {
          "internalType": "bytes32[]",
          "name": "playersState",
          "type": "bytes32[]"
        },
        {
          "internalType": "address",
          "name": "winner",
          "type": "address"
        }
      ],
      "name": "getFutureGameStateHash",
      "outputs": [
        {
          "internalType": "bytes32",
          "name": "",
          "type": "bytes32"
        }
      ],
      "stateMutability": "view",
      "type": "function"
    },
    {
      "inputs": [
        {
          "internalType": "address[]",
          "name": "players",
          "type": "address[]"
        },
        {
          "internalType": "uint256",
          "name": "secondsPerTurn",
          "type": "uint256"
        },
        {
          "internalType": "uint256",
          "name": "winningPot",
          "type": "uint256"
        },
        {
          "internalType": "contract IERC20",
          "name": "paymentToken",
          "type": "address"
        },
        {
          "internalType": "uint256",
          "name": "dungeonMasterFee",
          "type": "uint256"
        },
        {
          "internalType": "uint256",
          "name": "dungeonMasterArbitrationFee",
          "type": "uint256"
        },
        {
          "internalType": "uint256",
          "name": "requiredSignaturesToArbitrate",
          "type": "uint256"
        },
        {
          "internalType": "address",
          "name": "daoArbitrator",
          "type": "address"
        },
        {
          "internalType": "uint256",
          "name": "turnNumber",
          "type": "uint256"
        },
        {
          "internalType": "uint256",
          "name": "gameState",
          "type": "uint256"
        },
        {
          "internalType": "bytes32[]",
          "name": "playersState",
          "type": "bytes32[]"
        },
        {
          "internalType": "address",
          "name": "winner",
          "type": "address"
        }
      ],
      "name": "getGameHash",
      "outputs": [
        {
          "internalType": "bytes32",
          "name": "",
          "type": "bytes32"
        }
      ],
      "stateMutability": "view",
      "type": "function"
    },
    {
      "inputs": [],
      "name": "getGuilds",
      "outputs": [
        {
          "internalType": "address[]",
          "name": "",
          "type": "address[]"
        }
      ],
      "stateMutability": "view",
      "type": "function"
    },
    {
      "inputs": [
        {
          "internalType": "uint256",
          "name": "gameId",
          "type": "uint256"
        }
      ],
      "name": "getPlayersAddresses",
      "outputs": [
        {
          "internalType": "address[]",
          "name": "",
          "type": "address[]"
        }
      ],
      "stateMutability": "view",
      "type": "function"
    },
    {
      "inputs": [
        {
          "internalType": "uint256",
          "name": "gameId",
          "type": "uint256"
        }
      ],
      "name": "getPlayersState",
      "outputs": [
        {
          "internalType": "bytes32[]",
          "name": "",
          "type": "bytes32[]"
        }
      ],
      "stateMutability": "view",
      "type": "function"
    },
    {
      "inputs": [
        {
          "internalType": "uint256",
          "name": "gameId",
          "type": "uint256"
        },
        {
          "internalType": "bytes32[]",
          "name": "playersState",
          "type": "bytes32[]"
        },
        {
          "internalType": "bytes[]",
          "name": "signatures",
          "type": "bytes[]"
        }
      ],
      "name": "getValidSignatures",
      "outputs": [
        {
          "internalType": "uint256",
          "name": "validSignatures",
          "type": "uint256"
        }
      ],
      "stateMutability": "view",
      "type": "function"
    },
    {
      "inputs": [
        {
          "internalType": "uint256",
          "name": "",
          "type": "uint256"
        }
      ],
      "name": "guilds",
      "outputs": [
        {
          "internalType": "address",
          "name": "",
          "type": "address"
        }
      ],
      "stateMutability": "view",
      "type": "function"
    },
    {
      "inputs": [
        {
          "internalType": "uint256",
          "name": "",
          "type": "uint256"
        }
      ],
      "name": "lastTimestampUpdate",
      "outputs": [
        {
          "internalType": "uint256",
          "name": "",
          "type": "uint256"
        }
      ],
      "stateMutability": "view",
      "type": "function"
    },
    {
      "inputs": [],
      "name": "nftDMURI",
      "outputs": [
        {
          "internalType": "string",
          "name": "",
          "type": "string"
        }
      ],
      "stateMutability": "view",
      "type": "function"
    },
    {
      "inputs": [],
      "name": "nftTrophyURI",
      "outputs": [
        {
          "internalType": "string",
          "name": "",
          "type": "string"
        }
      ],
      "stateMutability": "view",
      "type": "function"
    },
    {
      "inputs": [
        {
          "internalType": "uint256",
          "name": "gameId",
          "type": "uint256"
        },
        {
          "internalType": "uint256",
          "name": "turnNumber",
          "type": "uint256"
        },
        {
          "internalType": "uint256",
          "name": "gameState",
          "type": "uint256"
        },
        {
          "internalType": "bytes32[]",
          "name": "playersState",
          "type": "bytes32[]"
        },
        {
          "internalType": "address",
          "name": "winner",
          "type": "address"
        },
        {
          "internalType": "bytes[]",
          "name": "signatures",
          "type": "bytes[]"
        },
        {
          "internalType": "bytes32[]",
          "name": "nextPlayersState",
          "type": "bytes32[]"
        }
      ],
      "name": "setGameState",
      "outputs": [],
      "stateMutability": "nonpayable",
      "type": "function"
    },
    {
      "inputs": [
        {
          "internalType": "address[]",
          "name": "players",
          "type": "address[]"
        },
        {
          "internalType": "uint256",
          "name": "secondsPerTurn",
          "type": "uint256"
        },
        {
          "internalType": "uint256",
          "name": "winningPot",
          "type": "uint256"
        },
        {
          "internalType": "contract IERC20",
          "name": "paymentToken",
          "type": "address"
        },
        {
          "internalType": "uint256",
          "name": "dungeonMasterFee",
          "type": "uint256"
        },
        {
          "internalType": "uint256",
          "name": "dungeonMasterArbitrationFee",
          "type": "uint256"
        },
        {
          "internalType": "uint256",
          "name": "requiredSignaturesToArbitrate",
          "type": "uint256"
        },
        {
          "internalType": "address",
          "name": "daoArbitrator",
          "type": "address"
        },
        {
          "internalType": "bytes[]",
          "name": "signatures",
          "type": "bytes[]"
        },
        {
          "internalType": "bytes32",
          "name": "rootGameState",
          "type": "bytes32"
        }
      ],
      "name": "setUpGame",
      "outputs": [],
      "stateMutability": "nonpayable",
      "type": "function"
    }
  ],
  "bytecode": "0x60c0604052600c60808190526b6e667454726f70687955524960a01b60a09081526200002f9160029190620000c4565b50604080518082019091526008808252676e6674444d55524960c01b60209092019182526200006191600391620000c4565b503480156200006f57600080fd5b506040516200743d3803806200743d833981016040819052620000929162000187565b600080546001600160a01b039384166001600160a01b03199182161790915560018054929093169116179055620001fc565b828054620000d290620001bf565b90600052602060002090601f016020900481019282620000f6576000855562000141565b82601f106200011157805160ff191683800117855562000141565b8280016001018555821562000141579182015b828111156200014157825182559160200191906001019062000124565b506200014f92915062000153565b5090565b5b808211156200014f576000815560010162000154565b80516001600160a01b03811681146200018257600080fd5b919050565b600080604083850312156200019b57600080fd5b620001a6836200016a565b9150620001b6602084016200016a565b90509250929050565b600181811c90821680620001d457607f821691505b60208210811415620001f657634e487b7160e01b600052602260045260246000fd5b50919050565b617231806200020c6000396000f3fe608060405234801561001057600080fd5b506004361061010b5760003560e01c806385554bff116100a2578063b1c23f8811610071578063b1c23f88146102e6578063b91be769146102f9578063d63d8d1814610319578063e2ddee4414610321578063efe7b7af1461033457600080fd5b806385554bff1461027557806389d5e7fe146102885780638d1a4c381461029b5780639ffd5ad8146102c657600080fd5b806341fc4321116100de57806341fc4321146102235780634d1975b41461023857806356b763211461024f57806360cddb861461026257600080fd5b80630e211cc214610110578063117a5b901461012e578063254436db146101fb5780633709707214610210575b600080fd5b610118610347565b6040516101259190611978565b60405180910390f35b6101a061013c3660046119c5565b60066020819052600091825260409091206001810154600282015460038301546004840154600585015495850154600786015460088701546009880154600b90980154969895976001600160a01b039586169794969593949284169391929091168a565b604080519a8b5260208b01999099526001600160a01b03978816988a01989098526060890195909552608088019390935260a0870191909152831660c086015260e08501526101008401521661012082015261014001610125565b61020e610209366004611aa5565b6103a9565b005b61011861021e3660046119c5565b6104a1565b61022b61050d565b6040516101259190611ba9565b61024160045481565b604051908152602001610125565b61020e61025d366004611ce9565b61059b565b61020e610270366004611e05565b6109be565b610241610283366004611ebf565b611084565b610241610296366004611f2c565b6111df565b6001546102ae906001600160a01b031681565b6040516001600160a01b039091168152602001610125565b6102d96102d43660046119c5565b61127e565b604051610125919061204a565b6102416102f436600461205d565b6112e2565b6102416103073660046119c5565b60056020526000908152604090205481565b61022b61148a565b6000546102ae906001600160a01b031681565b6102ae6103423660046119c5565b611497565b6060600780548060200260200160405190810160405280929190818152602001828054801561039f57602002820191906000526020600020905b81546001600160a01b03168152600190910190602001808311610381575b5050505050905090565b60006040516103b79061183a565b604051809103906000f0801580156103d3573d6000803e3d6000fd5b50604051631f85f8ff60e21b81529091506001600160a01b03821690637e17e3fc90610413908d908d908d908d908d908d908d908d908d906004016120cc565b600060405180830381600087803b15801561042d57600080fd5b505af1158015610441573d6000803e3d6000fd5b5050600780546001810182556000919091527fa66cc928b5edb82af9bd49922954155ab7b0942694bea4ce44661d9a8736c6880180546001600160a01b0319166001600160a01b0394909416939093179092555050505050505050505050565b60008181526006602090815260409182902080548351818402810184019094528084526060939283018282801561050157602002820191906000526020600020905b81546001600160a01b031681526001909101906020018083116104e3575b50505050509050919050565b6003805461051a90612129565b80601f016020809104026020016040519081016040528092919081815260200182805461054690612129565b80156105935780601f1061056857610100808354040283529160200191610593565b820191906000526020600020905b81548152906001019060200180831161057657829003601f168201915b505050505081565b896000815181106105ae576105ae612164565b60200260200101516001600160a01b0316336001600160a01b0316146106345760405162461bcd60e51b815260206004820152603060248201527f44446e643a2047616d652063616e206f6e6c792062652063726561746564206260448201526f3c90323ab733b2b7b71036b0b9ba32b960811b60648201526084015b60405180910390fd5b61063c611847565b8a8152602081018a9052604081018990526001600160a01b0380891660608301526080820188905260a0820187905260c08201869052841660e0820152600061010082015260016101208201528a5167ffffffffffffffff8111156106a3576106a3611a06565b6040519080825280602002602001820160405280156106cc578160200160208202803683370190505b50610140820152600061016082018190525b81515181101561071d5782826101400151828151811061070057610700612164565b60209081029190910101528061071581612190565b9150506106de565b506004805490600061072e83612190565b9091555050600454600090815260066020908152604090912082518051849361075b9284929101906118c3565b5060208281015160018301556040830151600283015560608301516003830180546001600160a01b039283166001600160a01b0319918216179091556080850151600485015560a0850151600585015560c0850151600685015560e08501516007850180549190931691161790556101008301516008830155610120830151600983015561014083015180516107f792600a8501920190611928565b506101609190910151600b90910180546001600160a01b0319166001600160a01b03909216919091179055600454600081815260066020908152604091829020600a01805483518184028101840190945280845261088b94939283018282801561088057602002820191906000526020600020905b81548152602001906001019080831161086c575b505050505085611084565b8b51146108aa5760405162461bcd60e51b815260040161062b906121ab565b80515160408201516000916108bf91906114c1565b905060015b82515181101561099b5782606001516001600160a01b03166323b872dd846000015183815181106108f7576108f7612164565b60209081029190910101516040516001600160e01b031960e084901b1681526001600160a01b03909116600482015230602482015260448101859052606401602060405180830381600087803b15801561095057600080fd5b505af1158015610964573d6000803e3d6000fd5b505050506040513d601f19601f8201168201806040525081019061098891906121f0565b508061099381612190565b9150506108c4565b505060045460009081526005602052604090204290555050505050505050505050565b60008781526006602052604090206001810154600890910154610a08916109f0916109ea908a906114d4565b906114e0565b600454600090815260056020526040902054906114ec565b4210610a565760405162461bcd60e51b815260206004820152601a60248201527f44446e443a2057726f6e672074696d6520746f20757064617465000000000000604482015260640161062b565b6000878152600660205260409020600701546001600160a01b03163314610ab357610a82878584611084565b60008881526006602052604090205414610aae5760405162461bcd60e51b815260040161062b906121ab565b610b5c565b8460031415610b5c57610b2b87600660008a8152602001908152602001600020600a01805480602002602001604051908101604052809291908181526020018280548015610b2057602002820191906000526020600020905b815481526020019060010190808311610b0c575b505050505084611084565b600088815260066020819052604090912001541115610b5c5760405162461bcd60e51b815260040161062b906121ab565b600087815260066020908152604090912060088101889055600981018790558251610b8f92600a90920191840190611928565b506000878152600660208181526040808420600b810180546001600160a01b0319166001600160a01b038a1617905560058352932042905552600901546003141561107b576000878152600660205260409020600701546001600160a01b0316331415610d8b576000878152600660205260409081902060038101546007820154600590920154925163a9059cbb60e01b81526001600160a01b0392831660048201526024810193909352169063a9059cbb90604401602060405180830381600087803b158015610c5f57600080fd5b505af1158015610c73573d6000803e3d6000fd5b505050506040513d601f19601f82011682018060405250810190610c9791906121f0565b506000878152600660205260408120600381015481546001600160a01b039091169263a9059cbb9291610ccc57610ccc612164565b60009182526020808320909101548b83526006909152604090912060058101546004909101546001600160a01b0390921691610d07916114d4565b6040516001600160e01b031960e085901b1681526001600160a01b0390921660048301526024820152604401602060405180830381600087803b158015610d4d57600080fd5b505af1158015610d61573d6000803e3d6000fd5b505050506040513d601f19601f82011682018060405250810190610d8591906121f0565b50610e63565b6000878152600660205260408120600381015481546001600160a01b039091169263a9059cbb9291610dbf57610dbf612164565b6000918252602080832091909101548b83526006909152604091829020600490810154925160e085901b6001600160e01b03191681526001600160a01b03909216908201526024810191909152604401602060405180830381600087803b158015610e2957600080fd5b505af1158015610e3d573d6000803e3d6000fd5b505050506040513d601f19601f82011682018060405250810190610e6191906121f0565b505b60008781526006602052604090206003810154600b82015460048301546002909301546001600160a01b039283169363a9059cbb9390921691610ea691906114d4565b6040516001600160e01b031960e085901b1681526001600160a01b0390921660048301526024820152604401602060405180830381600087803b158015610eec57600080fd5b505af1158015610f00573d6000803e3d6000fd5b505050506040513d601f19601f82011682018060405250810190610f2491906121f0565b506000805488825260066020526040822080546001600160a01b039092169263d0def52192610f5557610f55612164565b6000918252602090912001546040516001600160e01b031960e084901b168152610f8e916001600160a01b031690600390600401612212565b602060405180830381600087803b158015610fa857600080fd5b505af1158015610fbc573d6000803e3d6000fd5b505050506040513d601f19601f82011682018060405250810190610fe091906122cb565b50600080548882526006602052604091829020600b0154915163d0def52160e01b81526001600160a01b039182169263d0def5219261102792911690600290600401612212565b602060405180830381600087803b15801561104157600080fd5b505af1158015611055573d6000803e3d6000fd5b505050506040513d601f19601f8201168201806040525081019061107991906122cb565b505b50505050505050565b6000805b82518110156111d7576110bc604051806040016040528060098152602001687369676e617475726560b81b815250826114f8565b61118c61112f8583815181106110d4576110d4612164565b60200260200101516040517f19457468657265756d205369676e6564204d6573736167653a0a3332000000006020820152603c8101829052600090605c01604051602081830303815290604052805190602001209050919050565b84838151811061114157611141612164565b602002602001015160066000898152602001908152602001600020600001848154811061117057611170612164565b6000918252602090912001546001600160a01b03169190611541565b156111c5578161119b81612190565b9250506111c5604051806040016040528060058152602001641d985b1a5960da1b815250836114f8565b806111cf81612190565b915050611088565b509392505050565b60006111e9611847565b8d815260208082018e905260408083018e90526001600160a01b03808e166060850152608084018d905260a084018c905260c084018b9052891660e08401526000610100840181905260016101208501526101408401879052610160840152516112559183910161231d565b604051602081830303815290604052805190602001209150509c9b505050505050505050505050565b600081815260066020908152604091829020600a0180548351818402810184019094528084526060939283018282801561050157602002820191906000526020600020905b8154815260200190600101908083116112c35750505050509050919050565b6000858152600660209081526040808320815181546101a094810282018501909352610180810183815285949193849284919084018282801561134e57602002820191906000526020600020905b81546001600160a01b03168152600190910190602001808311611330575b50505091835250506001820154602080830191909152600283015460408084019190915260038401546001600160a01b03908116606085015260048501546080850152600585015460a0850152600685015460c085015260078501541660e084015260088401546101008401526009840154610120840152600a8401805482518185028101850190935280835261014090940193919290919083018282801561141657602002820191906000526020600020905b815481526020019060010190808311611402575b5050509183525050600b91909101546001600160a01b0390811660209283015261010083018990526101208301889052610140830187905285166101608301526040519192506114689183910161231d565b6040516020818303038152906040528051906020012091505095945050505050565b6002805461051a90612129565b600781815481106114a757600080fd5b6000918252602090912001546001600160a01b0316905081565b60006114cd82846123fb565b9392505050565b60006114cd828461241d565b60006114cd8284612434565b60006114cd8284612453565b61153d828260405160240161150e92919061246b565b60408051601f198184030181529190526020810180516001600160e01b03166309710a9d60e41b17905261168d565b5050565b600080600061155085856116ae565b909250905060008160048111156115695761156961248d565b1480156115875750856001600160a01b0316826001600160a01b0316145b15611597576001925050506114cd565b600080876001600160a01b0316631626ba7e60e01b88886040516024016115bf9291906124a3565b60408051601f198184030181529181526020820180516001600160e01b03166001600160e01b03199094169390931790925290516115fd91906124c4565b600060405180830381855afa9150503d8060008114611638576040519150601f19603f3d011682016040523d82523d6000602084013e61163d565b606091505b5091509150818015611650575080516020145b801561168157508051630b135d3f60e11b9061167590830160209081019084016124e0565b6001600160e01b031916145b98975050505050505050565b80516a636f6e736f6c652e6c6f67602083016000808483855afa5050505050565b6000808251604114156116e55760208301516040840151606085015160001a6116d98782858561171e565b94509450505050611717565b82516040141561170f576020830151604084015161170486838361180b565b935093505050611717565b506000905060025b9250929050565b6000807f7fffffffffffffffffffffffffffffff5d576e7357a4501ddfe92f46681b20a08311156117555750600090506003611802565b8460ff16601b1415801561176d57508460ff16601c14155b1561177e5750600090506004611802565b6040805160008082526020820180845289905260ff881692820192909252606081018690526080810185905260019060a0016020604051602081039080840390855afa1580156117d2573d6000803e3d6000fd5b5050604051601f1901519150506001600160a01b0381166117fb57600060019250925050611802565b9150600090505b94509492505050565b6000806001600160ff1b03831660ff84901c601b0161182c8782888561171e565b935093505050935093915050565b614cf18061250b83390190565b60405180610180016040528060608152602001600081526020016000815260200160006001600160a01b0316815260200160008152602001600081526020016000815260200160006001600160a01b0316815260200160008152602001600081526020016060815260200160006001600160a01b031681525090565b828054828255906000526020600020908101928215611918579160200282015b8281111561191857825182546001600160a01b0319166001600160a01b039091161782556020909201916001909101906118e3565b50611924929150611963565b5090565b828054828255906000526020600020908101928215611918579160200282015b82811115611918578251825591602001919060010190611948565b5b808211156119245760008155600101611964565b6020808252825182820181905260009190848201906040850190845b818110156119b95783516001600160a01b031683529284019291840191600101611994565b50909695505050505050565b6000602082840312156119d757600080fd5b5035919050565b6001600160a01b03811681146119f357600080fd5b50565b8035611a01816119de565b919050565b634e487b7160e01b600052604160045260246000fd5b604051601f8201601f1916810167ffffffffffffffff81118282101715611a4557611a45611a06565b604052919050565b600067ffffffffffffffff831115611a6757611a67611a06565b611a7a601f8401601f1916602001611a1c565b9050828152838383011115611a8e57600080fd5b828260208301376000602084830101529392505050565b60008060008060008060008060006101208a8c031215611ac457600080fd5b8935611acf816119de565b985060208a0135975060408a0135965060608a0135955060808a0135945060a08a013567ffffffffffffffff811115611b0757600080fd5b8a01601f81018c13611b1857600080fd5b611b278c823560208401611a4d565b94505060c08a0135925060e08a013591506101008a013590509295985092959850929598565b60005b83811015611b68578181015183820152602001611b50565b83811115611b77576000848401525b50505050565b60008151808452611b95816020860160208601611b4d565b601f01601f19169290920160200192915050565b6020815260006114cd6020830184611b7d565b600067ffffffffffffffff821115611bd657611bd6611a06565b5060051b60200190565b600082601f830112611bf157600080fd5b81356020611c06611c0183611bbc565b611a1c565b82815260059290921b84018101918181019086841115611c2557600080fd5b8286015b84811015611c49578035611c3c816119de565b8352918301918301611c29565b509695505050505050565b600082601f830112611c6557600080fd5b81356020611c75611c0183611bbc565b82815260059290921b84018101918181019086841115611c9457600080fd5b8286015b84811015611c4957803567ffffffffffffffff811115611cb85760008081fd5b8701603f81018913611cca5760008081fd5b611cdb898683013560408401611a4d565b845250918301918301611c98565b6000806000806000806000806000806101408b8d031215611d0957600080fd5b8a3567ffffffffffffffff80821115611d2157600080fd5b611d2d8e838f01611be0565b9b5060208d01359a5060408d01359950611d4960608e016119f6565b985060808d0135975060a08d0135965060c08d01359550611d6c60e08e016119f6565b94506101008d0135915080821115611d8357600080fd5b50611d908d828e01611c54565b9250506101208b013590509295989b9194979a5092959850565b600082601f830112611dbb57600080fd5b81356020611dcb611c0183611bbc565b82815260059290921b84018101918181019086841115611dea57600080fd5b8286015b84811015611c495780358352918301918301611dee565b600080600080600080600060e0888a031215611e2057600080fd5b873596506020880135955060408801359450606088013567ffffffffffffffff80821115611e4d57600080fd5b611e598b838c01611daa565b955060808a01359150611e6b826119de565b90935060a08901359080821115611e8157600080fd5b611e8d8b838c01611c54565b935060c08a0135915080821115611ea357600080fd5b50611eb08a828b01611daa565b91505092959891949750929550565b600080600060608486031215611ed457600080fd5b83359250602084013567ffffffffffffffff80821115611ef357600080fd5b611eff87838801611daa565b93506040860135915080821115611f1557600080fd5b50611f2286828701611c54565b9150509250925092565b6000806000806000806000806000806000806101808d8f031215611f4f57600080fd5b67ffffffffffffffff8d351115611f6557600080fd5b611f728e8e358f01611be0565b9b5060208d01359a5060408d01359950611f8e60608e016119f6565b985060808d0135975060a08d0135965060c08d01359550611fb160e08e016119f6565b94506101008d013593506101208d0135925067ffffffffffffffff6101408e01351115611fdd57600080fd5b611fee8e6101408f01358f01611daa565b9150611ffd6101608e016119f6565b90509295989b509295989b509295989b565b600081518084526020808501945080840160005b8381101561203f57815187529582019590820190600101612023565b509495945050505050565b6020815260006114cd602083018461200f565b600080600080600060a0868803121561207557600080fd5b853594506020860135935060408601359250606086013567ffffffffffffffff8111156120a157600080fd5b6120ad88828901611daa565b92505060808601356120be816119de565b809150509295509295909350565b600061012060018060a01b038c1683528a60208401528960408401528860608401528760808401528060a084015261210681840188611b7d565b60c0840196909652505060e0810192909252610100909101529695505050505050565b600181811c9082168061213d57607f821691505b6020821081141561215e57634e487b7160e01b600052602260045260246000fd5b50919050565b634e487b7160e01b600052603260045260246000fd5b634e487b7160e01b600052601160045260246000fd5b60006000198214156121a4576121a461217a565b5060010190565b60208082526025908201527f44446e443a204572726f7220696e207369676e6174757265207665726966696360408201526430ba34b7b760d91b606082015260800190565b60006020828403121561220257600080fd5b815180151581146114cd57600080fd5b60018060a01b0383168152600060206040818401526000845481600182811c91508083168061224257607f831692505b85831081141561226057634e487b7160e01b85526022600452602485fd5b604088018390526060880181801561227f5760018114612290576122bb565b60ff198616825287820196506122bb565b60008b81526020902060005b868110156122b55781548482015290850190890161229c565b83019750505b50949a9950505050505050505050565b6000602082840312156122dd57600080fd5b5051919050565b600081518084526020808501945080840160005b8381101561203f5781516001600160a01b0316875295820195908201906001016122f8565b602081526000825161018080602085015261233c6101a08501836122e4565b91506020850151604085015260408501516060850152606085015161236c60808601826001600160a01b03169052565b50608085015160a085015260a085015160c085015260c085015160e085015260e08501516101006123a7818701836001600160a01b03169052565b8601516101208681019190915286015161014080870191909152860151858403601f1901610160808801919091529091506123e2848361200f565b9601516001600160a01b03169190940152509192915050565b60008261241857634e487b7160e01b600052601260045260246000fd5b500490565b60008282101561242f5761242f61217a565b500390565b600081600019048311821515161561244e5761244e61217a565b500290565b600082198211156124665761246661217a565b500190565b60408152600061247e6040830185611b7d565b90508260208301529392505050565b634e487b7160e01b600052602160045260246000fd5b8281526040602082015260006124bc6040830184611b7d565b949350505050565b600082516124d6818460208701611b4d565b9190910192915050565b6000602082840312156124f257600080fd5b81516001600160e01b0319811681146114cd57600080fdfe608060405234801561001057600080fd5b50614cd1806100206000396000f3fe6080604052600436106102695760003560e01c80635bc789d911610143578063b3b47061116100bb578063ea1627c011610077578063ea1627c01461082b578063ed996f5e14610858578063f4ff96aa14610878578063f977cd2914610898578063fc0c546a146108ad578063fc4e703f146108d357005b8063b3b4706114610741578063b96f8c9e14610761578063bec11c0e14610781578063cc3c74a1146107a1578063d5c1b6fc146107b7578063db0c41bf146107fe57005b80637e17e3fc1161010a5780637e17e3fc146106865780638c20a9c5146106a65780639669b1cb146106bc5780639840dccc146106d1578063adbba7ae14610701578063b3929aaa1461072157005b80635bc789d9146105b0578063663bb4af146105e85780636e27d8891461060b57806376b0243a1461062b57806379ec5d3a1461066657005b806327f2bdde116101e15780633f10cf151161019d5780633f10cf15146104ed5780633fe229f714610503578063402bad8e14610523578063430694cf146105435780634b0babdd1461057a578063568914121461059a57005b806327f2bdde146104135780632fd99c001461043357806332315fc41461046357806332ed5b12146104835780633a3bed00146104b75780633de39c11146104d757005b806314621a3a1161023057806314621a3a14610361578063158ef93e146103815780631626ba7e146103b2578063184a0ae9146103d25780631c3e89f4146103e85780632229a0e2146103fe57005b806301a598a61461027257806306fdde03146102c0578063088af182146102e25780630d6680871461031d5780630f9a85531461034157005b3661027057005b005b34801561027e57600080fd5b506102a661028d3660046136b7565b600e602052600090815260409020805460019091015482565b604080519283526020830191909152015b60405180910390f35b3480156102cc57600080fd5b506102d56108e9565b6040516102b7919061371f565b3480156102ee57600080fd5b506103046102fd3660046137e7565b6020015190565b6040516001600160e01b031990911681526020016102b7565b34801561032957600080fd5b5061033360085481565b6040519081526020016102b7565b34801561034d57600080fd5b5061027061035c3660046138b1565b610977565b34801561036d57600080fd5b5061027061037c366004613914565b610a48565b34801561038d57600080fd5b506000546103a290600160b01b900460ff1681565b60405190151581526020016102b7565b3480156103be57600080fd5b506103046103cd366004613974565b610bc0565b3480156103de57600080fd5b5061033360025481565b3480156103f457600080fd5b5061033360045481565b34801561040a57600080fd5b50601154610333565b34801561041f57600080fd5b5061033361042e366004613a91565b610c0d565b34801561043f57600080fd5b506103a261044e366004613b62565b600c6020526000908152604090205460ff1681565b34801561046f57600080fd5b5061033361047e366004613b7b565b610cc7565b34801561048f57600080fd5b506104a361049e366004613b62565b610d13565b6040516102b7989796959493929190613bdd565b3480156104c357600080fd5b506102706104d2366004613c48565b610e76565b3480156104e357600080fd5b5061033360075481565b3480156104f957600080fd5b5061033360035481565b34801561050f57600080fd5b5061027061051e366004613b62565b610f0b565b34801561052f57600080fd5b5061027061053e366004613ce8565b610f84565b34801561054f57600080fd5b5061056361055e366004613b62565b610f9c565b6040516102b79b9a99989796959493929190613dc1565b34801561058657600080fd5b50610270610595366004613b62565b6112d5565b3480156105a657600080fd5b5061033360095481565b3480156105bc57600080fd5b50600a546105d0906001600160a01b031681565b6040516001600160a01b0390911681526020016102b7565b3480156105f457600080fd5b506103a2610603366004613eb7565b600192915050565b34801561061757600080fd5b50610270610626366004613b62565b611499565b34801561063757600080fd5b506103a2610646366004613eb7565b600d60209081526000928352604080842090915290825290205460ff1681565b34801561067257600080fd5b506103336106813660046136b7565b6115a0565b34801561069257600080fd5b506102706106a1366004613eea565b6115bb565b3480156106b257600080fd5b5061033360055481565b3480156106c857600080fd5b50600454610333565b3480156106dd57600080fd5b506103a26106ec366004613b62565b600f6020526000908152604090205460ff1681565b34801561070d57600080fd5b5061033361071c366004613f7b565b611836565b34801561072d57600080fd5b5061033361073c366004613b62565b611885565b34801561074d57600080fd5b5061027061075c366004613b62565b6118a6565b34801561076d57600080fd5b5061027061077c366004614018565b611963565b34801561078d57600080fd5b5061027061079c3660046140fa565b611dab565b3480156107ad57600080fd5b50610333600b5481565b3480156107c357600080fd5b506103336107d236600461411c565b60008281526010602090815260408083206001600160a01b0385168452600b0190915290205492915050565b34801561080a57600080fd5b5061081e61081936600461413f565b611e30565b6040516102b79190614175565b34801561083757600080fd5b5061084b610846366004614207565b611ef8565b6040516102b791906142cb565b34801561086457600080fd5b50610333610873366004613b62565b6122cc565b34801561088457600080fd5b5061081e61089336600461430f565b6122f8565b3480156108a457600080fd5b50600554610333565b3480156108b957600080fd5b506000546105d0906201000090046001600160a01b031681565b3480156108df57600080fd5b5061033360065481565b600180546108f690614343565b80601f016020809104026020016040519081016040528092919081815260200182805461092290614343565b801561096f5780601f106109445761010080835404028352916020019161096f565b820191906000526020600020905b81548152906001019060200180831161095257829003601f168201915b505050505081565b80518251146109e85760405162461bcd60e51b815260206004820152603260248201527f45524332304775696c643a2057726f6e67206c656e677468206f662070726f706044820152716f73616c496473206f7220616d6f756e747360701b60648201526084015b60405180910390fd5b60005b8251811015610a4357610a3133848381518110610a0a57610a0a61437e565b6020026020010151848481518110610a2457610a2461437e565b60200260200101516123a5565b80610a3b816143aa565b9150506109eb565b505050565b600054600160b01b900460ff16610a715760405162461bcd60e51b81526004016109df906143c5565b6000610a7e838686611836565b6000818152600c602052604090205490915060ff1615610ae05760405162461bcd60e51b815260206004820152601960248201527f45524332304775696c643a20416c726561647920766f7465640000000000000060448201526064016109df565b610b4182610b3b836040517f19457468657265756d205369676e6564204d6573736167653a0a3332000000006020820152603c8101829052600090605c01604051602081830303815290604052805190602001209050919050565b90612663565b6001600160a01b0316836001600160a01b031614610ba15760405162461bcd60e51b815260206004820152601860248201527f45524332304775696c643a2057726f6e67207369676e6572000000000000000060448201526064016109df565b6000908152600c60205260409020805460ff1916600117905550505050565b600080610bd06106818585612663565b118015610bf057506000838152600f602052604090205460ff1615156001145b610bfb576000610c04565b630b135d3f60e11b5b90505b92915050565b60008054600160b01b900460ff16610c375760405162461bcd60e51b81526004016109df906143c5565b600554610c43336115a0565b1015610c615760405162461bcd60e51b81526004016109df906143fc565b84518651148015610c73575083518651145b610c8f5760405162461bcd60e51b81526004016109df9061444c565b6000865111610cb05760405162461bcd60e51b81526004016109df906144a0565b610cbd868686868661267f565b9695505050505050565b6001600160a01b038216600090815260126020526040812081908190610cee908590612817565b915091508115610d01579150610c079050565b610d0a856115a0565b92505050610c07565b60106020526000908152604090208054600182015460028301546006840180546001600160a01b03909416949293919291610d4d90614343565b80601f0160208091040260200160405190810160405280929190818152602001828054610d7990614343565b8015610dc65780601f10610d9b57610100808354040283529160200191610dc6565b820191906000526020600020905b815481529060010190602001808311610da957829003601f168201915b505050505090806007018054610ddb90614343565b80601f0160208091040260200160405190810160405280929190818152602001828054610e0790614343565b8015610e545780601f10610e2957610100808354040283529160200191610e54565b820191906000526020600020905b815481529060010190602001808311610e3757829003601f168201915b5050505060088301546009840154600a909401549293909260ff909116915088565b60005b8451811015610f0457610ef2858281518110610e9757610e9761437e565b6020026020010151858381518110610eb157610eb161437e565b6020026020010151858481518110610ecb57610ecb61437e565b6020026020010151858581518110610ee557610ee561437e565b6020026020010151610a48565b80610efc816143aa565b915050610e79565b5050505050565b333014610f695760405162461bcd60e51b815260206004820152602660248201527f45524332304775696c643a204f6e6c792063616c6c61626c65206279207468656044820152650819dd5a5b1960d21b60648201526084016109df565b6000908152600f60205260409020805460ff19166001179055565b610f9387878787878787612906565b50505050505050565b60008060006060806060806060600080600080601060008e815260200190815260200160002090508060000160009054906101000a90046001600160a01b031681600101548260020154836003018460040185600501866006018760070188600801548960090160009054906101000a900460ff168a600a01548780548060200260200160405190810160405280929190818152602001828054801561106b57602002820191906000526020600020905b81546001600160a01b0316815260019091019060200180831161104d575b5050505050975086805480602002602001604051908101604052809291908181526020016000905b8282101561113f5783829060005260206000200180546110b290614343565b80601f01602080910402602001604051908101604052809291908181526020018280546110de90614343565b801561112b5780601f106111005761010080835404028352916020019161112b565b820191906000526020600020905b81548152906001019060200180831161110e57829003601f168201915b505050505081526020019060010190611093565b5050505096508580548060200260200160405190810160405280929190818152602001828054801561119057602002820191906000526020600020905b81548152602001906001019080831161117c575b505050505095508480546111a390614343565b80601f01602080910402602001604051908101604052809291908181526020018280546111cf90614343565b801561121c5780601f106111f15761010080835404028352916020019161121c565b820191906000526020600020905b8154815290600101906020018083116111ff57829003601f168201915b5050505050945083805461122f90614343565b80601f016020809104026020016040519081016040528092919081815260200182805461125b90614343565b80156112a85780601f1061127d576101008083540402835291602001916112a8565b820191906000526020600020905b81548152906001019060200180831161128b57829003601f168201915b505050505093509b509b509b509b509b509b509b509b509b509b509b505091939597999b90929496989a50565b806112df336115a0565b101561134b5760405162461bcd60e51b815260206004820152603560248201527f45524332304775696c643a20556e61626c6520746f2072656c65617365206d6f6044820152741c99481d1bdad95b9cc81d1a185b881b1bd8dad959605a1b60648201526084016109df565b336000908152600e602052604090206001015442116113ac5760405162461bcd60e51b815260206004820152601f60248201527f45524332304775696c643a20546f6b656e73207374696c6c206c6f636b65640060448201526064016109df565b6113b533612a86565b6113bd612ab0565b336000908152600e60205260409020546113d79082612abf565b336000908152600e60205260409020556009546113f49082612abf565b600955600a5460405163f3fef3a360e01b8152336004820152602481018390526001600160a01b039091169063f3fef3a390604401600060405180830381600087803b15801561144357600080fd5b505af1158015611457573d6000803e3d6000fd5b505060408051338152602081018590527fc7798891864187665ac6dd119286e44ec13f014527aeeb2b8eb3fd413df9317993500190505b60405180910390a150565b6114a233612a86565b6114aa612ab0565b600a546040516311f9fbc960e21b8152336004820152602481018390526001600160a01b03909116906347e7ef2490604401600060405180830381600087803b1580156114f657600080fd5b505af115801561150a573d6000803e3d6000fd5b5050336000908152600e60205260409020546115299250905082612acb565b336000908152600e6020526040902055600854611547904290612acb565b336000908152600e60205260409020600101556009546115679082612acb565b60095560408051338152602081018390527fac87f20a77d28ee8bbb58ec87ea8fa968b3393efae1a368fd50b767c2847391c910161148e565b6001600160a01b03166000908152600e602052604090205490565b600054610100900460ff16806115d4575060005460ff16155b6116375760405162461bcd60e51b815260206004820152602e60248201527f496e697469616c697a61626c653a20636f6e747261637420697320616c72656160448201526d191e481a5b9a5d1a585b1a5e995960921b60648201526084016109df565b600054610100900460ff16158015611659576000805461ffff19166101011790555b6001600160a01b038a166116bd5760405162461bcd60e51b815260206004820152602560248201527f45524332304775696c643a20746f6b656e20697320746865207a65726f206164604482015264647265737360d81b60648201526084016109df565b84516116d09060019060208801906134bb565b506000805462010000600160b01b031916620100006001600160a01b038d16021790556040516116ff9061353f565b604051809103906000f08015801561171b573d6000803e3d6000fd5b50600a80546001600160a01b0319166001600160a01b0392831690811790915560005460405163485cc95560e01b81526201000090910490921660048301523060248301529063485cc95590604401600060405180830381600087803b15801561178457600080fd5b505af1158015611798573d6000803e3d6000fd5b505050506117ab89898989888888612906565b306000908152600d60209081526040808320632015d6c760e11b8452909152808220805460ff199081166001908117909255635cb7c64f60e11b84528284208054821683179055635a2bcc6b60e11b84529183208054909216179055805460ff60b01b1916600160b01b179055801561182a576000805461ff00191690555b50505050505050505050565b6040516bffffffffffffffffffffffff19606085901b16602082015260348101839052605481018290526000906074016040516020818303038152906040528051906020012090509392505050565b6011818154811061189557600080fd5b600091825260209091200154905081565b600160008281526010602052604090206009015460ff1660048111156118ce576118ce613ba5565b146118eb5760405162461bcd60e51b81526004016109df906144f1565b60008181526010602052604090206002015442116119575760405162461bcd60e51b8152602060048201526024808201527f45524332304775696c643a2050726f706f73616c206861736e7420656e646564604482015263081e595d60e21b60648201526084016109df565b61196081612ad7565b50565b600054600160b01b900460ff1661198c5760405162461bcd60e51b81526004016109df906143c5565b3330146119f25760405162461bcd60e51b815260206004820152602e60248201527f45524332304775696c643a204f6e6c792063616c6c61626c652062792045524360448201526d191833bab4b6321034ba39b2b63360911b60648201526084016109df565b81518351148015611a04575080518351145b611a845760405162461bcd60e51b815260206004820152604560248201527f45524332304775696c643a2057726f6e67206c656e677468206f6620746f2c2060448201527f66756e6374696f6e5369676e6174757265206f7220616c6c6f77616e63652061606482015264727261797360d81b608482015260a4016109df565b60005b8351811015611c7c578251600090849083908110611aa757611aa761437e565b60200260200101516001600160e01b0319161415611b185760405162461bcd60e51b815260206004820152602860248201527f45524332304775696c643a20456d70747920736967616e7475726573206e6f7460448201526708185b1b1bddd95960c21b60648201526084016109df565b818181518110611b2a57611b2a61437e565b6020026020010151600d6000868481518110611b4857611b4861437e565b60200260200101516001600160a01b03166001600160a01b031681526020019081526020016000206000858481518110611b8457611b8461437e565b60200260200101516001600160e01b0319166001600160e01b031916815260200190815260200160002060006101000a81548160ff021916908315150217905550838181518110611bd757611bd761437e565b60200260200101516001600160a01b03167f31e41e795ddf7710d216f93d4d9a1080ca53618ba00822e743d12f31a7dfc980848381518110611c1b57611c1b61437e565b6020026020010151848481518110611c3557611c3561437e565b6020026020010151604051611c629291906001600160e01b03199290921682521515602082015260400190565b60405180910390a280611c74816143aa565b915050611a87565b50306000908152600d60209081526040808320632015d6c760e11b845290915290205460ff16611d145760405162461bcd60e51b815260206004820152603b60248201527f45524332304775696c643a20736574436f6e6669672066756e6374696f6e206160448201527f6c6c6f77616e63652063616e74206265207475726e6564206f6666000000000060648201526084016109df565b306000908152600d60209081526040808320635cb7c64f60e11b845290915290205460ff16610a435760405162461bcd60e51b815260206004820152603e60248201527f45524332304775696c643a20736574416c6c6f77616e63652066756e6374696f60448201527f6e20616c6c6f77616e63652063616e74206265207475726e6564206f6666000060648201526084016109df565b6000828152601060205260409020600a01548190611dca903390610cc7565b1015611e185760405162461bcd60e51b815260206004820152601a60248201527f45524332304775696c643a20496e76616c696420616d6f756e7400000000000060448201526064016109df565b611e233383836123a5565b611e2c33612f2b565b5050565b6060600083516001600160401b03811115611e4d57611e4d613732565b604051908082528060200260200182016040528015611e76578160200160208202803683370190505b50905060005b8451811015611ef057611ec1858281518110611e9a57611e9a61437e565b6020026020010151858381518110611eb457611eb461437e565b6020026020010151610cc7565b828281518110611ed357611ed361437e565b602090810291909101015280611ee8816143aa565b915050611e7c565b509392505050565b600054606090600160b01b900460ff16611f245760405162461bcd60e51b81526004016109df906143c5565b600554611f30336115a0565b1015611f4e5760405162461bcd60e51b81526004016109df906143fc565b84518651148015611f60575083518651145b611f7c5760405162461bcd60e51b81526004016109df9061444c565b8151835114611ff35760405162461bcd60e51b815260206004820152603d60248201527f45524332304775696c643a2057726f6e67206c656e677468206f66206465736360448201527f72697074696f6e206f7220636f6e74656e74486173682061727261797300000060648201526084016109df565b60008651116120145760405162461bcd60e51b81526004016109df906144a0565b600083516001600160401b0381111561202f5761202f613732565b604051908082528060200260200182016040528015612058578160200160208202803683370190505b50845188519192509060009061206e9083612fbe565b905060005b828110156122be576000826001600160401b0381111561209557612095613732565b6040519080825280602002602001820160405280156120be578160200160208202803683370190505b5090506000836001600160401b038111156120db576120db613732565b60405190808252806020026020018201604052801561210e57816020015b60608152602001906001900390816120f95790505b5090506000846001600160401b0381111561212b5761212b613732565b604051908082528060200260200182016040528015612154578160200160208202803683370190505b5090506000806121648787612fca565b90505b86811015612249578e81815181106121815761218161437e565b602002602001015185838151811061219b5761219b61437e565b60200260200101906001600160a01b031690816001600160a01b0316815250508d81815181106121cd576121cd61437e565b60200260200101518483815181106121e7576121e761437e565b60200260200101819052508c81815181106122045761220461437e565b602002602001015183838151811061221e5761221e61437e565b602090810291909101015281612233816143aa565b9250508080612241906143aa565b915050612167565b506122898484848e89815181106122625761226261437e565b60200260200101518e8a8151811061227c5761227c61437e565b602002602001015161267f565b88868151811061229b5761229b61437e565b6020026020010181815250505050505080806122b6906143aa565b915050612073565b509198975050505050505050565b60008060006122dc846013612817565b9150915081156122ed579392505050565b505060095492915050565b6060600082516001600160401b0381111561231557612315613732565b60405190808252806020026020018201604052801561233e578160200160208202803683370190505b50905060005b835181101561239e5761236f8482815181106123625761236261437e565b60200260200101516115a0565b8282815181106123815761238161437e565b602090810291909101015280612396816143aa565b915050612344565b5092915050565b600054600160b01b900460ff166123ce5760405162461bcd60e51b81526004016109df906143c5565b600160008381526010602052604090206009015460ff1660048111156123f6576123f6613ba5565b146124135760405162461bcd60e51b81526004016109df906144f1565b8061241d846115a0565b101561246b5760405162461bcd60e51b815260206004820152601a60248201527f45524332304775696c643a20496e76616c696420616d6f756e7400000000000060448201526064016109df565b60008281526010602090815260408083206001600160a01b0387168452600b0190915290205481111561256b5760008281526010602090815260408083206001600160a01b0387168452600b019091529020546124e5906124cd908390612abf565b60008481526010602052604090206008015490612acb565b600083815260106020908152604080832060088101949094556001600160a01b0387168352600b9093019052205482907f994c1e2cd59a94ec7f932ab317a85dabd5f43917c5cfb959b751a9648140c0c2908590612544908590612abf565b604080516001600160a01b03909316835260208301919091520160405180910390a2612638565b60008281526010602090815260408083206001600160a01b0387168452600b019091529020546125b79061259f9083612abf565b60008481526010602052604090206008015490612abf565b600083815260106020908152604080832060088101949094556001600160a01b0387168352600b9093019052205482907f79f996adb5f064cd332cb02f590abdf662bafabcbe22469b8b316466e475c2c19085906126159085612abf565b604080516001600160a01b03909316835260208301919091520160405180910390a25b60009182526010602090815260408084206001600160a01b039095168452600b909401905291902055565b60008060006126728585612fd6565b91509150611ef081613043565b600b54604080513360601b6bffffffffffffffffffffffff1916602080830191909152426034830152605480830185905283518084039091018152607490920190925280519101206000916126d5906001612acb565b600b556015546126e6906001612acb565b601555600081815260106020526040902080546001600160a01b03191633178155426001820181905560025461271c9190612acb565b6002820155875161273690600383019060208b019061354c565b50865161274c90600483019060208a01906135a1565b50855161276290600583019060208901906135fa565b50845161277890600683019060208801906134bb565b50835161278e90600783019060208701906134bb565b5060006008820181905560098201805460ff19166001179055601554600a83015560405183917f288a29bca04edb18fcdb2c76d6e3b03b8a137c85c70d1a4cb8aacfa868d6051091a250601180546001810182556000919091527f31ecc21a745e3968a04e9570e4425bc18fa8019c68028196b546d1669c200c68018190559695505050505050565b600080600084116128605760405162461bcd60e51b8152602060048201526013602482015272045524332304775696c643a206964206973203606c1b60448201526064016109df565b6015548411156128b25760405162461bcd60e51b815260206004820152601a60248201527f45524332304775696c643a206e6f6e6578697374656e7420696400000000000060448201526064016109df565b60006128be84866131fe565b84549091508114156128d75760008092509250506128ff565b60018460010182815481106128ee576128ee61437e565b906000526020600020015492509250505b9250929050565b600054600160b01b900460ff16158061291e57503330145b6129905760405162461bcd60e51b815260206004820152603f60248201527f45524332304775696c643a204f6e6c792063616c6c61626c652062792045524360448201527f32306775696c6420697473656c66207768656e20696e697469616c697a65640060648201526084016109df565b600085116129fe5760405162461bcd60e51b815260206004820152603560248201527f45524332304775696c643a20766f74657320666f7220657865637574696f6e20604482015274068617320746f206265206d6f7265207468616e203605c1b60648201526084016109df565b60008111612a665760405162461bcd60e51b815260206004820152602f60248201527f45524332304775696c643a206c6f636b54696d652073686f756c64206265206860448201526e6967686572207468616e207a65726f60881b60648201526084016109df565b600296909655600394909455600492909255600555600655600755600855565b6001600160a01b038116600090815260126020526040902061196090612aab836115a0565b6132a9565b612abd60136009546132a9565b565b6000610c048284614536565b6000610c04828461454d565b600454600082815260106020526040902060080154108015612b1e5750600160008281526010602052604090206009015460ff166004811115612b1c57612b1c613ba5565b145b15612b6957600081815260106020526040808220600901805460ff191660021790555182917f55295d4ce992922fa2e5ffbf3a3dcdb367de0a15e125ace083456017fd22060f91a250565b6003546000828152601060205260409020600201544291612b8a9190612acb565b108015612bbc5750600160008281526010602052604090206009015460ff166004811115612bba57612bba613ba5565b145b15612c0757600081815260106020526040808220600901805460ff191660041790555182917f0126984176eaaeb6ba34a0bd7ee6e99c473c100f79bee0bb6d17f0f44c83f1f991a250565b600160008281526010602052604090206009015460ff166004811115612c2f57612c2f613ba5565b1415611960576000818152601060205260408120600901805460ff191660031790555b600082815260106020526040902060030154811015612efc5760008281526010602052604081206004018054612d2d919084908110612c9357612c9361437e565b906000526020600020018054612ca890614343565b80601f0160208091040260200160405190810160405280929190818152602001828054612cd490614343565b8015612d215780601f10612cf657610100808354040283529160200191612d21565b820191906000526020600020905b815481529060010190602001808311612d0457829003601f168201915b50505050506020015190565b60008481526010602052604090206003018054919250612d609184908110612d5757612d5761437e565b50600052600190565b612dac5760405162461bcd60e51b815260206004820152601c60248201527f45524332304775696c643a204e6f7420616c6c6f7765642063616c6c0000000060448201526064016109df565b6000838152601060205260408120600301805484908110612dcf57612dcf61437e565b60009182526020808320909101548683526010909152604090912060050180546001600160a01b039092169185908110612e0b57612e0b61437e565b9060005260206000200154601060008781526020019081526020016000206004018581548110612e3d57612e3d61437e565b90600052602060002001604051612e549190614565565b60006040518083038185875af1925050503d8060008114612e91576040519150601f19603f3d011682016040523d82523d6000602084013e612e96565b606091505b5050905080612ee75760405162461bcd60e51b815260206004820181905260248201527f45524332304775696c643a2050726f706f73616c2063616c6c206661696c656460448201526064016109df565b50508080612ef4906143aa565b915050612c52565b5060405181907f7b1bcf1ccf901a11589afff5504d59fd0a53780eed2a952adade0348985139e090600090a250565b600054600160b01b900460ff16612f545760405162461bcd60e51b81526004016109df906143c5565b60065415611960576000612f7f612f766007543a6132ea90919063ffffffff16565b60065490612fca565b9050804710611e2c576040516001600160a01b0383169082156108fc029083906000818181858888f19350505050158015610a43573d6000803e3d6000fd5b6000610c048284614617565b6000610c04828461462b565b60008082516041141561300d5760208301516040840151606085015160001a61300187828585613300565b945094505050506128ff565b825160401415613037576020830151604084015161302c8683836133ed565b9350935050506128ff565b506000905060026128ff565b600081600481111561305757613057613ba5565b14156130605750565b600181600481111561307457613074613ba5565b14156130c25760405162461bcd60e51b815260206004820152601860248201527f45434453413a20696e76616c6964207369676e6174757265000000000000000060448201526064016109df565b60028160048111156130d6576130d6613ba5565b14156131245760405162461bcd60e51b815260206004820152601f60248201527f45434453413a20696e76616c6964207369676e6174757265206c656e6774680060448201526064016109df565b600381600481111561313857613138613ba5565b14156131915760405162461bcd60e51b815260206004820152602260248201527f45434453413a20696e76616c6964207369676e6174757265202773272076616c604482015261756560f01b60648201526084016109df565b60048160048111156131a5576131a5613ba5565b14156119605760405162461bcd60e51b815260206004820152602260248201527f45434453413a20696e76616c6964207369676e6174757265202776272076616c604482015261756560f01b60648201526084016109df565b815460009081905b8082101561325c57600061321a838361341c565b90508486828154811061322f5761322f61437e565b9060005260206000200154111561324857809150613256565b61325381600161454d565b92505b50613206565b60008211801561329157508385613274600185614536565b815481106132845761328461437e565b9060005260206000200154145b156132a157610d0a600183614536565b509050610c07565b601554806132b684613473565b1015610a43578254600180820185556000858152602080822090930193909355938401805494850181558252902090910155565b60008183106132f95781610c04565b5090919050565b6000807f7fffffffffffffffffffffffffffffff5d576e7357a4501ddfe92f46681b20a083111561333757506000905060036133e4565b8460ff16601b1415801561334f57508460ff16601c14155b1561336057506000905060046133e4565b6040805160008082526020820180845289905260ff881692820192909252606081018690526080810185905260019060a0016020604051602081039080840390855afa1580156133b4573d6000803e3d6000fd5b5050604051601f1901519150506001600160a01b0381166133dd576000600192509250506133e4565b9150600090505b94509492505050565b6000806001600160ff1b03831660ff84901c601b0161340e87828885613300565b935093505050935093915050565b6000600261342a818461464a565b61343560028661464a565b61343f919061454d565b6134499190614617565b613454600284614617565b61345f600286614617565b613469919061454d565b610c04919061454d565b805460009061348457506000919050565b8154829061349490600190614536565b815481106134a4576134a461437e565b90600052602060002001549050919050565b919050565b8280546134c790614343565b90600052602060002090601f0160209004810192826134e9576000855561352f565b82601f1061350257805160ff191683800117855561352f565b8280016001018555821561352f579182015b8281111561352f578251825591602001919060010190613514565b5061353b929150613634565b5090565b61063d8061465f83390190565b82805482825590600052602060002090810192821561352f579160200282015b8281111561352f57825182546001600160a01b0319166001600160a01b0390911617825560209092019160019091019061356c565b8280548282559060005260206000209081019282156135ee579160200282015b828111156135ee57825180516135de9184916020909101906134bb565b50916020019190600101906135c1565b5061353b929150613649565b82805482825590600052602060002090810192821561352f579160200282018281111561352f578251825591602001919060010190613514565b5b8082111561353b5760008155600101613635565b8082111561353b57600061365d8282613666565b50600101613649565b50805461367290614343565b6000825580601f10613682575050565b601f0160209004906000526020600020908101906119609190613634565b80356001600160a01b03811681146134b657600080fd5b6000602082840312156136c957600080fd5b610c04826136a0565b6000815180845260005b818110156136f8576020818501810151868301820152016136dc565b8181111561370a576000602083870101525b50601f01601f19169290920160200192915050565b602081526000610c0460208301846136d2565b634e487b7160e01b600052604160045260246000fd5b604051601f8201601f191681016001600160401b038111828210171561377057613770613732565b604052919050565b600082601f83011261378957600080fd5b81356001600160401b038111156137a2576137a2613732565b6137b5601f8201601f1916602001613748565b8181528460208386010111156137ca57600080fd5b816020850160208301376000918101602001919091529392505050565b6000602082840312156137f957600080fd5b81356001600160401b0381111561380f57600080fd5b61381b84828501613778565b949350505050565b60006001600160401b0382111561383c5761383c613732565b5060051b60200190565b600082601f83011261385757600080fd5b8135602061386c61386783613823565b613748565b82815260059290921b8401810191818101908684111561388b57600080fd5b8286015b848110156138a6578035835291830191830161388f565b509695505050505050565b600080604083850312156138c457600080fd5b82356001600160401b03808211156138db57600080fd5b6138e786838701613846565b935060208501359150808211156138fd57600080fd5b5061390a85828601613846565b9150509250929050565b6000806000806080858703121561392a57600080fd5b8435935060208501359250613941604086016136a0565b915060608501356001600160401b0381111561395c57600080fd5b61396887828801613778565b91505092959194509250565b6000806040838503121561398757600080fd5b8235915060208301356001600160401b038111156139a457600080fd5b61390a85828601613778565b600082601f8301126139c157600080fd5b813560206139d161386783613823565b82815260059290921b840181019181810190868411156139f057600080fd5b8286015b848110156138a657613a05816136a0565b83529183019183016139f4565b600082601f830112613a2357600080fd5b81356020613a3361386783613823565b82815260059290921b84018101918181019086841115613a5257600080fd5b8286015b848110156138a65780356001600160401b03811115613a755760008081fd5b613a838986838b0101613778565b845250918301918301613a56565b600080600080600060a08688031215613aa957600080fd5b85356001600160401b0380821115613ac057600080fd5b613acc89838a016139b0565b96506020880135915080821115613ae257600080fd5b613aee89838a01613a12565b95506040880135915080821115613b0457600080fd5b613b1089838a01613846565b94506060880135915080821115613b2657600080fd5b613b3289838a01613778565b93506080880135915080821115613b4857600080fd5b50613b5588828901613778565b9150509295509295909350565b600060208284031215613b7457600080fd5b5035919050565b60008060408385031215613b8e57600080fd5b613b97836136a0565b946020939093013593505050565b634e487b7160e01b600052602160045260246000fd5b60058110613bd957634e487b7160e01b600052602160045260246000fd5b9052565b600061010060018060a01b038b168352896020840152886040840152806060840152613c0b818401896136d2565b90508281036080840152613c1f81886136d2565b9150508460a0830152613c3560c0830185613bbb565b8260e08301529998505050505050505050565b60008060008060808587031215613c5e57600080fd5b84356001600160401b0380821115613c7557600080fd5b613c8188838901613846565b95506020870135915080821115613c9757600080fd5b613ca388838901613846565b94506040870135915080821115613cb957600080fd5b613cc5888389016139b0565b93506060870135915080821115613cdb57600080fd5b5061396887828801613a12565b600080600080600080600060e0888a031215613d0357600080fd5b505085359760208701359750604087013596606081013596506080810135955060a0810135945060c0013592509050565b6000815180845260208085019450848260051b860182860160005b85811015613d79578383038952613d678383516136d2565b98850198925090840190600101613d4f565b5090979650505050505050565b600081518084526020808501945080840160005b83811015613db657815187529582019590820190600101613d9a565b509495945050505050565b6000610160820160018060a01b03808f1684528d60208501528c60408501526101606060850152818c518084526101808601915060208e01935060005b81811015613e1e5784518416835260209485019490920191600101613dfe565b50508481036080860152613e32818d613d34565b9250505082810360a0840152613e48818a613d86565b905082810360c0840152613e5c81896136d2565b905082810360e0840152613e7081886136d2565b91505084610100830152613e88610120830185613bbb565b826101408301529c9b505050505050505050505050565b80356001600160e01b0319811681146134b657600080fd5b60008060408385031215613eca57600080fd5b613ed3836136a0565b9150613ee160208401613e9f565b90509250929050565b60008060008060008060008060006101208a8c031215613f0957600080fd5b613f128a6136a0565b985060208a0135975060408a0135965060608a0135955060808a0135945060a08a01356001600160401b03811115613f4957600080fd5b613f558c828d01613778565b94505060c08a0135925060e08a013591506101008a013590509295985092959850929598565b600080600060608486031215613f9057600080fd5b613f99846136a0565b95602085013595506040909401359392505050565b600082601f830112613fbf57600080fd5b81356020613fcf61386783613823565b82815260059290921b84018101918181019086841115613fee57600080fd5b8286015b848110156138a6578035801515811461400b5760008081fd5b8352918301918301613ff2565b60008060006060848603121561402d57600080fd5b83356001600160401b038082111561404457600080fd5b614050878388016139b0565b945060209150818601358181111561406757600080fd5b8601601f8101881361407857600080fd5b803561408661386782613823565b81815260059190911b8201840190848101908a8311156140a557600080fd5b928501925b828410156140ca576140bb84613e9f565b825292850192908501906140aa565b965050505060408601359150808211156140e357600080fd5b506140f086828701613fae565b9150509250925092565b6000806040838503121561410d57600080fd5b50508035926020909101359150565b6000806040838503121561412f57600080fd5b82359150613ee1602084016136a0565b6000806040838503121561415257600080fd5b82356001600160401b038082111561416957600080fd5b6138e7868387016139b0565b602081526000610c046020830184613d86565b600082601f83011261419957600080fd5b813560206141a961386783613823565b82815260059290921b840181019181810190868411156141c857600080fd5b8286015b848110156138a65780356001600160401b038111156141eb5760008081fd5b6141f98986838b0101613778565b8452509183019183016141cc565b600080600080600060a0868803121561421f57600080fd5b85356001600160401b038082111561423657600080fd5b61424289838a016139b0565b9650602088013591508082111561425857600080fd5b61426489838a01613a12565b9550604088013591508082111561427a57600080fd5b61428689838a01613846565b9450606088013591508082111561429c57600080fd5b6142a889838a01614188565b935060808801359150808211156142be57600080fd5b50613b5588828901613a12565b6020808252825182820181905260009190848201906040850190845b81811015614303578351835292840192918401916001016142e7565b50909695505050505050565b60006020828403121561432157600080fd5b81356001600160401b0381111561433757600080fd5b61381b848285016139b0565b600181811c9082168061435757607f821691505b6020821081141561437857634e487b7160e01b600052602260045260246000fd5b50919050565b634e487b7160e01b600052603260045260246000fd5b634e487b7160e01b600052601160045260246000fd5b60006000198214156143be576143be614394565b5060010190565b6020808252601a908201527f45524332304775696c643a204e6f7420696e6974696c697a6564000000000000604082015260600190565b60208082526030908201527f45524332304775696c643a204e6f7420656e6f75676820746f6b656e7320746f60408201526f0818dc99585d19481c1c9bdc1bdcd85b60821b606082015260800190565b60208082526034908201527f45524332304775696c643a2057726f6e67206c656e677468206f6620746f2c2060408201527364617461206f722076616c75652061727261797360601b606082015260800190565b60208082526031908201527f45524332304775696c643a20746f2c20646174612076616c7565206172726179604082015270732063616e6e6f7420626520656d70747960781b606082015260800190565b60208082526025908201527f45524332304775696c643a2050726f706f73616c20616c72656164792065786560408201526418dd5d195960da1b606082015260800190565b60008282101561454857614548614394565b500390565b6000821982111561456057614560614394565b500190565b600080835481600182811c91508083168061458157607f831692505b60208084108214156145a157634e487b7160e01b86526022600452602486fd5b8180156145b557600181146145c6576145f3565b60ff198616895284890196506145f3565b60008a81526020902060005b868110156145eb5781548b8201529085019083016145d2565b505084890196505b509498975050505050505050565b634e487b7160e01b600052601260045260246000fd5b60008261462657614626614601565b500490565b600081600019048311821515161561464557614645614394565b500290565b60008261465957614659614601565b50069056fe60806040526001805460ff60a01b1916905534801561001d57600080fd5b506106108061002d6000396000f3fe608060405234801561001057600080fd5b506004361061007d5760003560e01c8063485cc9551161005b578063485cc955146100ee578063f3fef3a314610101578063f851a44014610114578063fc0c546a1461013f57600080fd5b8063158ef93e1461008257806327e235e3146100ab57806347e7ef24146100d9575b600080fd5b60015461009690600160a01b900460ff1681565b60405190151581526020015b60405180910390f35b6100cb6100b93660046104fb565b60026020526000908152604090205481565b6040519081526020016100a2565b6100ec6100e7366004610516565b610158565b005b6100ec6100fc366004610540565b6102a4565b6100ec61010f366004610516565b61039f565b600154610127906001600160a01b031681565b6040516001600160a01b0390911681526020016100a2565b600054610127906201000090046001600160a01b031681565b600154600160a01b900460ff166101b65760405162461bcd60e51b815260206004820152601a60248201527f546f6b656e5661756c743a204e6f7420696e6974696c697a656400000000000060448201526064015b60405180910390fd5b6001546001600160a01b031633146101cd57600080fd5b6000546040516323b872dd60e01b81526001600160a01b0384811660048301523060248301526044820184905262010000909204909116906323b872dd90606401602060405180830381600087803b15801561022857600080fd5b505af115801561023c573d6000803e3d6000fd5b505050506040513d601f19601f820116820180604052508101906102609190610573565b506001600160a01b03821660009081526002602052604090205461028490826104c0565b6001600160a01b0390921660009081526002602052604090209190915550565b600054610100900460ff16806102bd575060005460ff16155b6103205760405162461bcd60e51b815260206004820152602e60248201527f496e697469616c697a61626c653a20636f6e747261637420697320616c72656160448201526d191e481a5b9a5d1a585b1a5e995960921b60648201526084016101ad565b600054610100900460ff16158015610342576000805461ffff19166101011790555b600080546001600160a01b03808616620100000262010000600160b01b031990921691909117909155600180546001600160a81b03191691841691909117600160a01b179055801561039a576000805461ff00191690555b505050565b600154600160a01b900460ff166103f85760405162461bcd60e51b815260206004820152601a60248201527f546f6b656e5661756c743a204e6f7420696e6974696c697a656400000000000060448201526064016101ad565b6001546001600160a01b0316331461040f57600080fd5b60005460405163a9059cbb60e01b81526001600160a01b03848116600483015260248201849052620100009092049091169063a9059cbb90604401602060405180830381600087803b15801561046457600080fd5b505af1158015610478573d6000803e3d6000fd5b505050506040513d601f19601f8201168201806040525081019061049c9190610573565b506001600160a01b03821660009081526002602052604090205461028490826104d3565b60006104cc82846105ab565b9392505050565b60006104cc82846105c3565b80356001600160a01b03811681146104f657600080fd5b919050565b60006020828403121561050d57600080fd5b6104cc826104df565b6000806040838503121561052957600080fd5b610532836104df565b946020939093013593505050565b6000806040838503121561055357600080fd5b61055c836104df565b915061056a602084016104df565b90509250929050565b60006020828403121561058557600080fd5b815180151581146104cc57600080fd5b634e487b7160e01b600052601160045260246000fd5b600082198211156105be576105be610595565b500190565b6000828210156105d5576105d5610595565b50039056fea2646970667358221220ed228133b5b6a1d4223004479c53dd0eb4479b5ae101c8120491a2f3b4e3663f64736f6c63430008080033a264697066735822122003fc2f1e5536d9f7a1e06cdb0a25a9b11f1e4a460e7ff4845a9b49b0bf1ee12e64736f6c63430008080033a2646970667358221220e76f4022b7539fa745b5f2165b9e9d13bb45e01286beed056d2a85aa2d9bd1db64736f6c63430008080033",
  "linkReferences": {},
  "deployedLinkReferences": {}
}