{
  "_format": "hh-sol-artifact-1",
  "contractName": "DDnD",
  "sourceName": "contracts/DDnD.sol",
  "abi": [
    {
      "inputs": [
        {
          "internalType": "address",
          "name": "_DDnDNFT",
          "type": "address"
        }
      ],
      "stateMutability": "nonpayable",
      "type": "constructor"
    },
    {
      "inputs": [],
      "name": "DDnDNFTMinter",
      "outputs": [
        {
          "internalType": "contract DDnDNFT",
          "name": "",
          "type": "address"
        }
      ],
      "stateMutability": "view",
      "type": "function"
    },
    {
      "inputs": [
        {
          "internalType": "address",
          "name": "_token",
          "type": "address"
        },
        {
          "internalType": "uint256",
          "name": "_proposalTime",
          "type": "uint256"
        },
        {
          "internalType": "uint256",
          "name": "_timeForExecution",
          "type": "uint256"
        },
        {
          "internalType": "uint256",
          "name": "_votesForExecution",
          "type": "uint256"
        },
        {
          "internalType": "uint256",
          "name": "_votesForCreation",
          "type": "uint256"
        },
        {
          "internalType": "string",
          "name": "_name",
          "type": "string"
        },
        {
          "internalType": "uint256",
          "name": "_voteGas",
          "type": "uint256"
        },
        {
          "internalType": "uint256",
          "name": "_maxGasPrice",
          "type": "uint256"
        },
        {
          "internalType": "uint256",
          "name": "_lockTime",
          "type": "uint256"
        }
      ],
      "name": "createGuild",
      "outputs": [],
      "stateMutability": "nonpayable",
      "type": "function"
    },
    {
      "inputs": [],
      "name": "gameCount",
      "outputs": [
        {
          "internalType": "uint256",
          "name": "",
          "type": "uint256"
        }
      ],
      "stateMutability": "view",
      "type": "function"
    },
    {
      "inputs": [
        {
          "internalType": "uint256",
          "name": "",
          "type": "uint256"
        }
      ],
      "name": "games",
      "outputs": [
        {
          "internalType": "uint256",
          "name": "secondsPerTurn",
          "type": "uint256"
        },
        {
          "internalType": "uint256",
          "name": "winningPot",
          "type": "uint256"
        },
        {
          "internalType": "contract IERC20",
          "name": "paymentToken",
          "type": "address"
        },
        {
          "internalType": "uint256",
          "name": "dungeonMasterFee",
          "type": "uint256"
        },
        {
          "internalType": "uint256",
          "name": "dungeonMasterArbitrationFee",
          "type": "uint256"
        },
        {
          "internalType": "uint256",
          "name": "requiredSignaturesToArbitrate",
          "type": "uint256"
        },
        {
          "internalType": "address",
          "name": "daoArbitrator",
          "type": "address"
        },
        {
          "internalType": "uint256",
          "name": "turnNumber",
          "type": "uint256"
        },
        {
          "internalType": "uint256",
          "name": "gameState",
          "type": "uint256"
        },
        {
          "internalType": "address",
          "name": "winner",
          "type": "address"
        }
      ],
      "stateMutability": "view",
      "type": "function"
    },
    {
      "inputs": [
        {
          "internalType": "uint256",
          "name": "gameId",
          "type": "uint256"
        },
        {
          "internalType": "uint256",
          "name": "turnNumber",
          "type": "uint256"
        },
        {
          "internalType": "uint256",
          "name": "gameState",
          "type": "uint256"
        },
        {
          "internalType": "bytes32[]",
          "name": "playersState",
          "type": "bytes32[]"
        },
        {
          "internalType": "address",
          "name": "winner",
          "type": "address"
        }
      ],
      "name": "getFutureGameStateHash",
      "outputs": [
        {
          "internalType": "bytes32",
          "name": "",
          "type": "bytes32"
        }
      ],
      "stateMutability": "view",
      "type": "function"
    },
    {
      "inputs": [
        {
          "internalType": "address[]",
          "name": "players",
          "type": "address[]"
        },
        {
          "internalType": "uint256",
          "name": "secondsPerTurn",
          "type": "uint256"
        },
        {
          "internalType": "uint256",
          "name": "winningPot",
          "type": "uint256"
        },
        {
          "internalType": "contract IERC20",
          "name": "paymentToken",
          "type": "address"
        },
        {
          "internalType": "uint256",
          "name": "dungeonMasterFee",
          "type": "uint256"
        },
        {
          "internalType": "uint256",
          "name": "dungeonMasterArbitrationFee",
          "type": "uint256"
        },
        {
          "internalType": "uint256",
          "name": "requiredSignaturesToArbitrate",
          "type": "uint256"
        },
        {
          "internalType": "address",
          "name": "daoArbitrator",
          "type": "address"
        },
        {
          "internalType": "uint256",
          "name": "turnNumber",
          "type": "uint256"
        },
        {
          "internalType": "uint256",
          "name": "gameState",
          "type": "uint256"
        },
        {
          "internalType": "bytes32[]",
          "name": "playersState",
          "type": "bytes32[]"
        },
        {
          "internalType": "address",
          "name": "winner",
          "type": "address"
        }
      ],
      "name": "getGameHash",
      "outputs": [
        {
          "internalType": "bytes32",
          "name": "",
          "type": "bytes32"
        }
      ],
      "stateMutability": "view",
      "type": "function"
    },
    {
      "inputs": [
        {
          "internalType": "uint256",
          "name": "gameId",
          "type": "uint256"
        },
        {
          "internalType": "bytes32",
          "name": "gameStateHash",
          "type": "bytes32"
        },
        {
          "internalType": "bytes[]",
          "name": "signatures",
          "type": "bytes[]"
        }
      ],
      "name": "getValidSignatures",
      "outputs": [
        {
          "internalType": "uint256",
          "name": "validSignatures",
          "type": "uint256"
        }
      ],
      "stateMutability": "view",
      "type": "function"
    },
    {
      "inputs": [
        {
          "internalType": "uint256",
          "name": "",
          "type": "uint256"
        }
      ],
      "name": "guilds",
      "outputs": [
        {
          "internalType": "address",
          "name": "",
          "type": "address"
        }
      ],
      "stateMutability": "view",
      "type": "function"
    },
    {
      "inputs": [
        {
          "internalType": "uint256",
          "name": "",
          "type": "uint256"
        }
      ],
      "name": "lastTimestampUpdate",
      "outputs": [
        {
          "internalType": "uint256",
          "name": "",
          "type": "uint256"
        }
      ],
      "stateMutability": "view",
      "type": "function"
    },
    {
      "inputs": [],
      "name": "nftDMURI",
      "outputs": [
        {
          "internalType": "string",
          "name": "",
          "type": "string"
        }
      ],
      "stateMutability": "view",
      "type": "function"
    },
    {
      "inputs": [],
      "name": "nftTrophyURI",
      "outputs": [
        {
          "internalType": "string",
          "name": "",
          "type": "string"
        }
      ],
      "stateMutability": "view",
      "type": "function"
    },
    {
      "inputs": [
        {
          "internalType": "uint256",
          "name": "gameId",
          "type": "uint256"
        },
        {
          "internalType": "uint256",
          "name": "turnNumber",
          "type": "uint256"
        },
        {
          "internalType": "uint256",
          "name": "gameState",
          "type": "uint256"
        },
        {
          "internalType": "bytes32[]",
          "name": "playersState",
          "type": "bytes32[]"
        },
        {
          "internalType": "address",
          "name": "winner",
          "type": "address"
        },
        {
          "internalType": "bytes[]",
          "name": "signatures",
          "type": "bytes[]"
        },
        {
          "internalType": "bytes32[]",
          "name": "nextPlayersState",
          "type": "bytes32[]"
        }
      ],
      "name": "setGameState",
      "outputs": [],
      "stateMutability": "nonpayable",
      "type": "function"
    },
    {
      "inputs": [
        {
          "internalType": "address[]",
          "name": "players",
          "type": "address[]"
        },
        {
          "internalType": "uint256",
          "name": "secondsPerTurn",
          "type": "uint256"
        },
        {
          "internalType": "uint256",
          "name": "winningPot",
          "type": "uint256"
        },
        {
          "internalType": "contract IERC20",
          "name": "paymentToken",
          "type": "address"
        },
        {
          "internalType": "uint256",
          "name": "dungeonMasterFee",
          "type": "uint256"
        },
        {
          "internalType": "uint256",
          "name": "dungeonMasterArbitrationFee",
          "type": "uint256"
        },
        {
          "internalType": "uint256",
          "name": "requiredSignaturesToArbitrate",
          "type": "uint256"
        },
        {
          "internalType": "address",
          "name": "daoArbitrator",
          "type": "address"
        },
        {
          "internalType": "bytes[]",
          "name": "signatures",
          "type": "bytes[]"
        }
      ],
      "name": "setUpGame",
      "outputs": [],
      "stateMutability": "nonpayable",
      "type": "function"
    }
  ],
  "bytecode": "0x60c0604052600c60808190526b6e667454726f70687955524960a01b60a09081526200002f9160019190620000b8565b50604080518082019091526008808252676e6674444d55524960c01b60209092019182526200006191600291620000b8565b503480156200006f57600080fd5b50604051620070463803806200704683398101604081905262000092916200015e565b600080546001600160a01b0319166001600160a01b0392909216919091179055620001cd565b828054620000c69062000190565b90600052602060002090601f016020900481019282620000ea576000855562000135565b82601f106200010557805160ff191683800117855562000135565b8280016001018555821562000135579182015b828111156200013557825182559160200191906001019062000118565b506200014392915062000147565b5090565b5b8082111562000143576000815560010162000148565b6000602082840312156200017157600080fd5b81516001600160a01b03811681146200018957600080fd5b9392505050565b600181811c90821680620001a557607f821691505b60208210811415620001c757634e487b7160e01b600052602260045260246000fd5b50919050565b616e6980620001dd6000396000f3fe608060405234801561001057600080fd5b50600436106100cf5760003560e01c806360cddb861161008c578063b91be76911610066578063b91be76914610245578063d63d8d1814610265578063e2ddee441461026d578063efe7b7af1461029857600080fd5b806360cddb861461020c57806389d5e7fe1461021f578063b1c23f881461023257600080fd5b8063117a5b90146100d4578063236a1b29146101a5578063254436db146101c657806341fc4321146101db5780634bb8634b146101f05780634d1975b414610203575b600080fd5b6101456100e236600461164f565b60056020819052600091825260409091206001810154600282015460038301546004840154948401546006850154600786015460088701546009880154600b90980154969895976001600160a01b0395861697949593949284169391929091168a565b604080519a8b5260208b01999099526001600160a01b03978816988a01989098526060890195909552608088019390935260a0870191909152831660c086015260e085015261010084015216610120820152610140015b60405180910390f35b6101b86101b33660046117cc565b6102ab565b60405190815260200161019c565b6101d96101d4366004611843565b61039c565b005b6101e3610494565b60405161019c9190611946565b6101d96101fe3660046119bd565b610522565b6101b860035481565b6101d961021a366004611ad5565b6108d1565b6101b861022d366004611b8e565b610f46565b6101b8610240366004611c6f565b611028565b6101b861025336600461164f565b60046020526000908152604090205481565b6101e36111d0565b600054610280906001600160a01b031681565b6040516001600160a01b03909116815260200161019c565b6102806102a636600461164f565b6111dd565b6000805b82518110156103945761036f610312856040517f19457468657265756d205369676e6564204d6573736167653a0a3332000000006020820152603c8101829052600090605c01604051602081830303815290604052805190602001209050919050565b84838151811061032457610324611cdd565b602002602001015160056000898152602001908152602001600020600001848154811061035357610353611cdd565b6000918252602090912001546001600160a01b03169190611207565b15610382578161037e81611d09565b9250505b8061038c81611d09565b9150506102af565b509392505050565b60006040516103aa90611511565b604051809103906000f0801580156103c6573d6000803e3d6000fd5b50604051631f85f8ff60e21b81529091506001600160a01b03821690637e17e3fc90610406908d908d908d908d908d908d908d908d908d90600401611d24565b600060405180830381600087803b15801561042057600080fd5b505af1158015610434573d6000803e3d6000fd5b5050600680546001810182556000919091527ff652222313e28459528d920b65115c16c04f3efc82aaedc97be59f3f377c0d3f0180546001600160a01b0319166001600160a01b0394909416939093179092555050505050505050505050565b600280546104a190611d81565b80601f01602080910402602001604051908101604052809291908181526020018280546104cd90611d81565b801561051a5780601f106104ef5761010080835404028352916020019161051a565b820191906000526020600020905b8154815290600101906020018083116104fd57829003601f168201915b505050505081565b8860008151811061053557610535611cdd565b60200260200101516001600160a01b0316336001600160a01b0316146105bb5760405162461bcd60e51b815260206004820152603060248201527f44446e643a2047616d652063616e206f6e6c792062652063726561746564206260448201526f3c90323ab733b2b7b71036b0b9ba32b960811b60648201526084015b60405180910390fd5b6105c361151e565b89815260208101899052604081018890526001600160a01b0380881660608301526080820187905260a0820186905260c08201859052831660e08201526000610100820152600161012082015289516001600160401b0381111561062957610629611668565b604051908082528060200260200182016040528015610652578160200160208202803683370190505b5061014082015260006101608201819052600380549161067183611d09565b91905055506000816040516020016106899190611e30565b60408051601f1981840301815291815281516020928301206003546000908152600584529190912084518051929450859391926106c9928492019061159a565b5060208281015160018301556040830151600283015560608301516003830180546001600160a01b039283166001600160a01b0319918216179091556080850151600485015560a0850151600585015560c0850151600685015560e085015160078501805491909316911617905561010083015160088301556101208301516009830155610140830151805161076592600a85019201906115ff565b506101609190910151600b90910180546001600160a01b0319166001600160a01b0390921691909117905560035461079e9082856102ab565b8b51146107bd5760405162461bcd60e51b81526004016105b290611f0e565b81515160408301516000916107d29190611355565b905060015b8351518110156108ae5783606001516001600160a01b03166323b872dd8560000151838151811061080a5761080a611cdd565b60209081029190910101516040516001600160e01b031960e084901b1681526001600160a01b03909116600482015230602482015260448101859052606401602060405180830381600087803b15801561086357600080fd5b505af1158015610877573d6000803e3d6000fd5b505050506040513d601f19601f8201168201806040525081019061089b9190611f53565b50806108a681611d09565b9150506107d7565b505060035460009081526004602052604090204290555050505050505050505050565b6000878152600560205260409020600181015460089091015461091b91610903916108fd908a90611361565b9061136d565b60035460009081526004602052604090205490611379565b42106109695760405162461bcd60e51b815260206004820152601a60248201527f44446e443a2057726f6e672074696d6520746f2075706461746500000000000060448201526064016105b2565b60006109788888888888611028565b6000898152600560205260409020600701549091506001600160a01b031633146109d8576109a78882856102ab565b600089815260056020526040902054116109d35760405162461bcd60e51b81526004016105b290611f0e565b610a1c565b8560031415610a1c576109ec8882856102ab565b6000898152600560205260409020600601541015610a1c5760405162461bcd60e51b81526004016105b290611f0e565b600088815260056020908152604090912060088101899055600981018890558351610a4f92600a909201918501906115ff565b506000888152600560208181526040808420600b810180546001600160a01b0319166001600160a01b038b16179055600483529320429055526009015460031415610f3c576000888152600560205260409020600701546001600160a01b0316331415610c4c57600088815260056020819052604091829020600381015460078201549190920154925163a9059cbb60e01b81526001600160a01b0391821660048201526024810193909352169063a9059cbb90604401602060405180830381600087803b158015610b2057600080fd5b505af1158015610b34573d6000803e3d6000fd5b505050506040513d601f19601f82011682018060405250810190610b589190611f53565b506000888152600560205260408120600381015481546001600160a01b039091169263a9059cbb9291610b8d57610b8d611cdd565b60009182526020808320909101548c83526005918290526040909220908101546004909101546001600160a01b0390921691610bc891611361565b6040516001600160e01b031960e085901b1681526001600160a01b0390921660048301526024820152604401602060405180830381600087803b158015610c0e57600080fd5b505af1158015610c22573d6000803e3d6000fd5b505050506040513d601f19601f82011682018060405250810190610c469190611f53565b50610d24565b6000888152600560205260408120600381015481546001600160a01b039091169263a9059cbb9291610c8057610c80611cdd565b6000918252602080832091909101548c83526005909152604091829020600490810154925160e085901b6001600160e01b03191681526001600160a01b03909216908201526024810191909152604401602060405180830381600087803b158015610cea57600080fd5b505af1158015610cfe573d6000803e3d6000fd5b505050506040513d601f19601f82011682018060405250810190610d229190611f53565b505b60008881526005602052604090206003810154600b82015460048301546002909301546001600160a01b039283169363a9059cbb9390921691610d679190611361565b6040516001600160e01b031960e085901b1681526001600160a01b0390921660048301526024820152604401602060405180830381600087803b158015610dad57600080fd5b505af1158015610dc1573d6000803e3d6000fd5b505050506040513d601f19601f82011682018060405250810190610de59190611f53565b506000805489825260056020526040822080546001600160a01b039092169263d0def52192610e1657610e16611cdd565b6000918252602090912001546040516001600160e01b031960e084901b168152610e4f916001600160a01b031690600290600401611f75565b602060405180830381600087803b158015610e6957600080fd5b505af1158015610e7d573d6000803e3d6000fd5b505050506040513d601f19601f82011682018060405250810190610ea1919061202e565b50600080548982526005602052604091829020600b0154915163d0def52160e01b81526001600160a01b039182169263d0def52192610ee892911690600190600401611f75565b602060405180830381600087803b158015610f0257600080fd5b505af1158015610f16573d6000803e3d6000fd5b505050506040513d601f19601f82011682018060405250810190610f3a919061202e565b505b5050505050505050565b6000610f5061151e565b8d8152602081018d9052604081018c90526001600160a01b03808c166060830152608082018b905260a082018a905260c08201899052871660e0820152600061010082015260016101208201528d516001600160401b03811115610fb657610fb6611668565b604051908082528060200260200182016040528015610fdf578160200160208202803683370190505b506101408201526000610160820152604051610fff908290602001611e30565b604051602081830303815290604052805190602001209150509c9b505050505050505050505050565b6000858152600560209081526040808320815181546101a094810282018501909352610180810183815285949193849284919084018282801561109457602002820191906000526020600020905b81546001600160a01b03168152600190910190602001808311611076575b50505091835250506001820154602080830191909152600283015460408084019190915260038401546001600160a01b03908116606085015260048501546080850152600585015460a0850152600685015460c085015260078501541660e084015260088401546101008401526009840154610120840152600a8401805482518185028101850190935280835261014090940193919290919083018282801561115c57602002820191906000526020600020905b815481526020019060010190808311611148575b5050509183525050600b91909101546001600160a01b0390811660209283015261010083018990526101208301889052610140830187905285166101608301526040519192506111ae91839101611e30565b6040516020818303038152906040528051906020012091505095945050505050565b600180546104a190611d81565b600681815481106111ed57600080fd5b6000918252602090912001546001600160a01b0316905081565b60008060006112168585611385565b9092509050600081600481111561122f5761122f612047565b14801561124d5750856001600160a01b0316826001600160a01b0316145b1561125d5760019250505061134e565b600080876001600160a01b0316631626ba7e60e01b888860405160240161128592919061205d565b60408051601f198184030181529181526020820180516001600160e01b03166001600160e01b03199094169390931790925290516112c3919061207e565b600060405180830381855afa9150503d80600081146112fe576040519150601f19603f3d011682016040523d82523d6000602084013e611303565b606091505b5091509150818015611316575080516020145b801561134757508051630b135d3f60e11b9061133b908301602090810190840161209a565b6001600160e01b031916145b9450505050505b9392505050565b600061134e82846120c4565b600061134e82846120e6565b600061134e82846120fd565b600061134e828461211c565b6000808251604114156113bc5760208301516040840151606085015160001a6113b0878285856113f5565b945094505050506113ee565b8251604014156113e657602083015160408401516113db8683836114e2565b9350935050506113ee565b506000905060025b9250929050565b6000807f7fffffffffffffffffffffffffffffff5d576e7357a4501ddfe92f46681b20a083111561142c57506000905060036114d9565b8460ff16601b1415801561144457508460ff16601c14155b1561145557506000905060046114d9565b6040805160008082526020820180845289905260ff881692820192909252606081018690526080810185905260019060a0016020604051602081039080840390855afa1580156114a9573d6000803e3d6000fd5b5050604051601f1901519150506001600160a01b0381166114d2576000600192509250506114d9565b9150600090505b94509492505050565b6000806001600160ff1b03831660ff84901c601b01611503878288856113f5565b935093505050935093915050565b614cff8061213583390190565b60405180610180016040528060608152602001600081526020016000815260200160006001600160a01b0316815260200160008152602001600081526020016000815260200160006001600160a01b0316815260200160008152602001600081526020016060815260200160006001600160a01b031681525090565b8280548282559060005260206000209081019282156115ef579160200282015b828111156115ef57825182546001600160a01b0319166001600160a01b039091161782556020909201916001909101906115ba565b506115fb92915061163a565b5090565b8280548282559060005260206000209081019282156115ef579160200282015b828111156115ef57825182559160200191906001019061161f565b5b808211156115fb576000815560010161163b565b60006020828403121561166157600080fd5b5035919050565b634e487b7160e01b600052604160045260246000fd5b604051601f8201601f191681016001600160401b03811182821017156116a6576116a6611668565b604052919050565b60006001600160401b038211156116c7576116c7611668565b5060051b60200190565b60006001600160401b038311156116ea576116ea611668565b6116fd601f8401601f191660200161167e565b905082815283838301111561171157600080fd5b828260208301376000602084830101529392505050565b600082601f83011261173957600080fd5b8135602061174e611749836116ae565b61167e565b82815260059290921b8401810191818101908684111561176d57600080fd5b8286015b848110156117c15780356001600160401b038111156117905760008081fd5b8701603f810189136117a25760008081fd5b6117b38986830135604084016116d1565b845250918301918301611771565b509695505050505050565b6000806000606084860312156117e157600080fd5b833592506020840135915060408401356001600160401b0381111561180557600080fd5b61181186828701611728565b9150509250925092565b6001600160a01b038116811461183057600080fd5b50565b803561183e8161181b565b919050565b60008060008060008060008060006101208a8c03121561186257600080fd5b893561186d8161181b565b985060208a0135975060408a0135965060608a0135955060808a0135945060a08a01356001600160401b038111156118a457600080fd5b8a01601f81018c136118b557600080fd5b6118c48c8235602084016116d1565b94505060c08a0135925060e08a013591506101008a013590509295985092959850929598565b60005b838110156119055781810151838201526020016118ed565b83811115611914576000848401525b50505050565b600081518084526119328160208601602086016118ea565b601f01601f19169290920160200192915050565b60208152600061134e602083018461191a565b600082601f83011261196a57600080fd5b8135602061197a611749836116ae565b82815260059290921b8401810191818101908684111561199957600080fd5b8286015b848110156117c15780356119b08161181b565b835291830191830161199d565b60008060008060008060008060006101208a8c0312156119dc57600080fd5b89356001600160401b03808211156119f357600080fd5b6119ff8d838e01611959565b9a5060208c0135995060408c0135985060608c01359150611a1f8261181b565b90965060808b0135955060a08b0135945060c08b0135935060e08b013590611a468261181b565b9092506101008b01359080821115611a5d57600080fd5b50611a6a8c828d01611728565b9150509295985092959850929598565b600082601f830112611a8b57600080fd5b81356020611a9b611749836116ae565b82815260059290921b84018101918181019086841115611aba57600080fd5b8286015b848110156117c15780358352918301918301611abe565b600080600080600080600060e0888a031215611af057600080fd5b87359650602088013595506040880135945060608801356001600160401b0380821115611b1c57600080fd5b611b288b838c01611a7a565b955060808a01359150611b3a8261181b565b90935060a08901359080821115611b5057600080fd5b611b5c8b838c01611728565b935060c08a0135915080821115611b7257600080fd5b50611b7f8a828b01611a7a565b91505092959891949750929550565b6000806000806000806000806000806000806101808d8f031215611bb157600080fd5b6001600160401b038d351115611bc657600080fd5b611bd38e8e358f01611959565b9b5060208d01359a5060408d01359950611bef60608e01611833565b985060808d0135975060a08d0135965060c08d01359550611c1260e08e01611833565b94506101008d013593506101208d013592506001600160401b036101408e01351115611c3d57600080fd5b611c4e8e6101408f01358f01611a7a565b9150611c5d6101608e01611833565b90509295989b509295989b509295989b565b600080600080600060a08688031215611c8757600080fd5b85359450602086013593506040860135925060608601356001600160401b03811115611cb257600080fd5b611cbe88828901611a7a565b9250506080860135611ccf8161181b565b809150509295509295909350565b634e487b7160e01b600052603260045260246000fd5b634e487b7160e01b600052601160045260246000fd5b6000600019821415611d1d57611d1d611cf3565b5060010190565b600061012060018060a01b038c1683528a60208401528960408401528860608401528760808401528060a0840152611d5e8184018861191a565b60c0840196909652505060e0810192909252610100909101529695505050505050565b600181811c90821680611d9557607f821691505b60208210811415611db657634e487b7160e01b600052602260045260246000fd5b50919050565b600081518084526020808501945080840160005b83811015611df55781516001600160a01b031687529582019590820190600101611dd0565b509495945050505050565b600081518084526020808501945080840160005b83811015611df557815187529582019590820190600101611e14565b6020815260008251610180806020850152611e4f6101a0850183611dbc565b915060208501516040850152604085015160608501526060850151611e7f60808601826001600160a01b03169052565b50608085015160a085015260a085015160c085015260c085015160e085015260e0850151610100611eba818701836001600160a01b03169052565b8601516101208681019190915286015161014080870191909152860151858403601f190161016080880191909152909150611ef58483611e00565b9601516001600160a01b03169190940152509192915050565b60208082526025908201527f44446e443a204572726f7220696e207369676e6174757265207665726966696360408201526430ba34b7b760d91b606082015260800190565b600060208284031215611f6557600080fd5b8151801515811461134e57600080fd5b60018060a01b0383168152600060206040818401526000845481600182811c915080831680611fa557607f831692505b858310811415611fc357634e487b7160e01b85526022600452602485fd5b6040880183905260608801818015611fe25760018114611ff35761201e565b60ff1986168252878201965061201e565b60008b81526020902060005b8681101561201857815484820152908501908901611fff565b83019750505b50949a9950505050505050505050565b60006020828403121561204057600080fd5b5051919050565b634e487b7160e01b600052602160045260246000fd5b828152604060208201526000612076604083018461191a565b949350505050565b600082516120908184602087016118ea565b9190910192915050565b6000602082840312156120ac57600080fd5b81516001600160e01b03198116811461134e57600080fd5b6000826120e157634e487b7160e01b600052601260045260246000fd5b500490565b6000828210156120f8576120f8611cf3565b500390565b600081600019048311821515161561211757612117611cf3565b500290565b6000821982111561212f5761212f611cf3565b50019056fe608060405234801561001057600080fd5b50614cdf806100206000396000f3fe6080604052600436106102695760003560e01c80635bc789d911610143578063b3b47061116100bb578063ea1627c011610077578063ea1627c01461082b578063ed996f5e14610858578063f4ff96aa14610878578063f977cd2914610898578063fc0c546a146108ad578063fc4e703f146108d357005b8063b3b4706114610741578063b96f8c9e14610761578063bec11c0e14610781578063cc3c74a1146107a1578063d5c1b6fc146107b7578063db0c41bf146107fe57005b80637e17e3fc1161010a5780637e17e3fc146106865780638c20a9c5146106a65780639669b1cb146106bc5780639840dccc146106d1578063adbba7ae14610701578063b3929aaa1461072157005b80635bc789d9146105b0578063663bb4af146105e85780636e27d8891461060b57806376b0243a1461062b57806379ec5d3a1461066657005b806327f2bdde116101e15780633f10cf151161019d5780633f10cf15146104ed5780633fe229f714610503578063402bad8e14610523578063430694cf146105435780634b0babdd1461057a578063568914121461059a57005b806327f2bdde146104135780632fd99c001461043357806332315fc41461046357806332ed5b12146104835780633a3bed00146104b75780633de39c11146104d757005b806314621a3a1161023057806314621a3a14610361578063158ef93e146103815780631626ba7e146103b2578063184a0ae9146103d25780631c3e89f4146103e85780632229a0e2146103fe57005b806301a598a61461027257806306fdde03146102c0578063088af182146102e25780630d6680871461031d5780630f9a85531461034157005b3661027057005b005b34801561027e57600080fd5b506102a661028d3660046136c5565b600e602052600090815260409020805460019091015482565b604080519283526020830191909152015b60405180910390f35b3480156102cc57600080fd5b506102d56108e9565b6040516102b7919061372d565b3480156102ee57600080fd5b506103046102fd3660046137f5565b6020015190565b6040516001600160e01b031990911681526020016102b7565b34801561032957600080fd5b5061033360085481565b6040519081526020016102b7565b34801561034d57600080fd5b5061027061035c3660046138bf565b610977565b34801561036d57600080fd5b5061027061037c366004613922565b610a48565b34801561038d57600080fd5b506000546103a290600160b01b900460ff1681565b60405190151581526020016102b7565b3480156103be57600080fd5b506103046103cd366004613982565b610bc0565b3480156103de57600080fd5b5061033360025481565b3480156103f457600080fd5b5061033360045481565b34801561040a57600080fd5b50601154610333565b34801561041f57600080fd5b5061033361042e366004613a9f565b610c08565b34801561043f57600080fd5b506103a261044e366004613b70565b600c6020526000908152604090205460ff1681565b34801561046f57600080fd5b5061033361047e366004613b89565b610cc2565b34801561048f57600080fd5b506104a361049e366004613b70565b610d0e565b6040516102b7989796959493929190613beb565b3480156104c357600080fd5b506102706104d2366004613c56565b610e71565b3480156104e357600080fd5b5061033360075481565b3480156104f957600080fd5b5061033360035481565b34801561050f57600080fd5b5061027061051e366004613b70565b610f06565b34801561052f57600080fd5b5061027061053e366004613cf6565b610f7f565b34801561054f57600080fd5b5061056361055e366004613b70565b610f97565b6040516102b79b9a99989796959493929190613dcf565b34801561058657600080fd5b50610270610595366004613b70565b6112d0565b3480156105a657600080fd5b5061033360095481565b3480156105bc57600080fd5b50600a546105d0906001600160a01b031681565b6040516001600160a01b0390911681526020016102b7565b3480156105f457600080fd5b506103a2610603366004613ec5565b600192915050565b34801561061757600080fd5b50610270610626366004613b70565b611494565b34801561063757600080fd5b506103a2610646366004613ec5565b600d60209081526000928352604080842090915290825290205460ff1681565b34801561067257600080fd5b506103336106813660046136c5565b61159b565b34801561069257600080fd5b506102706106a1366004613ef8565b6115b6565b3480156106b257600080fd5b5061033360055481565b3480156106c857600080fd5b50600454610333565b3480156106dd57600080fd5b506103a26106ec366004613b70565b600f6020526000908152604090205460ff1681565b34801561070d57600080fd5b5061033361071c366004613f89565b611831565b34801561072d57600080fd5b5061033361073c366004613b70565b611880565b34801561074d57600080fd5b5061027061075c366004613b70565b6118a1565b34801561076d57600080fd5b5061027061077c366004614026565b61195e565b34801561078d57600080fd5b5061027061079c366004614108565b611da6565b3480156107ad57600080fd5b50610333600b5481565b3480156107c357600080fd5b506103336107d236600461412a565b60008281526010602090815260408083206001600160a01b0385168452600b0190915290205492915050565b34801561080a57600080fd5b5061081e61081936600461414d565b611e2b565b6040516102b79190614183565b34801561083757600080fd5b5061084b610846366004614215565b611ef3565b6040516102b791906142d9565b34801561086457600080fd5b50610333610873366004613b70565b6122c7565b34801561088457600080fd5b5061081e61089336600461431d565b6122f3565b3480156108a457600080fd5b50600554610333565b3480156108b957600080fd5b506000546105d0906201000090046001600160a01b031681565b3480156108df57600080fd5b5061033360065481565b600180546108f690614351565b80601f016020809104026020016040519081016040528092919081815260200182805461092290614351565b801561096f5780601f106109445761010080835404028352916020019161096f565b820191906000526020600020905b81548152906001019060200180831161095257829003601f168201915b505050505081565b80518251146109e85760405162461bcd60e51b815260206004820152603260248201527f45524332304775696c643a2057726f6e67206c656e677468206f662070726f706044820152716f73616c496473206f7220616d6f756e747360701b60648201526084015b60405180910390fd5b60005b8251811015610a4357610a3133848381518110610a0a57610a0a61438c565b6020026020010151848481518110610a2457610a2461438c565b60200260200101516123a0565b80610a3b816143b8565b9150506109eb565b505050565b600054600160b01b900460ff16610a715760405162461bcd60e51b81526004016109df906143d3565b6000610a7e838686611831565b6000818152600c602052604090205490915060ff1615610ae05760405162461bcd60e51b815260206004820152601960248201527f45524332304775696c643a20416c726561647920766f7465640000000000000060448201526064016109df565b610b4182610b3b836040517f19457468657265756d205369676e6564204d6573736167653a0a3332000000006020820152603c8101829052600090605c01604051602081830303815290604052805190602001209050919050565b9061265e565b6001600160a01b0316836001600160a01b031614610ba15760405162461bcd60e51b815260206004820152601860248201527f45524332304775696c643a2057726f6e67207369676e6572000000000000000060448201526064016109df565b6000908152600c60205260409020805460ff1916600117905550505050565b600080610bd0610681858561265e565b118015610beb57506000838152600f602052604090205460ff165b610bf6576000610bff565b630b135d3f60e11b5b90505b92915050565b60008054600160b01b900460ff16610c325760405162461bcd60e51b81526004016109df906143d3565b600554610c3e3361159b565b1015610c5c5760405162461bcd60e51b81526004016109df9061440a565b84518651148015610c6e575083518651145b610c8a5760405162461bcd60e51b81526004016109df9061445a565b6000865111610cab5760405162461bcd60e51b81526004016109df906144ae565b610cb8868686868661267a565b9695505050505050565b6001600160a01b038216600090815260126020526040812081908190610ce9908590612825565b915091508115610cfc579150610c029050565b610d058561159b565b92505050610c02565b60106020526000908152604090208054600182015460028301546006840180546001600160a01b03909416949293919291610d4890614351565b80601f0160208091040260200160405190810160405280929190818152602001828054610d7490614351565b8015610dc15780601f10610d9657610100808354040283529160200191610dc1565b820191906000526020600020905b815481529060010190602001808311610da457829003601f168201915b505050505090806007018054610dd690614351565b80601f0160208091040260200160405190810160405280929190818152602001828054610e0290614351565b8015610e4f5780601f10610e2457610100808354040283529160200191610e4f565b820191906000526020600020905b815481529060010190602001808311610e3257829003601f168201915b5050505060088301546009840154600a909401549293909260ff909116915088565b60005b8451811015610eff57610eed858281518110610e9257610e9261438c565b6020026020010151858381518110610eac57610eac61438c565b6020026020010151858481518110610ec657610ec661438c565b6020026020010151858581518110610ee057610ee061438c565b6020026020010151610a48565b80610ef7816143b8565b915050610e74565b5050505050565b333014610f645760405162461bcd60e51b815260206004820152602660248201527f45524332304775696c643a204f6e6c792063616c6c61626c65206279207468656044820152650819dd5a5b1960d21b60648201526084016109df565b6000908152600f60205260409020805460ff19166001179055565b610f8e87878787878787612914565b50505050505050565b60008060006060806060806060600080600080601060008e815260200190815260200160002090508060000160009054906101000a90046001600160a01b031681600101548260020154836003018460040185600501866006018760070188600801548960090160009054906101000a900460ff168a600a01548780548060200260200160405190810160405280929190818152602001828054801561106657602002820191906000526020600020905b81546001600160a01b03168152600190910190602001808311611048575b5050505050975086805480602002602001604051908101604052809291908181526020016000905b8282101561113a5783829060005260206000200180546110ad90614351565b80601f01602080910402602001604051908101604052809291908181526020018280546110d990614351565b80156111265780601f106110fb57610100808354040283529160200191611126565b820191906000526020600020905b81548152906001019060200180831161110957829003601f168201915b50505050508152602001906001019061108e565b5050505096508580548060200260200160405190810160405280929190818152602001828054801561118b57602002820191906000526020600020905b815481526020019060010190808311611177575b5050505050955084805461119e90614351565b80601f01602080910402602001604051908101604052809291908181526020018280546111ca90614351565b80156112175780601f106111ec57610100808354040283529160200191611217565b820191906000526020600020905b8154815290600101906020018083116111fa57829003601f168201915b5050505050945083805461122a90614351565b80601f016020809104026020016040519081016040528092919081815260200182805461125690614351565b80156112a35780601f10611278576101008083540402835291602001916112a3565b820191906000526020600020905b81548152906001019060200180831161128657829003601f168201915b505050505093509b509b509b509b509b509b509b509b509b509b509b505091939597999b90929496989a50565b806112da3361159b565b10156113465760405162461bcd60e51b815260206004820152603560248201527f45524332304775696c643a20556e61626c6520746f2072656c65617365206d6f6044820152741c99481d1bdad95b9cc81d1a185b881b1bd8dad959605a1b60648201526084016109df565b336000908152600e602052604090206001015442116113a75760405162461bcd60e51b815260206004820152601f60248201527f45524332304775696c643a20546f6b656e73207374696c6c206c6f636b65640060448201526064016109df565b6113b033612a94565b6113b8612abe565b336000908152600e60205260409020546113d29082612acd565b336000908152600e60205260409020556009546113ef9082612acd565b600955600a5460405163f3fef3a360e01b8152336004820152602481018390526001600160a01b039091169063f3fef3a390604401600060405180830381600087803b15801561143e57600080fd5b505af1158015611452573d6000803e3d6000fd5b505060408051338152602081018590527fc7798891864187665ac6dd119286e44ec13f014527aeeb2b8eb3fd413df9317993500190505b60405180910390a150565b61149d33612a94565b6114a5612abe565b600a546040516311f9fbc960e21b8152336004820152602481018390526001600160a01b03909116906347e7ef2490604401600060405180830381600087803b1580156114f157600080fd5b505af1158015611505573d6000803e3d6000fd5b5050336000908152600e60205260409020546115249250905082612ad9565b336000908152600e6020526040902055600854611542904290612ad9565b336000908152600e60205260409020600101556009546115629082612ad9565b60095560408051338152602081018390527fac87f20a77d28ee8bbb58ec87ea8fa968b3393efae1a368fd50b767c2847391c9101611489565b6001600160a01b03166000908152600e602052604090205490565b600054610100900460ff16806115cf575060005460ff16155b6116325760405162461bcd60e51b815260206004820152602e60248201527f496e697469616c697a61626c653a20636f6e747261637420697320616c72656160448201526d191e481a5b9a5d1a585b1a5e995960921b60648201526084016109df565b600054610100900460ff16158015611654576000805461ffff19166101011790555b6001600160a01b038a166116b85760405162461bcd60e51b815260206004820152602560248201527f45524332304775696c643a20746f6b656e20697320746865207a65726f206164604482015264647265737360d81b60648201526084016109df565b84516116cb9060019060208801906134c9565b506000805462010000600160b01b031916620100006001600160a01b038d16021790556040516116fa9061354d565b604051809103906000f080158015611716573d6000803e3d6000fd5b50600a80546001600160a01b0319166001600160a01b0392831690811790915560005460405163485cc95560e01b81526201000090910490921660048301523060248301529063485cc95590604401600060405180830381600087803b15801561177f57600080fd5b505af1158015611793573d6000803e3d6000fd5b505050506117a689898989888888612914565b306000908152600d60209081526040808320632015d6c760e11b8452909152808220805460ff199081166001908117909255635cb7c64f60e11b84528284208054821683179055635a2bcc6b60e11b84529183208054909216179055805460ff60b01b1916600160b01b1790558015611825576000805461ff00191690555b50505050505050505050565b6040516bffffffffffffffffffffffff19606085901b16602082015260348101839052605481018290526000906074016040516020818303038152906040528051906020012090509392505050565b6011818154811061189057600080fd5b600091825260209091200154905081565b600160008281526010602052604090206009015460ff1660048111156118c9576118c9613bb3565b146118e65760405162461bcd60e51b81526004016109df906144ff565b60008181526010602052604090206002015442116119525760405162461bcd60e51b8152602060048201526024808201527f45524332304775696c643a2050726f706f73616c206861736e7420656e646564604482015263081e595d60e21b60648201526084016109df565b61195b81612ae5565b50565b600054600160b01b900460ff166119875760405162461bcd60e51b81526004016109df906143d3565b3330146119ed5760405162461bcd60e51b815260206004820152602e60248201527f45524332304775696c643a204f6e6c792063616c6c61626c652062792045524360448201526d191833bab4b6321034ba39b2b63360911b60648201526084016109df565b815183511480156119ff575080518351145b611a7f5760405162461bcd60e51b815260206004820152604560248201527f45524332304775696c643a2057726f6e67206c656e677468206f6620746f2c2060448201527f66756e6374696f6e5369676e6174757265206f7220616c6c6f77616e63652061606482015264727261797360d81b608482015260a4016109df565b60005b8351811015611c77578251600090849083908110611aa257611aa261438c565b60200260200101516001600160e01b0319161415611b135760405162461bcd60e51b815260206004820152602860248201527f45524332304775696c643a20456d70747920736967616e7475726573206e6f7460448201526708185b1b1bddd95960c21b60648201526084016109df565b818181518110611b2557611b2561438c565b6020026020010151600d6000868481518110611b4357611b4361438c565b60200260200101516001600160a01b03166001600160a01b031681526020019081526020016000206000858481518110611b7f57611b7f61438c565b60200260200101516001600160e01b0319166001600160e01b031916815260200190815260200160002060006101000a81548160ff021916908315150217905550838181518110611bd257611bd261438c565b60200260200101516001600160a01b03167f31e41e795ddf7710d216f93d4d9a1080ca53618ba00822e743d12f31a7dfc980848381518110611c1657611c1661438c565b6020026020010151848481518110611c3057611c3061438c565b6020026020010151604051611c5d9291906001600160e01b03199290921682521515602082015260400190565b60405180910390a280611c6f816143b8565b915050611a82565b50306000908152600d60209081526040808320632015d6c760e11b845290915290205460ff16611d0f5760405162461bcd60e51b815260206004820152603b60248201527f45524332304775696c643a20736574436f6e6669672066756e6374696f6e206160448201527f6c6c6f77616e63652063616e74206265207475726e6564206f6666000000000060648201526084016109df565b306000908152600d60209081526040808320635cb7c64f60e11b845290915290205460ff16610a435760405162461bcd60e51b815260206004820152603e60248201527f45524332304775696c643a20736574416c6c6f77616e63652066756e6374696f60448201527f6e20616c6c6f77616e63652063616e74206265207475726e6564206f6666000060648201526084016109df565b6000828152601060205260409020600a01548190611dc5903390610cc2565b1015611e135760405162461bcd60e51b815260206004820152601a60248201527f45524332304775696c643a20496e76616c696420616d6f756e7400000000000060448201526064016109df565b611e1e3383836123a0565b611e2733612f39565b5050565b6060600083516001600160401b03811115611e4857611e48613740565b604051908082528060200260200182016040528015611e71578160200160208202803683370190505b50905060005b8451811015611eeb57611ebc858281518110611e9557611e9561438c565b6020026020010151858381518110611eaf57611eaf61438c565b6020026020010151610cc2565b828281518110611ece57611ece61438c565b602090810291909101015280611ee3816143b8565b915050611e77565b509392505050565b600054606090600160b01b900460ff16611f1f5760405162461bcd60e51b81526004016109df906143d3565b600554611f2b3361159b565b1015611f495760405162461bcd60e51b81526004016109df9061440a565b84518651148015611f5b575083518651145b611f775760405162461bcd60e51b81526004016109df9061445a565b8151835114611fee5760405162461bcd60e51b815260206004820152603d60248201527f45524332304775696c643a2057726f6e67206c656e677468206f66206465736360448201527f72697074696f6e206f7220636f6e74656e74486173682061727261797300000060648201526084016109df565b600086511161200f5760405162461bcd60e51b81526004016109df906144ae565b600083516001600160401b0381111561202a5761202a613740565b604051908082528060200260200182016040528015612053578160200160208202803683370190505b5084518851919250906000906120699083612fcc565b905060005b828110156122b9576000826001600160401b0381111561209057612090613740565b6040519080825280602002602001820160405280156120b9578160200160208202803683370190505b5090506000836001600160401b038111156120d6576120d6613740565b60405190808252806020026020018201604052801561210957816020015b60608152602001906001900390816120f45790505b5090506000846001600160401b0381111561212657612126613740565b60405190808252806020026020018201604052801561214f578160200160208202803683370190505b50905060008061215f8787612fd8565b90505b86811015612244578e818151811061217c5761217c61438c565b60200260200101518583815181106121965761219661438c565b60200260200101906001600160a01b031690816001600160a01b0316815250508d81815181106121c8576121c861438c565b60200260200101518483815181106121e2576121e261438c565b60200260200101819052508c81815181106121ff576121ff61438c565b60200260200101518383815181106122195761221961438c565b60209081029190910101528161222e816143b8565b925050808061223c906143b8565b915050612162565b506122848484848e898151811061225d5761225d61438c565b60200260200101518e8a815181106122775761227761438c565b602002602001015161267a565b8886815181106122965761229661438c565b6020026020010181815250505050505080806122b1906143b8565b91505061206e565b509198975050505050505050565b60008060006122d7846013612825565b9150915081156122e8579392505050565b505060095492915050565b6060600082516001600160401b0381111561231057612310613740565b604051908082528060200260200182016040528015612339578160200160208202803683370190505b50905060005b83518110156123995761236a84828151811061235d5761235d61438c565b602002602001015161159b565b82828151811061237c5761237c61438c565b602090810291909101015280612391816143b8565b91505061233f565b5092915050565b600054600160b01b900460ff166123c95760405162461bcd60e51b81526004016109df906143d3565b600160008381526010602052604090206009015460ff1660048111156123f1576123f1613bb3565b1461240e5760405162461bcd60e51b81526004016109df906144ff565b806124188461159b565b10156124665760405162461bcd60e51b815260206004820152601a60248201527f45524332304775696c643a20496e76616c696420616d6f756e7400000000000060448201526064016109df565b60008281526010602090815260408083206001600160a01b0387168452600b019091529020548111156125665760008281526010602090815260408083206001600160a01b0387168452600b019091529020546124e0906124c8908390612acd565b60008481526010602052604090206008015490612ad9565b600083815260106020908152604080832060088101949094556001600160a01b0387168352600b9093019052205482907f994c1e2cd59a94ec7f932ab317a85dabd5f43917c5cfb959b751a9648140c0c290859061253f908590612acd565b604080516001600160a01b03909316835260208301919091520160405180910390a2612633565b60008281526010602090815260408083206001600160a01b0387168452600b019091529020546125b29061259a9083612acd565b60008481526010602052604090206008015490612acd565b600083815260106020908152604080832060088101949094556001600160a01b0387168352600b9093019052205482907f79f996adb5f064cd332cb02f590abdf662bafabcbe22469b8b316466e475c2c19085906126109085612acd565b604080516001600160a01b03909316835260208301919091520160405180910390a25b60009182526010602090815260408084206001600160a01b039095168452600b909401905291902055565b600080600061266d8585612fe4565b91509150611eeb81613051565b600b54604080513360601b6bffffffffffffffffffffffff1916602080830191909152426034830152605480830185905283518084039091018152607490920190925280519101206000916126d0906001612ad9565b600b556015546126e1906001612ad9565b601555600081815260106020526040902080546001600160a01b0319163317815542600182018190556002546127179190612ad9565b6002820155875161273190600383019060208b019061355a565b50865161274790600483019060208a01906135af565b50855161275d9060058301906020890190613608565b50845161277390600683019060208801906134c9565b50835161278990600783019060208701906134c9565b5060006008820181905560098201805460ff19166001179055601554600a83015560405183917f288a29bca04edb18fcdb2c76d6e3b03b8a137c85c70d1a4cb8aacfa868d6051091a26127e533836127e03361159b565b6123a0565b50601180546001810182556000919091527f31ecc21a745e3968a04e9570e4425bc18fa8019c68028196b546d1669c200c68018190559695505050505050565b6000806000841161286e5760405162461bcd60e51b8152602060048201526013602482015272045524332304775696c643a206964206973203606c1b60448201526064016109df565b6015548411156128c05760405162461bcd60e51b815260206004820152601a60248201527f45524332304775696c643a206e6f6e6578697374656e7420696400000000000060448201526064016109df565b60006128cc848661320c565b84549091508114156128e557600080925092505061290d565b60018460010182815481106128fc576128fc61438c565b906000526020600020015492509250505b9250929050565b600054600160b01b900460ff16158061292c57503330145b61299e5760405162461bcd60e51b815260206004820152603f60248201527f45524332304775696c643a204f6e6c792063616c6c61626c652062792045524360448201527f32306775696c6420697473656c66207768656e20696e697469616c697a65640060648201526084016109df565b60008511612a0c5760405162461bcd60e51b815260206004820152603560248201527f45524332304775696c643a20766f74657320666f7220657865637574696f6e20604482015274068617320746f206265206d6f7265207468616e203605c1b60648201526084016109df565b60008111612a745760405162461bcd60e51b815260206004820152602f60248201527f45524332304775696c643a206c6f636b54696d652073686f756c64206265206860448201526e6967686572207468616e207a65726f60881b60648201526084016109df565b600296909655600394909455600492909255600555600655600755600855565b6001600160a01b038116600090815260126020526040902061195b90612ab98361159b565b6132b7565b612acb60136009546132b7565b565b6000610bff8284614544565b6000610bff828461455b565b600454600082815260106020526040902060080154108015612b2c5750600160008281526010602052604090206009015460ff166004811115612b2a57612b2a613bb3565b145b15612b7757600081815260106020526040808220600901805460ff191660021790555182917f55295d4ce992922fa2e5ffbf3a3dcdb367de0a15e125ace083456017fd22060f91a250565b6003546000828152601060205260409020600201544291612b989190612ad9565b108015612bca5750600160008281526010602052604090206009015460ff166004811115612bc857612bc8613bb3565b145b15612c1557600081815260106020526040808220600901805460ff191660041790555182917f0126984176eaaeb6ba34a0bd7ee6e99c473c100f79bee0bb6d17f0f44c83f1f991a250565b600160008281526010602052604090206009015460ff166004811115612c3d57612c3d613bb3565b141561195b576000818152601060205260408120600901805460ff191660031790555b600082815260106020526040902060030154811015612f0a5760008281526010602052604081206004018054612d3b919084908110612ca157612ca161438c565b906000526020600020018054612cb690614351565b80601f0160208091040260200160405190810160405280929190818152602001828054612ce290614351565b8015612d2f5780601f10612d0457610100808354040283529160200191612d2f565b820191906000526020600020905b815481529060010190602001808311612d1257829003601f168201915b50505050506020015190565b60008481526010602052604090206003018054919250612d6e9184908110612d6557612d6561438c565b50600052600190565b612dba5760405162461bcd60e51b815260206004820152601c60248201527f45524332304775696c643a204e6f7420616c6c6f7765642063616c6c0000000060448201526064016109df565b6000838152601060205260408120600301805484908110612ddd57612ddd61438c565b60009182526020808320909101548683526010909152604090912060050180546001600160a01b039092169185908110612e1957612e1961438c565b9060005260206000200154601060008781526020019081526020016000206004018581548110612e4b57612e4b61438c565b90600052602060002001604051612e629190614573565b60006040518083038185875af1925050503d8060008114612e9f576040519150601f19603f3d011682016040523d82523d6000602084013e612ea4565b606091505b5050905080612ef55760405162461bcd60e51b815260206004820181905260248201527f45524332304775696c643a2050726f706f73616c2063616c6c206661696c656460448201526064016109df565b50508080612f02906143b8565b915050612c60565b5060405181907f7b1bcf1ccf901a11589afff5504d59fd0a53780eed2a952adade0348985139e090600090a250565b600054600160b01b900460ff16612f625760405162461bcd60e51b81526004016109df906143d3565b6006541561195b576000612f8d612f846007543a6132f890919063ffffffff16565b60065490612fd8565b9050804710611e27576040516001600160a01b0383169082156108fc029083906000818181858888f19350505050158015610a43573d6000803e3d6000fd5b6000610bff8284614625565b6000610bff8284614639565b60008082516041141561301b5760208301516040840151606085015160001a61300f8782858561330e565b9450945050505061290d565b825160401415613045576020830151604084015161303a8683836133fb565b93509350505061290d565b5060009050600261290d565b600081600481111561306557613065613bb3565b141561306e5750565b600181600481111561308257613082613bb3565b14156130d05760405162461bcd60e51b815260206004820152601860248201527f45434453413a20696e76616c6964207369676e6174757265000000000000000060448201526064016109df565b60028160048111156130e4576130e4613bb3565b14156131325760405162461bcd60e51b815260206004820152601f60248201527f45434453413a20696e76616c6964207369676e6174757265206c656e6774680060448201526064016109df565b600381600481111561314657613146613bb3565b141561319f5760405162461bcd60e51b815260206004820152602260248201527f45434453413a20696e76616c6964207369676e6174757265202773272076616c604482015261756560f01b60648201526084016109df565b60048160048111156131b3576131b3613bb3565b141561195b5760405162461bcd60e51b815260206004820152602260248201527f45434453413a20696e76616c6964207369676e6174757265202776272076616c604482015261756560f01b60648201526084016109df565b815460009081905b8082101561326a576000613228838361342a565b90508486828154811061323d5761323d61438c565b9060005260206000200154111561325657809150613264565b61326181600161455b565b92505b50613214565b60008211801561329f57508385613282600185614544565b815481106132925761329261438c565b9060005260206000200154145b156132af57610d05600183614544565b509050610c02565b601554806132c484613481565b1015610a43578254600180820185556000858152602080822090930193909355938401805494850181558252902090910155565b60008183106133075781610bff565b5090919050565b6000807f7fffffffffffffffffffffffffffffff5d576e7357a4501ddfe92f46681b20a083111561334557506000905060036133f2565b8460ff16601b1415801561335d57508460ff16601c14155b1561336e57506000905060046133f2565b6040805160008082526020820180845289905260ff881692820192909252606081018690526080810185905260019060a0016020604051602081039080840390855afa1580156133c2573d6000803e3d6000fd5b5050604051601f1901519150506001600160a01b0381166133eb576000600192509250506133f2565b9150600090505b94509492505050565b6000806001600160ff1b03831660ff84901c601b0161341c8782888561330e565b935093505050935093915050565b600060026134388184614658565b613443600286614658565b61344d919061455b565b6134579190614625565b613462600284614625565b61346d600286614625565b613477919061455b565b610bff919061455b565b805460009061349257506000919050565b815482906134a290600190614544565b815481106134b2576134b261438c565b90600052602060002001549050919050565b919050565b8280546134d590614351565b90600052602060002090601f0160209004810192826134f7576000855561353d565b82601f1061351057805160ff191683800117855561353d565b8280016001018555821561353d579182015b8281111561353d578251825591602001919060010190613522565b50613549929150613642565b5090565b61063d8061466d83390190565b82805482825590600052602060002090810192821561353d579160200282015b8281111561353d57825182546001600160a01b0319166001600160a01b0390911617825560209092019160019091019061357a565b8280548282559060005260206000209081019282156135fc579160200282015b828111156135fc57825180516135ec9184916020909101906134c9565b50916020019190600101906135cf565b50613549929150613657565b82805482825590600052602060002090810192821561353d579160200282018281111561353d578251825591602001919060010190613522565b5b808211156135495760008155600101613643565b8082111561354957600061366b8282613674565b50600101613657565b50805461368090614351565b6000825580601f10613690575050565b601f01602090049060005260206000209081019061195b9190613642565b80356001600160a01b03811681146134c457600080fd5b6000602082840312156136d757600080fd5b610bff826136ae565b6000815180845260005b81811015613706576020818501810151868301820152016136ea565b81811115613718576000602083870101525b50601f01601f19169290920160200192915050565b602081526000610bff60208301846136e0565b634e487b7160e01b600052604160045260246000fd5b604051601f8201601f191681016001600160401b038111828210171561377e5761377e613740565b604052919050565b600082601f83011261379757600080fd5b81356001600160401b038111156137b0576137b0613740565b6137c3601f8201601f1916602001613756565b8181528460208386010111156137d857600080fd5b816020850160208301376000918101602001919091529392505050565b60006020828403121561380757600080fd5b81356001600160401b0381111561381d57600080fd5b61382984828501613786565b949350505050565b60006001600160401b0382111561384a5761384a613740565b5060051b60200190565b600082601f83011261386557600080fd5b8135602061387a61387583613831565b613756565b82815260059290921b8401810191818101908684111561389957600080fd5b8286015b848110156138b4578035835291830191830161389d565b509695505050505050565b600080604083850312156138d257600080fd5b82356001600160401b03808211156138e957600080fd5b6138f586838701613854565b9350602085013591508082111561390b57600080fd5b5061391885828601613854565b9150509250929050565b6000806000806080858703121561393857600080fd5b843593506020850135925061394f604086016136ae565b915060608501356001600160401b0381111561396a57600080fd5b61397687828801613786565b91505092959194509250565b6000806040838503121561399557600080fd5b8235915060208301356001600160401b038111156139b257600080fd5b61391885828601613786565b600082601f8301126139cf57600080fd5b813560206139df61387583613831565b82815260059290921b840181019181810190868411156139fe57600080fd5b8286015b848110156138b457613a13816136ae565b8352918301918301613a02565b600082601f830112613a3157600080fd5b81356020613a4161387583613831565b82815260059290921b84018101918181019086841115613a6057600080fd5b8286015b848110156138b45780356001600160401b03811115613a835760008081fd5b613a918986838b0101613786565b845250918301918301613a64565b600080600080600060a08688031215613ab757600080fd5b85356001600160401b0380821115613ace57600080fd5b613ada89838a016139be565b96506020880135915080821115613af057600080fd5b613afc89838a01613a20565b95506040880135915080821115613b1257600080fd5b613b1e89838a01613854565b94506060880135915080821115613b3457600080fd5b613b4089838a01613786565b93506080880135915080821115613b5657600080fd5b50613b6388828901613786565b9150509295509295909350565b600060208284031215613b8257600080fd5b5035919050565b60008060408385031215613b9c57600080fd5b613ba5836136ae565b946020939093013593505050565b634e487b7160e01b600052602160045260246000fd5b60058110613be757634e487b7160e01b600052602160045260246000fd5b9052565b600061010060018060a01b038b168352896020840152886040840152806060840152613c19818401896136e0565b90508281036080840152613c2d81886136e0565b9150508460a0830152613c4360c0830185613bc9565b8260e08301529998505050505050505050565b60008060008060808587031215613c6c57600080fd5b84356001600160401b0380821115613c8357600080fd5b613c8f88838901613854565b95506020870135915080821115613ca557600080fd5b613cb188838901613854565b94506040870135915080821115613cc757600080fd5b613cd3888389016139be565b93506060870135915080821115613ce957600080fd5b5061397687828801613a20565b600080600080600080600060e0888a031215613d1157600080fd5b505085359760208701359750604087013596606081013596506080810135955060a0810135945060c0013592509050565b6000815180845260208085019450848260051b860182860160005b85811015613d87578383038952613d758383516136e0565b98850198925090840190600101613d5d565b5090979650505050505050565b600081518084526020808501945080840160005b83811015613dc457815187529582019590820190600101613da8565b509495945050505050565b6000610160820160018060a01b03808f1684528d60208501528c60408501526101606060850152818c518084526101808601915060208e01935060005b81811015613e2c5784518416835260209485019490920191600101613e0c565b50508481036080860152613e40818d613d42565b9250505082810360a0840152613e56818a613d94565b905082810360c0840152613e6a81896136e0565b905082810360e0840152613e7e81886136e0565b91505084610100830152613e96610120830185613bc9565b826101408301529c9b505050505050505050505050565b80356001600160e01b0319811681146134c457600080fd5b60008060408385031215613ed857600080fd5b613ee1836136ae565b9150613eef60208401613ead565b90509250929050565b60008060008060008060008060006101208a8c031215613f1757600080fd5b613f208a6136ae565b985060208a0135975060408a0135965060608a0135955060808a0135945060a08a01356001600160401b03811115613f5757600080fd5b613f638c828d01613786565b94505060c08a0135925060e08a013591506101008a013590509295985092959850929598565b600080600060608486031215613f9e57600080fd5b613fa7846136ae565b95602085013595506040909401359392505050565b600082601f830112613fcd57600080fd5b81356020613fdd61387583613831565b82815260059290921b84018101918181019086841115613ffc57600080fd5b8286015b848110156138b457803580151581146140195760008081fd5b8352918301918301614000565b60008060006060848603121561403b57600080fd5b83356001600160401b038082111561405257600080fd5b61405e878388016139be565b945060209150818601358181111561407557600080fd5b8601601f8101881361408657600080fd5b803561409461387582613831565b81815260059190911b8201840190848101908a8311156140b357600080fd5b928501925b828410156140d8576140c984613ead565b825292850192908501906140b8565b965050505060408601359150808211156140f157600080fd5b506140fe86828701613fbc565b9150509250925092565b6000806040838503121561411b57600080fd5b50508035926020909101359150565b6000806040838503121561413d57600080fd5b82359150613eef602084016136ae565b6000806040838503121561416057600080fd5b82356001600160401b038082111561417757600080fd5b6138f5868387016139be565b602081526000610bff6020830184613d94565b600082601f8301126141a757600080fd5b813560206141b761387583613831565b82815260059290921b840181019181810190868411156141d657600080fd5b8286015b848110156138b45780356001600160401b038111156141f95760008081fd5b6142078986838b0101613786565b8452509183019183016141da565b600080600080600060a0868803121561422d57600080fd5b85356001600160401b038082111561424457600080fd5b61425089838a016139be565b9650602088013591508082111561426657600080fd5b61427289838a01613a20565b9550604088013591508082111561428857600080fd5b61429489838a01613854565b945060608801359150808211156142aa57600080fd5b6142b689838a01614196565b935060808801359150808211156142cc57600080fd5b50613b6388828901613a20565b6020808252825182820181905260009190848201906040850190845b81811015614311578351835292840192918401916001016142f5565b50909695505050505050565b60006020828403121561432f57600080fd5b81356001600160401b0381111561434557600080fd5b613829848285016139be565b600181811c9082168061436557607f821691505b6020821081141561438657634e487b7160e01b600052602260045260246000fd5b50919050565b634e487b7160e01b600052603260045260246000fd5b634e487b7160e01b600052601160045260246000fd5b60006000198214156143cc576143cc6143a2565b5060010190565b6020808252601a908201527f45524332304775696c643a204e6f7420696e6974696c697a6564000000000000604082015260600190565b60208082526030908201527f45524332304775696c643a204e6f7420656e6f75676820746f6b656e7320746f60408201526f0818dc99585d19481c1c9bdc1bdcd85b60821b606082015260800190565b60208082526034908201527f45524332304775696c643a2057726f6e67206c656e677468206f6620746f2c2060408201527364617461206f722076616c75652061727261797360601b606082015260800190565b60208082526031908201527f45524332304775696c643a20746f2c20646174612076616c7565206172726179604082015270732063616e6e6f7420626520656d70747960781b606082015260800190565b60208082526025908201527f45524332304775696c643a2050726f706f73616c20616c72656164792065786560408201526418dd5d195960da1b606082015260800190565b600082821015614556576145566143a2565b500390565b6000821982111561456e5761456e6143a2565b500190565b600080835481600182811c91508083168061458f57607f831692505b60208084108214156145af57634e487b7160e01b86526022600452602486fd5b8180156145c357600181146145d457614601565b60ff19861689528489019650614601565b60008a81526020902060005b868110156145f95781548b8201529085019083016145e0565b505084890196505b509498975050505050505050565b634e487b7160e01b600052601260045260246000fd5b6000826146345761463461460f565b500490565b6000816000190483118215151615614653576146536143a2565b500290565b6000826146675761466761460f565b50069056fe60806040526001805460ff60a01b1916905534801561001d57600080fd5b506106108061002d6000396000f3fe608060405234801561001057600080fd5b506004361061007d5760003560e01c8063485cc9551161005b578063485cc955146100ee578063f3fef3a314610101578063f851a44014610114578063fc0c546a1461013f57600080fd5b8063158ef93e1461008257806327e235e3146100ab57806347e7ef24146100d9575b600080fd5b60015461009690600160a01b900460ff1681565b60405190151581526020015b60405180910390f35b6100cb6100b93660046104fb565b60026020526000908152604090205481565b6040519081526020016100a2565b6100ec6100e7366004610516565b610158565b005b6100ec6100fc366004610540565b6102a4565b6100ec61010f366004610516565b61039f565b600154610127906001600160a01b031681565b6040516001600160a01b0390911681526020016100a2565b600054610127906201000090046001600160a01b031681565b600154600160a01b900460ff166101b65760405162461bcd60e51b815260206004820152601a60248201527f546f6b656e5661756c743a204e6f7420696e6974696c697a656400000000000060448201526064015b60405180910390fd5b6001546001600160a01b031633146101cd57600080fd5b6000546040516323b872dd60e01b81526001600160a01b0384811660048301523060248301526044820184905262010000909204909116906323b872dd90606401602060405180830381600087803b15801561022857600080fd5b505af115801561023c573d6000803e3d6000fd5b505050506040513d601f19601f820116820180604052508101906102609190610573565b506001600160a01b03821660009081526002602052604090205461028490826104c0565b6001600160a01b0390921660009081526002602052604090209190915550565b600054610100900460ff16806102bd575060005460ff16155b6103205760405162461bcd60e51b815260206004820152602e60248201527f496e697469616c697a61626c653a20636f6e747261637420697320616c72656160448201526d191e481a5b9a5d1a585b1a5e995960921b60648201526084016101ad565b600054610100900460ff16158015610342576000805461ffff19166101011790555b600080546001600160a01b03808616620100000262010000600160b01b031990921691909117909155600180546001600160a81b03191691841691909117600160a01b179055801561039a576000805461ff00191690555b505050565b600154600160a01b900460ff166103f85760405162461bcd60e51b815260206004820152601a60248201527f546f6b656e5661756c743a204e6f7420696e6974696c697a656400000000000060448201526064016101ad565b6001546001600160a01b0316331461040f57600080fd5b60005460405163a9059cbb60e01b81526001600160a01b03848116600483015260248201849052620100009092049091169063a9059cbb90604401602060405180830381600087803b15801561046457600080fd5b505af1158015610478573d6000803e3d6000fd5b505050506040513d601f19601f8201168201806040525081019061049c9190610573565b506001600160a01b03821660009081526002602052604090205461028490826104d3565b60006104cc82846105ab565b9392505050565b60006104cc82846105c3565b80356001600160a01b03811681146104f657600080fd5b919050565b60006020828403121561050d57600080fd5b6104cc826104df565b6000806040838503121561052957600080fd5b610532836104df565b946020939093013593505050565b6000806040838503121561055357600080fd5b61055c836104df565b915061056a602084016104df565b90509250929050565b60006020828403121561058557600080fd5b815180151581146104cc57600080fd5b634e487b7160e01b600052601160045260246000fd5b600082198211156105be576105be610595565b500190565b6000828210156105d5576105d5610595565b50039056fea2646970667358221220ed228133b5b6a1d4223004479c53dd0eb4479b5ae101c8120491a2f3b4e3663f64736f6c63430008080033a264697066735822122043a4bc6c4fedf1a1cf09b043fc9d4664646459c0bb98434865caee7ad81b9c4b64736f6c63430008080033a26469706673582212200a8c99bbbb3736d7a2438c8a65f8a41d8c3df1f6197c18ea8cae17ae3c3f875764736f6c63430008080033",
  "linkReferences": {},
  "deployedLinkReferences": {}
}