{
  "_format": "hh-sol-artifact-1",
  "contractName": "DDnD",
  "sourceName": "contracts/DDnD.sol",
  "abi": [
    {
      "inputs": [
        {
          "internalType": "address",
          "name": "_DDnDNFT",
          "type": "address"
        },
        {
          "internalType": "address",
          "name": "messageLogger",
          "type": "address"
        }
      ],
      "stateMutability": "nonpayable",
      "type": "constructor"
    },
    {
      "inputs": [],
      "name": "DDnDNFTMinter",
      "outputs": [
        {
          "internalType": "contract DDnDNFT",
          "name": "",
          "type": "address"
        }
      ],
      "stateMutability": "view",
      "type": "function"
    },
    {
      "inputs": [],
      "name": "MessageLogger",
      "outputs": [
        {
          "internalType": "address",
          "name": "",
          "type": "address"
        }
      ],
      "stateMutability": "view",
      "type": "function"
    },
    {
      "inputs": [
        {
          "internalType": "address",
          "name": "_token",
          "type": "address"
        },
        {
          "internalType": "uint256",
          "name": "_proposalTime",
          "type": "uint256"
        },
        {
          "internalType": "uint256",
          "name": "_timeForExecution",
          "type": "uint256"
        },
        {
          "internalType": "uint256",
          "name": "_votesForExecution",
          "type": "uint256"
        },
        {
          "internalType": "uint256",
          "name": "_votesForCreation",
          "type": "uint256"
        },
        {
          "internalType": "string",
          "name": "_name",
          "type": "string"
        },
        {
          "internalType": "uint256",
          "name": "_voteGas",
          "type": "uint256"
        },
        {
          "internalType": "uint256",
          "name": "_maxGasPrice",
          "type": "uint256"
        },
        {
          "internalType": "uint256",
          "name": "_lockTime",
          "type": "uint256"
        }
      ],
      "name": "createGuild",
      "outputs": [],
      "stateMutability": "nonpayable",
      "type": "function"
    },
    {
      "inputs": [],
      "name": "gameCount",
      "outputs": [
        {
          "internalType": "uint256",
          "name": "",
          "type": "uint256"
        }
      ],
      "stateMutability": "view",
      "type": "function"
    },
    {
      "inputs": [
        {
          "internalType": "uint256",
          "name": "",
          "type": "uint256"
        }
      ],
      "name": "games",
      "outputs": [
        {
          "internalType": "uint256",
          "name": "secondsPerTurn",
          "type": "uint256"
        },
        {
          "internalType": "uint256",
          "name": "winningPot",
          "type": "uint256"
        },
        {
          "internalType": "contract IERC20",
          "name": "paymentToken",
          "type": "address"
        },
        {
          "internalType": "uint256",
          "name": "dungeonMasterFee",
          "type": "uint256"
        },
        {
          "internalType": "uint256",
          "name": "dungeonMasterArbitrationFee",
          "type": "uint256"
        },
        {
          "internalType": "uint256",
          "name": "requiredSignaturesToArbitrate",
          "type": "uint256"
        },
        {
          "internalType": "address",
          "name": "daoArbitrator",
          "type": "address"
        },
        {
          "internalType": "uint256",
          "name": "turnNumber",
          "type": "uint256"
        },
        {
          "internalType": "uint256",
          "name": "gameState",
          "type": "uint256"
        },
        {
          "internalType": "address",
          "name": "winner",
          "type": "address"
        }
      ],
      "stateMutability": "view",
      "type": "function"
    },
    {
      "inputs": [
        {
          "internalType": "uint256",
          "name": "gameId",
          "type": "uint256"
        },
        {
          "internalType": "uint256",
          "name": "turnNumber",
          "type": "uint256"
        },
        {
          "internalType": "uint256",
          "name": "gameState",
          "type": "uint256"
        },
        {
          "internalType": "bytes32[]",
          "name": "playersState",
          "type": "bytes32[]"
        },
        {
          "internalType": "address",
          "name": "winner",
          "type": "address"
        }
      ],
      "name": "getFutureGameStateHash",
      "outputs": [
        {
          "internalType": "bytes32",
          "name": "",
          "type": "bytes32"
        }
      ],
      "stateMutability": "view",
      "type": "function"
    },
    {
      "inputs": [
        {
          "internalType": "address[]",
          "name": "players",
          "type": "address[]"
        },
        {
          "internalType": "uint256",
          "name": "secondsPerTurn",
          "type": "uint256"
        },
        {
          "internalType": "uint256",
          "name": "winningPot",
          "type": "uint256"
        },
        {
          "internalType": "contract IERC20",
          "name": "paymentToken",
          "type": "address"
        },
        {
          "internalType": "uint256",
          "name": "dungeonMasterFee",
          "type": "uint256"
        },
        {
          "internalType": "uint256",
          "name": "dungeonMasterArbitrationFee",
          "type": "uint256"
        },
        {
          "internalType": "uint256",
          "name": "requiredSignaturesToArbitrate",
          "type": "uint256"
        },
        {
          "internalType": "address",
          "name": "daoArbitrator",
          "type": "address"
        },
        {
          "internalType": "uint256",
          "name": "turnNumber",
          "type": "uint256"
        },
        {
          "internalType": "uint256",
          "name": "gameState",
          "type": "uint256"
        },
        {
          "internalType": "bytes32[]",
          "name": "playersState",
          "type": "bytes32[]"
        },
        {
          "internalType": "address",
          "name": "winner",
          "type": "address"
        }
      ],
      "name": "getGameHash",
      "outputs": [
        {
          "internalType": "bytes32",
          "name": "",
          "type": "bytes32"
        }
      ],
      "stateMutability": "view",
      "type": "function"
    },
    {
      "inputs": [],
      "name": "getGuilds",
      "outputs": [
        {
          "internalType": "address[]",
          "name": "",
          "type": "address[]"
        }
      ],
      "stateMutability": "view",
      "type": "function"
    },
    {
      "inputs": [
        {
          "internalType": "uint256",
          "name": "gameId",
          "type": "uint256"
        }
      ],
      "name": "getPlayersAddresses",
      "outputs": [
        {
          "internalType": "address[]",
          "name": "",
          "type": "address[]"
        }
      ],
      "stateMutability": "view",
      "type": "function"
    },
    {
      "inputs": [
        {
          "internalType": "uint256",
          "name": "gameId",
          "type": "uint256"
        }
      ],
      "name": "getPlayersState",
      "outputs": [
        {
          "internalType": "bytes32[]",
          "name": "",
          "type": "bytes32[]"
        }
      ],
      "stateMutability": "view",
      "type": "function"
    },
    {
      "inputs": [
        {
          "internalType": "uint256",
          "name": "gameId",
          "type": "uint256"
        },
        {
          "internalType": "bytes32",
          "name": "gameStateHash",
          "type": "bytes32"
        },
        {
          "internalType": "bytes[]",
          "name": "signatures",
          "type": "bytes[]"
        }
      ],
      "name": "getValidSignatures",
      "outputs": [
        {
          "internalType": "uint256",
          "name": "validSignatures",
          "type": "uint256"
        }
      ],
      "stateMutability": "view",
      "type": "function"
    },
    {
      "inputs": [
        {
          "internalType": "uint256",
          "name": "",
          "type": "uint256"
        }
      ],
      "name": "guilds",
      "outputs": [
        {
          "internalType": "address",
          "name": "",
          "type": "address"
        }
      ],
      "stateMutability": "view",
      "type": "function"
    },
    {
      "inputs": [
        {
          "internalType": "uint256",
          "name": "",
          "type": "uint256"
        }
      ],
      "name": "lastTimestampUpdate",
      "outputs": [
        {
          "internalType": "uint256",
          "name": "",
          "type": "uint256"
        }
      ],
      "stateMutability": "view",
      "type": "function"
    },
    {
      "inputs": [],
      "name": "nftDMURI",
      "outputs": [
        {
          "internalType": "string",
          "name": "",
          "type": "string"
        }
      ],
      "stateMutability": "view",
      "type": "function"
    },
    {
      "inputs": [],
      "name": "nftTrophyURI",
      "outputs": [
        {
          "internalType": "string",
          "name": "",
          "type": "string"
        }
      ],
      "stateMutability": "view",
      "type": "function"
    },
    {
      "inputs": [
        {
          "internalType": "uint256",
          "name": "gameId",
          "type": "uint256"
        },
        {
          "internalType": "uint256",
          "name": "turnNumber",
          "type": "uint256"
        },
        {
          "internalType": "uint256",
          "name": "gameState",
          "type": "uint256"
        },
        {
          "internalType": "bytes32[]",
          "name": "playersState",
          "type": "bytes32[]"
        },
        {
          "internalType": "address",
          "name": "winner",
          "type": "address"
        },
        {
          "internalType": "bytes[]",
          "name": "signatures",
          "type": "bytes[]"
        },
        {
          "internalType": "bytes32[]",
          "name": "nextPlayersState",
          "type": "bytes32[]"
        }
      ],
      "name": "setGameState",
      "outputs": [],
      "stateMutability": "nonpayable",
      "type": "function"
    },
    {
      "inputs": [
        {
          "internalType": "address[]",
          "name": "players",
          "type": "address[]"
        },
        {
          "internalType": "uint256",
          "name": "secondsPerTurn",
          "type": "uint256"
        },
        {
          "internalType": "uint256",
          "name": "winningPot",
          "type": "uint256"
        },
        {
          "internalType": "contract IERC20",
          "name": "paymentToken",
          "type": "address"
        },
        {
          "internalType": "uint256",
          "name": "dungeonMasterFee",
          "type": "uint256"
        },
        {
          "internalType": "uint256",
          "name": "dungeonMasterArbitrationFee",
          "type": "uint256"
        },
        {
          "internalType": "uint256",
          "name": "requiredSignaturesToArbitrate",
          "type": "uint256"
        },
        {
          "internalType": "address",
          "name": "daoArbitrator",
          "type": "address"
        },
        {
          "internalType": "bytes[]",
          "name": "signatures",
          "type": "bytes[]"
        },
        {
          "internalType": "bytes32",
          "name": "rootGameState",
          "type": "bytes32"
        }
      ],
      "name": "setUpGame",
      "outputs": [],
      "stateMutability": "nonpayable",
      "type": "function"
    }
  ],
  "bytecode": "0x60c0604052600c60808190526b6e667454726f70687955524960a01b60a09081526200002f9160029190620000c4565b50604080518082019091526008808252676e6674444d55524960c01b60209092019182526200006191600391620000c4565b503480156200006f57600080fd5b506040516200729138038062007291833981016040819052620000929162000187565b600080546001600160a01b039384166001600160a01b03199182161790915560018054929093169116179055620001fc565b828054620000d290620001bf565b90600052602060002090601f016020900481019282620000f6576000855562000141565b82601f106200011157805160ff191683800117855562000141565b8280016001018555821562000141579182015b828111156200014157825182559160200191906001019062000124565b506200014f92915062000153565b5090565b5b808211156200014f576000815560010162000154565b80516001600160a01b03811681146200018257600080fd5b919050565b600080604083850312156200019b57600080fd5b620001a6836200016a565b9150620001b6602084016200016a565b90509250929050565b600181811c90821680620001d457607f821691505b60208210811415620001f657634e487b7160e01b600052602260045260246000fd5b50919050565b617085806200020c6000396000f3fe608060405234801561001057600080fd5b506004361061010b5760003560e01c806360cddb86116100a2578063b1c23f8811610071578063b1c23f88146102e6578063b91be769146102f9578063d63d8d1814610319578063e2ddee4414610321578063efe7b7af1461033457600080fd5b806360cddb861461027557806389d5e7fe146102885780638d1a4c381461029b5780639ffd5ad8146102c657600080fd5b806337097072116100de578063370970721461023157806341fc4321146102445780634d1975b41461025957806356b763211461026257600080fd5b80630e211cc214610110578063117a5b901461012e578063236a1b29146101fb578063254436db1461021c575b600080fd5b610118610347565b60405161012591906117fd565b60405180910390f35b6101a061013c36600461184a565b60066020819052600091825260409091206001810154600282015460038301546004840154600585015495850154600786015460088701546009880154600b90980154969895976001600160a01b039586169794969593949284169391929091168a565b604080519a8b5260208b01999099526001600160a01b03978816988a01989098526060890195909552608088019390935260a0870191909152831660c086015260e08501526101008401521661012082015261014001610125565b61020e6102093660046119cb565b6103a9565b604051908152602001610125565b61022f61022a366004611a43565b61049a565b005b61011861023f36600461184a565b610592565b61024c6105fe565b6040516101259190611b47565b61020e60045481565b61022f610270366004611bbe565b61068c565b61022f610283366004611cda565b610a5e565b61020e610296366004611d94565b6110d3565b6001546102ae906001600160a01b031681565b6040516001600160a01b039091168152602001610125565b6102d96102d436600461184a565b611172565b6040516101259190611eb2565b61020e6102f4366004611ec5565b6111d6565b61020e61030736600461184a565b60056020526000908152604090205481565b61024c61137e565b6000546102ae906001600160a01b031681565b6102ae61034236600461184a565b61138b565b6060600780548060200260200160405190810160405280929190818152602001828054801561039f57602002820191906000526020600020905b81546001600160a01b03168152600190910190602001808311610381575b5050505050905090565b6000805b82518110156104925761046d610410856040517f19457468657265756d205369676e6564204d6573736167653a0a3332000000006020820152603c8101829052600090605c01604051602081830303815290604052805190602001209050919050565b84838151811061042257610422611f34565b602002602001015160066000898152602001908152602001600020600001848154811061045157610451611f34565b6000918252602090912001546001600160a01b031691906113b5565b15610480578161047c81611f60565b9250505b8061048a81611f60565b9150506103ad565b509392505050565b60006040516104a8906116bf565b604051809103906000f0801580156104c4573d6000803e3d6000fd5b50604051631f85f8ff60e21b81529091506001600160a01b03821690637e17e3fc90610504908d908d908d908d908d908d908d908d908d90600401611f7b565b600060405180830381600087803b15801561051e57600080fd5b505af1158015610532573d6000803e3d6000fd5b5050600780546001810182556000919091527fa66cc928b5edb82af9bd49922954155ab7b0942694bea4ce44661d9a8736c6880180546001600160a01b0319166001600160a01b0394909416939093179092555050505050505050505050565b6000818152600660209081526040918290208054835181840281018401909452808452606093928301828280156105f257602002820191906000526020600020905b81546001600160a01b031681526001909101906020018083116105d4575b50505050509050919050565b6003805461060b90611fd8565b80601f016020809104026020016040519081016040528092919081815260200182805461063790611fd8565b80156106845780601f1061065957610100808354040283529160200191610684565b820191906000526020600020905b81548152906001019060200180831161066757829003601f168201915b505050505081565b8960008151811061069f5761069f611f34565b60200260200101516001600160a01b0316336001600160a01b0316146107255760405162461bcd60e51b815260206004820152603060248201527f44446e643a2047616d652063616e206f6e6c792062652063726561746564206260448201526f3c90323ab733b2b7b71036b0b9ba32b960811b60648201526084015b60405180910390fd5b61072d6116cc565b8a8152602081018a9052604081018990526001600160a01b0380891660608301526080820188905260a0820187905260c08201869052841660e0820152600061010082015260016101208201528a5167ffffffffffffffff81111561079457610794611863565b6040519080825280602002602001820160405280156107bd578160200160208202803683370190505b506101408201819052600061016083018190528151849291906107e2576107e2611f34565b6020908102919091010152600480549060006107fd83611f60565b9190505550600081604051602001610815919061204c565b60408051601f1981840301815291815281516020928301206004546000908152600684529190912084518051929450859391926108559284920190611748565b5060208281015160018301556040830151600283015560608301516003830180546001600160a01b039283166001600160a01b0319918216179091556080850151600485015560a0850151600585015560c0850151600685015560e08501516007850180549190931691161790556101008301516008830155610120830151600983015561014083015180516108f192600a85019201906117ad565b506101609190910151600b90910180546001600160a01b0319166001600160a01b0390921691909117905560045461092a9082866103a9565b8c51146109495760405162461bcd60e51b815260040161071c9061212a565b815151604083015160009161095e9190611503565b905060015b835151811015610a3a5783606001516001600160a01b03166323b872dd8560000151838151811061099657610996611f34565b60209081029190910101516040516001600160e01b031960e084901b1681526001600160a01b03909116600482015230602482015260448101859052606401602060405180830381600087803b1580156109ef57600080fd5b505af1158015610a03573d6000803e3d6000fd5b505050506040513d601f19601f82011682018060405250810190610a27919061216f565b5080610a3281611f60565b915050610963565b50506004546000908152600560205260409020429055505050505050505050505050565b60008781526006602052604090206001810154600890910154610aa891610a9091610a8a908a9061150f565b9061151b565b60045460009081526005602052604090205490611527565b4210610af65760405162461bcd60e51b815260206004820152601a60248201527f44446e443a2057726f6e672074696d6520746f20757064617465000000000000604482015260640161071c565b6000610b0588888888886111d6565b6000898152600660205260409020600701549091506001600160a01b03163314610b6557610b348882856103a9565b60008981526006602052604090205411610b605760405162461bcd60e51b815260040161071c9061212a565b610baa565b8560031415610baa57610b798882856103a9565b600089815260066020819052604090912001541015610baa5760405162461bcd60e51b815260040161071c9061212a565b600088815260066020908152604090912060088101899055600981018890558351610bdd92600a909201918501906117ad565b506000888152600660208181526040808420600b810180546001600160a01b0319166001600160a01b038b161790556005835293204290555260090154600314156110c9576000888152600660205260409020600701546001600160a01b0316331415610dd9576000888152600660205260409081902060038101546007820154600590920154925163a9059cbb60e01b81526001600160a01b0392831660048201526024810193909352169063a9059cbb90604401602060405180830381600087803b158015610cad57600080fd5b505af1158015610cc1573d6000803e3d6000fd5b505050506040513d601f19601f82011682018060405250810190610ce5919061216f565b506000888152600660205260408120600381015481546001600160a01b039091169263a9059cbb9291610d1a57610d1a611f34565b60009182526020808320909101548c83526006909152604090912060058101546004909101546001600160a01b0390921691610d559161150f565b6040516001600160e01b031960e085901b1681526001600160a01b0390921660048301526024820152604401602060405180830381600087803b158015610d9b57600080fd5b505af1158015610daf573d6000803e3d6000fd5b505050506040513d601f19601f82011682018060405250810190610dd3919061216f565b50610eb1565b6000888152600660205260408120600381015481546001600160a01b039091169263a9059cbb9291610e0d57610e0d611f34565b6000918252602080832091909101548c83526006909152604091829020600490810154925160e085901b6001600160e01b03191681526001600160a01b03909216908201526024810191909152604401602060405180830381600087803b158015610e7757600080fd5b505af1158015610e8b573d6000803e3d6000fd5b505050506040513d601f19601f82011682018060405250810190610eaf919061216f565b505b60008881526006602052604090206003810154600b82015460048301546002909301546001600160a01b039283169363a9059cbb9390921691610ef4919061150f565b6040516001600160e01b031960e085901b1681526001600160a01b0390921660048301526024820152604401602060405180830381600087803b158015610f3a57600080fd5b505af1158015610f4e573d6000803e3d6000fd5b505050506040513d601f19601f82011682018060405250810190610f72919061216f565b506000805489825260066020526040822080546001600160a01b039092169263d0def52192610fa357610fa3611f34565b6000918252602090912001546040516001600160e01b031960e084901b168152610fdc916001600160a01b031690600390600401612191565b602060405180830381600087803b158015610ff657600080fd5b505af115801561100a573d6000803e3d6000fd5b505050506040513d601f19601f8201168201806040525081019061102e919061224a565b50600080548982526006602052604091829020600b0154915163d0def52160e01b81526001600160a01b039182169263d0def5219261107592911690600290600401612191565b602060405180830381600087803b15801561108f57600080fd5b505af11580156110a3573d6000803e3d6000fd5b505050506040513d601f19601f820116820180604052508101906110c7919061224a565b505b5050505050505050565b60006110dd6116cc565b8d815260208082018e905260408083018e90526001600160a01b03808e166060850152608084018d905260a084018c905260c084018b9052891660e08401526000610100840181905260016101208501526101408401879052610160840152516111499183910161204c565b604051602081830303815290604052805190602001209150509c9b505050505050505050505050565b600081815260066020908152604091829020600a018054835181840281018401909452808452606093928301828280156105f257602002820191906000526020600020905b8154815260200190600101908083116111b75750505050509050919050565b6000858152600660209081526040808320815181546101a094810282018501909352610180810183815285949193849284919084018282801561124257602002820191906000526020600020905b81546001600160a01b03168152600190910190602001808311611224575b50505091835250506001820154602080830191909152600283015460408084019190915260038401546001600160a01b03908116606085015260048501546080850152600585015460a0850152600685015460c085015260078501541660e084015260088401546101008401526009840154610120840152600a8401805482518185028101850190935280835261014090940193919290919083018282801561130a57602002820191906000526020600020905b8154815260200190600101908083116112f6575b5050509183525050600b91909101546001600160a01b03908116602092830152610100830189905261012083018890526101408301879052851661016083015260405191925061135c9183910161204c565b6040516020818303038152906040528051906020012091505095945050505050565b6002805461060b90611fd8565b6007818154811061139b57600080fd5b6000918252602090912001546001600160a01b0316905081565b60008060006113c48585611533565b909250905060008160048111156113dd576113dd612263565b1480156113fb5750856001600160a01b0316826001600160a01b0316145b1561140b576001925050506114fc565b600080876001600160a01b0316631626ba7e60e01b8888604051602401611433929190612279565b60408051601f198184030181529181526020820180516001600160e01b03166001600160e01b0319909416939093179092529051611471919061229a565b600060405180830381855afa9150503d80600081146114ac576040519150601f19603f3d011682016040523d82523d6000602084013e6114b1565b606091505b50915091508180156114c4575080516020145b80156114f557508051630b135d3f60e11b906114e990830160209081019084016122b6565b6001600160e01b031916145b9450505050505b9392505050565b60006114fc82846122e0565b60006114fc8284612302565b60006114fc8284612319565b60006114fc8284612338565b60008082516041141561156a5760208301516040840151606085015160001a61155e878285856115a3565b9450945050505061159c565b8251604014156115945760208301516040840151611589868383611690565b93509350505061159c565b506000905060025b9250929050565b6000807f7fffffffffffffffffffffffffffffff5d576e7357a4501ddfe92f46681b20a08311156115da5750600090506003611687565b8460ff16601b141580156115f257508460ff16601c14155b156116035750600090506004611687565b6040805160008082526020820180845289905260ff881692820192909252606081018690526080810185905260019060a0016020604051602081039080840390855afa158015611657573d6000803e3d6000fd5b5050604051601f1901519150506001600160a01b03811661168057600060019250925050611687565b9150600090505b94509492505050565b6000806001600160ff1b03831660ff84901c601b016116b1878288856115a3565b935093505050935093915050565b614cff8061235183390190565b60405180610180016040528060608152602001600081526020016000815260200160006001600160a01b0316815260200160008152602001600081526020016000815260200160006001600160a01b0316815260200160008152602001600081526020016060815260200160006001600160a01b031681525090565b82805482825590600052602060002090810192821561179d579160200282015b8281111561179d57825182546001600160a01b0319166001600160a01b03909116178255602090920191600190910190611768565b506117a99291506117e8565b5090565b82805482825590600052602060002090810192821561179d579160200282015b8281111561179d5782518255916020019190600101906117cd565b5b808211156117a957600081556001016117e9565b6020808252825182820181905260009190848201906040850190845b8181101561183e5783516001600160a01b031683529284019291840191600101611819565b50909695505050505050565b60006020828403121561185c57600080fd5b5035919050565b634e487b7160e01b600052604160045260246000fd5b604051601f8201601f1916810167ffffffffffffffff811182821017156118a2576118a2611863565b604052919050565b600067ffffffffffffffff8211156118c4576118c4611863565b5060051b60200190565b600067ffffffffffffffff8311156118e8576118e8611863565b6118fb601f8401601f1916602001611879565b905082815283838301111561190f57600080fd5b828260208301376000602084830101529392505050565b600082601f83011261193757600080fd5b8135602061194c611947836118aa565b611879565b82815260059290921b8401810191818101908684111561196b57600080fd5b8286015b848110156119c057803567ffffffffffffffff81111561198f5760008081fd5b8701603f810189136119a15760008081fd5b6119b28986830135604084016118ce565b84525091830191830161196f565b509695505050505050565b6000806000606084860312156119e057600080fd5b8335925060208401359150604084013567ffffffffffffffff811115611a0557600080fd5b611a1186828701611926565b9150509250925092565b6001600160a01b0381168114611a3057600080fd5b50565b8035611a3e81611a1b565b919050565b60008060008060008060008060006101208a8c031215611a6257600080fd5b8935611a6d81611a1b565b985060208a0135975060408a0135965060608a0135955060808a0135945060a08a013567ffffffffffffffff811115611aa557600080fd5b8a01601f81018c13611ab657600080fd5b611ac58c8235602084016118ce565b94505060c08a0135925060e08a013591506101008a013590509295985092959850929598565b60005b83811015611b06578181015183820152602001611aee565b83811115611b15576000848401525b50505050565b60008151808452611b33816020860160208601611aeb565b601f01601f19169290920160200192915050565b6020815260006114fc6020830184611b1b565b600082601f830112611b6b57600080fd5b81356020611b7b611947836118aa565b82815260059290921b84018101918181019086841115611b9a57600080fd5b8286015b848110156119c0578035611bb181611a1b565b8352918301918301611b9e565b6000806000806000806000806000806101408b8d031215611bde57600080fd5b8a3567ffffffffffffffff80821115611bf657600080fd5b611c028e838f01611b5a565b9b5060208d01359a5060408d01359950611c1e60608e01611a33565b985060808d0135975060a08d0135965060c08d01359550611c4160e08e01611a33565b94506101008d0135915080821115611c5857600080fd5b50611c658d828e01611926565b9250506101208b013590509295989b9194979a5092959850565b600082601f830112611c9057600080fd5b81356020611ca0611947836118aa565b82815260059290921b84018101918181019086841115611cbf57600080fd5b8286015b848110156119c05780358352918301918301611cc3565b600080600080600080600060e0888a031215611cf557600080fd5b873596506020880135955060408801359450606088013567ffffffffffffffff80821115611d2257600080fd5b611d2e8b838c01611c7f565b955060808a01359150611d4082611a1b565b90935060a08901359080821115611d5657600080fd5b611d628b838c01611926565b935060c08a0135915080821115611d7857600080fd5b50611d858a828b01611c7f565b91505092959891949750929550565b6000806000806000806000806000806000806101808d8f031215611db757600080fd5b67ffffffffffffffff8d351115611dcd57600080fd5b611dda8e8e358f01611b5a565b9b5060208d01359a5060408d01359950611df660608e01611a33565b985060808d0135975060a08d0135965060c08d01359550611e1960e08e01611a33565b94506101008d013593506101208d0135925067ffffffffffffffff6101408e01351115611e4557600080fd5b611e568e6101408f01358f01611c7f565b9150611e656101608e01611a33565b90509295989b509295989b509295989b565b600081518084526020808501945080840160005b83811015611ea757815187529582019590820190600101611e8b565b509495945050505050565b6020815260006114fc6020830184611e77565b600080600080600060a08688031215611edd57600080fd5b853594506020860135935060408601359250606086013567ffffffffffffffff811115611f0957600080fd5b611f1588828901611c7f565b9250506080860135611f2681611a1b565b809150509295509295909350565b634e487b7160e01b600052603260045260246000fd5b634e487b7160e01b600052601160045260246000fd5b6000600019821415611f7457611f74611f4a565b5060010190565b600061012060018060a01b038c1683528a60208401528960408401528860608401528760808401528060a0840152611fb581840188611b1b565b60c0840196909652505060e0810192909252610100909101529695505050505050565b600181811c90821680611fec57607f821691505b6020821081141561200d57634e487b7160e01b600052602260045260246000fd5b50919050565b600081518084526020808501945080840160005b83811015611ea75781516001600160a01b031687529582019590820190600101612027565b602081526000825161018080602085015261206b6101a0850183612013565b91506020850151604085015260408501516060850152606085015161209b60808601826001600160a01b03169052565b50608085015160a085015260a085015160c085015260c085015160e085015260e08501516101006120d6818701836001600160a01b03169052565b8601516101208681019190915286015161014080870191909152860151858403601f1901610160808801919091529091506121118483611e77565b9601516001600160a01b03169190940152509192915050565b60208082526025908201527f44446e443a204572726f7220696e207369676e6174757265207665726966696360408201526430ba34b7b760d91b606082015260800190565b60006020828403121561218157600080fd5b815180151581146114fc57600080fd5b60018060a01b0383168152600060206040818401526000845481600182811c9150808316806121c157607f831692505b8583108114156121df57634e487b7160e01b85526022600452602485fd5b60408801839052606088018180156121fe576001811461220f5761223a565b60ff1986168252878201965061223a565b60008b81526020902060005b868110156122345781548482015290850190890161221b565b83019750505b50949a9950505050505050505050565b60006020828403121561225c57600080fd5b5051919050565b634e487b7160e01b600052602160045260246000fd5b8281526040602082015260006122926040830184611b1b565b949350505050565b600082516122ac818460208701611aeb565b9190910192915050565b6000602082840312156122c857600080fd5b81516001600160e01b0319811681146114fc57600080fd5b6000826122fd57634e487b7160e01b600052601260045260246000fd5b500490565b60008282101561231457612314611f4a565b500390565b600081600019048311821515161561233357612333611f4a565b500290565b6000821982111561234b5761234b611f4a565b50019056fe608060405234801561001057600080fd5b50614cdf806100206000396000f3fe6080604052600436106102695760003560e01c80635bc789d911610143578063b3b47061116100bb578063ea1627c011610077578063ea1627c01461082b578063ed996f5e14610858578063f4ff96aa14610878578063f977cd2914610898578063fc0c546a146108ad578063fc4e703f146108d357005b8063b3b4706114610741578063b96f8c9e14610761578063bec11c0e14610781578063cc3c74a1146107a1578063d5c1b6fc146107b7578063db0c41bf146107fe57005b80637e17e3fc1161010a5780637e17e3fc146106865780638c20a9c5146106a65780639669b1cb146106bc5780639840dccc146106d1578063adbba7ae14610701578063b3929aaa1461072157005b80635bc789d9146105b0578063663bb4af146105e85780636e27d8891461060b57806376b0243a1461062b57806379ec5d3a1461066657005b806327f2bdde116101e15780633f10cf151161019d5780633f10cf15146104ed5780633fe229f714610503578063402bad8e14610523578063430694cf146105435780634b0babdd1461057a578063568914121461059a57005b806327f2bdde146104135780632fd99c001461043357806332315fc41461046357806332ed5b12146104835780633a3bed00146104b75780633de39c11146104d757005b806314621a3a1161023057806314621a3a14610361578063158ef93e146103815780631626ba7e146103b2578063184a0ae9146103d25780631c3e89f4146103e85780632229a0e2146103fe57005b806301a598a61461027257806306fdde03146102c0578063088af182146102e25780630d6680871461031d5780630f9a85531461034157005b3661027057005b005b34801561027e57600080fd5b506102a661028d3660046136c5565b600e602052600090815260409020805460019091015482565b604080519283526020830191909152015b60405180910390f35b3480156102cc57600080fd5b506102d56108e9565b6040516102b7919061372d565b3480156102ee57600080fd5b506103046102fd3660046137f5565b6020015190565b6040516001600160e01b031990911681526020016102b7565b34801561032957600080fd5b5061033360085481565b6040519081526020016102b7565b34801561034d57600080fd5b5061027061035c3660046138bf565b610977565b34801561036d57600080fd5b5061027061037c366004613922565b610a48565b34801561038d57600080fd5b506000546103a290600160b01b900460ff1681565b60405190151581526020016102b7565b3480156103be57600080fd5b506103046103cd366004613982565b610bc0565b3480156103de57600080fd5b5061033360025481565b3480156103f457600080fd5b5061033360045481565b34801561040a57600080fd5b50601154610333565b34801561041f57600080fd5b5061033361042e366004613a9f565b610c08565b34801561043f57600080fd5b506103a261044e366004613b70565b600c6020526000908152604090205460ff1681565b34801561046f57600080fd5b5061033361047e366004613b89565b610cc2565b34801561048f57600080fd5b506104a361049e366004613b70565b610d0e565b6040516102b7989796959493929190613beb565b3480156104c357600080fd5b506102706104d2366004613c56565b610e71565b3480156104e357600080fd5b5061033360075481565b3480156104f957600080fd5b5061033360035481565b34801561050f57600080fd5b5061027061051e366004613b70565b610f06565b34801561052f57600080fd5b5061027061053e366004613cf6565b610f7f565b34801561054f57600080fd5b5061056361055e366004613b70565b610f97565b6040516102b79b9a99989796959493929190613dcf565b34801561058657600080fd5b50610270610595366004613b70565b6112d0565b3480156105a657600080fd5b5061033360095481565b3480156105bc57600080fd5b50600a546105d0906001600160a01b031681565b6040516001600160a01b0390911681526020016102b7565b3480156105f457600080fd5b506103a2610603366004613ec5565b600192915050565b34801561061757600080fd5b50610270610626366004613b70565b611494565b34801561063757600080fd5b506103a2610646366004613ec5565b600d60209081526000928352604080842090915290825290205460ff1681565b34801561067257600080fd5b506103336106813660046136c5565b61159b565b34801561069257600080fd5b506102706106a1366004613ef8565b6115b6565b3480156106b257600080fd5b5061033360055481565b3480156106c857600080fd5b50600454610333565b3480156106dd57600080fd5b506103a26106ec366004613b70565b600f6020526000908152604090205460ff1681565b34801561070d57600080fd5b5061033361071c366004613f89565b611831565b34801561072d57600080fd5b5061033361073c366004613b70565b611880565b34801561074d57600080fd5b5061027061075c366004613b70565b6118a1565b34801561076d57600080fd5b5061027061077c366004614026565b61195e565b34801561078d57600080fd5b5061027061079c366004614108565b611da6565b3480156107ad57600080fd5b50610333600b5481565b3480156107c357600080fd5b506103336107d236600461412a565b60008281526010602090815260408083206001600160a01b0385168452600b0190915290205492915050565b34801561080a57600080fd5b5061081e61081936600461414d565b611e2b565b6040516102b79190614183565b34801561083757600080fd5b5061084b610846366004614215565b611ef3565b6040516102b791906142d9565b34801561086457600080fd5b50610333610873366004613b70565b6122c7565b34801561088457600080fd5b5061081e61089336600461431d565b6122f3565b3480156108a457600080fd5b50600554610333565b3480156108b957600080fd5b506000546105d0906201000090046001600160a01b031681565b3480156108df57600080fd5b5061033360065481565b600180546108f690614351565b80601f016020809104026020016040519081016040528092919081815260200182805461092290614351565b801561096f5780601f106109445761010080835404028352916020019161096f565b820191906000526020600020905b81548152906001019060200180831161095257829003601f168201915b505050505081565b80518251146109e85760405162461bcd60e51b815260206004820152603260248201527f45524332304775696c643a2057726f6e67206c656e677468206f662070726f706044820152716f73616c496473206f7220616d6f756e747360701b60648201526084015b60405180910390fd5b60005b8251811015610a4357610a3133848381518110610a0a57610a0a61438c565b6020026020010151848481518110610a2457610a2461438c565b60200260200101516123a0565b80610a3b816143b8565b9150506109eb565b505050565b600054600160b01b900460ff16610a715760405162461bcd60e51b81526004016109df906143d3565b6000610a7e838686611831565b6000818152600c602052604090205490915060ff1615610ae05760405162461bcd60e51b815260206004820152601960248201527f45524332304775696c643a20416c726561647920766f7465640000000000000060448201526064016109df565b610b4182610b3b836040517f19457468657265756d205369676e6564204d6573736167653a0a3332000000006020820152603c8101829052600090605c01604051602081830303815290604052805190602001209050919050565b9061265e565b6001600160a01b0316836001600160a01b031614610ba15760405162461bcd60e51b815260206004820152601860248201527f45524332304775696c643a2057726f6e67207369676e6572000000000000000060448201526064016109df565b6000908152600c60205260409020805460ff1916600117905550505050565b600080610bd0610681858561265e565b118015610beb57506000838152600f602052604090205460ff165b610bf6576000610bff565b630b135d3f60e11b5b90505b92915050565b60008054600160b01b900460ff16610c325760405162461bcd60e51b81526004016109df906143d3565b600554610c3e3361159b565b1015610c5c5760405162461bcd60e51b81526004016109df9061440a565b84518651148015610c6e575083518651145b610c8a5760405162461bcd60e51b81526004016109df9061445a565b6000865111610cab5760405162461bcd60e51b81526004016109df906144ae565b610cb8868686868661267a565b9695505050505050565b6001600160a01b038216600090815260126020526040812081908190610ce9908590612825565b915091508115610cfc579150610c029050565b610d058561159b565b92505050610c02565b60106020526000908152604090208054600182015460028301546006840180546001600160a01b03909416949293919291610d4890614351565b80601f0160208091040260200160405190810160405280929190818152602001828054610d7490614351565b8015610dc15780601f10610d9657610100808354040283529160200191610dc1565b820191906000526020600020905b815481529060010190602001808311610da457829003601f168201915b505050505090806007018054610dd690614351565b80601f0160208091040260200160405190810160405280929190818152602001828054610e0290614351565b8015610e4f5780601f10610e2457610100808354040283529160200191610e4f565b820191906000526020600020905b815481529060010190602001808311610e3257829003601f168201915b5050505060088301546009840154600a909401549293909260ff909116915088565b60005b8451811015610eff57610eed858281518110610e9257610e9261438c565b6020026020010151858381518110610eac57610eac61438c565b6020026020010151858481518110610ec657610ec661438c565b6020026020010151858581518110610ee057610ee061438c565b6020026020010151610a48565b80610ef7816143b8565b915050610e74565b5050505050565b333014610f645760405162461bcd60e51b815260206004820152602660248201527f45524332304775696c643a204f6e6c792063616c6c61626c65206279207468656044820152650819dd5a5b1960d21b60648201526084016109df565b6000908152600f60205260409020805460ff19166001179055565b610f8e87878787878787612914565b50505050505050565b60008060006060806060806060600080600080601060008e815260200190815260200160002090508060000160009054906101000a90046001600160a01b031681600101548260020154836003018460040185600501866006018760070188600801548960090160009054906101000a900460ff168a600a01548780548060200260200160405190810160405280929190818152602001828054801561106657602002820191906000526020600020905b81546001600160a01b03168152600190910190602001808311611048575b5050505050975086805480602002602001604051908101604052809291908181526020016000905b8282101561113a5783829060005260206000200180546110ad90614351565b80601f01602080910402602001604051908101604052809291908181526020018280546110d990614351565b80156111265780601f106110fb57610100808354040283529160200191611126565b820191906000526020600020905b81548152906001019060200180831161110957829003601f168201915b50505050508152602001906001019061108e565b5050505096508580548060200260200160405190810160405280929190818152602001828054801561118b57602002820191906000526020600020905b815481526020019060010190808311611177575b5050505050955084805461119e90614351565b80601f01602080910402602001604051908101604052809291908181526020018280546111ca90614351565b80156112175780601f106111ec57610100808354040283529160200191611217565b820191906000526020600020905b8154815290600101906020018083116111fa57829003601f168201915b5050505050945083805461122a90614351565b80601f016020809104026020016040519081016040528092919081815260200182805461125690614351565b80156112a35780601f10611278576101008083540402835291602001916112a3565b820191906000526020600020905b81548152906001019060200180831161128657829003601f168201915b505050505093509b509b509b509b509b509b509b509b509b509b509b505091939597999b90929496989a50565b806112da3361159b565b10156113465760405162461bcd60e51b815260206004820152603560248201527f45524332304775696c643a20556e61626c6520746f2072656c65617365206d6f6044820152741c99481d1bdad95b9cc81d1a185b881b1bd8dad959605a1b60648201526084016109df565b336000908152600e602052604090206001015442116113a75760405162461bcd60e51b815260206004820152601f60248201527f45524332304775696c643a20546f6b656e73207374696c6c206c6f636b65640060448201526064016109df565b6113b033612a94565b6113b8612abe565b336000908152600e60205260409020546113d29082612acd565b336000908152600e60205260409020556009546113ef9082612acd565b600955600a5460405163f3fef3a360e01b8152336004820152602481018390526001600160a01b039091169063f3fef3a390604401600060405180830381600087803b15801561143e57600080fd5b505af1158015611452573d6000803e3d6000fd5b505060408051338152602081018590527fc7798891864187665ac6dd119286e44ec13f014527aeeb2b8eb3fd413df9317993500190505b60405180910390a150565b61149d33612a94565b6114a5612abe565b600a546040516311f9fbc960e21b8152336004820152602481018390526001600160a01b03909116906347e7ef2490604401600060405180830381600087803b1580156114f157600080fd5b505af1158015611505573d6000803e3d6000fd5b5050336000908152600e60205260409020546115249250905082612ad9565b336000908152600e6020526040902055600854611542904290612ad9565b336000908152600e60205260409020600101556009546115629082612ad9565b60095560408051338152602081018390527fac87f20a77d28ee8bbb58ec87ea8fa968b3393efae1a368fd50b767c2847391c9101611489565b6001600160a01b03166000908152600e602052604090205490565b600054610100900460ff16806115cf575060005460ff16155b6116325760405162461bcd60e51b815260206004820152602e60248201527f496e697469616c697a61626c653a20636f6e747261637420697320616c72656160448201526d191e481a5b9a5d1a585b1a5e995960921b60648201526084016109df565b600054610100900460ff16158015611654576000805461ffff19166101011790555b6001600160a01b038a166116b85760405162461bcd60e51b815260206004820152602560248201527f45524332304775696c643a20746f6b656e20697320746865207a65726f206164604482015264647265737360d81b60648201526084016109df565b84516116cb9060019060208801906134c9565b506000805462010000600160b01b031916620100006001600160a01b038d16021790556040516116fa9061354d565b604051809103906000f080158015611716573d6000803e3d6000fd5b50600a80546001600160a01b0319166001600160a01b0392831690811790915560005460405163485cc95560e01b81526201000090910490921660048301523060248301529063485cc95590604401600060405180830381600087803b15801561177f57600080fd5b505af1158015611793573d6000803e3d6000fd5b505050506117a689898989888888612914565b306000908152600d60209081526040808320632015d6c760e11b8452909152808220805460ff199081166001908117909255635cb7c64f60e11b84528284208054821683179055635a2bcc6b60e11b84529183208054909216179055805460ff60b01b1916600160b01b1790558015611825576000805461ff00191690555b50505050505050505050565b6040516bffffffffffffffffffffffff19606085901b16602082015260348101839052605481018290526000906074016040516020818303038152906040528051906020012090509392505050565b6011818154811061189057600080fd5b600091825260209091200154905081565b600160008281526010602052604090206009015460ff1660048111156118c9576118c9613bb3565b146118e65760405162461bcd60e51b81526004016109df906144ff565b60008181526010602052604090206002015442116119525760405162461bcd60e51b8152602060048201526024808201527f45524332304775696c643a2050726f706f73616c206861736e7420656e646564604482015263081e595d60e21b60648201526084016109df565b61195b81612ae5565b50565b600054600160b01b900460ff166119875760405162461bcd60e51b81526004016109df906143d3565b3330146119ed5760405162461bcd60e51b815260206004820152602e60248201527f45524332304775696c643a204f6e6c792063616c6c61626c652062792045524360448201526d191833bab4b6321034ba39b2b63360911b60648201526084016109df565b815183511480156119ff575080518351145b611a7f5760405162461bcd60e51b815260206004820152604560248201527f45524332304775696c643a2057726f6e67206c656e677468206f6620746f2c2060448201527f66756e6374696f6e5369676e6174757265206f7220616c6c6f77616e63652061606482015264727261797360d81b608482015260a4016109df565b60005b8351811015611c77578251600090849083908110611aa257611aa261438c565b60200260200101516001600160e01b0319161415611b135760405162461bcd60e51b815260206004820152602860248201527f45524332304775696c643a20456d70747920736967616e7475726573206e6f7460448201526708185b1b1bddd95960c21b60648201526084016109df565b818181518110611b2557611b2561438c565b6020026020010151600d6000868481518110611b4357611b4361438c565b60200260200101516001600160a01b03166001600160a01b031681526020019081526020016000206000858481518110611b7f57611b7f61438c565b60200260200101516001600160e01b0319166001600160e01b031916815260200190815260200160002060006101000a81548160ff021916908315150217905550838181518110611bd257611bd261438c565b60200260200101516001600160a01b03167f31e41e795ddf7710d216f93d4d9a1080ca53618ba00822e743d12f31a7dfc980848381518110611c1657611c1661438c565b6020026020010151848481518110611c3057611c3061438c565b6020026020010151604051611c5d9291906001600160e01b03199290921682521515602082015260400190565b60405180910390a280611c6f816143b8565b915050611a82565b50306000908152600d60209081526040808320632015d6c760e11b845290915290205460ff16611d0f5760405162461bcd60e51b815260206004820152603b60248201527f45524332304775696c643a20736574436f6e6669672066756e6374696f6e206160448201527f6c6c6f77616e63652063616e74206265207475726e6564206f6666000000000060648201526084016109df565b306000908152600d60209081526040808320635cb7c64f60e11b845290915290205460ff16610a435760405162461bcd60e51b815260206004820152603e60248201527f45524332304775696c643a20736574416c6c6f77616e63652066756e6374696f60448201527f6e20616c6c6f77616e63652063616e74206265207475726e6564206f6666000060648201526084016109df565b6000828152601060205260409020600a01548190611dc5903390610cc2565b1015611e135760405162461bcd60e51b815260206004820152601a60248201527f45524332304775696c643a20496e76616c696420616d6f756e7400000000000060448201526064016109df565b611e1e3383836123a0565b611e2733612f39565b5050565b6060600083516001600160401b03811115611e4857611e48613740565b604051908082528060200260200182016040528015611e71578160200160208202803683370190505b50905060005b8451811015611eeb57611ebc858281518110611e9557611e9561438c565b6020026020010151858381518110611eaf57611eaf61438c565b6020026020010151610cc2565b828281518110611ece57611ece61438c565b602090810291909101015280611ee3816143b8565b915050611e77565b509392505050565b600054606090600160b01b900460ff16611f1f5760405162461bcd60e51b81526004016109df906143d3565b600554611f2b3361159b565b1015611f495760405162461bcd60e51b81526004016109df9061440a565b84518651148015611f5b575083518651145b611f775760405162461bcd60e51b81526004016109df9061445a565b8151835114611fee5760405162461bcd60e51b815260206004820152603d60248201527f45524332304775696c643a2057726f6e67206c656e677468206f66206465736360448201527f72697074696f6e206f7220636f6e74656e74486173682061727261797300000060648201526084016109df565b600086511161200f5760405162461bcd60e51b81526004016109df906144ae565b600083516001600160401b0381111561202a5761202a613740565b604051908082528060200260200182016040528015612053578160200160208202803683370190505b5084518851919250906000906120699083612fcc565b905060005b828110156122b9576000826001600160401b0381111561209057612090613740565b6040519080825280602002602001820160405280156120b9578160200160208202803683370190505b5090506000836001600160401b038111156120d6576120d6613740565b60405190808252806020026020018201604052801561210957816020015b60608152602001906001900390816120f45790505b5090506000846001600160401b0381111561212657612126613740565b60405190808252806020026020018201604052801561214f578160200160208202803683370190505b50905060008061215f8787612fd8565b90505b86811015612244578e818151811061217c5761217c61438c565b60200260200101518583815181106121965761219661438c565b60200260200101906001600160a01b031690816001600160a01b0316815250508d81815181106121c8576121c861438c565b60200260200101518483815181106121e2576121e261438c565b60200260200101819052508c81815181106121ff576121ff61438c565b60200260200101518383815181106122195761221961438c565b60209081029190910101528161222e816143b8565b925050808061223c906143b8565b915050612162565b506122848484848e898151811061225d5761225d61438c565b60200260200101518e8a815181106122775761227761438c565b602002602001015161267a565b8886815181106122965761229661438c565b6020026020010181815250505050505080806122b1906143b8565b91505061206e565b509198975050505050505050565b60008060006122d7846013612825565b9150915081156122e8579392505050565b505060095492915050565b6060600082516001600160401b0381111561231057612310613740565b604051908082528060200260200182016040528015612339578160200160208202803683370190505b50905060005b83518110156123995761236a84828151811061235d5761235d61438c565b602002602001015161159b565b82828151811061237c5761237c61438c565b602090810291909101015280612391816143b8565b91505061233f565b5092915050565b600054600160b01b900460ff166123c95760405162461bcd60e51b81526004016109df906143d3565b600160008381526010602052604090206009015460ff1660048111156123f1576123f1613bb3565b1461240e5760405162461bcd60e51b81526004016109df906144ff565b806124188461159b565b10156124665760405162461bcd60e51b815260206004820152601a60248201527f45524332304775696c643a20496e76616c696420616d6f756e7400000000000060448201526064016109df565b60008281526010602090815260408083206001600160a01b0387168452600b019091529020548111156125665760008281526010602090815260408083206001600160a01b0387168452600b019091529020546124e0906124c8908390612acd565b60008481526010602052604090206008015490612ad9565b600083815260106020908152604080832060088101949094556001600160a01b0387168352600b9093019052205482907f994c1e2cd59a94ec7f932ab317a85dabd5f43917c5cfb959b751a9648140c0c290859061253f908590612acd565b604080516001600160a01b03909316835260208301919091520160405180910390a2612633565b60008281526010602090815260408083206001600160a01b0387168452600b019091529020546125b29061259a9083612acd565b60008481526010602052604090206008015490612acd565b600083815260106020908152604080832060088101949094556001600160a01b0387168352600b9093019052205482907f79f996adb5f064cd332cb02f590abdf662bafabcbe22469b8b316466e475c2c19085906126109085612acd565b604080516001600160a01b03909316835260208301919091520160405180910390a25b60009182526010602090815260408084206001600160a01b039095168452600b909401905291902055565b600080600061266d8585612fe4565b91509150611eeb81613051565b600b54604080513360601b6bffffffffffffffffffffffff1916602080830191909152426034830152605480830185905283518084039091018152607490920190925280519101206000916126d0906001612ad9565b600b556015546126e1906001612ad9565b601555600081815260106020526040902080546001600160a01b0319163317815542600182018190556002546127179190612ad9565b6002820155875161273190600383019060208b019061355a565b50865161274790600483019060208a01906135af565b50855161275d9060058301906020890190613608565b50845161277390600683019060208801906134c9565b50835161278990600783019060208701906134c9565b5060006008820181905560098201805460ff19166001179055601554600a83015560405183917f288a29bca04edb18fcdb2c76d6e3b03b8a137c85c70d1a4cb8aacfa868d6051091a26127e533836127e03361159b565b6123a0565b50601180546001810182556000919091527f31ecc21a745e3968a04e9570e4425bc18fa8019c68028196b546d1669c200c68018190559695505050505050565b6000806000841161286e5760405162461bcd60e51b8152602060048201526013602482015272045524332304775696c643a206964206973203606c1b60448201526064016109df565b6015548411156128c05760405162461bcd60e51b815260206004820152601a60248201527f45524332304775696c643a206e6f6e6578697374656e7420696400000000000060448201526064016109df565b60006128cc848661320c565b84549091508114156128e557600080925092505061290d565b60018460010182815481106128fc576128fc61438c565b906000526020600020015492509250505b9250929050565b600054600160b01b900460ff16158061292c57503330145b61299e5760405162461bcd60e51b815260206004820152603f60248201527f45524332304775696c643a204f6e6c792063616c6c61626c652062792045524360448201527f32306775696c6420697473656c66207768656e20696e697469616c697a65640060648201526084016109df565b60008511612a0c5760405162461bcd60e51b815260206004820152603560248201527f45524332304775696c643a20766f74657320666f7220657865637574696f6e20604482015274068617320746f206265206d6f7265207468616e203605c1b60648201526084016109df565b60008111612a745760405162461bcd60e51b815260206004820152602f60248201527f45524332304775696c643a206c6f636b54696d652073686f756c64206265206860448201526e6967686572207468616e207a65726f60881b60648201526084016109df565b600296909655600394909455600492909255600555600655600755600855565b6001600160a01b038116600090815260126020526040902061195b90612ab98361159b565b6132b7565b612acb60136009546132b7565b565b6000610bff8284614544565b6000610bff828461455b565b600454600082815260106020526040902060080154108015612b2c5750600160008281526010602052604090206009015460ff166004811115612b2a57612b2a613bb3565b145b15612b7757600081815260106020526040808220600901805460ff191660021790555182917f55295d4ce992922fa2e5ffbf3a3dcdb367de0a15e125ace083456017fd22060f91a250565b6003546000828152601060205260409020600201544291612b989190612ad9565b108015612bca5750600160008281526010602052604090206009015460ff166004811115612bc857612bc8613bb3565b145b15612c1557600081815260106020526040808220600901805460ff191660041790555182917f0126984176eaaeb6ba34a0bd7ee6e99c473c100f79bee0bb6d17f0f44c83f1f991a250565b600160008281526010602052604090206009015460ff166004811115612c3d57612c3d613bb3565b141561195b576000818152601060205260408120600901805460ff191660031790555b600082815260106020526040902060030154811015612f0a5760008281526010602052604081206004018054612d3b919084908110612ca157612ca161438c565b906000526020600020018054612cb690614351565b80601f0160208091040260200160405190810160405280929190818152602001828054612ce290614351565b8015612d2f5780601f10612d0457610100808354040283529160200191612d2f565b820191906000526020600020905b815481529060010190602001808311612d1257829003601f168201915b50505050506020015190565b60008481526010602052604090206003018054919250612d6e9184908110612d6557612d6561438c565b50600052600190565b612dba5760405162461bcd60e51b815260206004820152601c60248201527f45524332304775696c643a204e6f7420616c6c6f7765642063616c6c0000000060448201526064016109df565b6000838152601060205260408120600301805484908110612ddd57612ddd61438c565b60009182526020808320909101548683526010909152604090912060050180546001600160a01b039092169185908110612e1957612e1961438c565b9060005260206000200154601060008781526020019081526020016000206004018581548110612e4b57612e4b61438c565b90600052602060002001604051612e629190614573565b60006040518083038185875af1925050503d8060008114612e9f576040519150601f19603f3d011682016040523d82523d6000602084013e612ea4565b606091505b5050905080612ef55760405162461bcd60e51b815260206004820181905260248201527f45524332304775696c643a2050726f706f73616c2063616c6c206661696c656460448201526064016109df565b50508080612f02906143b8565b915050612c60565b5060405181907f7b1bcf1ccf901a11589afff5504d59fd0a53780eed2a952adade0348985139e090600090a250565b600054600160b01b900460ff16612f625760405162461bcd60e51b81526004016109df906143d3565b6006541561195b576000612f8d612f846007543a6132f890919063ffffffff16565b60065490612fd8565b9050804710611e27576040516001600160a01b0383169082156108fc029083906000818181858888f19350505050158015610a43573d6000803e3d6000fd5b6000610bff8284614625565b6000610bff8284614639565b60008082516041141561301b5760208301516040840151606085015160001a61300f8782858561330e565b9450945050505061290d565b825160401415613045576020830151604084015161303a8683836133fb565b93509350505061290d565b5060009050600261290d565b600081600481111561306557613065613bb3565b141561306e5750565b600181600481111561308257613082613bb3565b14156130d05760405162461bcd60e51b815260206004820152601860248201527f45434453413a20696e76616c6964207369676e6174757265000000000000000060448201526064016109df565b60028160048111156130e4576130e4613bb3565b14156131325760405162461bcd60e51b815260206004820152601f60248201527f45434453413a20696e76616c6964207369676e6174757265206c656e6774680060448201526064016109df565b600381600481111561314657613146613bb3565b141561319f5760405162461bcd60e51b815260206004820152602260248201527f45434453413a20696e76616c6964207369676e6174757265202773272076616c604482015261756560f01b60648201526084016109df565b60048160048111156131b3576131b3613bb3565b141561195b5760405162461bcd60e51b815260206004820152602260248201527f45434453413a20696e76616c6964207369676e6174757265202776272076616c604482015261756560f01b60648201526084016109df565b815460009081905b8082101561326a576000613228838361342a565b90508486828154811061323d5761323d61438c565b9060005260206000200154111561325657809150613264565b61326181600161455b565b92505b50613214565b60008211801561329f57508385613282600185614544565b815481106132925761329261438c565b9060005260206000200154145b156132af57610d05600183614544565b509050610c02565b601554806132c484613481565b1015610a43578254600180820185556000858152602080822090930193909355938401805494850181558252902090910155565b60008183106133075781610bff565b5090919050565b6000807f7fffffffffffffffffffffffffffffff5d576e7357a4501ddfe92f46681b20a083111561334557506000905060036133f2565b8460ff16601b1415801561335d57508460ff16601c14155b1561336e57506000905060046133f2565b6040805160008082526020820180845289905260ff881692820192909252606081018690526080810185905260019060a0016020604051602081039080840390855afa1580156133c2573d6000803e3d6000fd5b5050604051601f1901519150506001600160a01b0381166133eb576000600192509250506133f2565b9150600090505b94509492505050565b6000806001600160ff1b03831660ff84901c601b0161341c8782888561330e565b935093505050935093915050565b600060026134388184614658565b613443600286614658565b61344d919061455b565b6134579190614625565b613462600284614625565b61346d600286614625565b613477919061455b565b610bff919061455b565b805460009061349257506000919050565b815482906134a290600190614544565b815481106134b2576134b261438c565b90600052602060002001549050919050565b919050565b8280546134d590614351565b90600052602060002090601f0160209004810192826134f7576000855561353d565b82601f1061351057805160ff191683800117855561353d565b8280016001018555821561353d579182015b8281111561353d578251825591602001919060010190613522565b50613549929150613642565b5090565b61063d8061466d83390190565b82805482825590600052602060002090810192821561353d579160200282015b8281111561353d57825182546001600160a01b0319166001600160a01b0390911617825560209092019160019091019061357a565b8280548282559060005260206000209081019282156135fc579160200282015b828111156135fc57825180516135ec9184916020909101906134c9565b50916020019190600101906135cf565b50613549929150613657565b82805482825590600052602060002090810192821561353d579160200282018281111561353d578251825591602001919060010190613522565b5b808211156135495760008155600101613643565b8082111561354957600061366b8282613674565b50600101613657565b50805461368090614351565b6000825580601f10613690575050565b601f01602090049060005260206000209081019061195b9190613642565b80356001600160a01b03811681146134c457600080fd5b6000602082840312156136d757600080fd5b610bff826136ae565b6000815180845260005b81811015613706576020818501810151868301820152016136ea565b81811115613718576000602083870101525b50601f01601f19169290920160200192915050565b602081526000610bff60208301846136e0565b634e487b7160e01b600052604160045260246000fd5b604051601f8201601f191681016001600160401b038111828210171561377e5761377e613740565b604052919050565b600082601f83011261379757600080fd5b81356001600160401b038111156137b0576137b0613740565b6137c3601f8201601f1916602001613756565b8181528460208386010111156137d857600080fd5b816020850160208301376000918101602001919091529392505050565b60006020828403121561380757600080fd5b81356001600160401b0381111561381d57600080fd5b61382984828501613786565b949350505050565b60006001600160401b0382111561384a5761384a613740565b5060051b60200190565b600082601f83011261386557600080fd5b8135602061387a61387583613831565b613756565b82815260059290921b8401810191818101908684111561389957600080fd5b8286015b848110156138b4578035835291830191830161389d565b509695505050505050565b600080604083850312156138d257600080fd5b82356001600160401b03808211156138e957600080fd5b6138f586838701613854565b9350602085013591508082111561390b57600080fd5b5061391885828601613854565b9150509250929050565b6000806000806080858703121561393857600080fd5b843593506020850135925061394f604086016136ae565b915060608501356001600160401b0381111561396a57600080fd5b61397687828801613786565b91505092959194509250565b6000806040838503121561399557600080fd5b8235915060208301356001600160401b038111156139b257600080fd5b61391885828601613786565b600082601f8301126139cf57600080fd5b813560206139df61387583613831565b82815260059290921b840181019181810190868411156139fe57600080fd5b8286015b848110156138b457613a13816136ae565b8352918301918301613a02565b600082601f830112613a3157600080fd5b81356020613a4161387583613831565b82815260059290921b84018101918181019086841115613a6057600080fd5b8286015b848110156138b45780356001600160401b03811115613a835760008081fd5b613a918986838b0101613786565b845250918301918301613a64565b600080600080600060a08688031215613ab757600080fd5b85356001600160401b0380821115613ace57600080fd5b613ada89838a016139be565b96506020880135915080821115613af057600080fd5b613afc89838a01613a20565b95506040880135915080821115613b1257600080fd5b613b1e89838a01613854565b94506060880135915080821115613b3457600080fd5b613b4089838a01613786565b93506080880135915080821115613b5657600080fd5b50613b6388828901613786565b9150509295509295909350565b600060208284031215613b8257600080fd5b5035919050565b60008060408385031215613b9c57600080fd5b613ba5836136ae565b946020939093013593505050565b634e487b7160e01b600052602160045260246000fd5b60058110613be757634e487b7160e01b600052602160045260246000fd5b9052565b600061010060018060a01b038b168352896020840152886040840152806060840152613c19818401896136e0565b90508281036080840152613c2d81886136e0565b9150508460a0830152613c4360c0830185613bc9565b8260e08301529998505050505050505050565b60008060008060808587031215613c6c57600080fd5b84356001600160401b0380821115613c8357600080fd5b613c8f88838901613854565b95506020870135915080821115613ca557600080fd5b613cb188838901613854565b94506040870135915080821115613cc757600080fd5b613cd3888389016139be565b93506060870135915080821115613ce957600080fd5b5061397687828801613a20565b600080600080600080600060e0888a031215613d1157600080fd5b505085359760208701359750604087013596606081013596506080810135955060a0810135945060c0013592509050565b6000815180845260208085019450848260051b860182860160005b85811015613d87578383038952613d758383516136e0565b98850198925090840190600101613d5d565b5090979650505050505050565b600081518084526020808501945080840160005b83811015613dc457815187529582019590820190600101613da8565b509495945050505050565b6000610160820160018060a01b03808f1684528d60208501528c60408501526101606060850152818c518084526101808601915060208e01935060005b81811015613e2c5784518416835260209485019490920191600101613e0c565b50508481036080860152613e40818d613d42565b9250505082810360a0840152613e56818a613d94565b905082810360c0840152613e6a81896136e0565b905082810360e0840152613e7e81886136e0565b91505084610100830152613e96610120830185613bc9565b826101408301529c9b505050505050505050505050565b80356001600160e01b0319811681146134c457600080fd5b60008060408385031215613ed857600080fd5b613ee1836136ae565b9150613eef60208401613ead565b90509250929050565b60008060008060008060008060006101208a8c031215613f1757600080fd5b613f208a6136ae565b985060208a0135975060408a0135965060608a0135955060808a0135945060a08a01356001600160401b03811115613f5757600080fd5b613f638c828d01613786565b94505060c08a0135925060e08a013591506101008a013590509295985092959850929598565b600080600060608486031215613f9e57600080fd5b613fa7846136ae565b95602085013595506040909401359392505050565b600082601f830112613fcd57600080fd5b81356020613fdd61387583613831565b82815260059290921b84018101918181019086841115613ffc57600080fd5b8286015b848110156138b457803580151581146140195760008081fd5b8352918301918301614000565b60008060006060848603121561403b57600080fd5b83356001600160401b038082111561405257600080fd5b61405e878388016139be565b945060209150818601358181111561407557600080fd5b8601601f8101881361408657600080fd5b803561409461387582613831565b81815260059190911b8201840190848101908a8311156140b357600080fd5b928501925b828410156140d8576140c984613ead565b825292850192908501906140b8565b965050505060408601359150808211156140f157600080fd5b506140fe86828701613fbc565b9150509250925092565b6000806040838503121561411b57600080fd5b50508035926020909101359150565b6000806040838503121561413d57600080fd5b82359150613eef602084016136ae565b6000806040838503121561416057600080fd5b82356001600160401b038082111561417757600080fd5b6138f5868387016139be565b602081526000610bff6020830184613d94565b600082601f8301126141a757600080fd5b813560206141b761387583613831565b82815260059290921b840181019181810190868411156141d657600080fd5b8286015b848110156138b45780356001600160401b038111156141f95760008081fd5b6142078986838b0101613786565b8452509183019183016141da565b600080600080600060a0868803121561422d57600080fd5b85356001600160401b038082111561424457600080fd5b61425089838a016139be565b9650602088013591508082111561426657600080fd5b61427289838a01613a20565b9550604088013591508082111561428857600080fd5b61429489838a01613854565b945060608801359150808211156142aa57600080fd5b6142b689838a01614196565b935060808801359150808211156142cc57600080fd5b50613b6388828901613a20565b6020808252825182820181905260009190848201906040850190845b81811015614311578351835292840192918401916001016142f5565b50909695505050505050565b60006020828403121561432f57600080fd5b81356001600160401b0381111561434557600080fd5b613829848285016139be565b600181811c9082168061436557607f821691505b6020821081141561438657634e487b7160e01b600052602260045260246000fd5b50919050565b634e487b7160e01b600052603260045260246000fd5b634e487b7160e01b600052601160045260246000fd5b60006000198214156143cc576143cc6143a2565b5060010190565b6020808252601a908201527f45524332304775696c643a204e6f7420696e6974696c697a6564000000000000604082015260600190565b60208082526030908201527f45524332304775696c643a204e6f7420656e6f75676820746f6b656e7320746f60408201526f0818dc99585d19481c1c9bdc1bdcd85b60821b606082015260800190565b60208082526034908201527f45524332304775696c643a2057726f6e67206c656e677468206f6620746f2c2060408201527364617461206f722076616c75652061727261797360601b606082015260800190565b60208082526031908201527f45524332304775696c643a20746f2c20646174612076616c7565206172726179604082015270732063616e6e6f7420626520656d70747960781b606082015260800190565b60208082526025908201527f45524332304775696c643a2050726f706f73616c20616c72656164792065786560408201526418dd5d195960da1b606082015260800190565b600082821015614556576145566143a2565b500390565b6000821982111561456e5761456e6143a2565b500190565b600080835481600182811c91508083168061458f57607f831692505b60208084108214156145af57634e487b7160e01b86526022600452602486fd5b8180156145c357600181146145d457614601565b60ff19861689528489019650614601565b60008a81526020902060005b868110156145f95781548b8201529085019083016145e0565b505084890196505b509498975050505050505050565b634e487b7160e01b600052601260045260246000fd5b6000826146345761463461460f565b500490565b6000816000190483118215151615614653576146536143a2565b500290565b6000826146675761466761460f565b50069056fe60806040526001805460ff60a01b1916905534801561001d57600080fd5b506106108061002d6000396000f3fe608060405234801561001057600080fd5b506004361061007d5760003560e01c8063485cc9551161005b578063485cc955146100ee578063f3fef3a314610101578063f851a44014610114578063fc0c546a1461013f57600080fd5b8063158ef93e1461008257806327e235e3146100ab57806347e7ef24146100d9575b600080fd5b60015461009690600160a01b900460ff1681565b60405190151581526020015b60405180910390f35b6100cb6100b93660046104fb565b60026020526000908152604090205481565b6040519081526020016100a2565b6100ec6100e7366004610516565b610158565b005b6100ec6100fc366004610540565b6102a4565b6100ec61010f366004610516565b61039f565b600154610127906001600160a01b031681565b6040516001600160a01b0390911681526020016100a2565b600054610127906201000090046001600160a01b031681565b600154600160a01b900460ff166101b65760405162461bcd60e51b815260206004820152601a60248201527f546f6b656e5661756c743a204e6f7420696e6974696c697a656400000000000060448201526064015b60405180910390fd5b6001546001600160a01b031633146101cd57600080fd5b6000546040516323b872dd60e01b81526001600160a01b0384811660048301523060248301526044820184905262010000909204909116906323b872dd90606401602060405180830381600087803b15801561022857600080fd5b505af115801561023c573d6000803e3d6000fd5b505050506040513d601f19601f820116820180604052508101906102609190610573565b506001600160a01b03821660009081526002602052604090205461028490826104c0565b6001600160a01b0390921660009081526002602052604090209190915550565b600054610100900460ff16806102bd575060005460ff16155b6103205760405162461bcd60e51b815260206004820152602e60248201527f496e697469616c697a61626c653a20636f6e747261637420697320616c72656160448201526d191e481a5b9a5d1a585b1a5e995960921b60648201526084016101ad565b600054610100900460ff16158015610342576000805461ffff19166101011790555b600080546001600160a01b03808616620100000262010000600160b01b031990921691909117909155600180546001600160a81b03191691841691909117600160a01b179055801561039a576000805461ff00191690555b505050565b600154600160a01b900460ff166103f85760405162461bcd60e51b815260206004820152601a60248201527f546f6b656e5661756c743a204e6f7420696e6974696c697a656400000000000060448201526064016101ad565b6001546001600160a01b0316331461040f57600080fd5b60005460405163a9059cbb60e01b81526001600160a01b03848116600483015260248201849052620100009092049091169063a9059cbb90604401602060405180830381600087803b15801561046457600080fd5b505af1158015610478573d6000803e3d6000fd5b505050506040513d601f19601f8201168201806040525081019061049c9190610573565b506001600160a01b03821660009081526002602052604090205461028490826104d3565b60006104cc82846105ab565b9392505050565b60006104cc82846105c3565b80356001600160a01b03811681146104f657600080fd5b919050565b60006020828403121561050d57600080fd5b6104cc826104df565b6000806040838503121561052957600080fd5b610532836104df565b946020939093013593505050565b6000806040838503121561055357600080fd5b61055c836104df565b915061056a602084016104df565b90509250929050565b60006020828403121561058557600080fd5b815180151581146104cc57600080fd5b634e487b7160e01b600052601160045260246000fd5b600082198211156105be576105be610595565b500190565b6000828210156105d5576105d5610595565b50039056fea2646970667358221220ed228133b5b6a1d4223004479c53dd0eb4479b5ae101c8120491a2f3b4e3663f64736f6c63430008080033a264697066735822122043a4bc6c4fedf1a1cf09b043fc9d4664646459c0bb98434865caee7ad81b9c4b64736f6c63430008080033a26469706673582212200b794b7cce6a1660b8d5a58ee3a986ccd80ad3b4059099f4445115611ab1026d64736f6c63430008080033",
  "linkReferences": {},
  "deployedLinkReferences": {}
}