{
  "_format": "hh-sol-artifact-1",
  "contractName": "ERC20Guild",
  "sourceName": "contracts/erc20guild/ERC20Guild.sol",
  "abi": [
    {
      "anonymous": false,
      "inputs": [
        {
          "indexed": true,
          "internalType": "bytes32",
          "name": "proposalId",
          "type": "bytes32"
        }
      ],
      "name": "ProposalCreated",
      "type": "event"
    },
    {
      "anonymous": false,
      "inputs": [
        {
          "indexed": true,
          "internalType": "bytes32",
          "name": "proposalId",
          "type": "bytes32"
        }
      ],
      "name": "ProposalEnded",
      "type": "event"
    },
    {
      "anonymous": false,
      "inputs": [
        {
          "indexed": true,
          "internalType": "bytes32",
          "name": "proposalId",
          "type": "bytes32"
        }
      ],
      "name": "ProposalExecuted",
      "type": "event"
    },
    {
      "anonymous": false,
      "inputs": [
        {
          "indexed": true,
          "internalType": "bytes32",
          "name": "proposalId",
          "type": "bytes32"
        }
      ],
      "name": "ProposalRejected",
      "type": "event"
    },
    {
      "anonymous": false,
      "inputs": [
        {
          "indexed": true,
          "internalType": "address",
          "name": "to",
          "type": "address"
        },
        {
          "indexed": false,
          "internalType": "bytes4",
          "name": "functionSignature",
          "type": "bytes4"
        },
        {
          "indexed": false,
          "internalType": "bool",
          "name": "allowance",
          "type": "bool"
        }
      ],
      "name": "SetAllowance",
      "type": "event"
    },
    {
      "anonymous": false,
      "inputs": [
        {
          "indexed": false,
          "internalType": "address",
          "name": "voter",
          "type": "address"
        },
        {
          "indexed": false,
          "internalType": "uint256",
          "name": "value",
          "type": "uint256"
        }
      ],
      "name": "TokensLocked",
      "type": "event"
    },
    {
      "anonymous": false,
      "inputs": [
        {
          "indexed": false,
          "internalType": "address",
          "name": "voter",
          "type": "address"
        },
        {
          "indexed": false,
          "internalType": "uint256",
          "name": "value",
          "type": "uint256"
        }
      ],
      "name": "TokensReleased",
      "type": "event"
    },
    {
      "anonymous": false,
      "inputs": [
        {
          "indexed": true,
          "internalType": "bytes32",
          "name": "proposalId",
          "type": "bytes32"
        },
        {
          "indexed": false,
          "internalType": "address",
          "name": "voter",
          "type": "address"
        },
        {
          "indexed": false,
          "internalType": "uint256",
          "name": "amount",
          "type": "uint256"
        }
      ],
      "name": "VoteAdded",
      "type": "event"
    },
    {
      "anonymous": false,
      "inputs": [
        {
          "indexed": true,
          "internalType": "bytes32",
          "name": "proposalId",
          "type": "bytes32"
        },
        {
          "indexed": false,
          "internalType": "address",
          "name": "voter",
          "type": "address"
        },
        {
          "indexed": false,
          "internalType": "uint256",
          "name": "amount",
          "type": "uint256"
        }
      ],
      "name": "VoteRemoved",
      "type": "event"
    },
    {
      "stateMutability": "payable",
      "type": "fallback"
    },
    {
      "inputs": [
        {
          "internalType": "bytes32",
          "name": "",
          "type": "bytes32"
        }
      ],
      "name": "EIP1271SignedHashes",
      "outputs": [
        {
          "internalType": "bool",
          "name": "",
          "type": "bool"
        }
      ],
      "stateMutability": "view",
      "type": "function"
    },
    {
      "inputs": [
        {
          "internalType": "address",
          "name": "",
          "type": "address"
        },
        {
          "internalType": "bytes4",
          "name": "",
          "type": "bytes4"
        }
      ],
      "name": "callPermissions",
      "outputs": [
        {
          "internalType": "bool",
          "name": "",
          "type": "bool"
        }
      ],
      "stateMutability": "view",
      "type": "function"
    },
    {
      "inputs": [
        {
          "internalType": "address[]",
          "name": "to",
          "type": "address[]"
        },
        {
          "internalType": "bytes[]",
          "name": "data",
          "type": "bytes[]"
        },
        {
          "internalType": "uint256[]",
          "name": "value",
          "type": "uint256[]"
        },
        {
          "internalType": "string",
          "name": "description",
          "type": "string"
        },
        {
          "internalType": "bytes",
          "name": "contentHash",
          "type": "bytes"
        }
      ],
      "name": "createProposal",
      "outputs": [
        {
          "internalType": "bytes32",
          "name": "",
          "type": "bytes32"
        }
      ],
      "stateMutability": "nonpayable",
      "type": "function"
    },
    {
      "inputs": [
        {
          "internalType": "address[]",
          "name": "to",
          "type": "address[]"
        },
        {
          "internalType": "bytes[]",
          "name": "data",
          "type": "bytes[]"
        },
        {
          "internalType": "uint256[]",
          "name": "value",
          "type": "uint256[]"
        },
        {
          "internalType": "string[]",
          "name": "description",
          "type": "string[]"
        },
        {
          "internalType": "bytes[]",
          "name": "contentHash",
          "type": "bytes[]"
        }
      ],
      "name": "createProposals",
      "outputs": [
        {
          "internalType": "bytes32[]",
          "name": "",
          "type": "bytes32[]"
        }
      ],
      "stateMutability": "nonpayable",
      "type": "function"
    },
    {
      "inputs": [
        {
          "internalType": "bytes32",
          "name": "proposalId",
          "type": "bytes32"
        }
      ],
      "name": "endProposal",
      "outputs": [],
      "stateMutability": "nonpayable",
      "type": "function"
    },
    {
      "inputs": [
        {
          "internalType": "address",
          "name": "to",
          "type": "address"
        },
        {
          "internalType": "bytes4",
          "name": "functionSignature",
          "type": "bytes4"
        }
      ],
      "name": "getCallPermission",
      "outputs": [
        {
          "internalType": "bool",
          "name": "",
          "type": "bool"
        }
      ],
      "stateMutability": "view",
      "type": "function"
    },
    {
      "inputs": [
        {
          "internalType": "bytes",
          "name": "data",
          "type": "bytes"
        }
      ],
      "name": "getFuncSignature",
      "outputs": [
        {
          "internalType": "bytes4",
          "name": "",
          "type": "bytes4"
        }
      ],
      "stateMutability": "view",
      "type": "function"
    },
    {
      "inputs": [
        {
          "internalType": "bytes32",
          "name": "proposalId",
          "type": "bytes32"
        }
      ],
      "name": "getProposal",
      "outputs": [
        {
          "internalType": "address",
          "name": "creator",
          "type": "address"
        },
        {
          "internalType": "uint256",
          "name": "startTime",
          "type": "uint256"
        },
        {
          "internalType": "uint256",
          "name": "endTime",
          "type": "uint256"
        },
        {
          "internalType": "address[]",
          "name": "to",
          "type": "address[]"
        },
        {
          "internalType": "bytes[]",
          "name": "data",
          "type": "bytes[]"
        },
        {
          "internalType": "uint256[]",
          "name": "value",
          "type": "uint256[]"
        },
        {
          "internalType": "string",
          "name": "description",
          "type": "string"
        },
        {
          "internalType": "bytes",
          "name": "contentHash",
          "type": "bytes"
        },
        {
          "internalType": "uint256",
          "name": "totalVotes",
          "type": "uint256"
        },
        {
          "internalType": "enum ERC20Guild.ProposalState",
          "name": "state",
          "type": "uint8"
        },
        {
          "internalType": "uint256",
          "name": "snapshotId",
          "type": "uint256"
        }
      ],
      "stateMutability": "view",
      "type": "function"
    },
    {
      "inputs": [
        {
          "internalType": "bytes32",
          "name": "proposalId",
          "type": "bytes32"
        },
        {
          "internalType": "address",
          "name": "voter",
          "type": "address"
        }
      ],
      "name": "getProposalVotes",
      "outputs": [
        {
          "internalType": "uint256",
          "name": "",
          "type": "uint256"
        }
      ],
      "stateMutability": "view",
      "type": "function"
    },
    {
      "inputs": [],
      "name": "getProposalsIdsLength",
      "outputs": [
        {
          "internalType": "uint256",
          "name": "",
          "type": "uint256"
        }
      ],
      "stateMutability": "view",
      "type": "function"
    },
    {
      "inputs": [],
      "name": "getVotesForCreation",
      "outputs": [
        {
          "internalType": "uint256",
          "name": "",
          "type": "uint256"
        }
      ],
      "stateMutability": "view",
      "type": "function"
    },
    {
      "inputs": [],
      "name": "getVotesForExecution",
      "outputs": [
        {
          "internalType": "uint256",
          "name": "",
          "type": "uint256"
        }
      ],
      "stateMutability": "view",
      "type": "function"
    },
    {
      "inputs": [
        {
          "internalType": "address",
          "name": "voter",
          "type": "address"
        },
        {
          "internalType": "bytes32",
          "name": "proposalId",
          "type": "bytes32"
        },
        {
          "internalType": "uint256",
          "name": "amount",
          "type": "uint256"
        }
      ],
      "name": "hashVote",
      "outputs": [
        {
          "internalType": "bytes32",
          "name": "",
          "type": "bytes32"
        }
      ],
      "stateMutability": "pure",
      "type": "function"
    },
    {
      "inputs": [
        {
          "internalType": "address",
          "name": "_token",
          "type": "address"
        },
        {
          "internalType": "uint256",
          "name": "_proposalTime",
          "type": "uint256"
        },
        {
          "internalType": "uint256",
          "name": "_timeForExecution",
          "type": "uint256"
        },
        {
          "internalType": "uint256",
          "name": "_votesForExecution",
          "type": "uint256"
        },
        {
          "internalType": "uint256",
          "name": "_votesForCreation",
          "type": "uint256"
        },
        {
          "internalType": "string",
          "name": "_name",
          "type": "string"
        },
        {
          "internalType": "uint256",
          "name": "_voteGas",
          "type": "uint256"
        },
        {
          "internalType": "uint256",
          "name": "_maxGasPrice",
          "type": "uint256"
        },
        {
          "internalType": "uint256",
          "name": "_lockTime",
          "type": "uint256"
        }
      ],
      "name": "initialize",
      "outputs": [],
      "stateMutability": "nonpayable",
      "type": "function"
    },
    {
      "inputs": [],
      "name": "initialized",
      "outputs": [
        {
          "internalType": "bool",
          "name": "",
          "type": "bool"
        }
      ],
      "stateMutability": "view",
      "type": "function"
    },
    {
      "inputs": [
        {
          "internalType": "bytes32",
          "name": "hash",
          "type": "bytes32"
        },
        {
          "internalType": "bytes",
          "name": "signature",
          "type": "bytes"
        }
      ],
      "name": "isValidSignature",
      "outputs": [
        {
          "internalType": "bytes4",
          "name": "magicValue",
          "type": "bytes4"
        }
      ],
      "stateMutability": "view",
      "type": "function"
    },
    {
      "inputs": [],
      "name": "lockTime",
      "outputs": [
        {
          "internalType": "uint256",
          "name": "",
          "type": "uint256"
        }
      ],
      "stateMutability": "view",
      "type": "function"
    },
    {
      "inputs": [
        {
          "internalType": "uint256",
          "name": "amount",
          "type": "uint256"
        }
      ],
      "name": "lockTokens",
      "outputs": [],
      "stateMutability": "nonpayable",
      "type": "function"
    },
    {
      "inputs": [],
      "name": "maxGasPrice",
      "outputs": [
        {
          "internalType": "uint256",
          "name": "",
          "type": "uint256"
        }
      ],
      "stateMutability": "view",
      "type": "function"
    },
    {
      "inputs": [],
      "name": "name",
      "outputs": [
        {
          "internalType": "string",
          "name": "",
          "type": "string"
        }
      ],
      "stateMutability": "view",
      "type": "function"
    },
    {
      "inputs": [],
      "name": "proposalNonce",
      "outputs": [
        {
          "internalType": "uint256",
          "name": "",
          "type": "uint256"
        }
      ],
      "stateMutability": "view",
      "type": "function"
    },
    {
      "inputs": [],
      "name": "proposalTime",
      "outputs": [
        {
          "internalType": "uint256",
          "name": "",
          "type": "uint256"
        }
      ],
      "stateMutability": "view",
      "type": "function"
    },
    {
      "inputs": [
        {
          "internalType": "bytes32",
          "name": "",
          "type": "bytes32"
        }
      ],
      "name": "proposals",
      "outputs": [
        {
          "internalType": "address",
          "name": "creator",
          "type": "address"
        },
        {
          "internalType": "uint256",
          "name": "startTime",
          "type": "uint256"
        },
        {
          "internalType": "uint256",
          "name": "endTime",
          "type": "uint256"
        },
        {
          "internalType": "string",
          "name": "description",
          "type": "string"
        },
        {
          "internalType": "bytes",
          "name": "contentHash",
          "type": "bytes"
        },
        {
          "internalType": "uint256",
          "name": "totalVotes",
          "type": "uint256"
        },
        {
          "internalType": "enum ERC20Guild.ProposalState",
          "name": "state",
          "type": "uint8"
        },
        {
          "internalType": "uint256",
          "name": "snapshotId",
          "type": "uint256"
        }
      ],
      "stateMutability": "view",
      "type": "function"
    },
    {
      "inputs": [
        {
          "internalType": "uint256",
          "name": "",
          "type": "uint256"
        }
      ],
      "name": "proposalsIds",
      "outputs": [
        {
          "internalType": "bytes32",
          "name": "",
          "type": "bytes32"
        }
      ],
      "stateMutability": "view",
      "type": "function"
    },
    {
      "inputs": [
        {
          "internalType": "uint256",
          "name": "amount",
          "type": "uint256"
        }
      ],
      "name": "releaseTokens",
      "outputs": [],
      "stateMutability": "nonpayable",
      "type": "function"
    },
    {
      "inputs": [
        {
          "internalType": "address[]",
          "name": "to",
          "type": "address[]"
        },
        {
          "internalType": "bytes4[]",
          "name": "functionSignature",
          "type": "bytes4[]"
        },
        {
          "internalType": "bool[]",
          "name": "allowance",
          "type": "bool[]"
        }
      ],
      "name": "setAllowance",
      "outputs": [],
      "stateMutability": "nonpayable",
      "type": "function"
    },
    {
      "inputs": [
        {
          "internalType": "uint256",
          "name": "_proposalTime",
          "type": "uint256"
        },
        {
          "internalType": "uint256",
          "name": "_timeForExecution",
          "type": "uint256"
        },
        {
          "internalType": "uint256",
          "name": "_votesForExecution",
          "type": "uint256"
        },
        {
          "internalType": "uint256",
          "name": "_votesForCreation",
          "type": "uint256"
        },
        {
          "internalType": "uint256",
          "name": "_voteGas",
          "type": "uint256"
        },
        {
          "internalType": "uint256",
          "name": "_maxGasPrice",
          "type": "uint256"
        },
        {
          "internalType": "uint256",
          "name": "_lockTime",
          "type": "uint256"
        }
      ],
      "name": "setConfig",
      "outputs": [],
      "stateMutability": "nonpayable",
      "type": "function"
    },
    {
      "inputs": [
        {
          "internalType": "bytes32",
          "name": "_hash",
          "type": "bytes32"
        }
      ],
      "name": "setEIP1271SignedHash",
      "outputs": [],
      "stateMutability": "nonpayable",
      "type": "function"
    },
    {
      "inputs": [
        {
          "internalType": "bytes32",
          "name": "proposalId",
          "type": "bytes32"
        },
        {
          "internalType": "uint256",
          "name": "amount",
          "type": "uint256"
        },
        {
          "internalType": "address",
          "name": "voter",
          "type": "address"
        },
        {
          "internalType": "bytes",
          "name": "signature",
          "type": "bytes"
        }
      ],
      "name": "setSignedVote",
      "outputs": [],
      "stateMutability": "nonpayable",
      "type": "function"
    },
    {
      "inputs": [
        {
          "internalType": "bytes32[]",
          "name": "proposalIds",
          "type": "bytes32[]"
        },
        {
          "internalType": "uint256[]",
          "name": "amounts",
          "type": "uint256[]"
        },
        {
          "internalType": "address[]",
          "name": "voters",
          "type": "address[]"
        },
        {
          "internalType": "bytes[]",
          "name": "signatures",
          "type": "bytes[]"
        }
      ],
      "name": "setSignedVotes",
      "outputs": [],
      "stateMutability": "nonpayable",
      "type": "function"
    },
    {
      "inputs": [
        {
          "internalType": "bytes32",
          "name": "proposalId",
          "type": "bytes32"
        },
        {
          "internalType": "uint256",
          "name": "amount",
          "type": "uint256"
        }
      ],
      "name": "setVote",
      "outputs": [],
      "stateMutability": "nonpayable",
      "type": "function"
    },
    {
      "inputs": [
        {
          "internalType": "bytes32[]",
          "name": "proposalIds",
          "type": "bytes32[]"
        },
        {
          "internalType": "uint256[]",
          "name": "amounts",
          "type": "uint256[]"
        }
      ],
      "name": "setVotes",
      "outputs": [],
      "stateMutability": "nonpayable",
      "type": "function"
    },
    {
      "inputs": [
        {
          "internalType": "bytes32",
          "name": "",
          "type": "bytes32"
        }
      ],
      "name": "signedVotes",
      "outputs": [
        {
          "internalType": "bool",
          "name": "",
          "type": "bool"
        }
      ],
      "stateMutability": "view",
      "type": "function"
    },
    {
      "inputs": [],
      "name": "timeForExecution",
      "outputs": [
        {
          "internalType": "uint256",
          "name": "",
          "type": "uint256"
        }
      ],
      "stateMutability": "view",
      "type": "function"
    },
    {
      "inputs": [],
      "name": "token",
      "outputs": [
        {
          "internalType": "contract IERC20Upgradeable",
          "name": "",
          "type": "address"
        }
      ],
      "stateMutability": "view",
      "type": "function"
    },
    {
      "inputs": [],
      "name": "tokenVault",
      "outputs": [
        {
          "internalType": "contract TokenVault",
          "name": "",
          "type": "address"
        }
      ],
      "stateMutability": "view",
      "type": "function"
    },
    {
      "inputs": [
        {
          "internalType": "address",
          "name": "",
          "type": "address"
        }
      ],
      "name": "tokensLocked",
      "outputs": [
        {
          "internalType": "uint256",
          "name": "amount",
          "type": "uint256"
        },
        {
          "internalType": "uint256",
          "name": "timestamp",
          "type": "uint256"
        }
      ],
      "stateMutability": "view",
      "type": "function"
    },
    {
      "inputs": [],
      "name": "totalLocked",
      "outputs": [
        {
          "internalType": "uint256",
          "name": "",
          "type": "uint256"
        }
      ],
      "stateMutability": "view",
      "type": "function"
    },
    {
      "inputs": [
        {
          "internalType": "uint256",
          "name": "snapshotId",
          "type": "uint256"
        }
      ],
      "name": "totalLockedAt",
      "outputs": [
        {
          "internalType": "uint256",
          "name": "",
          "type": "uint256"
        }
      ],
      "stateMutability": "view",
      "type": "function"
    },
    {
      "inputs": [],
      "name": "voteGas",
      "outputs": [
        {
          "internalType": "uint256",
          "name": "",
          "type": "uint256"
        }
      ],
      "stateMutability": "view",
      "type": "function"
    },
    {
      "inputs": [],
      "name": "votesForCreation",
      "outputs": [
        {
          "internalType": "uint256",
          "name": "",
          "type": "uint256"
        }
      ],
      "stateMutability": "view",
      "type": "function"
    },
    {
      "inputs": [],
      "name": "votesForExecution",
      "outputs": [
        {
          "internalType": "uint256",
          "name": "",
          "type": "uint256"
        }
      ],
      "stateMutability": "view",
      "type": "function"
    },
    {
      "inputs": [
        {
          "internalType": "address",
          "name": "account",
          "type": "address"
        }
      ],
      "name": "votesOf",
      "outputs": [
        {
          "internalType": "uint256",
          "name": "",
          "type": "uint256"
        }
      ],
      "stateMutability": "view",
      "type": "function"
    },
    {
      "inputs": [
        {
          "internalType": "address[]",
          "name": "accounts",
          "type": "address[]"
        }
      ],
      "name": "votesOf",
      "outputs": [
        {
          "internalType": "uint256[]",
          "name": "",
          "type": "uint256[]"
        }
      ],
      "stateMutability": "view",
      "type": "function"
    },
    {
      "inputs": [
        {
          "internalType": "address",
          "name": "account",
          "type": "address"
        },
        {
          "internalType": "uint256",
          "name": "snapshotId",
          "type": "uint256"
        }
      ],
      "name": "votesOfAt",
      "outputs": [
        {
          "internalType": "uint256",
          "name": "",
          "type": "uint256"
        }
      ],
      "stateMutability": "view",
      "type": "function"
    },
    {
      "inputs": [
        {
          "internalType": "address[]",
          "name": "accounts",
          "type": "address[]"
        },
        {
          "internalType": "uint256[]",
          "name": "snapshotIds",
          "type": "uint256[]"
        }
      ],
      "name": "votesOfAt",
      "outputs": [
        {
          "internalType": "uint256[]",
          "name": "",
          "type": "uint256[]"
        }
      ],
      "stateMutability": "view",
      "type": "function"
    },
    {
      "stateMutability": "payable",
      "type": "receive"
    }
  ],
  "bytecode": "0x608060405234801561001057600080fd5b50614cd1806100206000396000f3fe6080604052600436106102695760003560e01c80635bc789d911610143578063b3b47061116100bb578063ea1627c011610077578063ea1627c01461082b578063ed996f5e14610858578063f4ff96aa14610878578063f977cd2914610898578063fc0c546a146108ad578063fc4e703f146108d357005b8063b3b4706114610741578063b96f8c9e14610761578063bec11c0e14610781578063cc3c74a1146107a1578063d5c1b6fc146107b7578063db0c41bf146107fe57005b80637e17e3fc1161010a5780637e17e3fc146106865780638c20a9c5146106a65780639669b1cb146106bc5780639840dccc146106d1578063adbba7ae14610701578063b3929aaa1461072157005b80635bc789d9146105b0578063663bb4af146105e85780636e27d8891461060b57806376b0243a1461062b57806379ec5d3a1461066657005b806327f2bdde116101e15780633f10cf151161019d5780633f10cf15146104ed5780633fe229f714610503578063402bad8e14610523578063430694cf146105435780634b0babdd1461057a578063568914121461059a57005b806327f2bdde146104135780632fd99c001461043357806332315fc41461046357806332ed5b12146104835780633a3bed00146104b75780633de39c11146104d757005b806314621a3a1161023057806314621a3a14610361578063158ef93e146103815780631626ba7e146103b2578063184a0ae9146103d25780631c3e89f4146103e85780632229a0e2146103fe57005b806301a598a61461027257806306fdde03146102c0578063088af182146102e25780630d6680871461031d5780630f9a85531461034157005b3661027057005b005b34801561027e57600080fd5b506102a661028d3660046136b7565b600e602052600090815260409020805460019091015482565b604080519283526020830191909152015b60405180910390f35b3480156102cc57600080fd5b506102d56108e9565b6040516102b7919061371f565b3480156102ee57600080fd5b506103046102fd3660046137e7565b6020015190565b6040516001600160e01b031990911681526020016102b7565b34801561032957600080fd5b5061033360085481565b6040519081526020016102b7565b34801561034d57600080fd5b5061027061035c3660046138b1565b610977565b34801561036d57600080fd5b5061027061037c366004613914565b610a48565b34801561038d57600080fd5b506000546103a290600160b01b900460ff1681565b60405190151581526020016102b7565b3480156103be57600080fd5b506103046103cd366004613974565b610bc0565b3480156103de57600080fd5b5061033360025481565b3480156103f457600080fd5b5061033360045481565b34801561040a57600080fd5b50601154610333565b34801561041f57600080fd5b5061033361042e366004613a91565b610c0d565b34801561043f57600080fd5b506103a261044e366004613b62565b600c6020526000908152604090205460ff1681565b34801561046f57600080fd5b5061033361047e366004613b7b565b610cc7565b34801561048f57600080fd5b506104a361049e366004613b62565b610d13565b6040516102b7989796959493929190613bdd565b3480156104c357600080fd5b506102706104d2366004613c48565b610e76565b3480156104e357600080fd5b5061033360075481565b3480156104f957600080fd5b5061033360035481565b34801561050f57600080fd5b5061027061051e366004613b62565b610f0b565b34801561052f57600080fd5b5061027061053e366004613ce8565b610f84565b34801561054f57600080fd5b5061056361055e366004613b62565b610f9c565b6040516102b79b9a99989796959493929190613dc1565b34801561058657600080fd5b50610270610595366004613b62565b6112d5565b3480156105a657600080fd5b5061033360095481565b3480156105bc57600080fd5b50600a546105d0906001600160a01b031681565b6040516001600160a01b0390911681526020016102b7565b3480156105f457600080fd5b506103a2610603366004613eb7565b600192915050565b34801561061757600080fd5b50610270610626366004613b62565b611499565b34801561063757600080fd5b506103a2610646366004613eb7565b600d60209081526000928352604080842090915290825290205460ff1681565b34801561067257600080fd5b506103336106813660046136b7565b6115a0565b34801561069257600080fd5b506102706106a1366004613eea565b6115bb565b3480156106b257600080fd5b5061033360055481565b3480156106c857600080fd5b50600454610333565b3480156106dd57600080fd5b506103a26106ec366004613b62565b600f6020526000908152604090205460ff1681565b34801561070d57600080fd5b5061033361071c366004613f7b565b611836565b34801561072d57600080fd5b5061033361073c366004613b62565b611885565b34801561074d57600080fd5b5061027061075c366004613b62565b6118a6565b34801561076d57600080fd5b5061027061077c366004614018565b611963565b34801561078d57600080fd5b5061027061079c3660046140fa565b611dab565b3480156107ad57600080fd5b50610333600b5481565b3480156107c357600080fd5b506103336107d236600461411c565b60008281526010602090815260408083206001600160a01b0385168452600b0190915290205492915050565b34801561080a57600080fd5b5061081e61081936600461413f565b611e30565b6040516102b79190614175565b34801561083757600080fd5b5061084b610846366004614207565b611ef8565b6040516102b791906142cb565b34801561086457600080fd5b50610333610873366004613b62565b6122cc565b34801561088457600080fd5b5061081e61089336600461430f565b6122f8565b3480156108a457600080fd5b50600554610333565b3480156108b957600080fd5b506000546105d0906201000090046001600160a01b031681565b3480156108df57600080fd5b5061033360065481565b600180546108f690614343565b80601f016020809104026020016040519081016040528092919081815260200182805461092290614343565b801561096f5780601f106109445761010080835404028352916020019161096f565b820191906000526020600020905b81548152906001019060200180831161095257829003601f168201915b505050505081565b80518251146109e85760405162461bcd60e51b815260206004820152603260248201527f45524332304775696c643a2057726f6e67206c656e677468206f662070726f706044820152716f73616c496473206f7220616d6f756e747360701b60648201526084015b60405180910390fd5b60005b8251811015610a4357610a3133848381518110610a0a57610a0a61437e565b6020026020010151848481518110610a2457610a2461437e565b60200260200101516123a5565b80610a3b816143aa565b9150506109eb565b505050565b600054600160b01b900460ff16610a715760405162461bcd60e51b81526004016109df906143c5565b6000610a7e838686611836565b6000818152600c602052604090205490915060ff1615610ae05760405162461bcd60e51b815260206004820152601960248201527f45524332304775696c643a20416c726561647920766f7465640000000000000060448201526064016109df565b610b4182610b3b836040517f19457468657265756d205369676e6564204d6573736167653a0a3332000000006020820152603c8101829052600090605c01604051602081830303815290604052805190602001209050919050565b90612663565b6001600160a01b0316836001600160a01b031614610ba15760405162461bcd60e51b815260206004820152601860248201527f45524332304775696c643a2057726f6e67207369676e6572000000000000000060448201526064016109df565b6000908152600c60205260409020805460ff1916600117905550505050565b600080610bd06106818585612663565b118015610bf057506000838152600f602052604090205460ff1615156001145b610bfb576000610c04565b630b135d3f60e11b5b90505b92915050565b60008054600160b01b900460ff16610c375760405162461bcd60e51b81526004016109df906143c5565b600554610c43336115a0565b1015610c615760405162461bcd60e51b81526004016109df906143fc565b84518651148015610c73575083518651145b610c8f5760405162461bcd60e51b81526004016109df9061444c565b6000865111610cb05760405162461bcd60e51b81526004016109df906144a0565b610cbd868686868661267f565b9695505050505050565b6001600160a01b038216600090815260126020526040812081908190610cee908590612817565b915091508115610d01579150610c079050565b610d0a856115a0565b92505050610c07565b60106020526000908152604090208054600182015460028301546006840180546001600160a01b03909416949293919291610d4d90614343565b80601f0160208091040260200160405190810160405280929190818152602001828054610d7990614343565b8015610dc65780601f10610d9b57610100808354040283529160200191610dc6565b820191906000526020600020905b815481529060010190602001808311610da957829003601f168201915b505050505090806007018054610ddb90614343565b80601f0160208091040260200160405190810160405280929190818152602001828054610e0790614343565b8015610e545780601f10610e2957610100808354040283529160200191610e54565b820191906000526020600020905b815481529060010190602001808311610e3757829003601f168201915b5050505060088301546009840154600a909401549293909260ff909116915088565b60005b8451811015610f0457610ef2858281518110610e9757610e9761437e565b6020026020010151858381518110610eb157610eb161437e565b6020026020010151858481518110610ecb57610ecb61437e565b6020026020010151858581518110610ee557610ee561437e565b6020026020010151610a48565b80610efc816143aa565b915050610e79565b5050505050565b333014610f695760405162461bcd60e51b815260206004820152602660248201527f45524332304775696c643a204f6e6c792063616c6c61626c65206279207468656044820152650819dd5a5b1960d21b60648201526084016109df565b6000908152600f60205260409020805460ff19166001179055565b610f9387878787878787612906565b50505050505050565b60008060006060806060806060600080600080601060008e815260200190815260200160002090508060000160009054906101000a90046001600160a01b031681600101548260020154836003018460040185600501866006018760070188600801548960090160009054906101000a900460ff168a600a01548780548060200260200160405190810160405280929190818152602001828054801561106b57602002820191906000526020600020905b81546001600160a01b0316815260019091019060200180831161104d575b5050505050975086805480602002602001604051908101604052809291908181526020016000905b8282101561113f5783829060005260206000200180546110b290614343565b80601f01602080910402602001604051908101604052809291908181526020018280546110de90614343565b801561112b5780601f106111005761010080835404028352916020019161112b565b820191906000526020600020905b81548152906001019060200180831161110e57829003601f168201915b505050505081526020019060010190611093565b5050505096508580548060200260200160405190810160405280929190818152602001828054801561119057602002820191906000526020600020905b81548152602001906001019080831161117c575b505050505095508480546111a390614343565b80601f01602080910402602001604051908101604052809291908181526020018280546111cf90614343565b801561121c5780601f106111f15761010080835404028352916020019161121c565b820191906000526020600020905b8154815290600101906020018083116111ff57829003601f168201915b5050505050945083805461122f90614343565b80601f016020809104026020016040519081016040528092919081815260200182805461125b90614343565b80156112a85780601f1061127d576101008083540402835291602001916112a8565b820191906000526020600020905b81548152906001019060200180831161128b57829003601f168201915b505050505093509b509b509b509b509b509b509b509b509b509b509b505091939597999b90929496989a50565b806112df336115a0565b101561134b5760405162461bcd60e51b815260206004820152603560248201527f45524332304775696c643a20556e61626c6520746f2072656c65617365206d6f6044820152741c99481d1bdad95b9cc81d1a185b881b1bd8dad959605a1b60648201526084016109df565b336000908152600e602052604090206001015442116113ac5760405162461bcd60e51b815260206004820152601f60248201527f45524332304775696c643a20546f6b656e73207374696c6c206c6f636b65640060448201526064016109df565b6113b533612a86565b6113bd612ab0565b336000908152600e60205260409020546113d79082612abf565b336000908152600e60205260409020556009546113f49082612abf565b600955600a5460405163f3fef3a360e01b8152336004820152602481018390526001600160a01b039091169063f3fef3a390604401600060405180830381600087803b15801561144357600080fd5b505af1158015611457573d6000803e3d6000fd5b505060408051338152602081018590527fc7798891864187665ac6dd119286e44ec13f014527aeeb2b8eb3fd413df9317993500190505b60405180910390a150565b6114a233612a86565b6114aa612ab0565b600a546040516311f9fbc960e21b8152336004820152602481018390526001600160a01b03909116906347e7ef2490604401600060405180830381600087803b1580156114f657600080fd5b505af115801561150a573d6000803e3d6000fd5b5050336000908152600e60205260409020546115299250905082612acb565b336000908152600e6020526040902055600854611547904290612acb565b336000908152600e60205260409020600101556009546115679082612acb565b60095560408051338152602081018390527fac87f20a77d28ee8bbb58ec87ea8fa968b3393efae1a368fd50b767c2847391c910161148e565b6001600160a01b03166000908152600e602052604090205490565b600054610100900460ff16806115d4575060005460ff16155b6116375760405162461bcd60e51b815260206004820152602e60248201527f496e697469616c697a61626c653a20636f6e747261637420697320616c72656160448201526d191e481a5b9a5d1a585b1a5e995960921b60648201526084016109df565b600054610100900460ff16158015611659576000805461ffff19166101011790555b6001600160a01b038a166116bd5760405162461bcd60e51b815260206004820152602560248201527f45524332304775696c643a20746f6b656e20697320746865207a65726f206164604482015264647265737360d81b60648201526084016109df565b84516116d09060019060208801906134bb565b506000805462010000600160b01b031916620100006001600160a01b038d16021790556040516116ff9061353f565b604051809103906000f08015801561171b573d6000803e3d6000fd5b50600a80546001600160a01b0319166001600160a01b0392831690811790915560005460405163485cc95560e01b81526201000090910490921660048301523060248301529063485cc95590604401600060405180830381600087803b15801561178457600080fd5b505af1158015611798573d6000803e3d6000fd5b505050506117ab89898989888888612906565b306000908152600d60209081526040808320632015d6c760e11b8452909152808220805460ff199081166001908117909255635cb7c64f60e11b84528284208054821683179055635a2bcc6b60e11b84529183208054909216179055805460ff60b01b1916600160b01b179055801561182a576000805461ff00191690555b50505050505050505050565b6040516bffffffffffffffffffffffff19606085901b16602082015260348101839052605481018290526000906074016040516020818303038152906040528051906020012090509392505050565b6011818154811061189557600080fd5b600091825260209091200154905081565b600160008281526010602052604090206009015460ff1660048111156118ce576118ce613ba5565b146118eb5760405162461bcd60e51b81526004016109df906144f1565b60008181526010602052604090206002015442116119575760405162461bcd60e51b8152602060048201526024808201527f45524332304775696c643a2050726f706f73616c206861736e7420656e646564604482015263081e595d60e21b60648201526084016109df565b61196081612ad7565b50565b600054600160b01b900460ff1661198c5760405162461bcd60e51b81526004016109df906143c5565b3330146119f25760405162461bcd60e51b815260206004820152602e60248201527f45524332304775696c643a204f6e6c792063616c6c61626c652062792045524360448201526d191833bab4b6321034ba39b2b63360911b60648201526084016109df565b81518351148015611a04575080518351145b611a845760405162461bcd60e51b815260206004820152604560248201527f45524332304775696c643a2057726f6e67206c656e677468206f6620746f2c2060448201527f66756e6374696f6e5369676e6174757265206f7220616c6c6f77616e63652061606482015264727261797360d81b608482015260a4016109df565b60005b8351811015611c7c578251600090849083908110611aa757611aa761437e565b60200260200101516001600160e01b0319161415611b185760405162461bcd60e51b815260206004820152602860248201527f45524332304775696c643a20456d70747920736967616e7475726573206e6f7460448201526708185b1b1bddd95960c21b60648201526084016109df565b818181518110611b2a57611b2a61437e565b6020026020010151600d6000868481518110611b4857611b4861437e565b60200260200101516001600160a01b03166001600160a01b031681526020019081526020016000206000858481518110611b8457611b8461437e565b60200260200101516001600160e01b0319166001600160e01b031916815260200190815260200160002060006101000a81548160ff021916908315150217905550838181518110611bd757611bd761437e565b60200260200101516001600160a01b03167f31e41e795ddf7710d216f93d4d9a1080ca53618ba00822e743d12f31a7dfc980848381518110611c1b57611c1b61437e565b6020026020010151848481518110611c3557611c3561437e565b6020026020010151604051611c629291906001600160e01b03199290921682521515602082015260400190565b60405180910390a280611c74816143aa565b915050611a87565b50306000908152600d60209081526040808320632015d6c760e11b845290915290205460ff16611d145760405162461bcd60e51b815260206004820152603b60248201527f45524332304775696c643a20736574436f6e6669672066756e6374696f6e206160448201527f6c6c6f77616e63652063616e74206265207475726e6564206f6666000000000060648201526084016109df565b306000908152600d60209081526040808320635cb7c64f60e11b845290915290205460ff16610a435760405162461bcd60e51b815260206004820152603e60248201527f45524332304775696c643a20736574416c6c6f77616e63652066756e6374696f60448201527f6e20616c6c6f77616e63652063616e74206265207475726e6564206f6666000060648201526084016109df565b6000828152601060205260409020600a01548190611dca903390610cc7565b1015611e185760405162461bcd60e51b815260206004820152601a60248201527f45524332304775696c643a20496e76616c696420616d6f756e7400000000000060448201526064016109df565b611e233383836123a5565b611e2c33612f2b565b5050565b6060600083516001600160401b03811115611e4d57611e4d613732565b604051908082528060200260200182016040528015611e76578160200160208202803683370190505b50905060005b8451811015611ef057611ec1858281518110611e9a57611e9a61437e565b6020026020010151858381518110611eb457611eb461437e565b6020026020010151610cc7565b828281518110611ed357611ed361437e565b602090810291909101015280611ee8816143aa565b915050611e7c565b509392505050565b600054606090600160b01b900460ff16611f245760405162461bcd60e51b81526004016109df906143c5565b600554611f30336115a0565b1015611f4e5760405162461bcd60e51b81526004016109df906143fc565b84518651148015611f60575083518651145b611f7c5760405162461bcd60e51b81526004016109df9061444c565b8151835114611ff35760405162461bcd60e51b815260206004820152603d60248201527f45524332304775696c643a2057726f6e67206c656e677468206f66206465736360448201527f72697074696f6e206f7220636f6e74656e74486173682061727261797300000060648201526084016109df565b60008651116120145760405162461bcd60e51b81526004016109df906144a0565b600083516001600160401b0381111561202f5761202f613732565b604051908082528060200260200182016040528015612058578160200160208202803683370190505b50845188519192509060009061206e9083612fbe565b905060005b828110156122be576000826001600160401b0381111561209557612095613732565b6040519080825280602002602001820160405280156120be578160200160208202803683370190505b5090506000836001600160401b038111156120db576120db613732565b60405190808252806020026020018201604052801561210e57816020015b60608152602001906001900390816120f95790505b5090506000846001600160401b0381111561212b5761212b613732565b604051908082528060200260200182016040528015612154578160200160208202803683370190505b5090506000806121648787612fca565b90505b86811015612249578e81815181106121815761218161437e565b602002602001015185838151811061219b5761219b61437e565b60200260200101906001600160a01b031690816001600160a01b0316815250508d81815181106121cd576121cd61437e565b60200260200101518483815181106121e7576121e761437e565b60200260200101819052508c81815181106122045761220461437e565b602002602001015183838151811061221e5761221e61437e565b602090810291909101015281612233816143aa565b9250508080612241906143aa565b915050612167565b506122898484848e89815181106122625761226261437e565b60200260200101518e8a8151811061227c5761227c61437e565b602002602001015161267f565b88868151811061229b5761229b61437e565b6020026020010181815250505050505080806122b6906143aa565b915050612073565b509198975050505050505050565b60008060006122dc846013612817565b9150915081156122ed579392505050565b505060095492915050565b6060600082516001600160401b0381111561231557612315613732565b60405190808252806020026020018201604052801561233e578160200160208202803683370190505b50905060005b835181101561239e5761236f8482815181106123625761236261437e565b60200260200101516115a0565b8282815181106123815761238161437e565b602090810291909101015280612396816143aa565b915050612344565b5092915050565b600054600160b01b900460ff166123ce5760405162461bcd60e51b81526004016109df906143c5565b600160008381526010602052604090206009015460ff1660048111156123f6576123f6613ba5565b146124135760405162461bcd60e51b81526004016109df906144f1565b8061241d846115a0565b101561246b5760405162461bcd60e51b815260206004820152601a60248201527f45524332304775696c643a20496e76616c696420616d6f756e7400000000000060448201526064016109df565b60008281526010602090815260408083206001600160a01b0387168452600b0190915290205481111561256b5760008281526010602090815260408083206001600160a01b0387168452600b019091529020546124e5906124cd908390612abf565b60008481526010602052604090206008015490612acb565b600083815260106020908152604080832060088101949094556001600160a01b0387168352600b9093019052205482907f994c1e2cd59a94ec7f932ab317a85dabd5f43917c5cfb959b751a9648140c0c2908590612544908590612abf565b604080516001600160a01b03909316835260208301919091520160405180910390a2612638565b60008281526010602090815260408083206001600160a01b0387168452600b019091529020546125b79061259f9083612abf565b60008481526010602052604090206008015490612abf565b600083815260106020908152604080832060088101949094556001600160a01b0387168352600b9093019052205482907f79f996adb5f064cd332cb02f590abdf662bafabcbe22469b8b316466e475c2c19085906126159085612abf565b604080516001600160a01b03909316835260208301919091520160405180910390a25b60009182526010602090815260408084206001600160a01b039095168452600b909401905291902055565b60008060006126728585612fd6565b91509150611ef081613043565b600b54604080513360601b6bffffffffffffffffffffffff1916602080830191909152426034830152605480830185905283518084039091018152607490920190925280519101206000916126d5906001612acb565b600b556015546126e6906001612acb565b601555600081815260106020526040902080546001600160a01b03191633178155426001820181905560025461271c9190612acb565b6002820155875161273690600383019060208b019061354c565b50865161274c90600483019060208a01906135a1565b50855161276290600583019060208901906135fa565b50845161277890600683019060208801906134bb565b50835161278e90600783019060208701906134bb565b5060006008820181905560098201805460ff19166001179055601554600a83015560405183917f288a29bca04edb18fcdb2c76d6e3b03b8a137c85c70d1a4cb8aacfa868d6051091a250601180546001810182556000919091527f31ecc21a745e3968a04e9570e4425bc18fa8019c68028196b546d1669c200c68018190559695505050505050565b600080600084116128605760405162461bcd60e51b8152602060048201526013602482015272045524332304775696c643a206964206973203606c1b60448201526064016109df565b6015548411156128b25760405162461bcd60e51b815260206004820152601a60248201527f45524332304775696c643a206e6f6e6578697374656e7420696400000000000060448201526064016109df565b60006128be84866131fe565b84549091508114156128d75760008092509250506128ff565b60018460010182815481106128ee576128ee61437e565b906000526020600020015492509250505b9250929050565b600054600160b01b900460ff16158061291e57503330145b6129905760405162461bcd60e51b815260206004820152603f60248201527f45524332304775696c643a204f6e6c792063616c6c61626c652062792045524360448201527f32306775696c6420697473656c66207768656e20696e697469616c697a65640060648201526084016109df565b600085116129fe5760405162461bcd60e51b815260206004820152603560248201527f45524332304775696c643a20766f74657320666f7220657865637574696f6e20604482015274068617320746f206265206d6f7265207468616e203605c1b60648201526084016109df565b60008111612a665760405162461bcd60e51b815260206004820152602f60248201527f45524332304775696c643a206c6f636b54696d652073686f756c64206265206860448201526e6967686572207468616e207a65726f60881b60648201526084016109df565b600296909655600394909455600492909255600555600655600755600855565b6001600160a01b038116600090815260126020526040902061196090612aab836115a0565b6132a9565b612abd60136009546132a9565b565b6000610c048284614536565b6000610c04828461454d565b600454600082815260106020526040902060080154108015612b1e5750600160008281526010602052604090206009015460ff166004811115612b1c57612b1c613ba5565b145b15612b6957600081815260106020526040808220600901805460ff191660021790555182917f55295d4ce992922fa2e5ffbf3a3dcdb367de0a15e125ace083456017fd22060f91a250565b6003546000828152601060205260409020600201544291612b8a9190612acb565b108015612bbc5750600160008281526010602052604090206009015460ff166004811115612bba57612bba613ba5565b145b15612c0757600081815260106020526040808220600901805460ff191660041790555182917f0126984176eaaeb6ba34a0bd7ee6e99c473c100f79bee0bb6d17f0f44c83f1f991a250565b600160008281526010602052604090206009015460ff166004811115612c2f57612c2f613ba5565b1415611960576000818152601060205260408120600901805460ff191660031790555b600082815260106020526040902060030154811015612efc5760008281526010602052604081206004018054612d2d919084908110612c9357612c9361437e565b906000526020600020018054612ca890614343565b80601f0160208091040260200160405190810160405280929190818152602001828054612cd490614343565b8015612d215780601f10612cf657610100808354040283529160200191612d21565b820191906000526020600020905b815481529060010190602001808311612d0457829003601f168201915b50505050506020015190565b60008481526010602052604090206003018054919250612d609184908110612d5757612d5761437e565b50600052600190565b612dac5760405162461bcd60e51b815260206004820152601c60248201527f45524332304775696c643a204e6f7420616c6c6f7765642063616c6c0000000060448201526064016109df565b6000838152601060205260408120600301805484908110612dcf57612dcf61437e565b60009182526020808320909101548683526010909152604090912060050180546001600160a01b039092169185908110612e0b57612e0b61437e565b9060005260206000200154601060008781526020019081526020016000206004018581548110612e3d57612e3d61437e565b90600052602060002001604051612e549190614565565b60006040518083038185875af1925050503d8060008114612e91576040519150601f19603f3d011682016040523d82523d6000602084013e612e96565b606091505b5050905080612ee75760405162461bcd60e51b815260206004820181905260248201527f45524332304775696c643a2050726f706f73616c2063616c6c206661696c656460448201526064016109df565b50508080612ef4906143aa565b915050612c52565b5060405181907f7b1bcf1ccf901a11589afff5504d59fd0a53780eed2a952adade0348985139e090600090a250565b600054600160b01b900460ff16612f545760405162461bcd60e51b81526004016109df906143c5565b60065415611960576000612f7f612f766007543a6132ea90919063ffffffff16565b60065490612fca565b9050804710611e2c576040516001600160a01b0383169082156108fc029083906000818181858888f19350505050158015610a43573d6000803e3d6000fd5b6000610c048284614617565b6000610c04828461462b565b60008082516041141561300d5760208301516040840151606085015160001a61300187828585613300565b945094505050506128ff565b825160401415613037576020830151604084015161302c8683836133ed565b9350935050506128ff565b506000905060026128ff565b600081600481111561305757613057613ba5565b14156130605750565b600181600481111561307457613074613ba5565b14156130c25760405162461bcd60e51b815260206004820152601860248201527f45434453413a20696e76616c6964207369676e6174757265000000000000000060448201526064016109df565b60028160048111156130d6576130d6613ba5565b14156131245760405162461bcd60e51b815260206004820152601f60248201527f45434453413a20696e76616c6964207369676e6174757265206c656e6774680060448201526064016109df565b600381600481111561313857613138613ba5565b14156131915760405162461bcd60e51b815260206004820152602260248201527f45434453413a20696e76616c6964207369676e6174757265202773272076616c604482015261756560f01b60648201526084016109df565b60048160048111156131a5576131a5613ba5565b14156119605760405162461bcd60e51b815260206004820152602260248201527f45434453413a20696e76616c6964207369676e6174757265202776272076616c604482015261756560f01b60648201526084016109df565b815460009081905b8082101561325c57600061321a838361341c565b90508486828154811061322f5761322f61437e565b9060005260206000200154111561324857809150613256565b61325381600161454d565b92505b50613206565b60008211801561329157508385613274600185614536565b815481106132845761328461437e565b9060005260206000200154145b156132a157610d0a600183614536565b509050610c07565b601554806132b684613473565b1015610a43578254600180820185556000858152602080822090930193909355938401805494850181558252902090910155565b60008183106132f95781610c04565b5090919050565b6000807f7fffffffffffffffffffffffffffffff5d576e7357a4501ddfe92f46681b20a083111561333757506000905060036133e4565b8460ff16601b1415801561334f57508460ff16601c14155b1561336057506000905060046133e4565b6040805160008082526020820180845289905260ff881692820192909252606081018690526080810185905260019060a0016020604051602081039080840390855afa1580156133b4573d6000803e3d6000fd5b5050604051601f1901519150506001600160a01b0381166133dd576000600192509250506133e4565b9150600090505b94509492505050565b6000806001600160ff1b03831660ff84901c601b0161340e87828885613300565b935093505050935093915050565b6000600261342a818461464a565b61343560028661464a565b61343f919061454d565b6134499190614617565b613454600284614617565b61345f600286614617565b613469919061454d565b610c04919061454d565b805460009061348457506000919050565b8154829061349490600190614536565b815481106134a4576134a461437e565b90600052602060002001549050919050565b919050565b8280546134c790614343565b90600052602060002090601f0160209004810192826134e9576000855561352f565b82601f1061350257805160ff191683800117855561352f565b8280016001018555821561352f579182015b8281111561352f578251825591602001919060010190613514565b5061353b929150613634565b5090565b61063d8061465f83390190565b82805482825590600052602060002090810192821561352f579160200282015b8281111561352f57825182546001600160a01b0319166001600160a01b0390911617825560209092019160019091019061356c565b8280548282559060005260206000209081019282156135ee579160200282015b828111156135ee57825180516135de9184916020909101906134bb565b50916020019190600101906135c1565b5061353b929150613649565b82805482825590600052602060002090810192821561352f579160200282018281111561352f578251825591602001919060010190613514565b5b8082111561353b5760008155600101613635565b8082111561353b57600061365d8282613666565b50600101613649565b50805461367290614343565b6000825580601f10613682575050565b601f0160209004906000526020600020908101906119609190613634565b80356001600160a01b03811681146134b657600080fd5b6000602082840312156136c957600080fd5b610c04826136a0565b6000815180845260005b818110156136f8576020818501810151868301820152016136dc565b8181111561370a576000602083870101525b50601f01601f19169290920160200192915050565b602081526000610c0460208301846136d2565b634e487b7160e01b600052604160045260246000fd5b604051601f8201601f191681016001600160401b038111828210171561377057613770613732565b604052919050565b600082601f83011261378957600080fd5b81356001600160401b038111156137a2576137a2613732565b6137b5601f8201601f1916602001613748565b8181528460208386010111156137ca57600080fd5b816020850160208301376000918101602001919091529392505050565b6000602082840312156137f957600080fd5b81356001600160401b0381111561380f57600080fd5b61381b84828501613778565b949350505050565b60006001600160401b0382111561383c5761383c613732565b5060051b60200190565b600082601f83011261385757600080fd5b8135602061386c61386783613823565b613748565b82815260059290921b8401810191818101908684111561388b57600080fd5b8286015b848110156138a6578035835291830191830161388f565b509695505050505050565b600080604083850312156138c457600080fd5b82356001600160401b03808211156138db57600080fd5b6138e786838701613846565b935060208501359150808211156138fd57600080fd5b5061390a85828601613846565b9150509250929050565b6000806000806080858703121561392a57600080fd5b8435935060208501359250613941604086016136a0565b915060608501356001600160401b0381111561395c57600080fd5b61396887828801613778565b91505092959194509250565b6000806040838503121561398757600080fd5b8235915060208301356001600160401b038111156139a457600080fd5b61390a85828601613778565b600082601f8301126139c157600080fd5b813560206139d161386783613823565b82815260059290921b840181019181810190868411156139f057600080fd5b8286015b848110156138a657613a05816136a0565b83529183019183016139f4565b600082601f830112613a2357600080fd5b81356020613a3361386783613823565b82815260059290921b84018101918181019086841115613a5257600080fd5b8286015b848110156138a65780356001600160401b03811115613a755760008081fd5b613a838986838b0101613778565b845250918301918301613a56565b600080600080600060a08688031215613aa957600080fd5b85356001600160401b0380821115613ac057600080fd5b613acc89838a016139b0565b96506020880135915080821115613ae257600080fd5b613aee89838a01613a12565b95506040880135915080821115613b0457600080fd5b613b1089838a01613846565b94506060880135915080821115613b2657600080fd5b613b3289838a01613778565b93506080880135915080821115613b4857600080fd5b50613b5588828901613778565b9150509295509295909350565b600060208284031215613b7457600080fd5b5035919050565b60008060408385031215613b8e57600080fd5b613b97836136a0565b946020939093013593505050565b634e487b7160e01b600052602160045260246000fd5b60058110613bd957634e487b7160e01b600052602160045260246000fd5b9052565b600061010060018060a01b038b168352896020840152886040840152806060840152613c0b818401896136d2565b90508281036080840152613c1f81886136d2565b9150508460a0830152613c3560c0830185613bbb565b8260e08301529998505050505050505050565b60008060008060808587031215613c5e57600080fd5b84356001600160401b0380821115613c7557600080fd5b613c8188838901613846565b95506020870135915080821115613c9757600080fd5b613ca388838901613846565b94506040870135915080821115613cb957600080fd5b613cc5888389016139b0565b93506060870135915080821115613cdb57600080fd5b5061396887828801613a12565b600080600080600080600060e0888a031215613d0357600080fd5b505085359760208701359750604087013596606081013596506080810135955060a0810135945060c0013592509050565b6000815180845260208085019450848260051b860182860160005b85811015613d79578383038952613d678383516136d2565b98850198925090840190600101613d4f565b5090979650505050505050565b600081518084526020808501945080840160005b83811015613db657815187529582019590820190600101613d9a565b509495945050505050565b6000610160820160018060a01b03808f1684528d60208501528c60408501526101606060850152818c518084526101808601915060208e01935060005b81811015613e1e5784518416835260209485019490920191600101613dfe565b50508481036080860152613e32818d613d34565b9250505082810360a0840152613e48818a613d86565b905082810360c0840152613e5c81896136d2565b905082810360e0840152613e7081886136d2565b91505084610100830152613e88610120830185613bbb565b826101408301529c9b505050505050505050505050565b80356001600160e01b0319811681146134b657600080fd5b60008060408385031215613eca57600080fd5b613ed3836136a0565b9150613ee160208401613e9f565b90509250929050565b60008060008060008060008060006101208a8c031215613f0957600080fd5b613f128a6136a0565b985060208a0135975060408a0135965060608a0135955060808a0135945060a08a01356001600160401b03811115613f4957600080fd5b613f558c828d01613778565b94505060c08a0135925060e08a013591506101008a013590509295985092959850929598565b600080600060608486031215613f9057600080fd5b613f99846136a0565b95602085013595506040909401359392505050565b600082601f830112613fbf57600080fd5b81356020613fcf61386783613823565b82815260059290921b84018101918181019086841115613fee57600080fd5b8286015b848110156138a6578035801515811461400b5760008081fd5b8352918301918301613ff2565b60008060006060848603121561402d57600080fd5b83356001600160401b038082111561404457600080fd5b614050878388016139b0565b945060209150818601358181111561406757600080fd5b8601601f8101881361407857600080fd5b803561408661386782613823565b81815260059190911b8201840190848101908a8311156140a557600080fd5b928501925b828410156140ca576140bb84613e9f565b825292850192908501906140aa565b965050505060408601359150808211156140e357600080fd5b506140f086828701613fae565b9150509250925092565b6000806040838503121561410d57600080fd5b50508035926020909101359150565b6000806040838503121561412f57600080fd5b82359150613ee1602084016136a0565b6000806040838503121561415257600080fd5b82356001600160401b038082111561416957600080fd5b6138e7868387016139b0565b602081526000610c046020830184613d86565b600082601f83011261419957600080fd5b813560206141a961386783613823565b82815260059290921b840181019181810190868411156141c857600080fd5b8286015b848110156138a65780356001600160401b038111156141eb5760008081fd5b6141f98986838b0101613778565b8452509183019183016141cc565b600080600080600060a0868803121561421f57600080fd5b85356001600160401b038082111561423657600080fd5b61424289838a016139b0565b9650602088013591508082111561425857600080fd5b61426489838a01613a12565b9550604088013591508082111561427a57600080fd5b61428689838a01613846565b9450606088013591508082111561429c57600080fd5b6142a889838a01614188565b935060808801359150808211156142be57600080fd5b50613b5588828901613a12565b6020808252825182820181905260009190848201906040850190845b81811015614303578351835292840192918401916001016142e7565b50909695505050505050565b60006020828403121561432157600080fd5b81356001600160401b0381111561433757600080fd5b61381b848285016139b0565b600181811c9082168061435757607f821691505b6020821081141561437857634e487b7160e01b600052602260045260246000fd5b50919050565b634e487b7160e01b600052603260045260246000fd5b634e487b7160e01b600052601160045260246000fd5b60006000198214156143be576143be614394565b5060010190565b6020808252601a908201527f45524332304775696c643a204e6f7420696e6974696c697a6564000000000000604082015260600190565b60208082526030908201527f45524332304775696c643a204e6f7420656e6f75676820746f6b656e7320746f60408201526f0818dc99585d19481c1c9bdc1bdcd85b60821b606082015260800190565b60208082526034908201527f45524332304775696c643a2057726f6e67206c656e677468206f6620746f2c2060408201527364617461206f722076616c75652061727261797360601b606082015260800190565b60208082526031908201527f45524332304775696c643a20746f2c20646174612076616c7565206172726179604082015270732063616e6e6f7420626520656d70747960781b606082015260800190565b60208082526025908201527f45524332304775696c643a2050726f706f73616c20616c72656164792065786560408201526418dd5d195960da1b606082015260800190565b60008282101561454857614548614394565b500390565b6000821982111561456057614560614394565b500190565b600080835481600182811c91508083168061458157607f831692505b60208084108214156145a157634e487b7160e01b86526022600452602486fd5b8180156145b557600181146145c6576145f3565b60ff198616895284890196506145f3565b60008a81526020902060005b868110156145eb5781548b8201529085019083016145d2565b505084890196505b509498975050505050505050565b634e487b7160e01b600052601260045260246000fd5b60008261462657614626614601565b500490565b600081600019048311821515161561464557614645614394565b500290565b60008261465957614659614601565b50069056fe60806040526001805460ff60a01b1916905534801561001d57600080fd5b506106108061002d6000396000f3fe608060405234801561001057600080fd5b506004361061007d5760003560e01c8063485cc9551161005b578063485cc955146100ee578063f3fef3a314610101578063f851a44014610114578063fc0c546a1461013f57600080fd5b8063158ef93e1461008257806327e235e3146100ab57806347e7ef24146100d9575b600080fd5b60015461009690600160a01b900460ff1681565b60405190151581526020015b60405180910390f35b6100cb6100b93660046104fb565b60026020526000908152604090205481565b6040519081526020016100a2565b6100ec6100e7366004610516565b610158565b005b6100ec6100fc366004610540565b6102a4565b6100ec61010f366004610516565b61039f565b600154610127906001600160a01b031681565b6040516001600160a01b0390911681526020016100a2565b600054610127906201000090046001600160a01b031681565b600154600160a01b900460ff166101b65760405162461bcd60e51b815260206004820152601a60248201527f546f6b656e5661756c743a204e6f7420696e6974696c697a656400000000000060448201526064015b60405180910390fd5b6001546001600160a01b031633146101cd57600080fd5b6000546040516323b872dd60e01b81526001600160a01b0384811660048301523060248301526044820184905262010000909204909116906323b872dd90606401602060405180830381600087803b15801561022857600080fd5b505af115801561023c573d6000803e3d6000fd5b505050506040513d601f19601f820116820180604052508101906102609190610573565b506001600160a01b03821660009081526002602052604090205461028490826104c0565b6001600160a01b0390921660009081526002602052604090209190915550565b600054610100900460ff16806102bd575060005460ff16155b6103205760405162461bcd60e51b815260206004820152602e60248201527f496e697469616c697a61626c653a20636f6e747261637420697320616c72656160448201526d191e481a5b9a5d1a585b1a5e995960921b60648201526084016101ad565b600054610100900460ff16158015610342576000805461ffff19166101011790555b600080546001600160a01b03808616620100000262010000600160b01b031990921691909117909155600180546001600160a81b03191691841691909117600160a01b179055801561039a576000805461ff00191690555b505050565b600154600160a01b900460ff166103f85760405162461bcd60e51b815260206004820152601a60248201527f546f6b656e5661756c743a204e6f7420696e6974696c697a656400000000000060448201526064016101ad565b6001546001600160a01b0316331461040f57600080fd5b60005460405163a9059cbb60e01b81526001600160a01b03848116600483015260248201849052620100009092049091169063a9059cbb90604401602060405180830381600087803b15801561046457600080fd5b505af1158015610478573d6000803e3d6000fd5b505050506040513d601f19601f8201168201806040525081019061049c9190610573565b506001600160a01b03821660009081526002602052604090205461028490826104d3565b60006104cc82846105ab565b9392505050565b60006104cc82846105c3565b80356001600160a01b03811681146104f657600080fd5b919050565b60006020828403121561050d57600080fd5b6104cc826104df565b6000806040838503121561052957600080fd5b610532836104df565b946020939093013593505050565b6000806040838503121561055357600080fd5b61055c836104df565b915061056a602084016104df565b90509250929050565b60006020828403121561058557600080fd5b815180151581146104cc57600080fd5b634e487b7160e01b600052601160045260246000fd5b600082198211156105be576105be610595565b500190565b6000828210156105d5576105d5610595565b50039056fea2646970667358221220ed228133b5b6a1d4223004479c53dd0eb4479b5ae101c8120491a2f3b4e3663f64736f6c63430008080033a264697066735822122003fc2f1e5536d9f7a1e06cdb0a25a9b11f1e4a460e7ff4845a9b49b0bf1ee12e64736f6c63430008080033",
  "linkReferences": {},
  "deployedLinkReferences": {}
}