{
  "_format": "hh-sol-artifact-1",
  "contractName": "MessageLogger",
  "sourceName": "contracts/utils/MessageLogger.sol",
  "abi": [
    {
      "anonymous": false,
      "inputs": [
        {
          "indexed": true,
          "internalType": "bytes32",
          "name": "topic",
          "type": "bytes32"
        },
        {
          "indexed": false,
          "internalType": "string",
          "name": "message",
          "type": "string"
        },
        {
          "indexed": false,
          "internalType": "address",
          "name": "sender",
          "type": "address"
        }
      ],
      "name": "Message",
      "type": "event"
    },
    {
      "inputs": [
        {
          "internalType": "bytes32",
          "name": "topic",
          "type": "bytes32"
        },
        {
          "internalType": "string",
          "name": "message",
          "type": "string"
        }
      ],
      "name": "broadcast",
      "outputs": [],
      "stateMutability": "nonpayable",
      "type": "function"
    }
  ],
  "bytecode": "0x608060405234801561001057600080fd5b506101f0806100206000396000f3fe608060405234801561001057600080fd5b506004361061002b5760003560e01c8063904cac2e14610030575b600080fd5b61004361003e366004610099565b610045565b005b817fd7b000c5a4735833dbebf83fe0a810056948c440b6c550b18d8639d607a7bb818233604051610077929190610154565b60405180910390a25050565b634e487b7160e01b600052604160045260246000fd5b600080604083850312156100ac57600080fd5b82359150602083013567ffffffffffffffff808211156100cb57600080fd5b818501915085601f8301126100df57600080fd5b8135818111156100f1576100f1610083565b604051601f8201601f19908116603f0116810190838211818310171561011957610119610083565b8160405282815288602084870101111561013257600080fd5b8260208601602083013760006020848301015280955050505050509250929050565b604081526000835180604084015260005b818110156101825760208187018101516060868401015201610165565b81811115610194576000606083860101525b506001600160a01b0393909316602083015250601f91909101601f19160160600191905056fea26469706673582212200626dd0597ba4d45660d952462834c6739d9ae132d6df5069fa664e1ee433b9864736f6c63430008080033",
  "linkReferences": {},
  "deployedLinkReferences": {}
}